:020000040800F2
:10000000605100208102000895430008ED39000886
:10001000C5420008F50A00080D5400080000000061
:10002000000000000000000000000000C101000806
:100030006D0F0008000000001D02000811480008B4
:100040009B0200089B0200089B0200089B0200081C
:100050009B0200089B0200089B0200089B0200080C
:100060009B0200089B0200089B020008750E000816
:10007000810E00089B0200088D0E00089B020008FC
:100080009B020008990E00089B0200089B020008D2
:10009000F90A00089B0200089B0200089B02000866
:1000A0009B0200089B0200089B0200089B020008BC
:1000B000154900089B0200089B0200089B020008EB
:1000C0009B0200089B0200089B0200089B0200089C
:1000D0009B020008DD5300089B0200089B020008F9
:1000E0009B0200089B0200089B0200089B0200087C
:1000F0009B0200089B0200089B0200089B0200086C
:100100009B0200089B0200089B0200089B0200085B
:100110009B0200089B0200089B0200089B0200084B
:100120009B020008A50E0008B10E00089B02000803
:100130009B0200089B0200089B0200089B0200082B
:100140009B020008050B00089B0200089B020008A8
:100150009B020008BD0E00089B020008F553000832
:100160009B0200089B0200089B0200089B020008FB
:100170009B0200089B0200089B0200080000000090
:100180009B0200089B020008D94F0008F14F0008AD
:100190009B0200089B0200089B0200089B020008CB
:1001A00000000000000000009B020008DFF80CD0F7
:1001B00000F064FC004800476B72000860510020AA
:1001C0002C4B19680868B0E8F04F80F30988BFF33A
:1001D0006F8F4FF0000080F311887047000000001F
:1001E00008480068006880F308884FF0000080F33A
:1001F000148862B661B6BFF34F8FBFF36F8F00DF15
:1002000000BF00BF08ED00E0DFF80C00016841F41A
:1002100070010160704700BF88ED00E0EFF30980D6
:10022000BFF36F8F134B1A681EF0100F08BF20ED3D
:10023000108A20E9F04F106009B44FF0500080F3AD
:100240001188BFF34F8FBFF36F8F07F0F5FF4FF0AB
:10025000000080F3118809BC19680868B0E8F04F05
:100260001EF0100F08BFB0EC108A80F30988BFF3AE
:100270006F8F704740010020EFF30580704700004A
:100280000648804706480047FEE7FEE7FEE7FEE730
:10029000FEE7FEE7FEE7FEE7FEE7FEE7C1480008EF
:1002A000AD01000801804280436070472DE9F04FA6
:1002B0000288D0F80480B0F802904888D1F804E0B1
:1002C00083B04FF0000A1746824207BF098889456C
:1002D0006FF0020003B018BFBDE8F08F4FEA990B32
:1002E00002EB42000290C9F3400001900EEB8A013C
:1002F000BBF1000F2FD0029801EB820C01EB8004C0
:10030000434601EBC205CDF800C0584653F8046BD4
:100310000E6053F8046BCCF8006053F8086B2E6045
:1003200053F8046C266001EB02110CEB021C05EB88
:10033000021504EB0214401EE8D1009808EB0B18DC
:1003400000EB820000EB820000EB8201ABF10100C8
:10035000504301EB001119F0030C19D0A8F104036C
:10036000A1EB82011CF0010F04D001EB820153F8D4
:10037000040F0860019848B15C6841F8224001EB25
:10038000C20153F8084F0C60401EF5D108EB8C08F1
:100390000AF101001FFA80FA781E07043F0CA5D16C
:1003A00003B00020BDE8F08F2DE9F05F0546002086
:1003B00092469B4688460646814640241BE02846D6
:1003C00041464746224600F052FA53465A46C01A62
:1003D000914110D311461846224600F039FA2D1AE1
:1003E00067EB01084F4622460120002100F030FA59
:1003F00017EB00094E41201EA4F10104DFDC484642
:1004000031462A464346BDE8F09F40EA01039B0778
:1004100003D009E008C9121F08C0042AFAD203E079
:1004200011F8013B00F8013B521EF9D27047D2B2DD
:1004300001E000F8012B491EFBD270470022F6E7CD
:1004400010B513460A4604461946FFF7F0FF20464A
:1004500010BD2DE9FE4F804681EA0300C00F0C4617
:10046000009021F0004123F00045B8EB0200A941C3
:1004700005D24046214690461C460B46024623F0D4
:100480000040104347D0270DC7F30A00C3F30A51B9
:100490000290401A019040286BDAC3F3130040F435
:1004A000801B0098924620B10023D2EB030A63EB35
:1004B0000B0B01985946C0F14002504600F0C8F9B4
:1004C00006460D4650465946019A00F0E0F910EBF9
:1004D00008006141002487EA115284EAE7731A4355
:1004E00040D0009A62B3019A012A4FEA075215DC04
:1004F000001B61EB02014FF0004202EA0752CDE916
:100500000042001C41F5801132462B4600F017FADC
:1005100003B0BDE8F08F40462146F9E7001B61EBD0
:100520000201001C41F5801300185B412018A2F560
:10053000001747EB030140EAD570B6196D4111E091
:100540006D084FEA360645EAC0754FEA0752001BB0
:1005500061EB0201001C41F5801149084FEA3000AF
:100560000019514132462B4603B0BDE8F04F00F070
:10057000D7B90098012240000023D0EB020263EBC0
:10058000E073009821464FEAE074B8EB000061EB9D
:100590000401E9E783F000435BE781F0004158E79D
:1005A0002DE9FE4F81EA030404F0004421F00041EC
:1005B00000944FF0000B23F0004350EA01045ED09A
:1005C00052EA03045BD0C3F30A54C1F30A552C4426
:1005D000A4F2F3340194A0FB0254C1F3130141F4DB
:1005E0008011C3F3130343F4801301FB024400FBA7
:1005F000034E840A970A44EA815447EA8357A4FBCE
:10060000076802958D0A05FB07854FEA932C04FBCA
:100610000C542705029D4FEA065847EA1637B5EBFA
:1006200008056EEB070C870E920E47EA811742EA27
:100630008312A7FB0201B6EB0B0164EB00042B0D48
:1006400043EA0C335E1844EB1C50DA465146E7FB94
:100650000201C5F313044FEA0B3343EA14534FEA84
:100660000432019C43EA0603A4F10C040294009CAA
:10067000CDE900B400F063F903B0BDE8F08F0020CD
:100680000146F9E72DE9F04D81EA030404F0004B3F
:1006900021F0004514464FF0000A23F0004150EAD3
:1006A000050220D054EA01021DD0C5F30A570246C4
:1006B000C5F31303C1F31300C1F30A5640F48015C8
:1006C00043F48013A7EB0608101BD64608F2FD384A
:1006D00073EB050002D308F1010801E092185B41B9
:1006E000B8F1000F03DA00200146BDE8F08D0020CC
:1006F0004FF48011064684460EE0171B73EB050786
:1007000005D3121B63EB050306434CEA010C4908B1
:100710004FEA300092185B4150EA0107EDD152EAEE
:10072000030012D082EA040083EA0501084305D0E1
:10073000101BAB4106D20122002306E000224FF03D
:10074000004302E06FF0010253101AEB06004CEB7D
:10075000085110EB0A0041EB0B01BDE8F04D00F031
:10076000DFB80EB5C10F80EAE0700844CA07002167
:1007700040F233438DE80E000A460B4600F0DFF8E6
:1007800003B000BD70B5C1F30A5201F0004500246A
:10079000C1F3130140F2FF3341F480119A4201DAB0
:1007A000002070BD40F233439A42A2F2334203DC90
:1007B000524200F05CF800E090402C43F1D04042FF
:1007C00070BD00F0004230F000400AD0C10D01F5CC
:1007D0006071C0F3160042EA0151C208400711439C
:1007E000704700200146704730B5041E71F10004C7
:1007F00004DB4FF00044404264EB0101141E73F12E
:10080000000405DB1C464FF00043524263EB040337
:10081000994208BF904230BD01F0004330B421F04E
:10082000004150EA010206D00A0DA2F56072C1F340
:100830001301002A02DC30BC00207047440F44EA58
:10084000C104C100E01830BC00EBC25000F031B868
:10085000202A04DB203A00FA02F100207047914080
:10086000C2F1200320FA03F3194390407047202A75
:1008700004DB203A21FA02F00021704721FA02F34A
:10088000D040C2F120029140084319467047202A07
:1008900006DBCB17203A41FA02F043EAE07306E0A8
:1008A00041FA02F3D040C2F12002914008431946B8
:1008B00070470029A8BF7047401C490008BF20F0BE
:1008C0000100704710B4B0FA80FC00FA0CF050EA56
:1008D000010404BF10BC704749B1CCF1200421FAD7
:1008E00004F411FA0CF118BF012121430843A3EBD2
:1008F0000C01CB1D4FEA00614FEA102042BF0020DF
:1009000010BC704700EBC35010440029A4BF10BCBA
:100910007047401C490008BF20F0010010BC704720
:1009200010B5141E73F1000408DA401C41F10001F7
:1009300092185B411A4301D120F0010010BD2DE94E
:10094000F04D92469B4611B1B1FA81F202E0B0FA45
:1009500080F220329046FFF77BFF04460F4640EAC4
:100960000A0041EA0B0153465A46084313D0114688
:1009700053EA010019D0C8F140025046FFF777FF53
:1009800005460E46504659464246FFF761FF08436A
:1009900005D0012004E020463946BDE8F08D002056
:1009A000054346EAE0762C4337430A986305E40A98
:1009B000A0EB08000022FD0A44EA47540A3002D5A1
:1009C00000200146E9E7010510196941DDE9084504
:1009D00000196941BDE8F04DA2E72DE9F04D002373
:1009E0001A461B1A8A4103DB00200146BDE8F08D40
:1009F000C1F30A52C1F3130141F480154FF0000B0B
:100A0000D10702D100186D41521E0027044640F262
:100A1000FF11384601EB620A3E468046024600203E
:100A20004FF48011FFF723FFC2197141BB1846EB49
:100A30000100B4EB030C75EB000C04D3E41A65EB76
:100A4000000517460E46241908F101006D41804645
:100A50003428E3DDF91946EB0600091BA84103D24F
:100A60004FF0FF32134601E0002213461BEB070054
:100A700046EB0A51BDE8F04DFFF752BF064C074D5B
:100A800006E0E06840F0010394E80700984710345E
:100A9000AC42F6D3FFF78EFB449000086490000848
:100AA0000EB540F2334102910021CDE900110A4612
:100AB0000B46FFF744FF03B000BD30B58C1810F8AB
:100AC000012B12F00F0301D110F8013B120906D1DE
:100AD00010F8012B03E010F8015B01F8015B5B1ECD
:100AE000F9D101E001F8013B521EFBD1A142E6D34E
:100AF000002030BDFEE70000014801F0DCB8000036
:100B000090040020014801F0D6B80000B80400208D
:100B100000B587B000910021029103910821049152
:100B20000649884201D1012303E00549884203D1E7
:100B30000223694600F060FF07B000BD900400206A
:100B4000B804002010B5044610488AB0844202D18F
:100B50000021084604E00E48844215D10E210120F0
:100B6000059100210122CDE9061200910191029127
:100B7000CDE903100E20CDE908206946204600F09B
:100B80009FFF204601F078FB0AB010BD90040020C2
:100B9000B80400200549884201D1022103E004493C
:100BA000884202D1102100F015BF70479004002048
:100BB000B80400201148124990ED091A0989D0EDB6
:100BC000130AC82919D200EE101A9FED0E2AB8EEAA
:100BD000C11AF8EE401AF8EEE00A81EE820A20EE21
:100BE000000A21EE001A20EE800ABDEEC11ABDEE09
:100BF000C00A80ED091A80ED130A704778090020B9
:100C00005C0F0020000048430B4A012313705B0275
:100C10005360030A13725072090A9172D072002055
:100C2000107350739073D073034604480322024933
:100C3000006807F011BC0000680900203C0000209B
:100C4000094ADFED0A0A0020B1EE080AB0EE001AE8
:100C500000EB800102EBC1010C31401C81EC030A66
:100C60000228F5DB70470000780900208FC2F53CB0
:100C700090ED061A80ED071AB0F90210B0F90420C1
:100C8000891A00EE101A1D4AF8EEC00AC0ED060AD5
:100C900090ED080A30EE200A10EE101A80ED080AD6
:100CA000914201DD9FED160A164A10EE101A80EDF2
:100CB000080A914201D99FED140A4FF47A5280ED4F
:100CC000080AD0ED031A90ED042A61EEA01A42EE54
:100CD000001A30EEC10AD0ED050A40EE801ABDEED2
:100CE000E10A10EE101A4162914200DB1146074AF8
:100CF0004162914200DC11464162704700606A46E1
:100D000000606A4600606AC600606AC680C1FFFF74
:100D10002DE9F0434E484F494F4ADFF840910768AC
:100D2000B1F900008B7899F8005014684C494FF0E5
:100D3000010C40F6B83600220FB9012C01D024B1C5
:100D400005E081F801C08A7011E0012F07D054EA54
:100D5000070808D0012B12D0012C0BD027E081F816
:100D600002C04A7003E081F802C081F801C0012B83
:100D700005D01CE0012F1AD18A704A7017E0394C57
:100D800027785FB122700C78641C0C708C7894B159
:100D900000248C704C7884B100244C70A0F5A064C1
:100DA000DC3C0CD03048007B042808D030468C78DE
:100DB000012C0CD01BE00124EBE70124EDE7032D0F
:100DC00002D04FF49670F2E74FF42F60EFE74F78C0
:100DD000012F0CD18F88B7F5487F01D940428A8016
:100DE000B0428E8801D1B61C00E0761C8E8023B103
:100DF000022B02D0012B0FD016E04978012900D137
:100E000014B1012C04D00FE000280DDA00200BE013
:100E100051B90028FADC07E04978012900D11CB15A
:100E2000012C01D101B940421049032D02D10C8897
:100E3000641C0C800C88B4F5167F02D989F8002058
:100E40000A800B4942424A804885BDE8F083000091
:100E50005C0000207000002060000020D500002011
:100E60000C000020D6000020840E00200601002087
:100E700078090020014801F045BA000098070020D9
:100E8000014801F03FBA0000D8060020014801F0F7
:100E900039BA000078060020014801F033BA00009A
:100EA00038070020014801F02DBA00005808002042
:100EB000014801F027BA0000F8070020014801F0BE
:100EC00021BA0000B808002001681823CAB2103AFD
:100ED000B2FBF3F2054B6FF30901032A9B5CC36578
:100EE00000D9091D8165084670470000088E00087A
:100EF00010B5014600208B698A6A4FF0C07453B167
:100F0000B3F5005F15D072B1012A0CD0022A0AD0C5
:100F1000032A09D104E01AB1012A06D0022A03D11A
:100F2000C96AC90100D5012010BDC96AA142FAD021
:100F300010BD002AF7D0012AF2D0022AF3D0032AEA
:100F4000F3D010BD30B50468256825F480252560F0
:100F5000046863608368402B036803D0996000686D
:100F6000C26030BD9A600068C16030BD7047704794
:100F700009490020097849B1012902D0022903D08A
:100F800004E041F27C5001E041F65E200349424218
:100F90004A804885704700006D000020D809002075
:100FA00010B558B1084C491E0BD310F8013B534003
:100FB000DBB234F8133083EA1222F4E74FF6FF7005
:100FC00010BD104610BD0000088C000810B5054C7F
:100FD00004E000BF10F8013B5340E25C491EF9D227
:100FE000104610BD088B00082DE9F05FFC4D0F4640
:100FF0002DED068B044640F2D47929789FEDF98ACD
:10100000DFF8E4A3B1B1BAF916004FF4B472484561
:1010100002DC00F62B0002E0A0F5B850D4385043B3
:1010200000EE100A491EF8EEC00A80EE880A84ED30
:10103000010A2970ED480078DFEDED9A9FEDED9AF9
:10104000DFF8B483ED4EDFEDEE8A80B101287DD16B
:10105000EC48DFF894B30123007BABF1540B01287B
:1010600075D0042872D12869002871D01BE1DC4DAD
:10107000DFF89493243595ED01AA85ED00AAB9F91E
:10108000080000F132019FEDE18A642911D9FFF7D0
:1010900068FB9FEDDF0B53EC102BFFF781FA9FED00
:1010A000DE0B53EC102BFFF7EDFAFFF7B5FB686092
:1010B00001E085ED018AD5ED010AB0EE4A0A03F0A0
:1010C00063FA85ED010AD4ED010A30EE800A01E0F1
:1010D00030EE680A10EE100A84ED010AB042F7DA29
:1010E0004FEA080110EE100A884204D930EE280AAF
:1010F00084ED010AF6E7BA491C3191ED010A81ED50
:10110000000AB9F9060000F13202642A0AD900EE99
:10111000900AF8EEE00A9FEDC21AC0EE811AC1ED06
:10112000011A01E081ED018AD1ED010A03F02CFAE8
:1011300081ED010AD7ED010ABA4930EEC00A10EE7E
:10114000100A87ED010A884205DD02E00EE011E099
:10115000A6E0B0EE690A10EE100AB34987ED010A65
:10116000884201D8B0EE409A87ED019ABDEC068B1B
:10117000BDE8F09FAD4800224FF4B4710270BBF996
:101180001600DFF8ACC2A0F5B050D038484300EEEE
:10119000100AF8EEC00A80EE880A10EE101A6145B7
:1011A00000DBAB7000EE100AA249F8EEC00A80EE38
:1011B000880A10EE100A884200DCAA70BAF91600FC
:1011C000484502DC00F62B0102E0A0F5B851D43905
:1011D0004FF4B47C01FB0CF100EE101ADFF858C29A
:1011E000F8EEC00A80EE880A10EE101A614500D9A8
:1011F000EB7048454FF4B47102DC00F62B0002E0BE
:10120000A0F5B850D438484300EE100A8B49F8EEE8
:10121000C00A80EE880A10EE100A884200DDEA70EB
:10122000A9789FED870A6E484078401CC0B201291A
:1012300001D029B10BE0D7ED010A30EEC00A03E07E
:10124000D7ED010A30EE800A87ED010A6870E87870
:101250009FED7C0A012803D038B194ED010A0FE01C
:10126000D4ED010A30EE800A03E0D4ED010A30EE3D
:10127000C00A84ED010A03E030EE680A84ED010A39
:1012800010EE100AB042F7DA4FEA080110EE100A29
:1012900088427FF66BAF30EE280A84ED010AF5E74D
:1012A0002B6104F0E7F8684890ED001A84ED011A0C
:1012B000B0EE410A04E000BF30EE680A84ED010A96
:1012C00010EE100AB042F7DA4FEA080110EE100AE9
:1012D000884204D930EE280A84ED010AF6E710EEC0
:1012E000100A5649884201DD9FED580A524910EE16
:1012F000100A84ED010A884201D99FED550A55482C
:1013000084ED010A474990ED000A10EE100AF0EE54
:10131000400A87ED010A884201DDB0EE690A10EE4D
:10132000100A414987ED010A884201D8B0EE409A7F
:10133000B2EE040A87ED019A60EE800A4FF4B471B0
:10134000FDEEE00A10EE900A61EE000AA881FDEEC3
:10135000E00A10EE900AE881BBF91600A0F5B05043
:10136000D038484300EE900AB8EEE01AC1EE080A01
:1013700010EE901A00EE900AB142B8EEE01AC1EEFB
:10138000080A09DD70EEE80AFDEEE00A10EE900AA8
:1013900000EB8000400005E060EE800AFDEEE00A10
:1013A00010EE900AA880BAF91600484502DC00F653
:1013B0002B0202E0A0F5B852D43A4FF4B4735A436A
:1013C00000EE902AB8EEE01AC1EE080A10EE902A5C
:1013D000B24255DD484519463EDC00F62B003EE0A2
:1013E0000801002000F8FF45E80F00206C000020F5
:1013F000D0FED94179176FC1000034C300003443D7
:101400000000B443840E00207000002000000000A3
:10141000000000000000E03F0000000000A0844049
:1014200000002544D0FED94179176FC16E0000201D
:101430000000A04100006041000082C20000824222
:101440000AD7A33D0AD7233FB00000200000824204
:10145000000082C2AC000020A0F5B850D438484348
:1014600000EE900AB8EEE01AC1EE080A70EEE80A43
:10147000FDEEE00A10EE900A00EB8000400016E05E
:1014800048454FF4B47102DC00F62B0002E0A0F5F1
:10149000B850D438484300EE900AB8EEE01AC1EED6
:1014A000080A60EE800AFDEEE00A10EE900AE8807D
:1014B0000A48D0ED000A60EE800AFDEEE00A10EE68
:1014C000900A28810648D0ED000A20EE800ABDEE81
:1014D000C00A10EE100A688148E600008000002073
:1014E000840000202DE9F05FDB4FDFF87083DFF828
:1014F00070930C002DED068B05469FEDDAAADFF800
:1015000068A3DFEDDA9ADFF868B3DFEDDA8ADFEDA2
:10151000DAAA9FEDDA9ADA4E9FEDDA8A7ED0D4ED20
:10152000111AD949C4ED121A4FF4B472B1F9160068
:10153000A0F5B050D038504300EE100AF8EEC00AC3
:1015400080EEAA0A84ED030AD4ED010A30EEC00A47
:1015500010EE100A84ED110AB84201DD30EE480A9F
:1015600010EE100A84ED110A404501D930EE080A48
:1015700010EE100A84ED110A10F17E5F09D210EE10
:10158000100AB0F1814F04DAD4ED130A70EE800A2C
:1015900001E0DFEDBE0AC4ED130AB0EE601A11EEF1
:1015A000100A484501DDB0EE4A1A11EE100A84ED2A
:1015B000131A504501D9B0EE691A84ED131AD4ED0F
:1015C0000E0A94ED0F2AB24A60EE800A30EE610AEC
:1015D00042EE010A94ED101A41EE000A10EE900A54
:1015E000C4ED140A904201DDDFEDAA0AAA4A10EE0A
:1015F000900AC4ED140A904201D9DFEDA80AC4EDA7
:10160000140AC4ED020A94ED0A0A84ED0B0A9BED5C
:10161000050A40EE280AC4ED0A0A00E05AE094EDFB
:101620000C0A9F4A30EE200A10EE100A84ED0C0AD4
:10163000904201DD9FED9B0A9B4A10EE100A84ED5B
:101640000C0A904201D99FED990A84ED0C0AB1F978
:1016500016004FF4B471A0F5B050D038484300EEF6
:10166000100AF8EEC00A80EEAA0A02F095FE00EE1B
:10167000100AD4ED070AD4ED081AB8EEC01A94ED9A
:101680000A0A94ED0C2A8A4960EE800A41EE820A29
:10169000D4ED0B1A30EE610AD4ED091A41EE800A3E
:1016A00031EE200A10EE100A84ED0D0A884202DDA8
:1016B000F0EE490A01E0F0EE400A10EE101AFDEEDD
:1016C000E00A7C4A10EE900A914200B2A08200D952
:1016D0003046A082002D7DD06B4895ED111A543014
:1016E00085ED121AB0F9160040F2D47188424FF419
:1016F000B47102DC00F62B0002E0A0F5B850D4383B
:10170000484300EE100AF8EEC00A80EEAA0A85ED02
:10171000030AD5ED010A30EEC00A10EE100A85ED7D
:10172000110AB84201DD30EE480A10EE100A85EDCC
:10173000110A404501D930EE080A85ED110AD5EDB0
:10174000130A30EE808A18EE100A85ED138A484598
:1017500001DDB0EE4A8A18EE100A85ED138A504575
:1017600001D8F0EE489AC5ED139AD5ED0E0AD5EDE5
:101770000F1A514960EE800A30EE410A95ED101AB9
:1017800041EEA90A41EE000A10EE900AC5ED140AD6
:10179000884201DDDFED490A494910EE900AC5EDA6
:1017A000140A884201D9DFED470AC5ED140AC5EDD8
:1017B000020A95ED0A1A85ED0B1A9BED060A40EE1A
:1017C000680AC5ED0A0A95ED0C0A30EE200A85ED8F
:1017D0000C0A00E035E010EE100A3B49884201DDBA
:1017E0009FED3A0A3A4910EE100A85ED0C0A88423C
:1017F00001D99FED380A2E4985ED0C0AD5ED071A5F
:1018000061EEA08AD5ED081A41EE808A30EEC10A59
:10181000D5ED090A40EE808A18EE900AC5ED0D8AD2
:10182000884201DCB0EE689A18EE901ABDEEC90A43
:10183000204A10EE100A914200B2A88200D8064653
:10184000AE8225480078022802D10020A882A0821A
:10185000BDEC068BBDE8F09F00003443000034C3AC
:1018600000401C4600401C4600401CC600401CC6F0
:10187000000200203333654200F8FF4500C0DA461D
:10188000A092FFFF0000B443940F0020000000006E
:101890000000164300001643000016C3000016C3E4
:1018A00000803B4500803B4500803BC500803BC538
:1018B00000C0DA4600C0DAC6000096430000964336
:1018C000000096C3000096C30000FA440000FA44EA
:1018D0000000FAC40000FAC46C0000201FB5022109
:1018E0008DF8001040F2FF21019100218DF80810C1
:1018F0008DF80910020A8DF80A208DF80B000448B3
:1019000003910B4603226946006806F0A5FD1FBD42
:101910003C0000201FB501218DF8001040F2FF218E
:101920000191010A8DF808108DF8090000208DF84A
:101930000A008DF80B000346039003480322694612
:10194000006806F089FD1FBD3C0000201A480021F8
:101950009FED1A0A81700121C1701948F1EE0C0A3D
:101960009FED1B1A80ED070A9FED160A80ED080A0D
:10197000C0ED090AF2EE080AC0ED0E0ADFED120A08
:10198000C0ED0F0AF0EE080AC0ED100ADFED0F0AF5
:101990005438C0ED070A80ED080AB7EE000A80ED62
:1019A000090AF3EE040AC0ED0E0A80ED0F1A80ED6D
:1019B000100AC0ED010A7047080100200000C8426B
:1019C000E80F0020CDCCCC3E000000000000FA4221
:1019D0009A99193E90F82020012A07D0022A05D0B2
:1019E000416A41F4802141620120704700684269E8
:1019F0000A43426100207047F0B590F82050046817
:101A0000A468012D05D0022D03D0416A41F4802144
:101A100053E014F0406F01D1E5004BD5C4F30164ED
:101A2000022C03D9416A41F4000146E00125A5409A
:101A30001D608D684FF4C0739DB1CE6835434E680C
:101A400045EAC605066803EB0417F5514FF4C27565
:101A5000076805EB04150E697E51097D012905D043
:101A600009E00E88CD6845EA4655EBE701684E5916
:101A700046F480764E511179D2F805504FF4C6766F
:101A800041EA0525016806EB04168D511178D2F85C
:101A900001204FF4C47541EA0221026805EB0415E8
:101AA0005151006803EB0411425842F001024250C8
:101AB0000020F0BD416A41F4001141620120F0BDF7
:101AC00010B590F82020012A07D0022A05D0416ADB
:101AD00041F480214162012010BD3B48D0F8002232
:101AE00042F00102C0F80022D0F8002222F47C5219
:101AF000C0F80022D0F800224B6A42EA0322C0F864
:101B000000220A7D02F01F0301229A40D0F81C3205
:101B10009343C0F81C32CB69B3B9D0F80C3293436D
:101B2000C0F80C328C894B6864F31F434C6900EB9E
:101B3000C404C4F840320C890B6864F31F434C6939
:101B400000EBC404C4F84432CB69012B16D1D0F8A1
:101B50000C321343C0F80C320C884B6864F31F43FB
:101B60004C6900EBC404C4F840320C89CB6864F3C0
:101B70001F434C6900EBC404C4F844328B69002B4A
:101B8000D0F804320ED01343C0F804320B69002B96
:101B9000D0F8143208D01343C0F81432096A01296E
:101BA00004D008E09343EFE79343F5E7D0F81C1225
:101BB0001143C0F81C12D0F8001221F00101C0F846
:101BC0000012002010BD000000640040704730B5D6
:101BD00090F82040012C05D0022C03D0416A41F43A
:101BE00080215DE00468002955D02469A40754D001
:101BF0004FF4D874056804EB01142D5915F0040551
:101C0000956005682D594ED0ED08556005682C5932
:101C1000C4F34004D4604FF4DA74056804EB011493
:101C20002D5905F00F05156105682D59C5F30725D8
:101C3000956105682C59240C54614FF4DC720468DA
:101C400002EB0112A4581C700468A458240A5C70AA
:101C50000468A458240C9C700468A258120EDA7010
:101C60004FF4DE72046802EB0112A4581C71046880
:101C7000A458240A5C710468A458240C9C7104685C
:101C8000A258120EDA71006881B1016941F0200199
:101C90000161002030BDE468A8E7416A41F4001109
:101CA0004162012030BD6D0D1560AFE7C16841F0A4
:101CB0002001C160EDE72DE9F05F054600680024D2
:101CC0004669D0F804908768D0F80CB0D0F810A01E
:101CD000D0F81880F10748D0F90714D001218160AD
:101CE000B80703D5284600F0F4FA0CE0780702D5CF
:101CF0004FF4006407E0380702D54FF4805402E047
:101D0000284600F0E5FAF80516D529684FF48070EA
:101D10008860B80503D5284600F0DDFA0CE07805A8
:101D200002D544F4005407E0380502D544F4804459
:101D300002E0284600F0CEFAF80316D529684FF4E1
:101D400080308860B80303D5284600F0C6FA0CE05E
:101D5000780302D544F4004407E0380302D544F484
:101D6000803402E0284600F0B7FA300707D55FEA72
:101D7000CB6004D52968102044F40074C860700753
:101D80004FF0080707D55FEA0B7004D52868C760D5
:101D9000284600F099F9B00706D52868C068800782
:101DA00002D0284600F092F9700607D55FEACA60B3
:101DB00004D52968102044F480640861B00607D572
:101DC0005FEA0A7004D528680761284600F0F6F932
:101DD000F00606D528680069800702D0284600F082
:101DE000EFF9B00308D55FEAC96005D5296810206E
:101DF0004860284600F03EFAF00307D55FEA097014
:101E000004D528684760284600F068FA300446D5B3
:101E10005FEA497040D5F00504D55FEAC87001D08B
:101E200044F00104B00504D55FEA887001D544F0A0
:101E30000204700504D55FEA487001D544F004043B
:101E4000300529D518F0700F26D008F07000402812
:101E500015D006DC102809D020280AD0302816D149
:101E60000AE050280ED0602811D10EE044F008049A
:101E70000DE044F010040AE044F0200407E044F0D0
:101E8000400404E044F0800401E044F480742868D5
:101E9000816921F070018161296804204860002C6B
:101EA00005D0686A204368622846FFF78FFEBDE8C8
:101EB000F09F70B5040003D094F8200010B104E046
:101EC000012070BD204600F081F82068016821F0F3
:101ED0000201016000F096FC0546052604E000F0D2
:101EE00091FC401B0A2811D8206840688007F6D46E
:101EF0002068016841F00101016000F083FC0546A3
:101F00000BE000F07FFC401B0A2806D9606A40F411
:101F10000030606284F82060D2E720684068C00723
:101F2000EFD0207E0128206801683DD021F080019B
:101F30000160607E01282068016838D021F04001EE
:101F40000160A07E01282068016833D021F02001C3
:101F50000160E07E0128206801682ED041F0100168
:101F60000160207F01282068016829D021F0080144
:101F70000160607F01282068016824D021F00401FD
:101F80000160D4E902010843D4E904121143084373
:101F90006168491E08432168C86100206062012011
:101FA00084F82000002070BD41F08001C0E741F0BE
:101FB0004001C5E741F02001CAE721F01001CFE759
:101FC00041F00801D4E741F00401D9E7F0B587B04A
:101FD000044614216846FEF731FA364B3648DFF8DE
:101FE000D0E01968D4F800C0334A03250226092737
:101FF00010300024491CF44522D11960012907D171
:10200000016841F000710160006800F00070059007
:10201000106840F0080010601068CDE9005600F02C
:102020000800CDE9047069462448CDE9024500F076
:10203000F1FA00220521142000F070FC142033E096
:10204000DFF87CE0F44531D1D0F800C04CF0806C72
:10205000C0F800C0D0F800C001290CF0806CCDF8A9
:1020600014C0196007D1016841F000710160006877
:1020700000F000700590106840F0020010601068D9
:1020800002AB00F0020005904FF44050CDE900068D
:1020900083E8B00069460B4800F0BCFA0022052135
:1020A000412000F03BFC412000F02AFC07B0F0BDCD
:1020B000006400400400002030380240000C024060
:1020C00000680040000402407047000000B589B07D
:1020D00007AB6A4600213448FFF779FD009940F2CA
:1020E0000522A1F20520914231D019DC40F20222F2
:1020F0002E4891422DD02ADC66293AD0A1F50071F4
:10210000013924D10189491C0181BDF81C1049BA4B
:102110000180BDF81E1049BA8180BDF820103FE053
:10212000012814D0022812D0032810D004280ED180
:102130001F480188491C0180BDF81C1049BAC182A2
:10214000BDF81E1049BA01829DF82210017609B02F
:1021500000BD018E491C0186BDF81C1049BA0185DD
:10216000BDF81E1049BA8185BDF8201049BAC18555
:10217000EDE7BDF81C00104A41BA0E4801809DF8F9
:102180001E10817011709DF81F100A09C27001F0B5
:102190000F010171BDF8201049BA0181BDF822106C
:1021A00049BAC180D3E700009004002078090020DC
:1021B000E80F0020700000206C0000207047000035
:1021C00000B589B007AB6A4601212648FFF7FFFC3E
:1021D00000992548A1F50071013916D0012924D0B4
:1021E000022932D009290ED120480188491C0180DA
:1021F000BDF81C1049BAC182BDF81E1049BA01824F
:102200009DF82210017609B000BD0189491C0181A9
:10221000BDF81C1049BA0180BDF81E1049BA818072
:10222000BDF8201049BAC180EDE7018E491C018636
:10223000BDF81C1049BA0185BDF81E1049BA818548
:10224000BDF8201049BAC185DDE709480188491C5D
:102250000180BDF81C1049BAC180BDF81E1049BAF2
:102260004180D0E7B8040020D8090020940F002056
:10227000280A00207047000070B5044690F820003E
:10228000012804D0606A40F40020606218E0022057
:1022900084F820002068016821F00101016000F04D
:1022A000B1FA05460EE000BF00F0ACFA401B0A2868
:1022B00008D9606A40F400306062052084F820008C
:1022C000012070BD20684068C007EDD1606270BD1C
:1022D000704770477047704770477047704790F875
:1022E0003510022903D08021416501207047052166
:1022F00080F835100068016821F0010101600020BC
:10230000704700002DE9F84304464FF00009CDF86E
:10231000009063484FF41651A56D0068B0FBF1F7CB
:102320002E6894F85C10082000FA01F131420FD0B9
:1023300021680A6852070BD50A6822F004020A6075
:1023400094F85C108840A860606D40F00100606502
:1023500094F85C104FF0010808FA01F0304208D000
:1023600021684969090604D5A860606D40F0020043
:10237000606594F85C1004208840304208D02168E1
:102380000968890704D5A860606D40F004006065A5
:1023900094F85C1010208840304218D021680968F9
:1023A000090714D5A86020680168490304D50068AE
:1023B000000308D5A16C07E00168C90503D40168D2
:1023C00021F008010160216C09B12046884794F88A
:1023D0005C1020208840304231D021680968C9064D
:1023E0002DD5A86094F8350005282068016806D02E
:1023F000490347D5006800031DD4616C1CE021F03F
:10240000160101602068416921F080014161206C62
:1024100008B9A06C20B12068016821F008010160B2
:1024200094F85C103F208840A86084F8349084F8C9
:102430003580216D1FE0E16B09B120468847606D52
:1024400000282BD0606DC00714D0052084F835001B
:102450002068016821F0010101600098401C009093
:10246000B84203D820680068C007F6D184F83490D9
:1024700084F83580E16C002910D001B02046BDE819
:10248000F04308470168C905D5D4016821F010015F
:10249000016084F8349084F83580CCE7BDE8F88397
:1024A000080000202DE9F041044600F0ABF9064693
:1024B0005CB1002584F83450022084F8350020688F
:1024C000016821F0010101600DE00120BDE8F0810B
:1024D00000F098F9801B052805D9202060650320AD
:1024E00084F83500F2E720680068C007F0D1226860
:1024F000116820480140D4E901031843D4E90336A8
:102500003343184363691843A3691843E3691843C5
:10251000236A18430843616A042903D1D4E90B13E1
:1025200019430843106020684069666A20F007017B
:1025300030460E43012704280CD1A06A0643E06A06
:1025400040B12046FEF7D4FC20B14020606584F8FD
:102550003570BAE7206846612046FEF7B5FC94F86E
:102560005C203F2191408160656584F835700020D2
:10257000ACE700003F8010F02DE9F0410446866D85
:1025800090F83400002501280DD0012084F8340093
:1025900094F835700020012F07D084F8340002250C
:1025A0002846BDE8F0810220FBE7022784F8357059
:1025B00060652046FEF7C6FC94F85C103F2088401A
:1025C000B0602068016841F016010160206841692F
:1025D00041F080014161206C20B12068016841F028
:1025E000080101602068016841F001010160D7E73E
:1025F00070B5044600F006F90546601C02D0044898
:102600000078044400F0FEF8401BA042FAD370BDED
:10261000340100202DE9F84FDFF890B100224FF08F
:1026200001084FF0030A4FF00F090BF1040E00BF31
:102630000B6808FA02F42340A3426ED14D68022DC4
:1026400001D0122D0ED1D50800EB850CDCF82050FE
:102650005607F70E09FA07F6B5430E69BE402E433A
:10266000CCF82060066855000F790AFA05FC07F0DF
:10267000030726EA0C06AF40374307604E68012E79
:1026800005D0022E03D0112E01D0122E0ED1876854
:10269000CE6827EA0C07AE403E4386604668A643F4
:1026A0000C79C4F30014944034434460C4688E68C9
:1026B00024EA0C04AE402643C6604C68E4006FD5A3
:1026C0003B4C256845F480452560246822F00305CD
:1026D00004F480440094374C2E19D6F80848950726
:1026E0002F0F09FA07F5AC43334DA84201D100255D
:1026F0002EE0324DA84201D1012529E0304DA842FB
:1027000001D1022524E02F4DA84201D103251FE06D
:102710002D4DA84202D104251AE041E02B4DA842DC
:1027200001D1052514E02A4DA84201D106250FE06C
:10273000284DA84201D107250AE0274DA84201D122
:10274000082505E0254DA84201D1092500E00A250C
:10275000BD402543C6F80858DBF800405D464E688A
:102760009C43F60300D51C432C60DEF80040754600
:102770004E689C43B60300D51C432C600B4D0835B6
:102780002C684E689C43F60200D51C432C60074D14
:102790000C352C684E689C43B60200D51C432C6057
:1027A000521C102AFFF444AFBDE8F88F003C0140F2
:1027B0004438024000300140000002400004024062
:1027C00000080240000C02400010024000140240C9
:1027D00000180240001C0240002002400024024079
:1027E0000069084000D001207047426931EA0202C6
:1027F00000D10904816170470AB181617047090401
:10280000FBE70000014880687047000034010020A9
:1028100002488168027811448160704734010020C9
:102820000B4810B5016841F400710160016841F482
:1028300080610160016841F480710160032000F053
:102840008DF8002000F006F800F03EF8002010BDE2
:10285000003C024010B5014688B000221C2000F068
:102860005DF81C2000F04CF814480024016841F089
:1028700001010160006805A900F0010006906846AA
:1028800000F016F900F034F90D494000B0FBF1F109
:102890000C484FF08042491E026040F2E732C0E926
:1028A0000324C0E9011400F08DFC10B1012008B030
:1028B00010BD044800F0A2FCF9E7000040380240D7
:1028C00040420F00180900200C4882B0016841F412
:1028D00080410160006800F4804000900748001FBC
:1028E000016841F0805101600068002200F08050D2
:1028F00000900F21901E02B000F010B84438024042
:10290000002809DB00F01F020121914040098000EE
:1029100000F1E020C0F8001170470000F0B40E4B49
:102920001B680C46C3F30223C3F10705042D00D92D
:102930000425191D072901D2002300E0DB1E012612
:1029400006FA05F1491E214099409E40761E164028
:102950003143F0BC02F01CBE0CED00E0064900F073
:10296000070208684FF6FF03184040EA0220034AB6
:1029700010430860704700000CED00E00000FA050D
:102980002DE9F0470E46050065D0DFF81481D8F830
:102990000000F7B200F00F00B04207D288F80070D4
:1029A000D8F8000000F00F00B04254D128683D4C28
:1029B000810712D5400703D5206840F4E05020601D
:1029C0002878000703D5206840F460402060206824
:1029D000A96820F0F000084320602878C0072DD0B7
:1029E000304968680839012812D0022813D003281A
:1029F00011D00968890700292DDA216821F0030127
:102A000001432160FFF7FEFE814641F2883A0EE065
:102A100009688903EFE709688901ECE7FFF7F2FE2F
:102A2000A0EB0901514502D90320BDE8F0872068D9
:102A3000696800F00C00B0EB810FEFD1D8F80010FE
:102A4000404601F00F01B14207D90770006800F05D
:102A50000F00B04201D00120E7E72878400705D5F4
:102A60002068E96820F4E0500843206028780007D7
:102A700006D52068296920F4604040EAC100206042
:102A800000F056F82168084AC1F30311515CC840B0
:102A9000064908600020FFF7DDFE0020C5E70000C2
:102AA000003C024008380240F08A0008080000207C
:102AB0000F2202600C4A136803F00303436013689B
:102AC00003F0F0038360136803F4E053C3601268FB
:102AD0004FF4E05303EAD20202610448006800F0B8
:102AE0000F0008607047000008380240003C0240B8
:102AF0000448054900680968044AC1F38221515C11
:102B0000C84070470800002008380240008B0008C9
:102B10000448054900680968044AC1F34231515C20
:102B2000C84070470800002008380240008B0008A9
:102B3000154810B5006810F00C02144813D0144961
:102B4000042A0FD0082A0ED10F4C241F22682368B4
:102B500002F03F025B0207D52068C0F38810A0FB9B
:102B6000010106E0084610BD2168C1F38811A1FBF0
:102B700000010023FDF718FC2168C1F30141491C45
:102B80004900B0FBF1F010BD083802400024F40009
:102B9000001BB7002DE9F84F050076D02878DFF844
:102BA000F8B2BE4CC00749D0DBF800105846C1F35C
:102BB0008101012908D00068C0F3810002280AD1F0
:102BC000201D0068400206D52068800336D568685D
:102BD0000028E2D032E06868B0F5803F10D0B0F550
:102BE000A02F206810D020F480302060206820F4CE
:102BF000802020606868A0B1FFF704FE06460CE064
:102C0000206840F48030F4E740F480202060F7E74B
:102C1000FFF7F8FD801B642873D820688003F7D580
:102C20000CE0FFF7EFFD064605E000BFFFF7EAFD09
:102C3000801B6428F0D820688003F7D42878DFF858
:102C4000608280074FF000093ED5DBF8001058463F
:102C500011F00C0F09D00068C0F3810002280BD1DD
:102C60008D48001F0068400206D42068800715D5F3
:102C7000E868012809D111E0E868B8B10120C8F876
:102C80000000FFF7BFFD064605E002E1FFF7BAFDD1
:102C9000801B0228C0D820688007F7D520682969E2
:102CA00020F0F80040EAC10020600DE0C8F8009074
:102CB000FFF7A8FD064604E0FFF7A4FD801B0228ED
:102CC0001FD820688007F7D42878000722D5724ED5
:102CD000744869696C3671B101210160FFF792FD9A
:102CE000074604E0FFF78EFDC01B022809D83068B4
:102CF0008007F7D50EE0C0F80090FFF783FD074688
:102D000005E083E0FFF77EFDC01B02287ED8306817
:102D10008007F7D42878400768D5DFF87CA1002722
:102D20000AF1380ADAF80000C0000BD4DAF8001013
:102D300041F08051CAF80010DAF80000012700F0D5
:102D400080500090584E3068C00510D4306840F470
:102D500080703060FFF756FD009005E0FFF752FDF0
:102D60000099401A022851D83068C005F6D54A4E5D
:102D7000A868683601280FD00528306810D020F0E8
:102D800001003060306820F004003060A868B8B1FD
:102D9000FFF738FD00900FE0306840F00100F4E7E5
:102DA00040F004003060F7E7FFF72CFD0099411A6E
:102DB00041F28830814264D830688007F4D50EE053
:102DC000FFF720FD009007E0FFF71CFD0099411A76
:102DD00041F28830814254D830688007F4D42FB152
:102DE000DAF8001021F08051CAF80010A869C0B3C9
:102DF000DBF80010C1F3810102294AD002284846BD
:102E000007D0C8F86000FFF7FDFC00E039E0054698
:102E10003AE04746C8F86000FFF7F4FC064604E0D5
:102E2000FFF7F0FC801B02282BD820688001F7D424
:102E3000D5E907010843A96A1C4A490802EB014188
:102E40006A6A41EA8211084395F82C1040EA016150
:102E50001148001F016001203866FFF7D3FC0546CA
:102E600005E014E0FFF7CEFC401B022809D82068DB
:102E70008001F7D50BE000BFFFF7C4FC401B022820
:102E800002D90320BDE8F88F20688001F4D4002027
:102E9000F8E70120F6E70000083802400038024059
:102EA00000004742800E4742007000400000FFFFD4
:102EB00070B5040005D00025A56294F8510010B14A
:102EC00006E0012070BD84F85050204600F030F834
:102ED000022084F851002068016821F0400101605F
:102EE000D4E901010843D4E903121143084361699D
:102EF0000843218B01F400710843E1690843216A0A
:102F00000843A16A084321680860A069042101EA16
:102F10001040616A0843216848602068C16921F453
:102F20000061C1616565012084F85100002070BD19
:102F300010B586B0044614216846FDF77FFA14499F
:102F40002068884221D113480021026842F480128F
:102F50000260006800F4801005900E481438026882
:102F600042F020020260006800F0200005904FF45B
:102F7000607000900220CDE901010320039005203C
:102F8000049069460448FFF745FB06B010BD0000F9
:102F90000050014044380240001402402DE9F84F2F
:102FA000044690F8500000270A9E1D4692468B4624
:102FB0004FF0010901280ED0012084F85000FFF7DE
:102FC00021FC804694F85100616801280CD0B1F5CD
:102FD000827F07D102E00220BDE8F88FA16809B91D
:102FE000042801D00227C2E0BBF1000F27D0BAF1BC
:102FF000000F24D01DB394F85100042802D00520FE
:1030000084F8510000206065C4F838A0E587A587E2
:10301000C4F830B0E586A586206460642068016845
:10302000490603D4016841F040010160E068B0F551
:10303000006F606805D0E8B3012D46D07FE001271E
:1030400095E008B1012D39D1206B21680088C86056
:10305000206B801C2063E08E401EE0862EE02068FE
:10306000816889070FD5E18E69B1B9F1010F0AD1E5
:10307000216B0988C160206B801C2063E08E401E9C
:10308000E0864FF0000920688168C9070CD0E18F05
:1030900051B1C068A16B0880A06B801CA063E08F59
:1030A000401EE0874FF00109FFF7ACFBA0EB0800E2
:1030B000B04200E009E001D3701C50D1E08E00283E
:1030C000CDD1E08F0028CAD13FE0206B2168007885
:1030D0000873206B401C2063E08E401EE0862EE0CB
:1030E0002068816889070FD5E18E69B1B9F1010FB8
:1030F0000AD1216B09780173206B401C2063E08E9C
:10310000401EE0864FF0000920688168C9070CD096
:10311000E18F51B1C068A16B0870A06B401CA06327
:10312000E08F401EE0874FF00109FFF76BFBA0EB3B
:103130000800B04202D3701C01D010E07EB1E08ED6
:103140000028CDD1E08F0028CAD142463146204622
:1031500001F0A2F928B101272020606507E00327CC
:1031600005E0A06818B92068C16880680090012057
:1031700084F85100002084F8500038462CE770474E
:10318000704770B590F83C20012A19D0012400F84E
:103190003C4F0222427050F83C3C5A689D6822F035
:1031A00070060A684968324325F0800529435A6051
:1031B00050F83C2C9160447000210170084670BDAD
:1031C000022070BD10B5040003D094F83D0010B18A
:1031D00007E0012010BD002084F83C00204600F0EC
:1031E0000CF8022084F83D00211D206801F098FBB6
:1031F000012084F83D00002010BD70470168CA68B6
:1032000042F00102CA600068816801F007010629E6
:1032100003D0016841F00101016000207047704750
:1032200070B50446006801694FF00005C94389077D
:1032300015D4C168C943890711D4E91E0161012071
:103240002077206880698007204602D0FFF7E7FFDB
:1032500004E000F0C1F8204600F056F92577206818
:103260000169C943490717D4C168C943490713D441
:103270006FF004010161022020772068806910F45A
:10328000407F204602D0FFF7CAFF04E000F0A4F818
:10329000204600F039F9257720680169C9430907FC
:1032A00016D4C168C943090712D46FF0080101613F
:1032B000042020772068C0698007204602D0FFF7ED
:1032C000AEFF04E000F088F8204600F01DF92577F5
:1032D00020680169C943C90617D4C168C943C90632
:1032E00013D46FF010010161082020772068C069B5
:1032F00010F4407F204602D0FFF791FF04E000F079
:103300006BF8204600F000F9257720680169C94371
:10331000C90708D1C168C943C90704D1891E016121
:10332000204600F015F920680169C943090609D44F
:10333000C168C943090605D46FF0800101612046C8
:10334000FFF71DFF20680169C943490609D4C16818
:10335000C943490605D46FF040010161204600F0E1
:10336000FEF820680169C94389060BD4C168C943C6
:10337000890607D46FF0200101612046BDE8704046
:10338000FFF7FEBE70BD000010B586B004461421E4
:103390006846FDF753F80D492068884214D10C485F
:1033A0000021026842F002020260006800F00200A0
:1033B0000590202000900220CDE90101CDE9031005
:1033C00069460448FFF726F906B010BD0004004026
:1033D0003038024000040240704770B5044690F84F
:1033E0003C000D4601280DD0012684F83C600220E7
:1033F00084F83D0042B1042A18D0082A2AD00C2AA9
:103400004DD139E0022070BD206801F0FBFA206840
:10341000816941F0080181612068816921F004011E
:103420008161206881692A69114311E0206801F0F7
:1034300019FB2068816941F400618161206881691C
:1034400021F480618161206881692A6941EA022151
:10345000816124E0206801F03BFB2068C16941F0F4
:103460000801C1612068C16921F00401C1612068BF
:10347000C1692A69114311E0206801F05DFB2068F1
:10348000C16941F40061C1612068C16921F48061B2
:10349000C1612068C1692A6941EA0221C16184F8D9
:1034A0003D60002084F83C0070BD10B5040003D0DE
:1034B00094F83D0010B107E0012010BD002084F811
:1034C0003C00204600F00CF8022084F83D00211D4D
:1034D000206801F025FA012084F83D00002010BD8D
:1034E00008B500680649884208D10648016841F0DD
:1034F00002010160006800F00200009008BD0000B9
:1035000000040040403802407047000010B50446F7
:103510000068012201F068FA0B492068884202D055
:103520000A49884203D1416C41F40041416420685A
:10353000816801F00701062903D0016841F001010B
:103540000160002010BD00000000014000040140A7
:103550000068B0F1804F01D1FFF75AB9704770474A
:103560007047000070B5026804461068D16853695E
:1035700010F00F0F50D003F0010501F490763543A1
:103580005DD0C20705D0CA0503D5E26B42F0010247
:10359000E263420705D5DA0703D0E26B42F002028C
:1035A000E263820705D5DA0703D0E26B42F004023A
:1035B000E263020705D5DA0703D0E26B42F00802A6
:1035C000E263E26B002A33D0800604D5880602D578
:1035D000204601F02FFD20684069E16BC0F38010A8
:1035E000090700D428B3204601F016FD2068416980
:1035F00049061AD5416921F040014161606BA0B1D3
:103600001B490165606BFEF76AFE002810D0606BF5
:10361000016DBDE870400847830610D58B060ED5B6
:103620002046BDE8704001F005BD2046FFF798FF39
:1036300070BD2046FFF794FF0020E06370BD0306D5
:1036400006D50B0604D52046BDE8704001F094BEB7
:103650004006F3D54806F1D5D168204621F0400157
:10366000D160202184F8391000F0BFF970BD00004E
:103670000950000870B5040004D094F83900002502
:1036800010B106E0012070BD84F83850204600F0EB
:1036900023F8242084F839002068C16821F40051FF
:1036A000C160204601F012FD2068016921F49041BB
:1036B00001612068416921F02A0141612068C168E7
:1036C00041F40051C160E563202084F8390084F89A
:1036D0003A00002070BD00002DE9F04F87B005468C
:1036E00014216846FCF7AAFEB348DFF8C8821038F8
:1036F000D5F800C0B04B022203218715002406151F
:103700004FF0010E4FF0080A4FF0400B4FF02069C8
:10371000C44551D1D3F800C04CF0804CC3F800C070
:103720001B6803F080430593036843F010030360B4
:10373000006800F010000590CDE9031AC8018DE87B
:10374000054069469D48FEF765FFDFF878829C4991
:103750004046C8F80010C0E90194C0E90346C8F823
:103760001440C0E90647C8F82040C8F82440FEF7D6
:1037700099FE08B1FDF7FBFB924FC5F83480603726
:10378000C8F83850C7E903467C61BC618C48FC61CD
:103790003C6230387C6287E8010A3846FEF782FED8
:1037A00008B1FDF7E4FB2F63002205215220BD6321
:1037B000FFF7B4F8522055E0DFF80C82C44556D12B
:1037C000D3F800C04CF0004CC3F800C01B6803F0F5
:1037D00000430593036843F010030360006800F0A2
:1037E000100005908DE80640CDE9031A694673483C
:1037F000FEF710FFDFF8CC81714908F1C0084831AD
:103800004046C8F80010C0E90194C0E90346C8F872
:103810001440C0E90647C8F82040C8F82440FEF725
:1038200041FE08B1FDF7A3FB684FC5F83480C8F826
:103830003850C7E903467C61BC616148FC613C6269
:1038400048387C6287E8010A3846FEF72BFE08B14B
:10385000FDF78DFB2F63002205215320BD63FFF789
:103860005DF85320FFF74CF807B0BDE8F08F524BDE
:10387000DFF85C811B1DC44541D1D3F800C04CF07A
:10388000100CC3F800C01B6803F010030593036815
:1038900043F002030360006800F002000590C020BE
:1038A0008DE815000720CDE9031069464948FEF769
:1038B000B1FEDFF81881484908F160084046C8F8B1
:1038C00000104FF00061C0E90114C0E90346C8F8D8
:1038D0001440C0E90647C8F82040C8F82440FEF765
:1038E000E1FD08B1FDF743FBC5F834800022052156
:1038F0002520C8F83850FFF711F82520B2E7DFF887
:10390000DC80C445B0D1D3F800C04CF0200CC3F823
:1039100000C01B6803F020030593036843F04003D5
:1039200003600068CDE9024100F0400005904FF4CB
:103930008440CDE90002CDF810A069462848FEF782
:1039400069FEDFF88880244908F1C008183940462C
:10395000C8F80010C0E90194C0E90346C8F8144053
:10396000C0E90647C8F82040C8F82440FEF79AFD91
:1039700008B1FDF7FCFA1B4FC5F83480C8F8385081
:10398000C7E903467C61BC611348FC613C6260305E
:103990007C6287E8010A3846FEF784FD08B1FDF72E
:1039A000E6FA2F63002205214720BD63FEF7B6FF2C
:1039B000472057E70078004040380240001002409E
:1039C0005860024078060020007C004098070020E4
:1039D0000010014000040240406402400014014015
:1039E00000180240B808002070477047FEE700004A
:1039F00010B504460068416941F040014161216809
:103A00001523054A091D606BFEF7B6FD2068C168E5
:103A100041F01001C16010BD740E00201CB50021E2
:103A20000091416B0068C268D2062FD502684268D7
:103A30000268406801900868026822F00102026092
:103A40000A6850684FF01503C0F1150010F0FF0F21
:103A5000536009680A6842F001020A6016D00C48F7
:103A60000178662912D1407B88280FD10948694620
:103A7000006804F02FFB0098002807D006494FF09B
:103A800080500860BFF34F8FBFF36F8F1CBD0000E5
:103A9000740E00204400002004ED00E010B5044640
:103AA0000068416941F04001416121688223054A73
:103AB000091D606BFEF760FD2068C16841F01001D0
:103AC000C16010BD940E00202DE9F0470024144D74
:103AD000144E20E0285DA52801D0641C1AE02819A6
:103AE0008146B0F80570F781B0F80180052101F03A
:103AF000ADFC70B1484608F1090101F089FC40B104
:103B00003946204600F050F804EB08000930C4B2F2
:103B100001E00934E4B2306A8442DBDBBDE8F087BF
:103B2000940E0020D40000201CB504460020009014
:103B30002068C168C9062ED5016840680190606B95
:103B40000068016821F001010160606B0068406855
:103B5000C0F1820010F0FF0013D00F498C4210D149
:103B60000E4908620E486946006804F0B3FA0098EE
:103B700038B10C494FF080500860BFF34F8FBFF34E
:103B80006F8F616B822009684860606B0068016814
:103B900041F0010101601CBD78050020D400002027
:103BA0002C00002004ED00E030B40A46A1F202240B
:103BB0005F495F4B014440F2022580335D48AA42D1
:103BC0006DD022DC40F20115A2F20114AA4255D0B8
:103BD0000EDC012A40D0022A49D0032A4AD0042A06
:103BE00004D1B1F807200282497A817430BC704751
:103BF000012C48D0032C4BD0042C4DD0B4F5807F41
:103C0000F4D14B481B22AD3050E0052C73D012DCB0
:103C1000012C48D0022C4DD0032C4ED0042CE5D1E1
:103C2000CA794349C27101F1AD01130949884FF0C6
:103C3000010444D057E0062C66D0072C6AD0082C2B
:103C40006DD0B4F5817FD1D151F8070F586748681E
:103C500098678868D867C9E751F8070F43F8020FDB
:103C60004868586008891881887A9872BEE7C979CF
:103C7000C170BBE72E4820228D3017E0D1F8071025
:103C8000C0F81310B2E7D1F80710C0F81710ADE76D
:103C9000B1F807108181A9E7C9790171A6E7244825
:103CA0001022C83002E022481022D83030BCC91D92
:103CB000FCF7ABBBC979417198E7C97922E0058966
:103CC000A94210D24378032B0DD06D1A1E2D02DDB0
:103CD0000323437004E05B1CDBB24370032B02D16F
:103CE000837803B9847001810421B1EB121FB2D132
:103CF00004707BE7FFE751F8072F40F82A2F8A88E6
:103D000082808979817171E751F8072F4262898831
:103D100001856BE7D1F80710C0F81B1066E751F872
:103D2000070F98664868D866886818675EE70000DD
:103D3000940E0020D400002010B54E482DED068BC7
:103D4000F7EE008AC0ED1D8ADFED4B9AC0ED1E9A9A
:103D50009FED4A8A80ED1F8AC0ED208ADFED48AAD8
:103D6000C0ED2DAA9FED47AA80ED2EAAC0ED218AB5
:103D700080ED228A80ED238AC0ED248AC0ED258A59
:103D800080ED268A80ED278AC0ED288A9FED3E0AC5
:103D90003F4980ED290A80ED2A8A9FED3C0A80ED9B
:103DA0002B8A80ED2C0AB1F916104FF4B472A1F5EC
:103DB000B051D039514300EE101A9FED369A0146AA
:103DC000B8EEC00AC0EE090AC0ED030A80ED048A0D
:103DD000F83803F0C9F927489FED2F0AC030304961
:103DE000C0ED1D8AC0ED1E9A80ED1F8AC0ED208AAD
:103DF000C0ED2DAA80ED2EAAC0ED218A80ED228A89
:103E000080ED238AC0ED248AC0ED258A80ED268AC4
:103E100080ED278AC0ED288A80ED290A80ED2A8A64
:103E20009FED1E0A80ED2B8A80ED2C0AB1F9161049
:103E300040F2D47291424FF4B47202DC01F62B01CD
:103E400002E0A1F5B851D439514300EE101A0949E6
:103E5000F8EEC00AC03180EE890A80ED030A80EDD9
:103E6000048AA1F59E70BDEC068BBDE8104003F0FE
:103E70007BB90000640B00200AD7A33B00000000C0
:103E800017B751396F12033B00007A430000FA4420
:103E9000940F002000F8FF45000002430000FA43A1
:103EA000E80F00200F4810B50D4901600321416063
:103EB00000214FF400228160C0E903124FF4401248
:103EC0004261017641768176C17601774177FDF7CF
:103ED000F0FF002803D0BDE81040FDF748B810BD42
:103EE00000640040900400200F4810B50D490160A7
:103EF0000321416000214FF400228160C0E90312D8
:103F00004FF440124261017641768176C1760177A5
:103F10004177FDF7CEFF002803D0BDE81040FDF744
:103F200026B810BD00680040B8040020254808B538
:103F3000016841F480010160016801F48001009191
:103F4000016841F4001101600068002200F40010D3
:103F5000009011460B20FEF7E1FC0B20FEF7D0FC91
:103F6000002211460C20FEF7D9FC0C20FEF7C8FCFD
:103F7000002211460E20FEF7D1FC0E20FEF7C0FCF9
:103F8000002211461120FEF7C9FC1120FEF7B8FCF3
:103F9000002211463920FEF7C1FC3920FEF7B0FCA3
:103FA000002211463A20FEF7B9FC3A20FEF7A8FCA1
:103FB000002211464520FEF7B1FCBDE8084045202F
:103FC000FEF79EBC3038024000B587B01C2206497F
:103FD0006846FCF71AFA0021684603F040FB0349E3
:103FE000086007B000BD0000D48A0008000000206F
:103FF0002DE9F04F87B014216846FCF71FFA4448BA
:104000000024016841F010010160016801F0100115
:104010000591016841F002010160016801F00201AF
:104020000591016841F040010160016801F0400123
:104030000591016841F001010160016801F0010191
:104040000591016841F008010160016801F0080173
:104050000591016841F080010160016801F0800173
:104060000591016841F0200101600068DFF8A4803B
:1040700000F020004FF400550590002229464046EC
:10408000FEF7BAFBDFF8909001223C214846FEF78C
:10409000B3FBDFF888A044F24006002231465046C8
:1040A000FEF7AAFBDFF878B0AF1000223946584679
:1040B000FEF7A2FB00950125CDE901546946404673
:1040C0000394FEF7A7FA3C200090CDE9015469461D
:1040D00048460394FEF79EFA0096CDE901546946DE
:1040E00050460394FEF796FA4FF4C050CDE9000411
:1040F000694648460294FEF78DFA0097CDE90154CF
:10410000694658460394FEF785FA07B0BDE8F08F7C
:104110003038024000180240001C024000140240E7
:10412000001002400F4810B50D4901604FF4827134
:10413000416000218160C1604FF400720161C0E9FB
:104140000512C1610162416281620A21C162FEF70A
:10415000AFFE002803D0BDE81040FCF708BF10BD3B
:1041600000500140E004002010B58AB000240794FC
:104170001C2168460894FCF761F91648144901604F
:104180005321C0E9011440F2CF71C0E903148461E6
:10419000FFF78BF908B1FCF7EAFE079407A90D4871
:1041A0000894FEF7EEFF08B1FCF7E1FE6020CDE9D0
:1041B000000402940422694606480494FFF70DF9AE
:1041C00008B1FCF7D4FE0348FFF7DEF80AB010BDD3
:1041D00000040040380500200C4810B50A49016071
:1041E0004FF4E1314160002181600C22C160C0E9DF
:1041F00004128161C161FFF73DFA002803D0BDE8D8
:104200001040FCF7B4BE10BD0078004078050020D7
:104210000C4810B50A4901604FF4E12141600021CA
:1042200081600C22C160C0E904128161C161FFF7A5
:1042300021FA002803D0BDE81040FCF798BE10BD5D
:10424000007C0040B80500200E4810B50C49016004
:104250000D4941604FF48051816000214FF480622C
:10426000C0E903120C22C0E90521C161FFF702FA7F
:10427000002803D0BDE81040FCF779BE10BD000057
:1042800000100140F8050020A08601000C4810B580
:104290000A4901604FF4E1214160002181600C2254
:1042A000C160C0E904128161C161FFF7E3F9002830
:1042B00003D0BDE81040FCF75ABE10BD0014014009
:1042C00038060020FEE7000090ED061A80ED071A80
:1042D000B0F90210B0F90420891A00EE101A1D4A34
:1042E000F8EEC00AC0ED060A90ED080A30EE200A8A
:1042F00010EE101A80ED080A914201DD9FED160ABA
:10430000164A10EE101A80ED080A914201D99FED6D
:10431000140A4FF47A5280ED080AD0ED031A90ED9A
:10432000042A61EEA01A42EE001A30EEC10AD0ED66
:10433000050A40EE801ABDEEE10A10EE101A416245
:10434000914200DB1146074A4162914200DC11466E
:104350004162704700606A4600606A4600606AC653
:1043600000606AC680C1FFFF08489FED070ADFEDC5
:10437000080A00F10C01B2EE001A81EC030A343095
:1043800080EC030A704700009A991141D809002077
:10439000CDCC4C3D704700009FED121A10B5C0EE19
:1043A000010A9FED110A2DED028B20EE800A10EE1E
:1043B000100AFCF706FA41EC100B01F019FD0B484E
:1043C000B0EE408AF0EE608A4069FCF7FAF953ECEF
:1043D000182BFCF7E5F8FCF7D5F9BDEC028B00B221
:1043E00010BD000000003443DA0F494008010020EE
:1043F0003EB52349002201920968C968C9063ED525
:1044000020490B6849680068016840681E490090AF
:104410000868036823F00103036008684368C3F178
:104420001903DCB2194B1C7005682D0306D5026810
:1044300022F4002202600120587004E0056845F46F
:10444000002505605A70122C01D0022058700A68AD
:10445000192050600868016841F0010101600C48B2
:1044600001A9006803F036FE0198002807D0094929
:104470004FF080500860BFF34F8FBFF36F8F3EBD8A
:10448000F805002000100140F80700204800002037
:104490004000002004ED00E038B50B4600920446D1
:1044A0000022802100F008F8002804D0606D40F060
:1044B00020006065032038BD2DE9F0411D461746F8
:1044C0000E460446DDF8188008E0681C06D0FEF7AA
:1044D00099F9A0EB0800A8420BD255B1206880687A
:1044E00036EA000030D00020B842EED10020BDE80E
:1044F000F0812068416821F0E00141606068B0F51A
:10450000827F0BD1A068B0F5004F02D0B0F5806F6C
:1045100004D12068016821F040010160A06AB0F573
:10452000005F09D12068016821F400510160206812
:10453000016841F400510160012084F8510000201D
:1045400084F850000320D2E70120CDE730B40C4BB3
:1045500002241C7024025C60040A1C725872080A4F
:104560009872D972100A18735A7300209873D8730E
:104570000346044803220249006830BC03F06CBFC4
:10458000C80900203C0000200548F7EE001A90ED15
:10459000061A21EE000A31EEC11A01EE200A704718
:1045A000080100200448022101700021417081703F
:1045B0000121C170704700006C0000201048027893
:1045C000BAB10021012A03D0022A0FD1417014E0B0
:1045D0000C4A137B0222042B07D10B4B9B78012B37
:1045E00003D10A4B1B7A13B142704270704781703D
:1045F000FBE70749CA78427009798170704700006B
:104600006C000020840E00209C000020600A002026
:104610007000002010B590F90A10002918DCB0F9DC
:10462000023000220B496333C62B10D8436AA3F52E
:104630001C54103C03D042F21074E34207D18B7833
:104640005B1CDBB28B70142B02D3282383728A701D
:1046500010BD00004C000020F0B5334801270026B3
:104660004089324CC82801D3267002E0782800D255
:1046700027702F482F4D01782C48B0F9040011B154
:10468000012909D01EE02C49097801291AD1217885
:10469000012917D1288116E028490A7B042A11D163
:1046A0002278012A0ED149880222B2EB112F02D1C1
:1046B0002881667007E061780A2903D82881491C9F
:1046C000617000E02E811B48FFF7A4FF95F90A00F6
:1046D000002804DD401EA872A0884042288120786E
:1046E00000B92E81288928B1E0680028A06804D08C
:1046F000C01C03E0A0680A2801DB801EA060B0F5A2
:10470000167F01DDE66009E00A2801DAE76001E0D2
:10471000E06818B10A48C079032800D12E81BDE8AD
:10472000F040044800F024B85C0F00204C0000204A
:104730006C000020280A00206E000020840E00205B
:10474000600A00200748B1EE080A002180ED030A44
:104750009FED050A80ED040A9FED040A80ED050A2D
:1047600001817047280A00205839B43C000000003D
:1047700090ED061A80ED071AB0F90810B0F9022082
:10478000891A00EE101A1D4AF8EEC00AC0ED060A9A
:1047900090ED080A30EE200A10EE101A80ED080A9B
:1047A000914201DD9FED160A164A10EE101A80EDB7
:1047B000080A914201D99FED140A42F2107280ED6D
:1047C000080AD0ED031A90ED042A61EEA01A42EE19
:1047D000001A30EEC10AD0ED050A40EE801ABDEE97
:1047E000E10A10EE101A4162914200DD1146074ABB
:1047F0004162914200DA11464162704700606A46A8
:1048000000606A4600606AC600606AC6F0D8FFFFB2
:1048100010B5502080F31188BFF34F8FBFF36F8F17
:1048200004F00CF818B104494FF0805008600020E3
:1048300080F3118810BD000004ED00E030B593B0A6
:1048400030216846FBF7FAFD14210CA8FBF7F6FDB2
:1048500019480025016841F080510160006800F0AE
:10486000805011901548016841F440410160006892
:10487000022400F4404011900120009000040190B7
:104880008001CDE9064006200890A820CDE9090462
:1048900004200B906846FEF77DF90CA90F2081E8F3
:1048A00031004FF4A0500F90E002109005210CA8A9
:1048B000FEF766F813B030BD40380240007000408B
:1048C0001048016841F4700101600F48016841F02F
:1048D000010101600C4A00210832116002680B4B93
:1048E0001A400260031D0A4A1A60026822F48022FC
:1048F000026005480C3001600249580680390860A2
:104900007047000088ED00E000380240FFFFF6FE2F
:10491000103000240148FEF783BC00001809002075
:10492000F0B50268254C264D264E274F274B4FF0F9
:10493000804CA04209D0604507D0A84205D0B042C3
:1049400003D0B84201D0984204D122F0700E4A68D8
:1049500042EA0E02A0421BD0604519D0A84217D0EF
:10496000B04215D0B84213D0984211D0184DA84289
:104970000ED0184DA8420BD0174DA84208D0174DA5
:10498000A84205D0164DA84202D0164DA84203D128
:1049900022F44075CA682A434D6922F080022A43F6
:1049A00002608A68C2620A688262A04201D09842AC
:1049B00001D10969016301214161F0BD000001409D
:1049C0000004004000080040000C004000040140CA
:1049D00000400140004401400048014000180040F0
:1049E000001C00400020004010B501F01F03012111
:1049F000046A99408C430462016A9A40114301623F
:104A000010BD0000F0B5026A22F001020262036AE2
:104A100042688469124E24F073050C682C4323F01D
:104A200002058B682B430D4DA84201D0B04205D141
:104A300023F00807CB683B4323F00403A84201D0CE
:104A4000B04205D14D6922F4407215438A692A4368
:104A500042608461496841630362F0BD0000014027
:104A600000040140F0B5026A22F010020262026AFC
:104A7000436884690D6824F4E64444EA05248D689B
:104A800022F0200242EA05120F4D104EA84201D03A
:104A9000B04206D1CF6822F0800242EA071222F02B
:104AA0004002A84201D0B04207D14D6923F44063CF
:104AB00043EA85038D6943EA85034360846149685D
:104AC00081630262F0BD000000000140000401406B
:104AD000F0B5026A22F480720262026A4368C46915
:104AE00022F4007224F073050C68124E2C438D687A
:104AF00042EA05220E4DA84201D0B04206D1CF684D
:104B000022F4006242EA072222F48062A84201D025
:104B1000B04207D14D6923F4405343EA05138D6930
:104B200043EA05134360C4614968C1630262F0BD92
:104B3000000001400004014030B5026A22F48052B6
:104B40000262046A4268C3690D6823F4E64343EADB
:104B500005238D6824F4005444EA0534084DA84226
:104B600002D0084DA84204D14D6922F4804242EAA5
:104B700085124260C36149680164046230BD00006F
:104B800000000140000401400E4C0D4E4FF0FF3775
:104B900004F108053A460B49306803F00DFD207812
:104BA000012808D00228F5D12A460748D4F8041075
:104BB000FBF7AEFFEEE72A4604486168F8E700001D
:104BC0003C00002058090020B80400209004002078
:104BD00008B5FCF735F803F02BFE0D4DCDF80000BD
:104BE00005F12804FCF794F80948FCF741F8204641
:104BF000FCF73EF8FBF7DEFFB5F84C0001B2A88CDD
:104C000000B2FCF701F80521684603F0B9F9E9E7BD
:104C10007809002008B503F00BFE114D114C124E1F
:104C2000124FDFF84C800090688820803078E07167
:104C30002878A070B889A080D8F8030000EE100A88
:104C4000BCEEC00A10EE100AA071A87EC0F380006E
:104C5000207202F0F3FF0421684603F091F9E3E7C4
:104C6000410F0020600A0020D50000205C0F0020CA
:104C7000FE00002008B503F0DBFD0A4D0A4C4FF49E
:104C80008056EF14009031462846FDF7A9FD2060BC
:104C900039462846FDF7A4FD6060C821684603F048
:104CA0006FF9F0E7001C02405C00002008B5FCF73B
:104CB0004DFE03F0BDFD0D4C009004F154050B4971
:104CC00001F15400FCF790F9084901F15400FCF798
:104CD00009FCB5F91400FCF71DFEB4F91400FCF74B
:104CE000FDFD0521684603F04BF9E8E7940F00202D
:104CF00008B503F09DFD009002F00CFB01F062FD91
:104D000001F098FF02F04EF80221684603F038F9EE
:104D1000F2E700007CB503F06FF84F48FBF712FF95
:104D20004E48FBF70FFF4C48FBF734FF4B48FBF7AF
:104D300031FF002210211E2003F026FB48490122EA
:104D4000886251034748FDF757FD4748FEF7A6FE26
:104D50004648FEF74DFE02F0ABFA02F047F8042198
:104D60004348FEF7D3FB424941F6583009680864CE
:104D70003B4804251030CDE90050AE0100233246F7
:104D80003CA1404803F0EEFC35480524001DCDE968
:104D9000004000234FF496723BA13E4803F0E2FC32
:104DA0002F4906200831CDE900010023C8223AA18D
:104DB0003C4803F0D7FC2A4903200C31CDE900011F
:104DC0000023402238A13C4803F0CCFC24480023B7
:104DD0002430CDE90050C82238A13B4803F0C2FC82
:104DE0001F4800231430CDE90040802237A13C4801
:104DF00003F0B8FC1A4800232030CDE900403246C9
:104E000038A13B4803F0AEFC154800231C30CDE927
:104E10000040EA0137A13A4803F0A4FC10480023FF
:104E20001830CDE90040802236A13B4803F09AFCBF
:104E30000B480023CDE90050C82238A13C4803F0BC
:104E400091FC4FF47A7003F075F8002003F0DEF85F
:104E5000BDE87C4002F0F0BF90040020B8040020C0
:104E6000140000200018024078050020B80500203A
:104E7000380500205461736B5F4368617373697315
:104E800000000000D14B00085461736B5F53686FE2
:104E90006F7400006D4F00085461736B5F43414EA7
:104EA00000000000894B00085461736B5F4C45445F
:104EB000426C696E6B000000494F00085461736BCF
:104EC0005F44657465637400754C00085461736BCE
:104ED0005F5374617475734D616368696E6500003A
:104EE000BD4F00085461736B5F494D5500000000D1
:104EF000F14C00085461736B5F47696D62616C002F
:104F0000AD4C00085461736B5F4A75646765526508
:104F10006365697665000000354F00085461736B66
:104F20005F436F6D6D756E69636174696F6E0000CC
:104F3000154C00084FF0FF342146012002F0D8FE46
:104F4000FEF7C2FDF8E7000008B503F071FC064D5E
:104F50004FF48044009021462846FDF746FC64212A
:104F6000684603F00DF8F6E70014024008B5FFF7B5
:104F7000E9FBFFF7F9F903F05BFC0F4DCDF80000FA
:104F800005F1280405F15006FBF7F2FF0A48FFF788
:104F90009BF92046FFF798F9FFF75EFBB08C02B251
:104FA000B5F84C0001B2A88C00B2FFF7CFFA05218A
:104FB000684602F0E5FFE7E7D809002008B503F0EE
:104FC00037FC0090FFF7EEFAFFF7F8FA0A2168467F
:104FD00002F0D6FFF8E7000010B50448FEF7C2FA69
:104FE000BDE810400148FEF79FBD00007805002095
:104FF00010B50448FEF7B6FABDE810400148FEF7C8
:105000000DBD0000B805002010B5806B0021C185E2
:10501000C184FEF7A5FA10BD0168CA6822F4907237
:10502000CA6001684A6922F001024A61202180F8C1
:105030003A10704710B590F83A10222901D002209A
:1050400010BD8168B1F5805F11D001690029016848
:105050001FD0496801F07F03816A4A1C82620B708D
:10506000C18D491E0904090CC18518D02BE00269C5
:10507000816A002A0268526805D0D2B20A80816A29
:10508000491C8162ECE7C2F308020A80816A891C2C
:10509000F7E74A68816A4B1C83620A70E0E701689F
:1050A000CA6822F02002CA600168CA6822F48072CD
:1050B000CA6001684A6922F001024A61202180F831
:1050C0003A10FEF791FC002010BD00002DE9F041E0
:1050D000044600680169E26821F44051114301610E
:1050E0002169A068E26908436169114322680843A5
:1050F000D16849F20C6399430143D160206841694A
:10510000A26921F4407111434161E2696425B2F55D
:10511000004F9748974922684FF032083FD08A42A3
:1051200001D082427CD1FDF7F3FC00EBC00101EB22
:10513000001061688900B0FBF1F6FDF7E9FC00EBB7
:10514000C00101EB001061688900B0FBF1F0B0FB19
:10515000F5F06FF01801484306EB800108EB0110F1
:10516000B0FBF5F000F0F006FDF7D2FC00EBC0015B
:1051700001EB001061688900B0FBF1F0B0FBF5F0C5
:1051800006EB0016FDF7C4FC00EBC00101EB0010BC
:1051900061688900B0FBF1F7FDF7BAFCD2E08A4202
:1051A00001D082423DD1FDF7B3FC00EBC00101EB21
:1051B000001061684900B0FBF1F0B0FBF5F00601AA
:1051C000FDF7A6FC00EBC00101EB0010616849008F
:1051D000B0FBF1F7FDF79CFC00EBC00101EB001008
:1051E00061684900B0FBF1F0B0FBF5F06FF0180119
:1051F000484307EB800108EBC100B0FBF5F000F07D
:10520000F80006EB4006FDF783FC00EBC00101EB64
:10521000001061684900B0FBF1F7FDF779FC3CE054
:1052200055E0FDF765FC00EBC00101EB0010616883
:105230004900B0FBF1F0B0FBF5F00601FDF758FCBA
:1052400000EBC00101EB001061684900B0FBF1F711
:10525000FDF74EFC00EBC00101EB00106168490056
:10526000B0FBF1F0B0FBF5F06FF01801484307EB2D
:10527000800108EBC100B0FBF5F000F0F80006EB90
:105280004006FDF735FC00EBC00101EB0010616842
:105290004900B0FBF1F7FDF72BFC00EBC00101EB7F
:1052A000001061684900B0FBF1F0B0FBF5F06FF061
:1052B0001801484307EB800108EBC100B0FBF5F093
:1052C00000F00700216830448860BDE8F081FDF7F8
:1052D0000FFC00EBC00101EB001061688900B0FB1E
:1052E000F1F6FDF705FC00EBC00101EB0010616871
:1052F0008900B0FBF1F0B0FBF5F06FF01801484306
:1053000006EB800108EB0110B0FBF5F000F0F006B1
:10531000FDF7EEFB00EBC00101EB001061688900B6
:10532000B0FBF1F0B0FBF5F006EB0016FDF7E0FB8B
:1053300000EBC00101EB001061688900B0FBF1F7E0
:10534000FDF7D6FB00EBC00101EB0010616889009E
:10535000B0FBF1F0B0FBF5F06FF01801484307EB3C
:10536000800108EB0110B0FBF5F000F00F00A9E799
:10537000001401400010014090F83910212901D09B
:10538000022070478168B1F5805F016A0BD04A1C2A
:105390000262026809785160C18C491E0904090C37
:1053A000C1840ED017E009880268C1F3080151607A
:1053B00001690029016A02D0491C0162ECE7891CDD
:1053C000FBE70168CA6822F08002CA600068C16811
:1053D00041F04001C16000207047000010B5044852
:1053E000FEF7C0F8BDE810400148FFF701B8000023
:1053F000F805002010B50448FEF7B4F8BDE81040E9
:105400000148FEF70BBB000038060020FEE7000055
:1054100030B50C46050014D0022C12D90A48A11E42
:1054200042892846FBF7BCFD2919C2B211F8023C9B
:105430009A4206D111F8011CB1EB102F01D10120C5
:1054400030BD002030BD0000D400002030B50C4637
:1054500005000CD0022C0AD9FF22611EFBF7B6FD15
:10546000291911F8011C814201D1012030BD002011
:1054700030BD0000F0B43448DFED320A354CC0EDE9
:10548000010AC0ED020A31484FF4B4714FF4B47709
:10549000B0F916504FF4B470A5F5B055D03D454362
:1054A00000EE105A2C480023B8EEC01A9FED280ACF
:1054B00040F2D476C1EE001AC4ED011AB0F916001C
:1054C00000F62B024A43A0F5B851D4397943B042D3
:1054D00002DC01EE102A01E001EE101A1F4F4FF01E
:1054E000000CF8EEC11A81EE801A84ED021AC4EDA8
:1054F000030AC4ED040A00BF01EE105A03EB830453
:1055000007EB8404B8EEC11AB042C1EE001AC4ED34
:10551000001A02DC01EE102A01E001EE101A5B1CF9
:10552000DBB2F8EEC11A0A2B81EE801A84ED011A63
:10553000C4ED020AC4ED030A84F810C0DCD3F0BC49
:10554000FEF7FABB00000000840E0020940F00203C
:1055500000F8FF457C000020E80F0020E40C00204C
:1055600003B401984100009850EAC12018BF0420FC
:105570004A0D18BF40F0010040F2FF72B2EB515FDC
:1055800008BF40F00200012808BF052002B07047A4
:105590000907090E002804DB00F1E02080F8001460
:1055A000704700F00F0000F1E02080F8141D7047F4
:1055B00070B5C1482DED020B2DED0E8B82B0119D03
:1055C00025F000449FEDBEDB9FEDBFEB84423EDB48
:1055D000A4F140511098A1F17F6108430FD0BC485D
:1055E000844202DC28D1109830B39DED100B02B03C
:1055F000BDEC0E8B02B0BDE8704001F085B89DEDAA
:10560000100B53EC1D2B51EC100BFAF7C9FF9DED5D
:10561000100B41EC180B53EC1E2B51EC100BFAF74E
:10562000BFFF53EC182BFAF714FF41EC100B02B03C
:10563000BDEC0E8B02B070BD012001F0A9F802B0E4
:10564000BDEC0E8B02B0BDE8704001F071B8A1480E
:105650009FEDA18B844256DA9DED100BB4F1795F7A
:105660000ADA51EC100BFFF77BFF042808BF01F0AA
:105670006FF89DED100BDAE753EC102B51EC100B8B
:10568000FAF78EFF41EC190B95480621B0EE490A56
:10569000F0EE690A784400F023FF53EC192B51EC2B
:1056A000100BFAF77DFF41EC1A0B8E48B0EE490A59
:1056B000F0EE690A0421784400F012FF53EC192B34
:1056C00051EC100BFAF76CFF53EC182BFAF7C1FEF4
:1056D00041EC100B51EC1A0B53EC102BFAF7D2FFE4
:1056E000CDE900019DED000B53EC102B9DED100B4F
:1056F00051EC100BFAF754FF9DED101B53EC112BDE
:10570000FAF7A7FED2E09DED100B51EC100B01F063
:105710004DF853EC182BFAF740FF9FED730BCDE9D2
:10572000000153EC102B9DED000B51EC100BFAF720
:1057300037FF41EC190B6E480621B0EE490AF0EE36
:10574000690A784400F0CCFE53EC192B51EC100B95
:10575000FAF726FF41EC1B0B6648B0EE490AF0EE63
:10576000690A0421784400F0BBFE53EC192B51EC7C
:10577000100BFAF715FF53EC182BFAF76AFE41EC01
:105780001C0B51EC190B02F07BFA41EC180B5A4838
:105790009FED5BABA04222DC53EC1C2B51EC1B0BAE
:1057A000FAF770FFCDE900019DED000B51EC180BED
:1057B00053EC102BFAF7F4FE53EC182BFAF749FED2
:1057C00053EC1A2BFAF7ECFE53EC1D2BFAF7E2FE22
:1057D00053EC1E2BFAF7E1FE41EC100B5FE08DED70
:1057E000008B002000909DED000B51EC180B53EC4A
:1057F000102BFAF72EFE9DED000B41EC1E0B53EC27
:10580000102B51EC100BFAF7CBFE53EC192BFAF7D7
:10581000C4FE53EC1E2BFAF735FF41EC190B53EC89
:105820001C2B51EC1B0BFAF72DFF41EC1B0B53EC1F
:105830001A2B51EC190BFAF7B3FE53EC1D2BFAF7A8
:10584000ACFE41EC190B53EC1A2B51EC180BFAF788
:10585000A7FE53EC1B2BFAF7A3FE53EC192BFAF718
:1058600099FE9DED000B41EC180B53EC1A2B51ECFB
:10587000100BFAF795FE9FED249B53EC192BFAF7CA
:105880008CFE41EC100B51EC180B53EC102BFAF77B
:1058900081FE53EC192BFAF780FE41EC100B002D22
:1058A0003FF7C5AE51EC100B81F0004141EC100BFD
:1058B000BDE60000000000000000F03F0000000016
:1058C000075C143326A6913C182D4454FB21F93F64
:1058D0000000F07F0000E03F000000000000F03F0B
:1058E000903700009E370000000000000000E03FFD
:1058F000E2360000F03600003333EF3F00000000D6
:105900000000000000000040182D4454FB21E93F36
:1059100070B59B482DED020B2DED068B079D25F0F4
:105920000044A04218DC9748844202DC0AD1069861
:1059300040B19DED060BBDEC068B02B0BDE870409A
:1059400000F0E2BE002DCCBF9FED8F0B9FED900BC2
:10595000BDEC068B02B070BD8F48A04215DD8F48AC
:10596000A042D8BF4FF0FF3458DD9DED060B51EC3F
:10597000100BFFF7F5FD042808BF00F0E9FE9DEDD0
:10598000060BBDEC068B02B070BD9DED060B51EC15
:10599000100B00F00BFFCDE9060181489FED828BD3
:1059A000A0423CDD8248A0421FDD00249FED82AB77
:1059B0009DED060B53EC1A2B51EC100BFAF749FD39
:1059C0009DED060B41EC190B53EC1A2B51EC100B0F
:1059D000FAF7E6FD53EC182BFAF7DCFD53EC192B24
:1059E000FAF750FECDE9060149E09DED060B0124D2
:1059F00053EC182B51EC100BFAF72BFD9DED060B19
:105A000041EC190B53EC182B51EC100BFAF7C2FDBB
:105A100053EC192BFAF736FECDE906012FE0684862
:105A2000A0421FDD02249FED689B9DED060B53EC09
:105A3000192B51EC100BFAF7B3FD53EC182BFAF7B6
:105A400008FD9DED060B41EC180B53EC192B51ECA6
:105A5000100BFAF79FFD53EC182BFAF713FECDE964
:105A600006010CE09DED060B032453EC102B9FED7B
:105A7000580B51EC100BFAF705FECDE906019DED30
:105A8000060B53EC102B51EC100BFAF789FD41EC8F
:105A9000180B53EC182BFAF783FD41EC190B4E4809
:105AA0000621B0EE490AF0EE690A784400F018FDCC
:105AB00053EC182B51EC100BFAF772FD41EC180B5C
:105AC0004648B0EE490AF0EE690A0521784400F034
:105AD00007FD53EC192B51EC100BFAF761FD41EC6B
