:020000040800F2
:10000000F050002081020008A9440008F9370008D8
:10001000D9430008F50A00085956000800000000FE
:10002000000000000000000000000000C101000806
:10003000A50E0008000000001D020008C9480008C5
:100040009B0200089B0200089B0200089B0200081C
:100050009B0200089B0200089B0200089B0200080C
:100060009B0200089B0200089B0200089B020008FC
:10007000B90D00089B020008C50D00089B0200088E
:100080009B020008D10D00089B0200089B0200089B
:10009000F90A00089B0200089B0200089B02000866
:1000A0009B0200089B0200089B0200089B020008BC
:1000B000CD4900089B0200089B0200089B02000833
:1000C0009B0200089B0200089B0200089B0200089C
:1000D0009B020008295600089B0200089B020008AA
:1000E0009B0200089B0200089B0200089B0200087C
:1000F0009B0200089B0200089B0200089B0200086C
:100100009B0200089B0200089B0200089B0200085B
:100110009B0200089B0200089B0200089B0200084B
:100120009B020008DD0D0008E90D00089B02000895
:100130009B0200089B0200089B0200089B0200082B
:100140009B020008050B00089B0200089B020008A8
:100150009B020008F50D00089B02000841560008AC
:100160009B0200089B0200089B0200089B020008FB
:100170009B0200089B0200089B0200080000000090
:100180009B0200089B02000891510008A951000839
:100190009B0200089B0200089B0200089B020008CB
:1001A00000000000000000009B020008DFF80CD0F7
:1001B00000F064FC004800476B740008F050002019
:1001C0002C4B19680868B0E8F04F80F30988BFF33A
:1001D0006F8F4FF0000080F311887047000000001F
:1001E00008480068006880F308884FF0000080F33A
:1001F000148862B661B6BFF34F8FBFF36F8F00DF15
:1002000000BF00BF08ED00E0DFF80C00016841F41A
:1002100070010160704700BF88ED00E0EFF30980D6
:10022000BFF36F8F134B1A681EF0100F08BF20ED3D
:10023000108A20E9F04F106009B44FF0500080F3AD
:100240001188BFF34F8FBFF36F8F08F0F5F84FF0B1
:10025000000080F3118809BC19680868B0E8F04F05
:100260001EF0100F08BFB0EC108A80F30988BFF3AE
:100270006F8F704740010020EFF30580704700004A
:100280000648804706480047FEE7FEE7FEE7FEE730
:10029000FEE7FEE7FEE7FEE7FEE7FEE77949000836
:1002A000AD01000801804280436070472DE9F04FA6
:1002B0000288D0F80480B0F802904888D1F804E0B1
:1002C00083B04FF0000A1746824207BF098889456C
:1002D0006FF0020003B018BFBDE8F08F4FEA990B32
:1002E00002EB42000290C9F3400001900EEB8A013C
:1002F000BBF1000F2FD0029801EB820C01EB8004C0
:10030000434601EBC205CDF800C0584653F8046BD4
:100310000E6053F8046BCCF8006053F8086B2E6045
:1003200053F8046C266001EB02110CEB021C05EB88
:10033000021504EB0214401EE8D1009808EB0B18DC
:1003400000EB820000EB820000EB8201ABF10100C8
:10035000504301EB001119F0030C19D0A8F104036C
:10036000A1EB82011CF0010F04D001EB820153F8D4
:10037000040F0860019848B15C6841F8224001EB25
:10038000C20153F8084F0C60401EF5D108EB8C08F1
:100390000AF101001FFA80FA781E07043F0CA5D16C
:1003A00003B00020BDE8F08F2DE9F05F0546002086
:1003B00092469B4688460646814640241BE02846D6
:1003C00041464746224600F052FA53465A46C01A62
:1003D000914110D311461846224600F039FA2D1AE1
:1003E00067EB01084F4622460120002100F030FA59
:1003F00017EB00094E41201EA4F10104DFDC484642
:1004000031462A464346BDE8F09F40EA01039B0778
:1004100003D009E008C9121F08C0042AFAD203E079
:1004200011F8013B00F8013B521EF9D27047D2B2DD
:1004300001E000F8012B491EFBD270470022F6E7CD
:1004400010B513460A4604461946FFF7F0FF20464A
:1004500010BD2DE9FE4F804681EA0300C00F0C4617
:10046000009021F0004123F00045B8EB0200A941C3
:1004700005D24046214690461C460B46024623F0D4
:100480000040104347D0270DC7F30A00C3F30A51B9
:100490000290401A019040286BDAC3F3130040F435
:1004A000801B0098924620B10023D2EB030A63EB35
:1004B0000B0B01985946C0F14002504600F0C8F9B4
:1004C00006460D4650465946019A00F0E0F910EBF9
:1004D00008006141002487EA115284EAE7731A4355
:1004E00040D0009A62B3019A012A4FEA075215DC04
:1004F000001B61EB02014FF0004202EA0752CDE916
:100500000042001C41F5801132462B4600F017FADC
:1005100003B0BDE8F08F40462146F9E7001B61EBD0
:100520000201001C41F5801300185B412018A2F560
:10053000001747EB030140EAD570B6196D4111E091
:100540006D084FEA360645EAC0754FEA0752001BB0
:1005500061EB0201001C41F5801149084FEA3000AF
:100560000019514132462B4603B0BDE8F04F00F070
:10057000D7B90098012240000023D0EB020263EBC0
:10058000E073009821464FEAE074B8EB000061EB9D
:100590000401E9E783F000435BE781F0004158E79D
:1005A0002DE9FE4F81EA030404F0004421F00041EC
:1005B00000944FF0000B23F0004350EA01045ED09A
:1005C00052EA03045BD0C3F30A54C1F30A552C4426
:1005D000A4F2F3340194A0FB0254C1F3130141F4DB
:1005E0008011C3F3130343F4801301FB024400FBA7
:1005F000034E840A970A44EA815447EA8357A4FBCE
:10060000076802958D0A05FB07854FEA932C04FBCA
:100610000C542705029D4FEA065847EA1637B5EBFA
:1006200008056EEB070C870E920E47EA811742EA27
:100630008312A7FB0201B6EB0B0164EB00042B0D48
:1006400043EA0C335E1844EB1C50DA465146E7FB94
:100650000201C5F313044FEA0B3343EA14534FEA84
:100660000432019C43EA0603A4F10C040294009CAA
:10067000CDE900B400F063F903B0BDE8F08F0020CD
:100680000146F9E72DE9F04D81EA030404F0004B3F
:1006900021F0004514464FF0000A23F0004150EAD3
:1006A000050220D054EA01021DD0C5F30A570246C4
:1006B000C5F31303C1F31300C1F30A5640F48015C8
:1006C00043F48013A7EB0608101BD64608F2FD384A
:1006D00073EB050002D308F1010801E092185B41B9
:1006E000B8F1000F03DA00200146BDE8F08D0020CC
:1006F0004FF48011064684460EE0171B73EB050786
:1007000005D3121B63EB050306434CEA010C4908B1
:100710004FEA300092185B4150EA0107EDD152EAEE
:10072000030012D082EA040083EA0501084305D0E1
:10073000101BAB4106D20122002306E000224FF03D
:10074000004302E06FF0010253101AEB06004CEB7D
:10075000085110EB0A0041EB0B01BDE8F04D00F031
:10076000DFB80EB5C10F80EAE0700844CA07002167
:1007700040F233438DE80E000A460B4600F0DFF8E6
:1007800003B000BD70B5C1F30A5201F0004500246A
:10079000C1F3130140F2FF3341F480119A4201DAB0
:1007A000002070BD40F233439A42A2F2334203DC90
:1007B000524200F05CF800E090402C43F1D04042FF
:1007C00070BD00F0004230F000400AD0C10D01F5CC
:1007D0006071C0F3160042EA0151C208400711439C
:1007E000704700200146704730B5041E71F10004C7
:1007F00004DB4FF00044404264EB0101141E73F12E
:10080000000405DB1C464FF00043524263EB040337
:10081000994208BF904230BD01F0004330B421F04E
:10082000004150EA010206D00A0DA2F56072C1F340
:100830001301002A02DC30BC00207047440F44EA58
:10084000C104C100E01830BC00EBC25000F031B868
:10085000202A04DB203A00FA02F100207047914080
:10086000C2F1200320FA03F3194390407047202A75
:1008700004DB203A21FA02F00021704721FA02F34A
:10088000D040C2F120029140084319467047202A07
:1008900006DBCB17203A41FA02F043EAE07306E0A8
:1008A00041FA02F3D040C2F12002914008431946B8
:1008B00070470029A8BF7047401C490008BF20F0BE
:1008C0000100704710B4B0FA80FC00FA0CF050EA56
:1008D000010404BF10BC704749B1CCF1200421FAD7
:1008E00004F411FA0CF118BF012121430843A3EBD2
:1008F0000C01CB1D4FEA00614FEA102042BF0020DF
:1009000010BC704700EBC35010440029A4BF10BCBA
:100910007047401C490008BF20F0010010BC704720
:1009200010B5141E73F1000408DA401C41F10001F7
:1009300092185B411A4301D120F0010010BD2DE94E
:10094000F04D92469B4611B1B1FA81F202E0B0FA45
:1009500080F220329046FFF77BFF04460F4640EAC4
:100960000A0041EA0B0153465A46084313D0114688
:1009700053EA010019D0C8F140025046FFF777FF53
:1009800005460E46504659464246FFF761FF08436A
:1009900005D0012004E020463946BDE8F08D002056
:1009A000054346EAE0762C4337430A986305E40A98
:1009B000A0EB08000022FD0A44EA47540A3002D5A1
:1009C00000200146E9E7010510196941DDE9084504
:1009D00000196941BDE8F04DA2E72DE9F04D002373
:1009E0001A461B1A8A4103DB00200146BDE8F08D40
:1009F000C1F30A52C1F3130141F480154FF0000B0B
:100A0000D10702D100186D41521E0027044640F262
:100A1000FF11384601EB620A3E468046024600203E
:100A20004FF48011FFF723FFC2197141BB1846EB49
:100A30000100B4EB030C75EB000C04D3E41A65EB76
:100A4000000517460E46241908F101006D41804645
:100A50003428E3DDF91946EB0600091BA84103D24F
:100A60004FF0FF32134601E0002213461BEB070054
:100A700046EB0A51BDE8F04DFFF752BF064C074D5B
:100A800006E0E06840F0010394E80700984710345E
:100A9000AC42F6D3FFF78EFB449200086492000844
:100AA0000EB540F2334102910021CDE900110A4612
:100AB0000B46FFF744FF03B000BD30B58C1810F8AB
:100AC000012B12F00F0301D110F8013B120906D1DE
:100AD00010F8012B03E010F8015B01F8015B5B1ECD
:100AE000F9D101E001F8013B521EFBD1A142E6D34E
:100AF000002030BDFEE70000014800F0B2BF00005A
:100B000090040020014800F0ACBF0000B8040020B1
:100B100000B587B000910021029103910821049152
:100B20000649884201D1012303E00549884203D1E7
:100B30000223694600F036FE07B000BD9004002095
:100B4000B804002010B5044610488AB0844202D18F
:100B50000021084604E00E48844215D10E210120F0
:100B6000059100210122CDE9061200910191029127
:100B7000CDE903100E20CDE908206946204600F09B
:100B800075FE204601F04EFA0AB010BD9004002018
:100B9000B80400200549884201D1022103E004493C
:100BA000884202D1102100F0EBBD70479004002074
:100BB000B80400200B4A012313705B025360030A40
:100BC00013725072090A9172D07200201073507320
:100BD0009073D0730346044803220249006807F06B
:100BE0003BBD0000080900204C000020094ADFED51
:100BF0000A0A0020B1EE080AB0EE001A00EB8001EC
:100C000002EBC1010C31401C81EC030A0228F5DB28
:100C100070470000180900208FC2F53C90ED061ABD
:100C200080ED071AB0F90210B0F90420891A00EE1D
:100C3000101A1D4AF8EEC00AC0ED060A90ED080A27
:100C400030EE200A10EE101A80ED080A914201DD04
:100C50009FED160A164A10EE101A80ED080A91420E
:100C600001D99FED140A4FF47A5280ED080AD0EDB5
:100C7000031A90ED042A61EEA01A42EE001A30EE3B
:100C8000C10AD0ED050A40EE801ABDEEE10A10EE71
:100C9000101A4162914200DB1146074A41629142BB
:100CA00000DC11464162704700606A4600606A4697
:100CB00000606AC600606AC680C1FFFFF0B53848B0
:100CC000384B012290F802C0B0F900403648664225
:100CD000002105683548BCF1000F0768344806D08C
:100CE000BCF1020F03D0BCF1010F17D014E00FB913
:100CF000027041700DB94270017084600178012961
:100D000002D1002C00DA86604278012A04D1826880
:100D1000012901D15142816000893AE00FB9012DCA
:100D200001D01DB104E00270417009E0012F02D032
:100D30003D4303D004E04270017001E04270027054
:100D4000C4600278012A03D04578012D04D013E055
:100D50004278012A10D103E0012A01D0C6600BE0DD
:100D60008288B2F5487F01D9C66081808288B4F557
:100D7000FA5F12D0521C82800E4A147814B1448853
:100D8000641C44804488B4F5FA6F01D91170418025
:100D90008089414259805885F0BD921CEBE70000E4
:100DA0007000002018090020600000205C00002076
:100DB0000C000020D0000020014801F079B90000AB
:100DC000D8060020014801F073B900007806002021
:100DD000014801F06DB9000038070020014801F01A
:100DE00067B90000F8070020014801F061B9000070
:100DF00098070020014801F05BB900005808002066
:100E000001681823CAB2103AB2FBF3F2054B6FF334
:100E10000901032A9B5CC36500D9091D8165084649
:100E2000704700000890000810B5014600208B694B
:100E30008A6A4FF0C07453B1B3F5005F15D072B138
:100E4000012A0CD0022A0AD0032A09D104E01AB1DF
:100E5000012A06D0022A03D1C96AC90100D501209E
:100E600010BDC96AA142FAD010BD002AF7D0012AEC
:100E7000F2D0022AF3D0032AF3D010BD30B50468B3
:100E8000256825F480252560046863608368402B0D
:100E9000036803D099600068C26030BD9A60006842
:100EA000C16030BD7047704709490020097849B1D9
:100EB000012902D0022903D004E041F27C5001E074
:100EC00041F65E20034942424A804885704700004F
:100ED0006D0000207809002010B558B1084C491E5B
:100EE0000BD310F8013B5340DBB234F8133083EAE4
:100EF0001222F4E74FF6FF7010BD104610BD00003F
:100F0000088E000810B5054C04E000BF10F8013B46
:100F10005340E25C491EF9D2104610BD088D00080E
:100F20002DE9F05F0E462DED068B0446DFF8508369
:100F3000D44D05E098ED0C0A401E84ED010A28709E
:100F400028780028F6D1D048DFF840A30078DFEDFC
:100F5000D09ADFF840B39FEDD09AD04F9FEDD08A62
:100F600080B101287DD1CF480122DFF83C93807BFE
:100F7000DFEDCE8A012875D0042872D128690028B7
:100F800071D0E4E0BF4DDFF828832C3595ED01AA40
:100F900085ED00AAB8F9080000F13201DFEDC58A3D
:100FA000642911D9FFF7DDFB9FEDC30B53EC102B28
:100FB000FFF7F6FA9FEDC20B53EC102BFFF762FB25
:100FC000FFF72AFC686001E0C5ED018AD5ED010A52
:100FD000B0EE4A0A03F06AFB85ED010AD4ED010A7E
:100FE00030EE800A02E000BF30EE480A10EE100A30
:100FF00084ED010AB842F7DA04E000BF30EE080AD7
:1010000084ED010AB5EEC00AF1EE10FAF6D39D495F
:10101000243191ED010A81ED000AB8F9060000F1D2
:101020003202642A0AD900EE900AF8EEE00A9FED37
:10103000A61AC0EE811AC1ED011A01E0C1ED018AC4
:10104000D1ED010A03F032FB81ED010AD6ED010A70
:1010500030EEC00A10EE100A86ED010A504505DD9B
:1010600002E00DE010E06FE0B0EE690A10EE100A49
:1010700086ED010A584501D8B0EE409A86ED019AF6
:10108000BDEC068BBDE8F09F904800214FF4B4738F
:101090000170B9F91600DFF838C2A0F5B050D038A9
:1010A000584300EE100AF8EEC00A80EEA80A10EECF
:1010B000103A634500DBAA7000EE100A854BF8EE8B
:1010C000C00A80EEA80A10EE102A9FED830ADFED19
:1010D000830A6C484078401CC0B29A4201DCA97077
:1010E0000FE0A978012901D059B117E094ED011A58
:1010F00031EE000A84ED010A96ED010A30EE600A35
:1011000009E094ED011A31EE000A84ED010A96ED32
:10111000010A30EE200A86ED010A687094ED010A9A
:1011200010EE100AB84209DD30EE480A84ED010ADB
:10113000F6E700BF30EE080A84ED010AB5EEC00AFA
:10114000F1EE10FAF6D39BE72A6104F0B9FA64488D
:1011500090ED001A84ED011AB0EE410A04E000BFE0
:1011600030EE480A84ED010A10EE100AB842F7DCAE
:1011700004E000BF30EE080A84ED010AB5EEC00AB3
:10118000F1EE10FAF6D3574890ED000A10EE100A6F
:10119000F0EE400A86ED010A504501DDB0EE690A25
:1011A00010EE100A86ED010A584501D8B0EE409ABB
:1011B000B2EE040A86ED019A60EE800A4FF4B47133
:1011C000FDEEE00A10EE900A61EE000AA881FDEE45
:1011D000E00A10EE900AE881B9F91600A0F5B050C7
:1011E000D038484300EE900A3F49B8EEE01AC1EE0D
:1011F000280A10EE902A00EE900A8A42F8EEE00AE1
:1012000080EEA81A09DD71EE480AFDEEE00A10EE44
:10121000900A00EB8000400005E061EE000AFDEE60
:10122000E00A10EE900AA880D8ED0C0A10EE900AA1
:10123000884209DD70EEC80AFDEEE00A10EE900A61
:1012400000EB8000400005E060EE800AFDEEE00A61
:1012500010EE900AE8802548D0ED000A60EE800A82
:10126000FDEEE00A10EE900A28812148D0ED000A38
:1012700020EE800ABDEEC00A10EE100A6881FFE67B
:1012800000020020000100206C000020E4761C42D7
:10129000E4761C4279176FC179176FC10000B4431F
:1012A0000000B4433C0E0020240F002000F8FF454E
:1012B0007000002000000000000000000000E03F7F
:1012C0000000000000A08440000025446E000020C3
:1012D0000000A041000060410AD7233F0AD7A33D88
:1012E000B0000020AC00002000003443800000204B
:1012F000840000202DE9F05FDFF84483DFF8449399
:10130000DFF844A30C002DED068B05469FEDCF8A38
:10131000DFEDCF9ADFEDCF8A9FEDCF9ADFF83CB3B8
:10132000CF4FD04E9FEDD0AA7DD094ED112ACF495A
:1013300084ED122A4FF4B472B1F91600A0F5B05042
:10134000D038504300EE100AF8EEC00ADFEDC81A9C
:1013500080EEA10A84ED030AD4ED010A30EEC00A42
:1013600010EE100A84ED110A404501DD30EE4A0A04
:1013700010EE100A84ED110A484501D930EE0A0A30
:1013800010EE100A84ED110A10F17E5F09D210EE02
:10139000100AB0F1814F04DAD4ED130A70EE800A1E
:1013A00001E0DFEDB40A10EE900AC4ED130A5045D7
:1013B00001DDF0EE480A10EE900AAF4AC4ED130AC0
:1013C000904201D9F0EE690AC4ED130A94ED0E1AA9
:1013D000D4ED0F2AA94A21EE001A30EE420A02EE9D
:1013E000A01AD4ED100A00EE801A11EE100A84ED56
:1013F000141A904201DD9FEDA21AA24A11EE100AC2
:1014000084ED141A904201D99FED9F1A84ED141AAD
:1014100084ED021A94ED0A0A84ED0B0A96ED050A92
:1014200000EE281A00E05BE084ED0A1A94ED0C0A45
:10143000964A30EE010A10EE100A84ED0C0A904232
:1014400001DD9FED930A934A10EE100A84ED0C0A19
:10145000904201D99FED900A84ED0C0AB1F9160073
:101460004FF4B471A0F5B050D038484300EE100AE4
:10147000F8EEC00A80EEA10A03F018F800EE100A98
:10148000D4ED070AD4ED081AB8EEC01A94ED0A0A92
:1014900094ED0C2A814960EE800A41EE820AD4ED77
:1014A0000B1A30EE610AD4ED091A41EE800A31EED2
:1014B000200A10EE100A84ED0D0A884202DDF0EEDB
:1014C000490A01E0F0EE400A10EE101AFDEEE00AC3
:1014D000594510EE900A00B2A08200D93846A08289
:1014E000002D7DD095ED111A85ED121A96ED0C0A9E
:1014F00085ED030A95ED010AD6ED0C0A70EE200A7F
:1015000010EE900AC5ED110A404501DD70EECA0AE1
:1015100010EE900AC5ED110A484501D970EE8A0A0D
:10152000C5ED110A95ED130A30EE200A10EE100AEF
:1015300085ED130A504501DCB0EE408A18EE100A22
:101540004D4985ED138A884201D8F0EE489AC5EDE1
:10155000139A95ED0E0AD5ED0F1A514920EE200A87
:1015600070EEC10A95ED101A01EEA90A01EE200AEB
:1015700010EE100A85ED140A884201DD9FED490A3C
:10158000494910EE100A85ED140A884201D99FEDF1
:10159000470A474985ED140A85ED020A95ED0A1AB6
:1015A00085ED0B1AD6ED060A00EEE80A85ED0A0A6B
:1015B000D5ED0C0A70EE800A10EE900AC5ED0C0A0B
:1015C000884201DDDFED3B0A3B4910EE900AC5ED94
:1015D0000C0A884201D9DFED390AC5ED0C0A00E09A
:1015E00022E0D5ED071A2D4961EE808AD5ED081A63
:1015F00030EE410A41EEA08AD5ED090A40EE808A1C
:1016000018EE900AC5ED0D8A884201DCB0EE689AAA
:1016100018EE901ABDEEC90A594510EE100A00B234
:10162000A88200D80746AF8225480078022802D158
:101630000020A882A082BDEC068BBDE8F09F0000D0
:1016400000003443000034C300401C4600401C46E8
:1016500000401CC63333654200C0DA4600C0DAC61B
:10166000A092FFFF000200200000B443240F0020DE
:1016700000F8FF450000000000401CC600001643B3
:1016800000001643000016C3000016C300803B454F
:1016900000803B4500803BC500803BC500C0DA466A
:1016A0000000964300009643000096C3000096C3D6
:1016B0000000FA440000FA440000FAC40000FAC432
:1016C0006C0000201FB502218DF8001040F2FF21B0
:1016D000019100218DF808108DF80910020A8DF88B
:1016E0000A208DF80B00044803910B46032269463B
:1016F000006806F0B1FF1FBD4C0000201FB501219E
:101700008DF8001040F2FF210191010A8DF80810B8
:101710008DF8090000208DF80A008DF80B000346B3
:101720000390034803226946006806F095FF1FBD39
:101730004C00002011489FED100A80ED070A80ED53
:10174000080A80ED090A80ED0E0A80ED0F0A80ED8F
:10175000100A543880ED070A80ED080A80ED090A66
:1017600080ED0E0A80ED0F0A80ED100AB3EE040A38
:1017700080ED010A7047000000000000780F002093
:1017800090F82020012A07D0022A05D0416A41F4AE
:101790008021416201207047006842690A4342612A
:1017A00000207047F0B590F820500468A468012D1F
:1017B00005D0022D03D0416A41F4802153E014F09A
:1017C000406F01D1E5004BD5C4F30164022C03D96D
:1017D000416A41F4000146E00125A5401D608D6885
:1017E0004FF4C0739DB1CE6835434E6845EAC605D7
:1017F000066803EB0417F5514FF4C275076805EB53
:1018000004150E697E51097D012905D009E00E8875
:10181000CD6845EA4655EBE701684E5946F48076B7
:101820004E511179D2F805504FF4C67641EA05259C
:10183000016806EB04168D511178D2F801204FF49F
:10184000C47541EA0221026805EB04155151006894
:1018500003EB0411425842F0010242500020F0BD57
:10186000416A41F4001141620120F0BD10B590F8C9
:101870002020012A07D0022A05D0416A41F48021A4
:101880004162012010BD3B48D0F8002242F0010225
:10189000C0F80022D0F8002222F47C52C0F80022C6
:1018A000D0F800224B6A42EA0322C0F800220A7DE7
:1018B00002F01F0301229A40D0F81C329343C0F873
:1018C0001C32CB69B3B9D0F80C329343C0F80C3258
:1018D0008C894B6864F31F434C6900EBC404C4F863
:1018E00040320C890B6864F31F434C6900EBC4045D
:1018F000C4F84432CB69012B16D1D0F80C32134313
:10190000C0F80C320C884B6864F31F434C6900EB41
:10191000C404C4F840320C89CB6864F31F434C699B
:1019200000EBC404C4F844328B69002BD0F80432B5
:101930000ED01343C0F804320B69002BD0F81432D8
:1019400008D01343C0F81432096A012904D008E012
:101950009343EFE79343F5E7D0F81C121143C0F827
:101960001C12D0F8001221F00101C0F80012002072
:1019700010BD000000640040704730B590F8204072
:10198000012C05D0022C03D0416A41F480215DE096
:101990000468002955D02469A40754D04FF4D874A2
:1019A000056804EB01142D5915F0040595600568D0
:1019B0002D594ED0ED08556005682C59C4F34004EC
:1019C000D4604FF4DA74056804EB01142D5905F066
:1019D0000F05156105682D59C5F307259561056843
:1019E0002C59240C54614FF4DC72046802EB011290
:1019F000A4581C700468A458240A5C700468A45895
:101A0000240C9C700468A258120EDA704FF4DE7237
:101A1000046802EB0112A4581C710468A458240A3B
:101A20005C710468A458240C9C710468A258120EBE
:101A3000DA71006881B1016941F020010161002083
:101A400030BDE468A8E7416A41F400114162012019
:101A500030BD6D0D1560AFE7C16841F02001C16078
:101A6000EDE72DE9F05F0546006800244669D0F8EF
:101A700004908768D0F80CB0D0F810A0D0F8188087
:101A8000F10748D0F90714D001218160B80703D5C8
:101A9000284600F0F4FA0CE0780702D54FF4006411
:101AA00007E0380702D54FF4805402E0284600F0E2
:101AB000E5FAF80516D529684FF480708860B805F6
:101AC00003D5284600F0DDFA0CE0780502D544F491
:101AD000005407E0380502D544F4804402E028466B
:101AE00000F0CEFAF80316D529684FF480308860EC
:101AF000B80303D5284600F0C6FA0CE0780302D5F7
:101B000044F4004407E0380302D544F4803402E092
:101B1000284600F0B7FA300707D55FEACB6004D556
:101B20002968102044F40074C86070074FF008075B
:101B300007D55FEA0B7004D52868C760284600F017
:101B400099F9B00706D52868C068800702D02846F2
:101B500000F092F9700607D55FEACA6004D52968DB
:101B6000102044F480640861B00607D55FEA0A706B
:101B700004D528680761284600F0F6F9F00606D576
:101B800028680069800702D0284600F0EFF9B0030A
:101B900008D55FEAC96005D5296810204860284645
:101BA00000F03EFAF00307D55FEA097004D5286813
:101BB0004760284600F068FA300446D55FEA49706D
:101BC00040D5F00504D55FEAC87001D044F00104A7
:101BD000B00504D55FEA887001D544F002047005B1
:101BE00004D55FEA487001D544F00404300529D5D6
:101BF00018F0700F26D008F07000402815D006DCD1
:101C0000102809D020280AD0302816D10AE0502800
:101C10000ED0602811D10EE044F008040DE044F02D
:101C200010040AE044F0200407E044F0400404E01B
:101C300044F0800401E044F480742868816921F054
:101C400070018161296804204860002C05D0686A11
:101C5000204368622846FFF78FFEBDE8F09F70B50D
:101C6000040003D094F8200010B104E0012070BDFE
:101C7000204600F081F82068016821F0020101602F
:101C800000F096FC0546052604E000F091FC401BA0
:101C90000A2811D8206840688007F6D420680168B7
:101CA00041F00101016000F083FC05460BE000F00B
:101CB0007FFC401B0A2806D9606A40F4003060624D
:101CC00084F82060D2E720684068C007EFD0207E0B
:101CD0000128206801683DD021F080010160607E0C
:101CE00001282068016838D021F040010160A07E01
:101CF00001282068016833D021F020010160E07ED6
:101D00000128206801682ED041F010010160207F79
:101D100001282068016829D021F008010160607F56
:101D200001282068016824D021F004010160D4E971
:101D300002010843D4E90412114308436168491EB3
:101D400008432168C86100206062012084F82000F7
:101D5000002070BD41F08001C0E741F04001C5E7BF
:101D600041F02001CAE721F01001CFE741F008015E
:101D7000D4E741F00401D9E7F0B587B00446142157
:101D80006846FEF75BFB364B3648DFF8D0E0196853
:101D9000D4F800C0334A0325022609271030002456
:101DA000491CF44522D11960012907D1016841F08D
:101DB00000710160006800F000700590106840F04C
:101DC000080010601068CDE9005600F00800CDE969
:101DD000047069462448CDE9024500F0F1FA00227A
:101DE0000521142000F070FC142033E0DFF87CE0C3
:101DF000F44531D1D0F800C04CF0806CC0F800C080
:101E0000D0F800C001290CF0806CCDF814C0196026
:101E100007D1016841F000710160006800F00070B6
:101E20000590106840F002001060106802AB00F0EE
:101E3000020005904FF44050CDE9000683E8B00061
:101E400069460B4800F0BCFA00220521412000F051
:101E50003BFC412000F02AFC07B0F0BD00640040CC
:101E60000400002030380240000C024000680040AE
:101E7000000402407047000000B589B007AB6A4615
:101E800000213448FFF779FD009940F20522A1F2C4
:101E90000520914231D019DC40F202222E489142B5
:101EA0002DD02ADC66293AD0A1F50071013924D160
:101EB0000189491C0181BDF81C1049BA0180BDF897
:101EC0001E1049BA8180BDF820103FE0012814D0CF
:101ED000022812D0032810D004280ED11F480188F0
:101EE000491C0180BDF81C1049BAC182BDF81E1002
:101EF00049BA01829DF82210017609B000BD018E19
:101F0000491C0186BDF81C1049BA0185BDF81E1098
:101F100049BA8185BDF8201049BAC185EDE7BDF801
:101F20001C00104A41BA0E4801809DF81E108170B5
:101F300011709DF81F100A09C27001F00F010171A4
:101F4000BDF8201049BA0181BDF8221049BAC180FC
:101F5000D3E700009004002018090020780F00202B
:101F6000700000206C0000207047000000B589B0B0
:101F700007AB6A4601212648FFF7FFFC0099254878
:101F8000A1F50071013916D0012924D0022932D0DF
:101F900009290ED120480188491C0180BDF81C1078
:101FA00049BAC182BDF81E1049BA01829DF82210BB
:101FB000017609B000BD0189491C0181BDF81C10E2
:101FC00049BA0180BDF81E1049BA8180BDF82010C1
:101FD00049BAC180EDE7018E491C0186BDF81C108D
:101FE00049BA0185BDF81E1049BA8185BDF8201097
:101FF00049BAC185DDE709480188491C0180BDF85F
:102000001C1049BAC180BDF81E1049BA4180D0E702
:10201000B804002078090020240F0020C8090020FF
:102020007047000070B5044690F82000012804D0E5
:10203000606A40F40020606218E0022084F820000A
:102040002068016821F00101016000F0B1FA054645
:102050000EE000BF00F0ACFA401B0A2808D9606A05
:1020600040F400306062052084F82000012070BD3B
:1020700020684068C007EDD1606270BD704770474E
:102080007047704770477047704790F835100229C5
:1020900003D08021416501207047052180F835106B
:1020A0000068016821F00101016000207047000014
:1020B0002DE9F84304464FF00009CDF8009063483D
:1020C0004FF41651A56D0068B0FBF1F72E6894F837
:1020D0005C10082000FA01F131420FD021680A6833
:1020E00052070BD50A6822F004020A6094F85C10CB
:1020F0008840A860606D40F00100606594F85C1055
:102100004FF0010808FA01F0304208D0216849690F
:10211000090604D5A860606D40F00200606594F87F
:102120005C1004208840304208D021680968890783
:1021300004D5A860606D40F00400606594F85C1000
:1021400010208840304218D021680968090714D54A
:10215000A86020680168490304D50068000308D519
:10216000A16C07E00168C90503D4016821F00801EA
:102170000160216C09B12046884794F85C1020204A
:102180008840304231D021680968C9062DD5A86041
:1021900094F8350005282068016806D0490347D522
:1021A000006800031DD4616C1CE021F01601016081
:1021B0002068416921F080014161206C08B9A06C60
:1021C00020B12068016821F00801016094F85C10DA
:1021D0003F208840A86084F8349084F83580216DD1
:1021E0001FE0E16B09B120468847606D00282BD0C5
:1021F000606DC00714D0052084F8350020680168A0
:1022000021F0010101600098401C0090B84203D801
:1022100020680068C007F6D184F8349084F83580CF
:10222000E16C002910D001B02046BDE8F04308471A
:102230000168C905D5D4016821F01001016084F856
:10224000349084F83580CCE7BDE8F883080000209E
:102250002DE9F041044600F0ABF906465CB10025DB
:1022600084F83450022084F835002068016821F099
:10227000010101600DE00120BDE8F08100F098F956
:10228000801B052805D920206065032084F83500CF
:10229000F2E720680068C007F0D122681168204882
:1022A0000140D4E901031843D4E90336334318430A
:1022B00063691843A3691843E3691843236A184301
:1022C0000843616A042903D1D4E90B131943084375
:1022D000106020684069666A20F0070130460E43AE
:1022E000012704280CD1A06A0643E06A40B12046C9
:1022F000FEF79AFD20B14020606584F83570BAE79A
:10230000206846612046FEF77BFD94F85C203F2163
:1023100091408160656584F835700020ACE700006D
:102320003F8010F02DE9F0410446866D90F83400AE
:10233000002501280DD0012084F8340094F8357070
:102340000020012F07D084F8340002252846BDE87C
:10235000F0810220FBE7022784F835706065204693
:10236000FEF78CFD94F85C103F208840B060206838
:10237000016841F0160101602068416941F0800167
:102380004161206C20B12068016841F008010160C2
:102390002068016841F001010160D7E770B504468B
:1023A00000F006F90546601C02D004480078044499
:1023B00000F0FEF8401BA042FAD370BD34010020AB
:1023C0002DE9F84FDFF890B100224FF001084FF0EF
:1023D000030A4FF00F090BF1040E00BF0B6808FA57
:1023E00002F42340A3426ED14D68022D01D0122D7C
:1023F0000ED1D50800EB850CDCF820505607F70EFF
:1024000009FA07F6B5430E69BE402E43CCF82060AA
:10241000066855000F790AFA05FC07F0030726EA5B
:102420000C06AF40374307604E68012E05D0022EE0
:1024300003D0112E01D0122E0ED18768CE6827EA64
:102440000C07AE403E4386604668A6430C79C4F351
:102450000014944034434460C4688E6824EA0C0439
:10246000AE402643C6604C68E4006FD53B4C2568FF
:1024700045F480452560246822F0030504F4804477
:102480000094374C2E19D6F8084895072F0F09FAF3
:1024900007F5AC43334DA84201D100252EE0324D63
:1024A000A84201D1012529E0304DA84201D10225E1
:1024B00024E02F4DA84201D103251FE02D4DA84255
:1024C00002D104251AE041E02B4DA84201D1052597
:1024D00014E02A4DA84201D106250FE0284DA8425C
:1024E00001D107250AE0274DA84201D1082505E0C2
:1024F000254DA84201D1092500E00A25BD4025430C
:10250000C6F80858DBF800405D464E689C43F60369
:1025100000D51C432C60DEF8004075464E689C4395
:10252000B60300D51C432C600B4D08352C684E6853
:102530009C43F60200D51C432C60074D0C352C68DB
:102540004E689C43B60200D51C432C60521C102AD6
:10255000FFF444AFBDE8F88F003C0140443802402E
:102560000030014000000240000402400008024028
:10257000000C02400010024000140240001802400B
:10258000001C024000200240002402400069084074
:1025900000D001207047426931EA020200D10904EB
:1025A000816170470AB1816170470904FBE700004F
:1025B00001488068704700003401002002488168AB
:1025C0000278114481607047340100200B4810B537
:1025D000016841F400710160016841F480610160AB
:1025E000016841F480710160032000F08DF8002043
:1025F00000F006F800F03EF8002010BD003C02405C
:1026000010B5014688B000221C2000F05DF81C20A7
:1026100000F04CF814480024016841F00101016009
:10262000006805A900F001000690684600F016F960
:1026300000F034F90D494000B0FBF1F10C484FF0C7
:102640008042491E026040F2E732C0E90324C0E93B
:10265000011400F08DFC10B1012008B010BD044839
:1026600000F0A2FCF9E700004038024040420F00B1
:10267000B80800200C4882B0016841F48041016034
:10268000006800F4804000900748001F016841F096
:10269000805101600068002200F0805000900F21FE
:1026A000901E02B000F010B844380240002809DB48
:1026B00000F01F02012191404009800000F1E0205C
:1026C000C0F8001170470000F0B40E4B1B680C46B8
:1026D000C3F30223C3F10705042D00D90425191DF6
:1026E000072901D2002300E0DB1E012606FA05F1CE
:1026F000491E214099409E40761E16403143F0BC51
:1027000003F046B80CED00E0064900F00702086847
:102710004FF6FF03184040EA0220034A10430860C6
:10272000704700000CED00E00000FA052DE9F047CD
:102730000E46050065D0DFF81481D8F80000F7B226
:1027400000F00F00B04207D288F80070D8F80000FF
:1027500000F00F00B04254D128683D4C810712D5DB
:10276000400703D5206840F4E05020602878000737
:1027700003D5206840F4604020602068A96820F0FC
:10278000F000084320602878C0072DD030496868E1
:102790000839012812D0022813D0032811D0096863
:1027A000890700292DDA216821F003010143216006
:1027B000FFF7FEFE814641F2883A0EE00968890380
:1027C000EFE709688901ECE7FFF7F2FEA0EB0901EA
:1027D000514502D90320BDE8F0872068696800F000
:1027E0000C00B0EB810FEFD1D8F80010404601F09B
:1027F0000F01B14207D90770006800F00F00B04226
:1028000001D00120E7E72878400705D52068E9686E
:1028100020F4E050084320602878000706D520689F
:10282000296920F4604040EAC100206000F056F8B9
:102830002168084AC1F30311515CC8400649086089
:102840000020FFF7DDFE0020C5E70000003C02404D
:1028500008380240F08C0008080000200F220260B7
:102860000C4A136803F003034360136803F0F0039A
:102870008360136803F4E053C36012684FF4E053BD
:1028800003EAD20202610448006800F00F00086009
:102890007047000008380240003C024004480549E7
:1028A00000680968044AC1F38221515CC84070473E
:1028B0000800002008380240008D0008044805493F
:1028C00000680968044AC1F34231515CC84070474E
:1028D0000800002008380240008D0008154810B597
:1028E000006810F00C02144813D01449042A0FD0C9
:1028F000082A0ED10F4C241F2268236802F03F02E1
:102900005B0207D52068C0F38810A0FB010106E038
:10291000084610BD2168C1F38811A1FB0001002306
:10292000FDF742FD2168C1F30141491C4900B0FB9C
:10293000F1F010BD083802400024F400001BB7007D
:102940002DE9F84F050076D02878DFF8F8B2BE4CB4
:10295000C00749D0DBF800105846C1F381010129B6
:1029600008D00068C0F3810002280AD1201D006849
:10297000400206D52068800336D568680028E2D07A
:1029800032E06868B0F5803F10D0B0F5A02F206825
:1029900010D020F480302060206820F48020206057
:1029A0006868A0B1FFF704FE06460CE0206840F41A
:1029B0008030F4E740F480202060F7E7FFF7F8FD6F
:1029C000801B642873D820688003F7D50CE0FFF7DC
:1029D000EFFD064605E000BFFFF7EAFD801B642817
:1029E000F0D820688003F7D42878DFF86082800769
:1029F0004FF000093ED5DBF80010584611F00C0FDF
:102A000009D00068C0F3810002280BD18D48001F57
:102A10000068400206D42068800715D5E8680128C0
:102A200009D111E0E868B8B10120C8F80000FFF74B
:102A3000BFFD064605E002E1FFF7BAFD801B022854
:102A4000C0D820688007F7D52068296920F0F800F1
:102A500040EAC10020600DE0C8F80090FFF7A8FD33
:102A6000064604E0FFF7A4FD801B02281FD820685B
:102A70008007F7D42878000722D5724E7448696918
:102A80006C3671B101210160FFF792FD074604E049
:102A9000FFF78EFDC01B022809D830688007F7D5E4
:102AA0000EE0C0F80090FFF783FD074605E083E0E5
:102AB000FFF77EFDC01B02287ED830688007F7D460
:102AC0002878400768D5DFF87CA100270AF1380A8A
:102AD000DAF80000C0000BD4DAF8001041F08051A1
:102AE000CAF80010DAF80000012700F080500090CA
:102AF000584E3068C00510D4306840F480703060A3
:102B0000FFF756FD009005E0FFF752FD0099401ACF
:102B1000022851D83068C005F6D54A4EA8686836F4
:102B200001280FD00528306810D020F00100306057
:102B3000306820F004003060A868B8B1FFF738FDB5
:102B400000900FE0306840F00100F4E740F004002E
:102B50003060F7E7FFF72CFD0099411A41F2883009
:102B6000814264D830688007F4D50EE0FFF720FD7D
:102B7000009007E0FFF71CFD0099411A41F28830F0
:102B8000814254D830688007F4D42FB1DAF80010AD
:102B900021F08051CAF80010A869C0B3DBF800101A
:102BA000C1F3810102294AD00228484607D0C8F85B
:102BB0006000FFF7FDFC00E039E005463AE04746DB
:102BC000C8F86000FFF7F4FC064604E0FFF7F0FCED
:102BD000801B02282BD820688001F7D4D5E9070193
:102BE0000843A96A1C4A490802EB01416A6A41EAA2
:102BF0008211084395F82C1040EA01611148001F2A
:102C0000016001203866FFF7D3FC054605E014E0BB
:102C1000FFF7CEFC401B022809D820688001F7D5B9
:102C20000BE000BFFFF7C4FC401B022802D90320C1
:102C3000BDE8F88F20688001F4D40020F8E7012077
:102C4000F6E7000008380240003802400000474222
:102C5000800E4742007000400000FFFF70B5040086
:102C600005D00025A56294F8510010B106E00120BE
:102C700070BD84F85050204600F030F8022084F8EF
:102C800051002068016821F040010160D4E9010190
:102C90000843D4E903121143084361690843218BB7
:102CA00001F400710843E1690843216A0843A16AFD
:102CB000084321680860A069042101EA1040616AA4
:102CC0000843216848602068C16921F40061C1613E
:102CD0006565012084F85100002070BD10B586B0F4
:102CE000044614216846FDF7A9FB14492068884270
:102CF00021D113480021026842F48012026000686A
:102D000000F4801005900E481438026842F020024A
:102D10000260006800F0200005904FF460700090A1
:102D20000220CDE9010103200390052004906946AB
:102D30000448FFF745FB06B010BD000000500140FD
:102D400044380240001402402DE9F84F044690F840
:102D5000500000270A9E1D4692468B464FF00109FF
:102D600001280ED0012084F85000FFF721FC804696
:102D700094F85100616801280CD0B1F5827F07D129
:102D800002E00220BDE8F88FA16809B9042801D04B
:102D90000227C2E0BBF1000F27D0BAF1000F24D008
:102DA0001DB394F85100042802D0052084F8510086
:102DB00000206065C4F838A0E587A587C4F830B066
:102DC000E586A5862064606420680168490603D40E
:102DD000016841F040010160E068B0F5006F606893
:102DE00005D0E8B3012D46D07FE0012795E008B17A
:102DF000012D39D1206B21680088C860206B801CB0
:102E00002063E08E401EE0862EE0206881688907FE
:102E10000FD5E18E69B1B9F1010F0AD1216B098893
:102E2000C160206B801C2063E08E401EE0864FF066
:102E3000000920688168C9070CD0E18F51B1C068D2
:102E4000A16B0880A06B801CA063E08F401EE08710
:102E50004FF00109FFF7ACFBA0EB0800B04200E027
:102E600009E001D3701C50D1E08E0028CDD1E08F55
:102E70000028CAD13FE0206B216800780873206BDE
:102E8000401C2063E08E401EE0862EE020688168B2
:102E900089070FD5E18E69B1B9F1010F0AD1216B14
:102EA00009780173206B401C2063E08E401EE08691
:102EB0004FF0000920688168C9070CD0E18F51B13B
:102EC000C068A16B0870A06B401CA063E08F401E1F
:102ED000E0874FF00109FFF76BFBA0EB0800B04261
:102EE00002D3701C01D010E07EB1E08E0028CDD15D
:102EF000E08F0028CAD142463146204601F05EFBF1
:102F000028B101272020606507E0032705E0A068BD
:102F100018B92068C16880680090012084F85100C9
:102F2000002084F8500038462CE77047704770B591
:102F300090F83C20012A19D0012400F83C4F0222CD
:102F4000427050F83C3C5A689D6822F070060A684E
:102F50004968324325F0800529435A6050F83C2CDB
:102F60009160447000210170084670BD022070BD60
:102F700010B5040003D094F83D0010B107E0012023
:102F800010BD002084F83C00204600F00CF8022020
:102F900084F83D00211D206801F01EFD012084F809
:102FA0003D00002010BD70470168CA6842F0010270
:102FB000CA600068816801F00701062903D0016832
:102FC00041F00101016000207047704770B5044670
:102FD000006801694FF00005C943890715D4C1682D
:102FE000C943890711D4E91E0161012020772068B7
:102FF00080698007204602D0FFF7E7FF04E000F079
:10300000C1F8204600F056F9257720680169C943C8
:10301000490717D4C168C943490713D46FF00401A5
:103020000161022020772068806910F4407F2046EB
:1030300002D0FFF7CAFF04E000F0A4F8204600F039
:1030400039F9257720680169C943090716D4C16891
:10305000C943090712D46FF00801016104202077E9
:103060002068C0698007204602D0FFF7AEFF04E069
:1030700000F088F8204600F01DF9257720680169E6
:10308000C943C90617D4C168C943C90613D46FF030
:1030900010010161082020772068C06910F4407F8A
:1030A000204602D0FFF791FF04E000F06BF82046C5
:1030B00000F000F9257720680169C943C90708D1E4
:1030C000C168C943C90704D1891E0161204600F0C7
:1030D00015F920680169C943090609D4C168C943C3
:1030E000090605D46FF0800101612046FFF71DFF3E
:1030F00020680169C943490609D4C168C943490622
:1031000005D46FF040010161204600F0FEF8206810
:103110000169C94389060BD4C168C943890607D42C
:103120006FF0200101612046BDE87040FFF7FEBE50
:1031300070BD000010B586B0044614216846FDF746
:103140007DF90D492068884214D10C48002102689D
:1031500042F002020260006800F0020005902020A8
:1031600000900220CDE90101CDE903106946044831
:10317000FFF726F906B010BD0004004030380240C9
:1031800000040240704770B5044690F83C000D46BC
:1031900001280DD0012684F83C60022084F83D000F
:1031A00042B1042A18D0082A2AD00C2A4DD139E07D
:1031B000022070BD206801F081FC2068816941F027
:1031C000080181612068816921F004018161206822
:1031D00081692A69114311E0206801F09FFC206891
:1031E000816941F4006181612068816921F4806115
:1031F0008161206881692A6941EA0221816124E0B4
:10320000206801F0C1FC2068C16941F00801C1617A
:103210002068C16921F00401C1612068C1692A697F
:10322000114311E0206801F0E3FC2068C16941F41A
:103230000061C1612068C16921F48061C1612068B9
:10324000C1692A6941EA0221C16184F83D60002018
:1032500084F83C0070BD10B5040003D094F83D0024
:1032600010B107E0012010BD002084F83C0020468A
:1032700000F00CF8022084F83D00211D206801F0C8
:10328000ABFB012084F83D00002010BD08B50068AC
:103290000649884208D10648016841F002010160F0
:1032A000006800F00200009008BD0000000400402B
:1032B000403802407047000010B504460068012203
:1032C00001F0EEFB0B492068884202D00A4988428F
:1032D00003D1416C41F4004141642068816801F0F0
:1032E0000701062903D0016841F0010101600020B7
:1032F00010BD000000000140000401400068B0F172
:10330000804F01D1FFF75AB97047704770470000EE
:1033100070B5026804461068D168536910F00F0F49
:1033200050D003F0010501F4907635435DD0C2071B
:1033300005D0CA0503D5E26B42F00102E263420701
:1033400005D5DA0703D0E26B42F00202E26382079E
:1033500005D5DA0703D0E26B42F00402E26302070C
:1033600005D5DA0703D0E26B42F00802E263E26BB4
:10337000002A33D0800604D5880602D5204601F005
:103380007FFF20684069E16BC0F38010090700D41B
:1033900028B3204601F05DFF2068416949061AD52F
:1033A000416921F040014161606BA0B11B49016599
:1033B000606BFEF76AFE002810D0606B016DBDE8FF
:1033C00070400847830610D58B060ED52046BDE811
:1033D000704001F055BF2046FFF798FF70BD2046B2
:1033E000FFF794FF0020E06370BD030606D50B06CF
:1033F00004D52046BDE8704002F0E4B84006F3D59D
:103400004806F1D5D168204621F04001D160202145
:1034100084F8391000F0EEF970BD0000C1510008C9
:1034200070B5040004D094F83900002510B106E00E
:10343000012070BD84F83850204600F023F8242085
:1034400084F839002068C16821F40051C160204629
:1034500001F062FF2068016921F490410161206858
:10346000416921F02A0141612068C16841F400519D
:10347000C160E563202084F8390084F83A00002018
:1034800070BD00002DE9F04F87B005461421684655
:10349000FCF7D4FFAB48DFF8A8821038D5F800C09D
:1034A000A84B02220321DFF8A0E2871500240615AD
:1034B0004FF0010B4FF0080A4FF02069C44553D17B
:1034C000D3F800C04CF0804CC3F800C01B6803F078
:1034D00080430593036843F010030360006800F025
:1034E00010000590CDE9031AC8018DE8050869466A
:1034F0007046FEF765FFDFF8588294494046C8F8E9
:103500000010C0E90194C0E90346C8F81440C0E9BE
:103510000647C8F82040C8F82440FEF799FE08B1D5
:10352000FDF7C1FC8A4F8948C5F8348060373038D0
:10353000C8F83850E7E80209402051C7844847F8E6
:1035400014496030BC61FC613C627C62FEF780FE25
:1035500008B1FDF7A8FC2F63002205215220BD63AE
:10356000FFF7B2F8522041E0DFF8E881C44542D1CC
:10357000D3F800C04CF0004CC3F800C01B6803F047
:1035800000430593036843F010030360006800F0F4
:10359000100005908DE80608CDE9031A69467046CB
:1035A000FEF70EFFDFF8A881684908F1C00848312E
:1035B0004046C8F80010C0E90194C0E90346C8F8C5
:1035C0001440C0E90647C8F82040C8F82440FEF778
:1035D0003FFE08B1FDF767FCC5F8348000220521E5
:1035E0005320C8F83850FFF76FF85320FFF75EF804
:1035F00007B0BDE8F08F534BDFF85C811B1DC4455D
:103600003FD1D3F800C04CF0100CC3F800C01B68C9
:1036100003F010030593036843F00203036000689E
:1036200000F002000590C0208DE815000720CDE9CC
:10363000031069464948FEF7C3FEDFF82881484970
:103640004046C8F800104FF00061C0E90114C0E91D
:103650000346C8F81440C0E90647C8F82040C8F837
:103660002440FEF7F5FD08B1FDF71DFCC5F83480D8
:10367000002205212520C8F83850FFF725F825201D
:10368000B4E7DFF8E480C445B2D1D3F800C04CF011
:10369000200CC3F800C01B6803F0200305930368E7
:1036A00043F0400303600068CDE9024100F04000B0
:1036B00005904FF48440CDE90002CDF810A0694692
:1036C0002A48FEF77DFEDFF89C80254908F1600856
:1036D00018394046C8F80010C0E90194C0E9034613
:1036E000C8F81440C0E90647C8F82040C8F824408C
:1036F000FEF7AEFD08B1FDF7D6FB1A4F1848C5F826
:103700003480C0376030C8F83850E7E802094020FC
:1037100051C7144847F81449C030BC61FC613C6291
:103720007C62FEF795FD08B1FDF7BDFB2F6300221B
:1037300005214720BD63FEF7C7FF472056E700007D
:1037400000780040403802400010024058600240BB
:1037500078060020007C0040001001400004024078
:103760004064024098070020001401400018024005
:103770007047000070B5044690F83900202830D119
:1037800069B362B394F8380001282AD0012084F884
:1037900038002162A284E2840025E563212084F8B8
:1037A0003900236B1048D863236B10481864236BCF
:1037B0000F48D864206B134605652668206B321DC0
:1037C000FEF7B0FD21686FF04000086084F83850C3
:1037D0002068416941F080014161002070BD0120F5
:1037E00070BD022070BD00001B5200084952000845
:1037F000D151000870477047FEE7000010B504463D
:103800000068416941F04001416121681923054A7E
:10381000091D606BFEF786FD2068C16841F010014C
:10382000C16010BD280E00201CB500210091416B25
:103830000068C268D2062FD50268426802684068F4
:1038400001900868026822F0010202600A6850686C
:103850004FF01903C0F1190010F0FF0F5360096811
:103860000A6842F001020A6016D00C480178662905
:1038700012D1007C88280FD109486946006804F0FD
:1038800029FD0098002807D006494FF080500860B5
:10389000BFF34F8FBFF36F8F1CBD0000280E0020B9
:1038A0003C00002004ED00E02DE9F0478849814606
:1038B0002DED028B142201F11400FCF7A6FD8449C2
:1038C000142214314878B0FBF2F302FB130681484E
:1038D0004B884278A3F54C44521CD5B2A0F120028B
:1038E000CC3C08D017880124BB420CD19470BDECAD
:1038F000028BBDE8F0874EF6EE6111804570EE2137
:103900008170C1704FE0A3F53B42BB3A39D0884685
:103910009FED718A714D724F7248A3F57F41FF3957
:103920004AD006EB860100EB8104207C0028DED023
:1039300005F07EF867494039CA6AC862821A0E707B
:103940000020207494ED000AD8ED010A664870EE5C
:10395000200AC1ED0C0AC1ED010A98ED020A10EE31
:10396000103A83425FD010EE103A604EB3425AD004
:1039700094ED011A31EE400A81ED0D0A81ED070A3E
:1039800062E05B494570097881705A4991ED000AFF
:10399000BCEEC00A10EE101A018157490988418116
:1039A0005649097801734846BDEC028B1422BDE8E4
:1039B000F0474849FFF7DEBE51494FF4B472B1F900
:1039C0001610A1F5B051D039514300EE101AB8EEDF
:1039D000C00A9FED4C1AC0EE010A97ED0C0A01E0F7
:1039E00070EEC80A10EE901AA942F9DC02E000BF9E
:1039F00030EE480A10EE101AA942F9DC06EB8601F7
:103A000000EB81053348C5ED000A083885ED010A51
:103A1000C0ED000A80ED010A014608224846FFF782
:103A2000A9FE2C7463E710EE103A834202D191EDA7
:103A3000070A07E097ED0C0A10EE100AA84201DD14
:103A400030EE480A81ED0D0AD1ED0D1A9FED2E1AC8
:103A50009FED2E0AC1ED021A002A0ED091ED092A1F
:103A600030EEC22A62EE012A02EE102AB8EE422A95
:103A700082EE823A84ED023A01E084ED020AC1ED61
:103A8000090A81ED050AD1ED0A0A71EEE00A60EE3D
:103A9000810A01EE102AB8EE411A80EE812A84EDE7
:103AA000032A08D000EE102AB8EE400A80EE801AF1
:103AB00084ED031A01E084ED030AC1ED0A1A94EDC6
:103AC000020A81ED030A94ED030A81ED040A0EE770
:103AD000280E0020BC0000200000B4430000344346
:103AE00000020020980C002000007F4300007FC3EC
:103AF0006F00002064000020DC000020D0000020C7
:103B0000240F002000F8FF4500007A440000000068
:103B100010B504460068416941F0400141612168E7
:103B20008223054A091D606BFEF7FCFB2068C16813
:103B300041F01001C16010BD500E00202DE9F0478A
:103B40000024144D144E20E0285DA52801D0641CEB
:103B50001AE028198146B0F80570F781B0F80180A5
:103B6000052101F099FD70B1484608F1090101F005
:103B700075FD40B13946204600F050F804EB0800CE
:103B80000930C4B201E00934E4B2706A8442DBDB7C
:103B9000BDE8F087500E0020D00000201CB5044680
:103BA000002000902068C168C9062ED501684068D1
:103BB0000190606B0068016821F001010160606B99
:103BC00000684068C0F1820010F0FF0013D00F4978
:103BD0008C4210D10E4948620E486946006804F0D4
:103BE00079FB009838B10C494FF080500860BFF362
:103BF0004F8FBFF36F8F616B822009684860606BE5
:103C00000068016841F0010101601CBD78050020D9
:103C1000D00000203800002004ED00E00A46A1F2A8
:103C200001233F4930B4014440F201243D48A242FF
:103C300045D01FDC40F20114A2F20113A24230D0A1
:103C40000FDC012A20D0022A24D0032A25D0042AFE
:103C500005D1B1F80720A0F81320497A417530BC8E
:103C60007047012B22D0032B25D0042BF7D1C97923
:103C70008170F4E7092BF2D2DFE803F00525293043
:103C8000333943494D00EAE7B1F807200282497A07
:103C90008174E4E7C9794170E1E72148202282304C
:103CA00018E0D1F80710C0F81610D8E7D1F80710BF
:103CB000C0F81A10D3E7B1F807100181CFE7184810
:103CC0001222A23006E016481022B43002E0144856
:103CD0001022C43030BCC91DFCF797BBC979C17034
:103CE000BDE7B1F807204281497A0173B7E7C97986
:103CF00001710909B3D1012101700B49002008802D
:103D0000ADE751F8072F826289888185A7E7B1F86E
:103D100007108181A3E7D1F80710C0F81E109EE7B5
:103D2000500E0020D00000200E00002010B54448A6
:103D30002DED068BF7EE008AC0ED1D8A9FED419AAE
:103D400080ED1E9A9FED408A80ED1F8AC0ED208A8B
:103D5000DFED3E9A9FED3EAAC0ED2D9A80ED2EAA92
:103D6000C0ED218A80ED228A80ED238AC0ED248A6D
:103D7000C0ED258A80ED268A80ED278AC0ED288A4D
:103D80009FED340A354980ED290A80ED2A8A9FED9E
:103D9000320A80ED2B8A80ED2C0AB1F916104FF40F
:103DA000B472A1F5B051D039514300EE101ADFEDD5
:103DB0002C0A0146B8EEC00A80EE201A80ED031AE4
:103DC00080ED048AF83803F0CFFA1D489FED250AEC
:103DD000C0302649C0ED1D8A80ED1E9A80ED1F8AF5
:103DE000C0ED208AC0ED2D9A80ED2EAAC0ED218A6B
:103DF00080ED228A80ED238AC0ED248AC0ED258AD9
:103E000080ED268A80ED278AC0ED288A80ED290A78
:103E100080ED2A8A9FED140A80ED2B8A80ED2C0A12
:103E200091ED0C0A014680ED030A80ED048AA0F5AD
:103E30009E70BDEC068BBDE8104003F095BA000003
:103E4000180B00200AD7A33B0000000017B7513918
:103E50006F12033B00007A430000FA44240F002055
:103E600000F8FF45000002430000FA430002002072
:103E70001CB50446002000902068C168C90632D5F0
:103E800001684168016840680190606B00680168E2
:103E900021F001010160606B006840681249C0F1C7
:103EA0000A00C0B20978442913D110498C4210D1BC
:103EB0000F49C8600F486946006804F00BFA009883
:103EC00038B10D494FF080500860BFF34F8FBFF3FA
:103ED0006F8F616B0A2009684860606B0068016839
:103EE00041F0010101601CBDF0090020B80500206F
:103EF0005C0000203000002004ED00E010B5044616
:103F00000068416941F04001416121680A23054A86
:103F1000091D606BFEF706FA2068C16841F01001C8
:103F2000C16010BDF009002010B524482DED068BAE
:103F300000F10A040168C0F80A104168C0F80E10C8
:103F400001894182A0793038FCF70BFC9FED1C1BE6
:103F500053EC112BFCF724FB41EC180B6079303843
:103F6000FCF7FFFB9FED181B53EC112BFCF718FB24
:103F700041EC190B20793038FCF7F3FB9FED141B53
:103F800053EC112BFCF70CFB41EC1A0BA0783038EA
:103F9000FCF7E7FB53EC1A2BFCF75BFA53EC192BFD
:103FA000FCF757FA53EC182BFCF753FAFCF734FCE8
:103FB00009498860BDEC068B10BD0000F0090020A7
:103FC000FCA9F1D24D62503F7B14AE47E17A843FA9
:103FD0009A9999999999B93F5C0000200F4810B5BA
:103FE0000D4901600321416000214FF400228160EE
:103FF000C0E903124FF440124261017641768176A6
:10400000C17601774177FDF72AFE002803D0BDE88D
:104010001040FCF748BF10BD006400409004002031
:104020000F4810B50D4901600321416000214FF494
:1040300000228160C0E903124FF440124261017610
:1040400041768176C17601774177FDF708FE002839
:1040500003D0BDE81040FCF726BF10BD006800404B
:10406000B8040020214808B5016841F480010160CE
:10407000016801F480010091016841F400110160C0
:104080000068002200F40010009011460C20FEF79A
:104090001BFB0C20FEF70AFB002211460E20FEF748
:1040A00013FB0E20FEF702FB002211461120FEF743
:1040B0000BFB1120FEF7FAFA002211463920FEF719
:1040C00003FB3920FEF7F2FA002211463A20FEF7F0
:1040D000FBFA3A20FEF7EAFA002211464520FEF7E5
:1040E000F3FABDE808404520FEF7E0BA3038024058
:1040F00000B587B01C2206496846FCF786F9002106
:10410000684603F0ACFB0349086007B000BD00003F
:10411000D48C0008000000202DE9F04186B0142165
:104120006846FCF78BF940480024016841F0100113
:104130000160016801F010010591016841F0020180
:104140000160016801F002010591016841F0400140
:104150000160016801F040010591016841F0010131
:104160000160016801F001010591016841F0080159
:104170000160016801F008010591016841F08001CA
:104180000160016801F080010591016841F02001A2
:1041900001600068254E00F020004FF400550590A6
:1041A000002229463046FEF7FDF9214F01223C212D
:1041B0003846FEF7F7F9DFF87C80002244F2400130
:1041C0004046FEF7EFF900950125CDE90154694617
:1041D00030460394FEF7F4F83C200090CDE90154FA
:1041E000694638460394FEF7EBF84020CDE9000518
:1041F0000320CDE9024069464046FEF7E1F84FF45E
:10420000C050CDE90004694638460294FEF7D8F85C
:10421000A8030090CDE90154694640460394FEF797
:10422000CFF806B0BDE8F0813038024000180240F7
:10423000001C0240001402400F4810B50D490160F7
:104240004FF48271416000218160C1604FF40072BF
:104250000161C0E90512C1610162416281620A2106
:10426000C162FEF7FBFC002803D0BDE81040FCF75C
:104270001ABE10BD00500140E004002010B58AB005
:10428000002407941C2168460894FCF7D7F81648C8
:10429000144901605321C0E9011440F2CF71C0E913
:1042A00003148461FEF7D7FF08B1FCF7FCFD079407
:1042B00007A90D480894FEF73AFE08B1FCF7F3FD94
:1042C0006020CDE900040294042269460648049463
:1042D000FEF759FF08B1FCF7E6FD0348FEF72AFF99
:1042E0000AB010BD00040040380500200C4810B58D
:1042F0000A4901604FF4E1314160002181600C22E4
:10430000C160C0E904128161C161FFF789F800282A
:1043100003D0BDE81040FCF7C6BD10BD00780040DA
:10432000780500200C4810B50A4901604FF461413E
:104330004160002181600C22C160C0E904128161EA
:10434000C161FFF76DF8002803D0BDE81040FCF70D
:10435000AABD10BD007C0040B80500200E4810B575
:104360000C4901600D4941604FF48051816000218A
:104370004FF48062C0E903120C22C0E90521C1613B
:10438000FFF74EF8002803D0BDE81040FCF78BBDC6
:1043900010BD000000100140F8050020A0860100BB
:1043A0000C4810B50A4901604FF4E1214160002139
:1043B00081600C22C160C0E904128161C161FFF714
:1043C0002FF8002803D0BDE81040FCF76CBD10BDED
:1043D0000014014038060020FEE7000090ED061AA8
:1043E00080ED071AB0F90210B0F90420891A00EE26
:1043F000101A1D4AF8EEC00AC0ED060A90ED080A30
:1044000030EE200A10EE101A80ED080A914201DD0C
:104410009FED160A164A10EE101A80ED080A914216
:1044200001D99FED140A4FF47A5280ED080AD0EDBD
:10443000031A90ED042A61EEA01A42EE001A30EE43
:10444000C10AD0ED050A40EE801ABDEEE10A10EE79
:10445000101A4162914200DB1146074A41629142C3
:1044600000DC11464162704700606A4600606A469F
:1044700000606AC600606AC680C1FFFF08489FED01
:10448000070ADFED080A00F10C01B2EE001A81EC18
:10449000030A343080EC030A704700009A991141F6
:1044A00078090020CDCC4C3D7047000010B5164C6B
:1044B0009FED161A2DED028B84ED060AD4ED070A46
:1044C000F8EEE00A30EE600AC0EE010A9FED100A35
:1044D00020EE800A10EE100AFCF773F941EC100B85
:1044E00001F086FDB0EE408AF0EE608A6069FCF76C
:1044F00068F953EC182BFCF753F8FCF743F9BDECC3
:10450000028B00B210BD0000000100200000344307
:10451000DA0F49403EB52349002201920968C96873
:10452000C9063ED520490B684968006801684068A3
:104530001E4900900868036823F0010303600868BF
:104540004368C3F11903DCB2194B1C7005682D03D5
:1045500006D5026822F4002202600120587004E0AF
:10456000056845F4002505605A70122C01D0022020
:1045700058700A68192050600868016841F001010C
:1045800001600C4801A9006803F0A4FE019800280E
:1045900007D009494FF080500860BFF34F8FBFF339
:1045A0006F8F3EBDF80500200010014098070020E5
:1045B000540000205000002004ED00E038B50B4608
:1045C000009204460022802100F008F8002804D060
:1045D000606D40F020006065032038BD2DE9F0419A
:1045E0001D4617460E460446DDF8188008E0681C94
:1045F00006D0FDF7DDFFA0EB0800A8420BD255B1B5
:104600002068806836EA000030D00020B842EED141
:104610000020BDE8F0812068416821F0E0014160A0
:104620006068B0F5827F0BD1A068B0F5004F02D072
:10463000B0F5806F04D12068016821F0400101606D
:10464000A06AB0F5005F09D12068016821F400512B
:1046500001602068016841F400510160012084F884
:104660005100002084F850000320D2E70120CDE75C
:1046700030B40C4B02241C7024025C60040A1C72CF
:104680005872080A9872D972100A18735A73002067
:104690009873D8730346044803220249006830BC6B
:1046A00003F0DABF680900204C0000200548F7EE4F
:1046B000001A90ED081A21EE000A31EEC11A01EE3F
:1046C000200A7047000100200448022101700021E7
:1046D000417081700121C170704700006C000020A2
:1046E0000948017849B1012904D0022904D10021E7
:1046F000417006E00221417070470449CA78427057
:1047000009798170704700006C0000207000002063
:1047100010B590F90A10002918DCB0F90230002217
:104720000B496333C62B10D8436AA3F51C54103CC5
:1047300003D042F21074E34207D18B785B1CDBB2EA
:104740008B70142B02D3282383728A7010BD000053
:104750005600002070B523480026234C8088C828C6
:1047600001D3267003E0782801D8012020701F486B
:104770001F4D01781C48B0F9040011B1012909D07E
:104780001BE01C490978012917D12178012914D18E
:10479000288113E018498A7B042A0ED14988022215
:1047A000B2EB112F02D12881667007E061780A29E7
:1047B00003D82881491C617000E02E810C48FFF766
:1047C000A7FF95F90A00002804DD401EA872A08802
:1047D00040422881207800B92E81BDE8704004480D
:1047E00000F022B8140A0020560000206C000020BF
:1047F000C80900206E0000203C0E00200748B1EEE2
:10480000080A002180ED030A9FED050A80ED040AE5
:104810009FED040A80ED050A01817047C809002058
:104820005839B43C0000000090ED061A80ED071ADC
:10483000B0F90810B0F90220891A00EE101A1D4ACA
:10484000F8EEC00AC0ED060A90ED080A30EE200A24
:1048500010EE101A80ED080A914201DD9FED160A54
:10486000164A10EE101A80ED080A914201D99FED08
:10487000140A42F2107280ED080AD0ED031A90ED8E
:10488000042A61EEA01A42EE001A30EEC10AD0ED01
:10489000050A40EE801ABDEEE10A10EE101A4162E0
:1048A000914200DD1146074A4162914200DA114609
:1048B0004162704700606A4600606A4600606AC6EE
:1048C00000606AC6F0D8FFFF10B5502080F3118851
:1048D000BFF34F8FBFF36F8F04F0B0F818B10449E6
:1048E0004FF080500860002080F3118810BD000058
:1048F00004ED00E030B593B030216846FBF79EFD33
:1049000014210CA8FBF79AFD19480025016841F015
:1049100080510160006800F08050119015480168D6
:1049200041F4404101600068022400F440401190CD
:1049300001200090000401908001CDE9064006208E
:104940000890A820CDE9090404200B906846FDF7E3
:10495000F7FF0CA90F2081E831004FF4A0500F9011
:10496000E002109005210CA8FDF7E0FE13B030BD69
:1049700040380240007000401048016841F4700166
:1049800001600F48016841F0010101600C4A0021FB
:104990000832116002680B4B1A400260031D0A4A7C
:1049A0001A60026822F48022026005480C3001601F
:1049B00002495806803908607047000088ED00E021
:1049C00000380240FFFFF6FE103000240148FEF7D9
:1049D000FDBA0000B8080020F0B50268254C264D4D
:1049E000264E274F274B4FF0804CA04209D0604500
:1049F00007D0A84205D0B04203D0B84201D09842B7
:104A000004D122F0700E4A6842EA0E02A0421BD086
:104A1000604519D0A84217D0B04215D0B84213D083
:104A2000984211D0184DA8420ED0184DA8420BD074
:104A3000174DA84208D0174DA84205D0164DA842E0
:104A400002D0164DA84203D122F44075CA682A4309
:104A50004D6922F080022A4302608A68C2620A68B5
:104A60008262A04201D0984201D10969016301210B
:104A70004161F0BD0000014000040040000800401A
:104A8000000C00400004014000400140004401408F
:104A90000048014000180040001C00400020004079
:104AA00010B501F01F030121046A99408C43046290
:104AB000016A9A401143016210BD0000F0B5026A1C
:104AC00022F001020262036A42688469124E24F0F5
:104AD00073050C682C4323F002058B682B430D4DA6
:104AE000A84201D0B04205D123F00807CB683B4370
:104AF00023F00403A84201D0B04205D14D6922F44D
:104B0000407215438A692A4342608461496841635F
:104B10000362F0BD0000014000040140F0B5026AEC
:104B200022F010020262026A436884690D6824F46C
:104B3000E64444EA05248D6822F0200242EA051288
:104B40000F4D104EA84201D0B04206D1CF6822F0DE
:104B5000800242EA071222F04002A84201D0B0428D
:104B600007D14D6923F4406343EA85038D6943EA25
:104B7000850343608461496881630262F0BD00007F
:104B80000000014000040140F0B5026A22F4807286
:104B90000262026A4368C46922F4007224F0730559
:104BA0000C68124E2C438D6842EA05220E4DA84235
:104BB00001D0B04206D1CF6822F4006242EA072257
:104BC00022F48062A84201D0B04207D14D6923F49B
:104BD000405343EA05138D6943EA05134360C461FA
:104BE0004968C1630262F0BD000001400004014059
:104BF00030B5026A22F480520262046A4268C369D4
:104C00000D6823F4E64343EA05238D6824F4005439
:104C100044EA0534084DA84202D0084DA84204D108
:104C20004D6922F4804242EA85124260C3614968BC
:104C30000164046230BD0000000001400004014036
:104C40000E4C0D4E4FF0FF3704F108053A460B4964
:104C5000306803F0B1FD2078012808D00228F5D192
:104C60002A460748D4F80410FBF752FFEEE72A461D
:104C700004486168F8E700004C000020F8080020B4
:104C8000B80400209004002008B5FBF7AFFF03F044
:104C9000CFFE0C4DCDF8000005F12804FCF70EF80E
:104CA0000848FBF7BBFF2046FBF7B8FFB5F84C0000
:104CB00001B2A88C00B2FBF77DFF0521684603F026
:104CC0005FFAEBE71809002008B503F0B1FE144DB8
:104CD000144C154E154FDFF85880DFF858900090AF
:104CE000688820803078E071387800F00F00A0707C
:104CF000B8F80A00A080D9F8020000EE100ABCEE55
:104D0000C00A10EE100AA071687CC0F38000207207
:104D100003F094F80421684603F032FAE0E700005B
:104D2000F20E0020140A0020D0000020D400002041
:104D3000040F0020F800002008B503F079FE0A4DAA
:104D40000A4C4FF48056EF14009031462846FDF788
:104D50001DFC206039462846FDF718FC6060C8211C
:104D6000684603F00DFAF0E7001C02405C000020EA
:104D700008B54FF4FA6003F0DDF9FCF7DBFC1148ED
:104D8000002181700121C17003F052FE0E4C009091
:104D900004F154050C4901F15400FCF7C1F80A492B
:104DA00001F15400FCF7A6FAB5F91400FCF7A6FCD3
:104DB000B4F91400FCF786FC0521684603F0E0F91D
:104DC000E8E7000000010020240F002008B503F0F0
:104DD0002FFE009002F09EFB01F0F4FD02F02AF895
:104DE00002F0E0F80221684603F0CAF9F2E7000099
:104DF0002DE9FC4103F000F95B48FBF7A3FE5B489B
:104E0000FBF7A0FE5848FBF7C5FE5848FBF7C2FE6B
:104E1000002210211E2003F0B7FB55490122086330
:104E200051035448FDF7BEFB5348FEF771FE53484B
:104E3000FFF764F85248FEF7E1FC02F039FB02F09C
:104E4000D5F804214F48FEF737FA4E4941F658305D
:104E500009680864464805241030CDE900404FF445
:104E600080760023324648A14B4803F07BFD404842
:104E70004FF49677001DCDE9004000233A4647A144
:104E8000494803F06FFD3A4906200831CDE9000199
:104E90000023C82245A1484803F064FD344903209B
:104EA0000C31CDE900010023402244A1474803F022
:104EB00059FD2F4804251430CDE900500023C822A5
:104EC00043A1474803F04EFD294800232C30CDE98B
:104ED0000050C82243A1464803F044FD2448002363
:104EE0001830CDE90040802242A1474803F03AFD46
:104EF0001F4800232030CDE900403A4643A14748EF
:104F000003F030FD1A4800232830CDE90040324636
:104F100043A1464803F026FD154800232430CDE97F
:104F20000050EA0142A1454803F01CFD104800234F
:104F30001C30CDE90040802241A1464803F012FD1B
:104F40000B480023CDE90050C82243A1474803F095
:104F500009FD4FF47A7003F0EDF8002003F056F9E4
:104F6000BDE8FC4103F068B890040020B8040020BC
:104F70001C0000200018024078050020B805002021
:104F800038060020380500205461736B5F43686168
:104F90007373697300000000894C00085461736BDF
:104FA0005F53686F6F740000D55000085461736BD5
:104FB0005F43414E00000000414C00085461736B98
:104FC0005F4C4544426C696E6B0000009D500008C8
:104FD0005461736B5F4D656173757265000000000D
:104FE000C15000085461736B5F446574656374005D
:104FF000394D00085461736B5F5374617475734D60
:10500000616368696E650000755100085461736BD7
:105010005F4A6574736F6E436F6D6D007150000869
:105020005461736B5F494D5500000000CD4D000881
:105030005461736B5F47696D62616C00714D00086C
:105040005461736B5F4A7564676552656365697621
:1050500065000000895000085461736B5F436F6DF9
:105060006D756E69636174696F6E0000C94C0008EC
:105070004FF0FF342146012002F03AFF0148FEF7CD
:1050800013FCF7E7380600204FF0FF3421460120DB
:1050900002F02EFFFEF752FDF8E7000008B503F01E
:1050A000C7FC064D4FF48044009021462846FDF78A
:1050B00072FA6421684603F063F8F6E700140240D0
:1050C0004FF0FF342146012002F012FFFEF72CFFC3
:1050D000F8E7000008B5FFF791FBFFF7CFF903F001
:1050E000A7FC1D4C1D4D04F1280A1D4FDFF87480EC
:1050F000DFF874904FF0000B04F15006CDF800007B
:10510000FBF7D2FE1448FFF769F95046FFF766F93E
:10511000A87B04280CD13878012809D198F802001E
:10512000012805D199F8080090B1104902200870B3
:10513000FFF710FBB08C02B2B4F84C0001B2A08CA7
:1051400000B2FFF795FA0521684603F019F8D7E792
:10515000074981F800B0EBE7780900203C0E0020F9
:105160006C0000209C000020140A00206D0000202C
:105170006E00002008B503F05BFC0090FFF7A4FA76
:10518000FFF7AEFA0A21684602F0FAFFF8E70000DE
:1051900010B50448FEF7BCF8BDE810400148FEF722
:1051A000FDBC00007805002010B50448FEF7B0F8FB
:1051B000BDE810400148FEF75BBE0000B8050020C6
:1051C00010B5806B0021C185C184FEF79FF810BD2A
:1051D00070B5846B2068406994F83910C0F3C01032
:1051E0000025212904D118B1E584204600F03FF8BC
:1051F0002068406994F83A10C0F38010222904D145
:1052000018B1E585204600F024F8E06B40F010006E
:10521000E0632046FEF77AF870BD10B50146806B5A
:1052200009680968C9050CD40021C18401684A696C
:1052300022F080024A610068C16841F04001C1600B
:1052400010BDFEF7D7FA10BD10B5806BFEF7D3FA8C
:1052500010BD0168CA6822F49072CA6001684A6988
:1052600022F001024A61202180F83A10704701685B
:10527000CA6822F0C002CA60202180F83910704745
:1052800010B590F83A10222901D0022010BD816893
:10529000B1F5805F11D00169002901681FD049680C
:1052A00001F07F03816A4A1C82620B70C18D491E26
:1052B0000904090CC18518D02BE00269816A002A13
:1052C0000268526805D0D2B20A80816A491C8162A4
:1052D000ECE7C2F308020A80816A891CF7E74A6892
:1052E000816A4B1C83620A70E0E70168CA6822F099
:1052F0002002CA600168CA6822F48072CA6001682C
:105300004A6922F001024A61202180F83A10FEF732
:105310002FFA002010BD00002DE9F041044600687E
:105320000169E26821F44051114301612169A068DB
:10533000E26908436169114322680843D16849F270
:105340000C6399430143D16020684169A26921F44B
:10535000407111434161E2696425B2F5004F9748FD
:10536000974922684FF032083FD08A4201D08242EA
:105370007CD1FDF7A3FA00EBC00101EB00106168DE
:105380008900B0FBF1F6FDF799FA00EBC00101EBE3
:10539000001061688900B0FBF1F0B0FBF5F06FF030
:1053A0001801484306EB800108EB0110B0FBF5F053
:1053B00000F0F006FDF782FA00EBC00101EB0010EF
:1053C00061688900B0FBF1F0B0FBF5F006EB001668
:1053D000FDF774FA00EBC00101EB00106168890071
:1053E000B0FBF1F7FDF76AFAD2E08A4201D08242BF
:1053F0003DD1FDF763FA00EBC00101EB00106168DD
:105400004900B0FBF1F0B0FBF5F00601FDF756FAEC
:1054100000EBC00101EB001061684900B0FBF1F73F
:10542000FDF74CFA00EBC00101EB00106168490088
:10543000B0FBF1F0B0FBF5F06FF01801484307EB5B
:10544000800108EBC100B0FBF5F000F0F80006EBBE
:105450004006FDF733FA00EBC00101EB0010616874
:105460004900B0FBF1F7FDF729FA3CE055E0FDF704
:1054700015FA00EBC00101EB001061684900B0FBB8
:10548000F1F0B0FBF5F00601FDF708FA00EBC00102
:1054900001EB001061684900B0FBF1F7FDF7FEF980
:1054A00000EBC00101EB001061684900B0FBF1F0B6
:1054B000B0FBF5F06FF01801484307EB800108EBF3
:1054C000C100B0FBF5F000F0F80006EB4006FDF778
:1054D000E5F900EBC00101EB001061684900B0FB89
:1054E000F1F7FDF7DBF900EBC00101EB001061689B
:1054F0004900B0FBF1F0B0FBF5F06FF01801484344
:1055000007EB800108EBC100B0FBF5F000F00700ED
:10551000216830448860BDE8F081FDF7BFF900EBF9
:10552000C00101EB001061688900B0FBF1F6FDF7E6
:10553000B5F900EBC00101EB001061688900B0FB18
:10554000F1F0B0FBF5F06FF01801484306EB800175
:1055500008EB0110B0FBF5F000F0F006FDF79EF946
:1055600000EBC00101EB001061688900B0FBF1F0B5
:10557000B0FBF5F006EB0016FDF790F900EBC0016B
:1055800001EB001061688900B0FBF1F7FDF786F9C7
:1055900000EBC00101EB001061688900B0FBF1F085
:1055A000B0FBF5F06FF01801484307EB800108EB02
:1055B0000110B0FBF5F000F00F00A9E70014014066
:1055C0000010014090F83910212901D002207047C5
:1055D0008168B1F5805F016A0BD04A1C02620268E3
:1055E00009785160C18C491E0904090CC1840ED090
:1055F00017E009880268C1F30801516001690029B8
:10560000016A02D0491C0162ECE7891CFBE70168D2
:10561000CA6822F08002CA600068C16841F0400197
:10562000C16000207047000010B50448FDF770FE0F
:10563000BDE810400148FEF76DBF0000F8050020EE
:1056400010B50448FDF764FEBDE810400148FEF7C0
:10565000EBB8000038060020FEE7000030B50C462D
:10566000050014D0022C12D90A48A11EC28828466F
:10567000FBF732FC2919C2B211F8023C9A4206D15A
:1056800011F8011CB1EB102F01D1012030BD002019
:1056900030BD0000D000002030B50C4605000CD015
:1056A000022C0AD9FF22611EFBF72CFC291911F8E4
:1056B000011C814201D1012030BD002030BD00001D
:1056C000214930B49FED1F0A4FF4B47281ED010AF5
:1056D00081ED020A1D49204B0020B1F91610A1F5F9
:1056E000B051D039514300EE901A1A4A0024B8EE56
:1056F000E01ADFED170AC1EE201AC2ED011A93ED90
:105700000C1A164B82ED021A82ED030A82ED040A8E
:1057100001EE901A00EB800203EB8202F8EEE11A30
:10572000401CC0B20A2881EEA02A82ED002A82ED38
:10573000011A82ED020A82ED030A1474E8D330BC28
:10574000FEF7F4BA000000003C0E0020240F0020F9
:1057500000F8FF457C00002000020020980C00208B
:1057600003B401984100009850EAC12018BF0420FA
:105770004A0D18BF40F0010040F2FF72B2EB515FDA
:1057800008BF40F00200012808BF052002B07047A2
:105790000907090E002804DB00F1E02080F800145E
:1057A000704700F00F0000F1E02080F8141D7047F2
:1057B00070B5C1482DED020B2DED0E8B82B0119D01
:1057C00025F000449FEDBEDB9FEDBFEB84423EDB46
:1057D000A4F140511098A1F17F6108430FD0BC485B
:1057E000844202DC28D1109830B39DED100B02B03A
:1057F000BDEC0E8B02B0BDE8704001F085B89DEDA8
:10580000100B53EC1D2B51EC100BFAF7C9FE9DED5C
:10581000100B41EC180B53EC1E2B51EC100BFAF74C
:10582000BFFE53EC182BFAF714FE41EC100B02B03C
:10583000BDEC0E8B02B070BD012001F0A9F802B0E2
:10584000BDEC0E8B02B0BDE8704001F071B8A1480C
:105850009FEDA18B844256DA9DED100BB4F1795F78
:105860000ADA51EC100BFFF77BFF042808BF01F0A8
:105870006FF89DED100BDAE753EC102B51EC100B89
:10588000FAF78EFE41EC190B95480621B0EE490A55
:10589000F0EE690A784400F023FF53EC192B51EC29
:1058A000100BFAF77DFE41EC1A0B8E48B0EE490A58
:1058B000F0EE690A0421784400F012FF53EC192B32
:1058C00051EC100BFAF76CFE53EC182BFAF7C1FDF4
:1058D00041EC100B51EC1A0B53EC102BFAF7D2FEE3
:1058E000CDE900019DED000B53EC102B9DED100B4D
:1058F00051EC100BFAF754FE9DED101B53EC112BDD
:10590000FAF7A7FDD2E09DED100B51EC100B01F062
:105910004DF853EC182BFAF740FE9FED730BCDE9D1
:10592000000153EC102B9DED000B51EC100BFAF71E
:1059300037FE41EC190B6E480621B0EE490AF0EE35
:10594000690A784400F0CCFE53EC192B51EC100B93
:10595000FAF726FE41EC1B0B6648B0EE490AF0EE62
:10596000690A0421784400F0BBFE53EC192B51EC7A
:10597000100BFAF715FE53EC182BFAF76AFD41EC01
:105980001C0B51EC190B02F07BFA41EC180B5A4836
:105990009FED5BABA04222DC53EC1C2B51EC1B0BAC
:1059A000FAF770FECDE900019DED000B51EC180BEC
:1059B00053EC102BFAF7F4FD53EC182BFAF749FDD2
:1059C00053EC1A2BFAF7ECFD53EC1D2BFAF7E2FD22
:1059D00053EC1E2BFAF7E1FD41EC100B5FE08DED6F
:1059E000008B002000909DED000B51EC180B53EC48
:1059F000102BFAF72EFD9DED000B41EC1E0B53EC26
:105A0000102B51EC100BFAF7CBFD53EC192BFAF7D6
:105A1000C4FD53EC1E2BFAF735FE41EC190B53EC89
:105A20001C2B51EC1B0BFAF72DFE41EC1B0B53EC1E
:105A30001A2B51EC190BFAF7B3FD53EC1D2BFAF7A7
:105A4000ACFD41EC190B53EC1A2B51EC180BFAF787
:105A5000A7FD53EC1B2BFAF7A3FD53EC192BFAF718
:105A600099FD9DED000B41EC180B53EC1A2B51ECFA
:105A7000100BFAF795FD9FED249B53EC192BFAF7C9
:105A80008CFD41EC100B51EC180B53EC102BFAF77A
:105A900081FD53EC192BFAF780FD41EC100B002D22
:105AA0003FF7C5AE51EC100B81F0004141EC100BFB
:105AB000BDE60000000000000000F03F0000000014
:105AC000075C143326A6913C182D4454FB21F93F62
:105AD0000000F07F0000E03F000000000000F03F09
