:020000040800F2
:100000007851002081020008655A0008E54B00087D
:1000100049590008190A00087D7100080000000015
:10002000000000000000000000000000C101000806
:100030007F110008000000001D020008C1610008D7
:100040009B0200089B0200089B0200089B0200081C
:100050009B0200089B0200089B0200089B0200080C
:100060009B0200089B0200089B0200080510000884
:10007000151000089B020008251000089B020008CC
:100080009B020008351000089B0200089B02000834
:100090001D0A00089B0200089B0200089B02000842
:1000A0009B0200089B0200089B0200089B020008BC
:1000B0000D6300089B0200089B0200089B020008D9
:1000C0009B0200089B0200089B0200089B0200089C
:1000D0009B020008597100089B0200089B0200085F
:1000E0009B0200089B0200089B0200089B0200087C
:1000F0009B0200089B0200089B0200089B0200086C
:100100009B0200089B0200089B0200089B0200085B
:100110009B0200089B0200089B0200089B0200084B
:100120009B02000845100008551000089B020008BB
:100130009B0200089B0200089B0200089B0200082B
:100140009B0200082D0A00089B0200089B02000881
:100150009B020008651000089B0200086D710008F2
:100160009B0200089B0200089B0200089B020008FB
:100170009B0200089B0200089B0200080000000090
:100180009B0200089B020008BD6B0008D16B0008B1
:100190009B0200089B0200089B0200089B020008CB
:1001A00000000000000000009B020008DFF80CD0F7
:1001B00000F0F6FB00480047CF920008785100207D
:1001C0002C4B19680868B0E8F04F80F30988BFF33A
:1001D0006F8F4FF0000080F311887047000000001F
:1001E00008480068006880F308884FF0000080F33A
:1001F000148862B661B6BFF34F8FBFF36F8F00DF15
:1002000000BF00BF08ED00E0DFF80C00016841F41A
:1002100070010160704700BF88ED00E0EFF30980D6
:10022000BFF36F8F134B1A681EF0100F08BF20ED3D
:10023000108A20E9F04F106009B44FF0500080F3AD
:100240001188BFF34F8FBFF36F8F0AF0A9FA4FF0F9
:10025000000080F3118809BC19680868B0E8F04F05
:100260001EF0100F08BFB0EC108A80F30988BFF3AE
:100270006F8F704734020020EFF305807047000055
:100280000648804706480047FEE7FEE7FEE7FEE730
:10029000FEE7FEE7FEE7FEE7FEE7FEE7A9620008ED
:1002A000AD0100082DE9F05F0546002092469B460F
:1002B00088460646814640241BE02846414647467C
:1002C000224600F066FA53465A46C01A914110D3AE
:1002D00011461846224600F04DFA2D1A67EB010828
:1002E0004F4622460120002100F044FA17EB000996
:1002F0004E41201EA4F10104DFDC484631462A4667
:100300004346BDE8F09F00000649074A086850438D
:1003100043F2390210440860400870470149086000
:1003200070470000940200206D4EC64140EA010370
:100330009B0703D009E008C9121F08C0042AFAD29B
:1003400003E011F8013B00F8013B521EF9D270475F
:10035000D2B201E000F8012B491EFBD27047002207
:10036000F6E710B513460A4604461946FFF7F0FFB4
:10037000204610BD2DE9FE4F804681EA0300C00FE4
:100380000C46009021F0004123F00045B8EB02003C
:10039000A94105D24046214690461C460B460246DE
:1003A00023F00040104347D0270DC7F30A00C3F3E2
:1003B0000A510290401A019040286BDAC3F31300EF
:1003C00040F4801B0098924620B10023D2EB030A30
:1003D00063EB0B0B01985946C0F14002504600F008
:1003E000C9F906460D4650465946019A00F0E1F912
:1003F00010EB08006141002487EA115284EAE77398
:100400001A4340D0009A62B3019A012A4FEA075278
:1004100015DC001B61EB02014FF0004202EA0752BB
:10042000CDE90042001C41F5801132462B4600F018
:1004300018FA03B0BDE8F08F40462146F9E7001BEB
:1004400061EB0201001C41F5801300185B4120188C
:10045000A2F5001747EB030140EAD570B6196D41CC
:1004600011E06D084FEA360645EAC0754FEA0752BB
:10047000001B61EB0201001C41F5801149084FEAA5
:1004800030000019514132462B4603B0BDE8F04F11
:1004900000F0D8B90098012240000023D0EB0202FE
:1004A00063EBE073009821464FEAE074B8EB00007C
:1004B00061EB0401E9E783F000435BE781F0004171
:1004C00058E72DE9FE4F81EA030404F0004421F0CF
:1004D000004100944FF0000B23F0004350EA010468
:1004E0005ED052EA03045BD0C3F30A54C1F30A5549
:1004F0002C44A4F2F3340194A0FB0254C1F3130181
:1005000041F48011C3F3130343F4801301FB02444D
:1005100000FB034E840A970A44EA815447EA835752
:10052000A4FB076802958D0A05FB07854FEA932C0B
:1005300004FB0C542705029D4FEA065847EA16377C
:10054000B5EB08056EEB070C870E920E47EA811794
:1005500042EA8312A7FB0201B6EB0B0164EB000435
:100560002B0D43EA0C335E1844EB1C50DA4651461F
:10057000E7FB0201C5F313044FEA0B3343EA1453BC
:100580004FEA0432019C43EA0603A4F10C040294EE
:10059000009CCDE900B400F064F903B0BDE8F08F31
:1005A00000200146F9E72DE9F04D81EA030404F04B
:1005B000004B21F0004514464FF0000A23F00041A3
:1005C00050EA050220D054EA01021DD0C5F30A57B3
:1005D0000246C5F31303C1F31300C1F30A5640F4F6
:1005E000801543F48013A7EB0608101BD64608F2CB
:1005F000FD3873EB050002D308F1010801E0921801
:100600005B41B8F1000F03DA00200146BDE8F08D30
:1006100000204FF48011064684460EE0171B73EB52
:10062000050705D3121B63EB050306434CEA010CD7
:1006300049084FEA300092185B4150EA0107EDD1BA
:1006400052EA030012D082EA040083EA050108435B
:1006500005D0101BAB4106D20122002306E0002288
:100660004FF0004302E06FF0010253101AEB060056
:100670004CEB085110EB0A0041EB0B01BDE8F04DCB
:1006800000F0E0B80EB5C10F80EAE0700844CA0778
:10069000002140F233438DE80E000A460B4600F07D
:1006A000E0F803B000BD70B5C1F30A5201F0004597
:1006B0000024C1F3130140F2FF3341F480119A4248
:1006C00001DA002070BD40F233439A42A2F2334275
:1006D00003DC524200F05DF800E090402C43F1D082
:1006E000404270BD00F0004230F000400AD0C10D21
:1006F00001F56071C0F3160042EA0151C2084007DB
:1007000011437047002001467047000030B5041EB9
:1007100071F1000404DB4FF00044404264EB01013E
:10072000141E73F1000405DB1C464FF000435242D7
:1007300063EB0403994208BF904230BD01F00043CF
:1007400030B421F0004150EA010206D00A0DA2F5B2
:100750006072C1F31301002A02DC30BC0020704734
:10076000440F44EAC104C100E01830BC00EBC250A1
:1007700000F031B8202A04DB203A00FA02F1002010
:1007800070479140C2F1200320FA03F319439040CF
:100790007047202A04DB203A21FA02F0002170473A
:1007A00021FA02F3D040C2F12002914008431946D9
:1007B0007047202A06DBCB17203A41FA02F043EAC1
:1007C000E07306E041FA02F3D040C2F1200291400A
:1007D0000843194670470029A8BF7047401C4900CC
:1007E00008BF20F00100704710B4B0FA80FC00FA96
:1007F0000CF050EA010404BF10BC704749B1CCF1C1
:10080000200421FA04F411FA0CF118BF012121434C
:100810000843A3EB0C01CB1D4FEA00614FEA102007
:1008200042BF002010BC704700EBC35010440029A9
:10083000A4BF10BC7047401C490008BF20F0010055
:1008400010BC704710B5141E73F1000408DA401C88
:1008500041F1000192185B411A4301D120F00100DF
:1008600010BD2DE9F04D92469B4611B1B1FA81F2CF
:1008700002E0B0FA80F220329046FFF77BFF044698
:100880000F4640EA0A0041EA0B0153465A46084324
:1008900013D0114653EA010019D0C8F14002504666
:1008A000FFF777FF05460E46504659464246FFF78A
:1008B00061FF084305D0012004E020463946BDE829
:1008C000F08D0020054346EAE0762C4337430A9832
:1008D0006305E40AA0EB08000022FD0A44EA47543D
:1008E0000A3002D500200146E9E7010510196941E7
:1008F000DDE9084500196941BDE8F04DA2E72DE9A1
:10090000F04D00231A461B1A8A4103DB00200146E2
:10091000BDE8F08DC1F30A52C1F3130141F4801513
:100920004FF0000BD10702D100186D41521E002775
:10093000044640F2FF11384601EB620A3E4680460B
:10094000024600204FF48011FFF723FFC2197141C6
:10095000BB1846EB0100B4EB030C75EB000C04D3A1
:10096000E41A65EB000517460E46241908F101004C
:100970006D4180463428E3DDF91946EB0600091B7A
:10098000A84103D24FF0FF32134601E00022134684
:100990001BEB070046EB0A51BDE8F04DFFF752BFD5
:1009A000064C074D06E0E06840F0010394E80700BC
:1009B00098471034AC42F6D3FFF7FCFB8CB8000824
:1009C000ACB800080EB540F2334102910021CDE9E8
:1009D00000110A460B46FFF744FF03B000BD30B5D7
:1009E0008C1810F8012B12F00F0301D110F8013B05
:1009F000120906D110F8012B03E010F8015B01F891
:100A0000015B5B1EF9D101E001F8013B521EFBD1F5
:100A1000A142E6D3002030BD00BFFEE710B502487A
:100A200001F0D7FD10BD0000C00B002010B502483A
:100A300001F0CFFD10BD0000E80B002070B586B0BE
:100A400004460D46164600950020029003900820AB
:100A500004900C48844206D1012332466946204660
:100A600001F0BBFB0BE00848844206D1022332466A
:100A70006946204601F0B1FB01E006B070BD00BF41
:100A8000FBE70000C00B0020E80B002070B58AB027
:100A900006461348864202D10024002507E011488B
:100AA000864202D10E24012501E00AB070BD0594F2
:100AB00000200690012007900020009001900290F5
:100AC00003900495012008900E2009906946304655
:100AD00001F02EFC304602F076F900BFE5E7000099
:100AE000C00B0020E80B002070B505460848854281
:100AF00001D1022405E00748854201D1102400E01D
:100B000070BD2146284601F053FB00BFF8E7000006
:100B1000C00B0020E80B002010B50022DFED260AF4
:100B2000B0EE600A254B596A002901DB0B4600E054
:100B30004B42224CE06C002801DB044600E04442BA
:100B400023449AB21E48008900EE900AF8EE600A2B
:100B50009FED1C1AF4EEC10AF1EE10FA2AD21848E1
:100B6000008900EE900AF8EE600A9FED161AC0EEBA
:100B7000811A61EEA10AB0EE600AF7EE000A20EEDB
:100B8000201A0E48D0ED090AF8EEE00A61EE200ABC
:100B9000FDEEE00AC0ED090AF7EE000A20EE201A89
:100BA000D0ED130AF8EEE00A61EE200AFDEEE00A4D
:100BB000C0ED130A10BD000000000000DC0800209A
:100BC0000C0800200000484370B504460D46012083
:100BD0000B49087040024860200A087208464472B7
:100BE000290A8172C4720021017341738173C17338
:100BF0000023032201460348006809F047FF70BD47
:100C00002C0900202C010020002019E0B1EE080A78
:100C100000EB80010C4A02EBC10181ED030A9FED5C
:100C20000B0A00EB800102EBC10181ED040AB0EE7A
:100C3000000A00EB800102EBC10181ED050A401CB6
:100C40000228E3DB70470000DC0800208FC2F53C7F
:100C500090ED060A80ED070AB0F90210B0F9042001
:100C6000891A00EE101AB8EEC00A80ED060A90ED5F
:100C7000080AD0ED060A30EE200A80ED080A90ED51
:100C8000080ADFED250AB4EEE00AF1EE10FA02DD03
:100C90009FED210A01E090ED080A80ED080A90ED31
:100CA000080ADFED1E0AB4EEE00AF1EE10FA02D2F5
:100CB0009FED1A0A01E090ED080A80ED080A90ED18
:100CC000030AD0ED060A20EE200AD0ED040A90EDCA
:100CD000081A00EE810AD0ED060A90ED071A70EEB0
:100CE000C10A90ED051A01EE200ABDEEC00A80EDA2
:100CF000090A416AB1F57A5F02DB4FF47A5100E0EC
:100D0000416A4162416A11F57A5F01DC044900E001
:100D1000416A41627047000000606A4600606AC62E
:100D200080C1FFFF10B5A848006848B9A74800680F
:100D3000012805D1A64908700020A649087029E0BD
:100D4000A248006848B9A0480068012805D1A14917
:100D5000087000209E4908701CE09C48006840B95B
:100D60009948006828B901209A4908709849087084
:100D700010E09948807801280CD094480068012838
:100D800008D191480068012804D1002091490870D9
:100D90008F4908709148007850B99048C07838B1B0
:100DA0008C480078012803D18C4988700020C870D5
:100DB0008948807801281DD189480078D0B18948B8
:100DC0000078B8B900208649087087480078401C30
:100DD000854908707F48007808B9012000E00020AC
:100DE0007C4908707A48007808B9012000E00020AA
:100DF0007749087078488078012823D176480088A0
:100E0000012803D07948007B042809D1784800786C
:100E1000032802D041F2A86404E041F2A86401E092
:100E200041F2A8646D48007818B96C48807800B128
:100E300000246C48007840B165480078012804D14E
:100E4000002402E06448B0F900406348807818B19B
:100E500061488078022815D15D480078012805D1C5
:100E60005C48007810B9002C00DA0024594800785A
:100E7000012806D1564800780028FAD1002C00DD60
:100E8000002487E05448807801285FD150480078DA
:100E9000012814D14F48007888B900BF5548007820
:100EA00068B1FFF731FA0A2190FBF1F201FB120061
:100EB000401C504948700020488008708880454890
:100EC0000078012817D142480078A0B9604204B2E6
:100ED0004848007878B9FFF717FA0A2190FBF1F239
:100EE00001FB1200401C434948700020488001204B
:100EF0000870002088803948007838B33948007875
:100F000020BB3C484088401C3A494880084640780D
:100F100000F0010018B90846407802281AD1354877
:100F20008088462816DA3348408832494978C1EB30
:100F3000011101EB410188422CDB2E488088401CC6
:100F40002C4988800846007808B12B4C22E041F6F5
:100F50004C541FE027484078E0B126484088254996
:100F60004978C1EB011101EB4101884212D1002007
:100F7000204908701748007808B9012000E00020D7
:100F8000144908701248007808B9012000E00020D8
:100F90000F49087016480078032804D117480088C4
:100FA000401C1649088015480088B0F5167F04DDFE
:100FB00000200F49087011490880604200B21049B2
:100FC00048800846448510BDC8000020CC000020A1
:100FD000560100205701002000000020420100209F
:100FE000BB0000204E010020360100202807002011
:100FF000B90000203C010020B4E2FFFFB000002057
:10100000DC08002010B5024801F028FF10BD0000E8
:10101000C80E002010B5024801F020FF10BD0000EE
:10102000080E002010B5024801F018FF10BD0000A6
:10103000A80D002010B5024801F010FF10BD0000FF
:10104000680E002010B5024801F008FF10BD000036
:10105000880F002010B5024801F000FF10BD00000D
:10106000280F002010B5024801F0F8FE10BD000066
:10107000E80F00200146087810381823B0FBF3F27F
:101080000848805CC865032A05D908686FF3090021
:10109000001D886503E008686FF309008865886DA6
:1010A0007047000050B60008014600208A6A8B692C
:1010B000CBB932B1012A0DD0022A03D0032A10D1B4
:1010C0000EE000BFCB6A03F08073B3F1807F00D1E4
:1010D000012007E0CB6AB3F1C07F00D1012001E01D
:1010E00000E000BF34E08B69B3F5005F1AD132B184
:1010F000012A07D0022A03D0032A11D10AE000BF37
:1011000001200EE0CB6A03F08073B3F1807F00D141
:10111000012006E0CB6AB3F1C07F00D1012000E0DE
:1011200000BF15E032B1012A05D0022A04D0032AFB
:101130000CD103E000BF00BF012008E0CB6A03F040
:101140008073B3F1807F00D1012000E000BF00BFB9
:10115000704730B50468246824F4802405682C6046
:10116000046863608468402C04D10468A260046849
:10117000E16003E00468A1600468E26030BD70478C
:101180007047000000202149497801290FD11F49EB
:10119000D1F8031000EE101ADFED1D0AB4EEE00ADC
:1011A000F1EE10FA03DD41F658311A4A1160174981
:1011B000497801290FD11549D1F8031000EE101A12
:1011C000DFED150AB4EEE00AF1EE10FA03D241F6B3
:1011D0008441104A11601149097809B900200CE0D6
:1011E0000E490978012902D141F27C5005E00B49F2
:1011F0000978022901D107490868414209B2084A21
:10120000518002B206494A857047000096000020CE
:101210000000E441E40000200000D441F30000207D
:101220004408002030B5034613B94FF6FF7030BDB7
:1012300009E013F8014B82EA0400C0B2054D35F80D
:10124000100080EA2222081EA1F10101F1D110460E
:10125000EDE700001EB4000830B5034605E013F8C2
:10126000010B80EA02040448025D081EA1F101019D
:10127000F5D1104630BD00001DB3000870B52DED4E
:10128000068B04460D46FE480078A0B1FD48B0F933
:1012900016004FF4B471484300EE100AB8EEC00ACD
:1012A000DFEDF90A80EE201A84ED011AF448007887
:1012B000401EF3490870F5480078002875D1F448BD
:1012C00090ED010A80ED000AF249B1F9080000280A
:1012D00001DB014600E0414232291BDDED49B1F955
:1012E0000800FFF7CFF941EC1A0B9FEDEB0B53EC25
:1012F000102BFFF7E6F841EC190B9FEDE90B53ECCF
:10130000102BFFF750F941EC180BFFF717FAE049E3
:10131000486004E09FEDE40ADD4880ED010ADC4806
:1013200090ED011AF0EE410A90ED001AB0EE410A7C
:1013300004F06AFDD64880ED010A94ED010AD0ED73
:10134000010A30EE200A84ED010A07E094ED010A5B
:10135000DFEDD60A30EE600A84ED010A94ED010A51
:10136000DFEDD30AB4EEE00AF1EE10FAEEDA07E0B0
:1013700094ED010ADFEDCD0A30EE200A84ED010A7A
:1013800094ED010ADFEDCB0AB4EEE00AF1EE10FABB
:10139000EED3C94890ED010A80ED000ABD49B1F9CC
:1013A0000600002802DB014601E051E041423229FB
:1013B00012DDB848B0F9060000EE100AB8EEC00A17
:1013C000F7EE000A20EE200ADFEDBC0A80EE201ABC
:1013D000B94880ED011A04E09FEDB30AB64880EDEC
:1013E000010AB54890ED011AF0EE410A90ED001A9D
:1013F000B0EE410A04F008FDAF4880ED010A95ED1A
:10140000010AD0ED010A30EE600A85ED010A95ED82
:10141000010ADFEDAB0AB4EEE00AF1EE10FA02DDEC
:101420009FEDA70A01E095ED010A85ED010A95ED12
:10143000010ADFEDA40AB4EEE00AF1EE10FA02D2DE
:101440009FEDA00A01E095ED010A85ED010AF4E2A5
:10145000904880780128FAD19B48007B012802D06F
:1014600004287CD17FE10020984908709848B0F9A1
:101470001600A0F281104FF4B471484300EE100A38
:10148000B8EEC00A9FED801AC0EE010AB3EE090A59
:10149000F4EEC00AF1EE10FA02DB01208D4908706B
:1014A0008B48B0F91600A0F281104FF4B471484394
:1014B00000EE100AB8EEC00A9FED731AC0EE010AE2
:1014C000B2EE060AF4EEC00AF1EE10FA02D80020DD
:1014D000804908706B48B0F91600B0F5805F11DBE9
:1014E0006848B0F91600A0F5F850FF384FF4B47111
:1014F000484300EE100AF8EEC00A9FED631A80EE32
:10150000810A0DE05F48B0F916004FF4B47148430A
:1015100000EE100AF8EEC00A9FED5B1A80EE810A19
:10152000DFED6D0AB4EEE00AF1EE10FA2DDD55485C
:10153000B0F91600B0F5805F12DB5248B0F9160022
:10154000A0F5F850FF384FF4B471484300EE100A8C
:10155000F8EEC00A9FED4C1A80EE810A0EE06BE2B5
:101560004848B0F916004FF4B471484300EE100A31
:10157000F8EEC00A9FED441A80EE810ADFED570AAB
:10158000B4EEE00AF1EE10FA59D33E48B0F9160075
:10159000B0F5805F11DB3B48B0F91600A0F5F850BC
:1015A000FF384FF4B471484300EE100AF8EEC00A59
:1015B0009FED351A80EE810A0DE03248B0F9160031
:1015C0004FF4B471484300EE100AF8EEC00A9FEDE4
:1015D0002E1A80EE810ADFED420AB4EEE00AF1EE47
:1015E00010FA35DD2748B0F91600B0F5805F11DB41
:1015F0002448B0F91600A0F5F850FF384FF4B47144
:10160000484300EE100AF8EEC00A9FED1F1A80EE64
:10161000810A0DE01B48B0F916004FF4B47148433D
:1016200000EE100AF8EEC00A9FED171A80EE810A4C
:10163000DFED2C0AB4EEE00AF1EE10FA08D294EDD8
:10164000010ADFED290A30EE200A84ED010A07E0E5
:1016500094ED010ADFED250A30EE200A84ED010A3F
:101660001C480078012849D195ED010ADFED200AD8
:1016700030EE600A85ED010A1E480078401C3BE010
:10168000380000200C03002000F8FF45F200002085
:101690002800002000000020000000000000E03FC3
:1016A0000000000000A08440000000000000B443DF
:1016B00000003443000034C3200000200000254413
:1016C0005EC30B42111802C128070020F40000205D
:1016D000B80200200C0000200000A0420000DC4204
:1016E0000000C8C20000A0C2AE47E13E295C0F3E28
:1016F000CDCC4C3D39000020D1490870D14800784C
:1017000060B995ED010A5FED060A30EE200A85ED1D
:10171000010ACB480078401CC949087007E094EDE5
:10172000010A5FED1E0A30EE600A84ED010A94EDB5
:10173000010A5FED210AB4EEE00AF1EE10FAEEDAEA
:1017400007E094ED010A5FED270A30EE200A84EDF0
:10175000010A94ED010A5FED290AB4EEE00AF1EE08
:1017600010FAEED368E1B84890ED000A84ED010A62
:1017700007E094ED010A5FED330A30EE600A84ED74
:10178000010A94ED010A5FED360AB4EEE00AF1EECB
:1017900010FAEEDA07E094ED010A5FED3C0A30EE54
:1017A000200A84ED010A94ED010A5FED3E0AB4EED1
:1017B000E00AF1EE10FAEED3A44890ED000A85EDB0
:1017C000010A95ED010A5FED420AB4EEE00AF1EE7E
:1017D00010FA02DD1FED460A01E095ED010A85EDE4
:1017E000010A95ED010A5FED490AB4EEE00AF1EE57
:1017F00010FA02D21FED4D0A01E095ED010A85EDC8
:10180000010A924890ED000AF2EE040A20EE200A46
:10181000BDEEC00A10EE100A00B28D4908808A4859
:1018200090ED000AF2EE040A20EE200ABDEEC00A96
:1018300010EE100A00B2874908808748B0F91600F8
:10184000A0F281104FF4B471484300EE100AF8EE94
:10185000C00A1FED731A80EE810A5FED6B0AB4EEC9
:10186000E00AF1EE10FA1CDD7B48B0F91600A0F298
:101870008110484300EE100AF8EEC00A1FED7E1AF0
:1018800080EE810A5FED770A30EE600ABDEEC00A95
:1018900010EE100A00EB8000400000B26F49088093
:1018A0001AE06D48B0F91600A0F281104FF4B4713F
:1018B000484300EE100AF8EEC00A1FED8D1A80EEC4
:1018C000810AF2EE040A20EE200ABDEEC00A10EEF4
:1018D000100A00B2614908806148B0F91600B0F5FD
:1018E000805F11DB5E48B0F91600A0F5F850FF38B4
:1018F0004FF4B471484300EE100AF8EEC00A1FED31
:101900009E1A80EE810A0DE05548B0F916004FF49A
:10191000B471484300EE100AF8EEC00A1FEDA61A93
:1019200080EE810A5FED9E0AB4EEE00AF1EE10FA55
:1019300034DD4B48B0F91600B0F5805F11DB484844
:10194000B0F91600A0F5F850FF384FF4B4714843D1
:1019500000EE100AF8EEC00A1FEDB51A80EE810AFB
:101960000DE03F48B0F916004FF4B471484300EE63
:10197000100AF8EEC00A1FEDBC1A80EE810A5FED76
:10198000B50A30EE600ABDEEC00A10EE100A00EB98
:101990008000400000B23349088030E03048B0F9A0
:1019A0001600B0F5805F11DB2D48B0F91600A0F5E8
:1019B000F850FF384FF4B471484300EE100AF8EEC7
:1019C000C00A1FEDCF1A80EE810A0DE02448B0F95D
:1019D00016004FF4B471484300EE100AF8EEC00A46
:1019E0001FEDD71A80EE810AF2EE040A20EE200ADB
:1019F000BDEEC00A10EE100A00B21A4908801A485B
:101A000090ED000AF2EE040A20EE200ABDEEC00AB4
:101A100010EE100A00B215490880154890ED000A32
:101A2000F2EE040A20EE200ABDEEC00A10EE100A03
:101A300000B21049088000BF00BFBDEC068B70BD2E
:101A4000390000200C00002044000020400000204D
:101A50001C0000201E000020B802002014000020FE
:101A60000C03002016000020480000201800002071
:101A70004C0000201A00002070B52DED028B0546A9
:101A80000C46002C76D094ED110A84ED120AFD4824
:101A9000B0F91600A0F281104FF4B471484300EE83
:101AA000100AB8EEC00ADFEDF80A80EE201A84EDC5
:101AB000031A94ED010AD4ED030A30EE600A84EDB6
:101AC000110A94ED110ADFEDF10AB4EEE00AF1EE2D
:101AD00010FA06DD94ED110ADFEDED0A30EE600A32
:101AE00001E094ED110A84ED110A94ED110ADFED85
:101AF000E90AB4EEE00AF1EE10FA06D294ED110A0A
:101B0000DFEDE30A30EE200A01E094ED110A84EDE6
:101B1000110A94ED110ADFEDE00AB4EEE00AF1EEED
:101B200010FA0CD294ED110ADFEDDC0AB4EEE00AF3
:101B3000F1EE10FA03DD9FEDDA0A84ED110A94ED5F
:101B4000110AF9EE000AB4EEE00AF1EE10FA12DD25
:101B500094ED110AF1EE000AB4EEE00AF1EE10FA8B
:101B600009D294ED130AD4ED110A30EE200A84ED67
:101B7000130A04E0ECE09FEDCA0A84ED130A94ED29
:101B8000130ADFEDC80AB4EEE00AF1EE10FA02DD46
:101B90009FEDC40A01E094ED130A84ED130A94ED5D
:101BA000130ADFEDC10AB4EEE00AF1EE10FA02D238
:101BB0009FEDBD0A01E094ED130A84ED130A94ED44
:101BC0000E0AD4ED110A20EE200AD4ED0F0A94ED8E
:101BD000131A00EE810AD4ED110A94ED121A70EE78
:101BE000C10A94ED101A01EE200A84ED140A94ED56
:101BF000140ADFEDAE0AB4EEE00AF1EE10FA02DDEF
:101C00009FEDAA0A01E094ED140A84ED140A94ED04
:101C1000140ADFEDA70AB4EEE00AF1EE10FA02D2E0
:101C20009FEDA30A01E094ED140A84ED140A94EDEB
:101C3000140A84ED020A94ED0A0A84ED0B0A94ED6D
:101C4000020A9C48D0ED050A9FED9B1A00EE810A1E
:101C500084ED0A0A94ED0C0AD4ED0A0A30EE200A4B
:101C600084ED0C0A94ED0C0ADFED8E0AB4EEE00A66
:101C7000F1EE10FA02DD9FED8B0A01E094ED0C0A03
:101C800084ED0C0A94ED0C0ADFED870AB4EEE00A4D
:101C9000F1EE10FA02D29FED840A01E094ED0C0AF5
:101CA00084ED0C0A7748B0F91600A0F281104FF4C9
:101CB000B471484300EE100AB8EEC00ADFED720AB4
:101CC00080EE201AB0EE418AB0EE480A03F0CCFE56
:101CD00000EE100AF8EEC00A94ED070A94ED0A1A15
:101CE00020EE010A94ED081AD4ED0C1A01EE210A37
:101CF00094ED0A1AD4ED0B1A31EE611AD4ED091ADB
:101D000001EE810A30EE800A84ED0D0A94ED0D0A91
:101D1000DFED6A0AB4EEE00AF1EE10FA02DD9FEDA3
:101D2000670A01E094ED0D0ABDEEC00A10EE100A3C
:101D300000B2A08294ED0D0ADFED610AB4EEE00A74
:101D4000F1EE10FA01D25F4801E0B4F91400A0826C
:101D5000002D7CD095ED110A85ED120A5A48B0F994
:101D60001600B0F5805F11DB5748B0F91600A0F5FA
:101D7000F850FF384FF4B471484300EE100AF8EE03
:101D8000C00A9FED411A80EE810A0DE04E48B0F97D
:101D900016004FF4B471484300EE100AF8EEC00A82
:101DA0009FED391A80EE810A85ED030A95ED010A4F
:101DB000D5ED030A30EE600A85ED110A95ED110AA2
:101DC000DFED320AB4EEE00AF1EE10FA06DD95ED31
:101DD000110ADFED2F0A30EE600A01E095ED110ADD
:101DE00085ED110A95ED110ADFED2A0AB4EEE00A3D
:101DF000F1EE10FA06D295ED110ADFED250A30EE6C
:101E0000200A01E095ED110A85ED110A95ED110A00
:101E1000DFED2E0AB4EEE00AF1EE10FA0CD295EDE9
:101E2000110ADFED2B0AB4EEE00AF1EE10FA03DD41
:101E30009FED1B0A85ED110A95ED130AD5ED110AE8
:101E400030EE200A85ED130A95ED130A00E0F6E066
:101E5000DFED200AB4EEE00AF1EE10FA02DD9FEDAC
:101E60001D0A01E095ED130A85ED130A95ED130A9D
:101E7000DFED190AB4EEE00AF1EE10FA2ED29FED72
:101E8000160A2DE0B802002000F8FF450000344398
:101E90000000B443000034C38FC2F53C8FC2F5BCD0
:101EA000000000000050C3460050C3C600001643A7
:101EB000000016C3B80100203333654200F0D2465B
:101EC00000F0D2C68896FFFF0C0300200AD7A33C7F
:101ED0000AD7A3BC00401C4600401CC695ED130A5F
:101EE00085ED130A95ED0E0AD5ED110A20EE200AB4
:101EF000D5ED0F0A95ED131A00EE810AD5ED110A02
:101F000095ED121A70EEC10A95ED101A01EE200A35
:101F100085ED140A95ED140ADFED4E0AB4EEE00AE1
:101F2000F1EE10FA02DD9FED4B0A01E095ED140A87
:101F300085ED140A95ED140ADFED470AB4EEE00AC8
:101F4000F1EE10FA02D29FED440A01E095ED140A79
:101F500085ED140A95ED140A85ED020A95ED0A0A3D
:101F600085ED0B0A95ED020A3C48D0ED060A1FEDFF
:101F70002E1A00EEC10A85ED0A0A95ED0C0AD5ED80
:101F80000A0A30EE200A85ED0C0A95ED0C0ADFED09
:101F9000340AB4EEE00AF1EE10FA02DD9FED300AE9
:101FA00001E095ED0C0A85ED0C0A95ED0C0ADFEDCC
:101FB0002D0AB4EEE00AF1EE10FA02D29FED290AE2
:101FC00001E095ED0C0A85ED0C0A95ED070AD5EDBB
:101FD0000A0A20EE200AD5ED080A95ED0C1A00EE4B
:101FE000810AD5ED0A0A95ED0B1A70EEC10A95ED3E
:101FF000091A01EE200A85ED0D0A95ED0D0ADFEDB7
:102000001A0AB4EEE00AF1EE10FA02DD9FED160AAC
:1020100001E095ED0D0ABDEEC00A10EE100A00B207
:10202000A88295ED0D0ADFED110AB4EEE00AF1EE9B
:1020300010FA01D20E4801E0B5F91400A8820D484B
:102040000078022802D10020A882A082BDEC028B79
:1020500070BD000000009643000096C3B801002048
:102060000000FA440000FAC400C0DA4600C0DAC634
:10207000A092FFFFF20000201FB5044602208DF859
:10208000000040F2FF20019000208DF808000021A0
:102090008DF80910210A8DF80A10E1B28DF80B10A5
:1020A00000218DF80C108DF80D108DF80E108DF8A4
:1020B0000F100023032269460248006808F0E6FC7E
:1020C0001FBD00002C0100201FB5044601208DF823
:1020D000000040F2FF200190200A8DF80800E1B2D4
:1020E0008DF8091000218DF80A108DF80B108DF86D
:1020F0000C108DF80D108DF80E108DF80F100023B8
:10210000032269460248006808F0C0FC1FBD0000B9
:102110002C01002000201E49087001201D49087074
:102120009FED1D0A1D4880ED070AB0EE0C0A80EDF8
:10213000080AB1EE040A80ED090AB2EE080A80ED41
:102140000E0A9FED170A80ED0F0AB7EE000A80ED28
:10215000100A9FED140A144880ED070A9FED100A3B
:1021600080ED080AB1EE000A80ED090AB3EE020A1A
:1021700080ED0E0A9FED0D0A80ED0F0AB7EE000A02
:1021800080ED100AB3EE040A80ED010A70470000EA
:102190000C0000200D00002000000C440C03002067
:1021A0000000000000009643B8020020CDCC4C3E59
:1021B00010B5024692F82030012B01D0022B06D137
:1021C00010684069084314686061002010BD506ABF
:1021D00040F4802050620120F8E7F0B504460D4637
:1021E0001E4694F8207020688368A86800B900E053
:1021F00000BF012F01D0022F7CD103F0806030B9E5
:1022000003F0006018B903F08050002873D0C3F3C6
:102210000161022905D9606A40F400006062012072
:10222000F0BD012088403060A86860B9B5F800C0F2
:10223000E86840EA4C5C206800F5C07000EB0110D3
:10224000C0F800C00FE0D5E901C040EACC00D5F8E5
:102250000CC040EA0C00D4F800C00CF5C07C0CEBBC
:10226000011CCCF80000D5F810C0206800F5C07043
:1022700000EB0110C0F804C0287D01280ED12068B1
:1022800000F5C07000EB0110406840F4807C2068CD
:1022900000F5C07000EB0110C0F804C0D079000652
:1022A00092F806C040EA0C4092F805C040EA0C2CB7
:1022B00010794CEA000C206800F5C07000EB0110AA
:1022C000C0F80CC0D078000692F802C040EA0C407A
:1022D00092F801C040EA0C2092F800C040EA0C00DD
:1022E000D4F800C00CF5C07C0CEB011CCCF8080045
:1022F000206801E016E00FE000F5C07000EB01106F
:10230000006840F0010C206800F5C07000EB01107F
:10231000C0F800C0002083E7606A40F400106062EB
:1023200001207DE7606A40F480206062012077E749
:10233000F0B504460A46216894F82050012D01D0DA
:10234000022D7ED1424901F50071086840F001007C
:102350000860086820F47C5008600868566A40EA03
:1023600006200860107D00F01F06012000FA06F329
:10237000C8699843C861A1F50071D069C8B9D1F89E
:102380000C029843C1F80C02908880B2968940EA0A
:10239000064601F51070576940F83760108880B222
:1023A000168940EA064601F51070576900EBC70030
:1023B0004660D069012819D1D1F80C021843C1F840
:1023C0000C02908880B2168840EA064601F510702B
:1023D000576940F83760908980B2168940EA06460E
:1023E00001F51070576900EBC7004660906928B985
:1023F000D1F804029843C1F8040204E0D1F80402C1
:102400001843C1F80402106928B9D1F8140298439E
:10241000C1F8140204E0D1F814021843C1F8140200
:10242000106A012804D1D1F81C021843C1F81C021B
:10243000D1F8000220F00100C1F800020020F0BD38
:10244000FFE7606A40F4802060620120F7E7000047
:1024500000640040704770B5044694F82050012D88
:1024600001D0022D7CD151B92068C06800F0030072
:1024700080B9606A40F400106062012070BD20687D
:10248000006900F0030028B9606A40F4001060623F
:102490000120F3E7206800F5D87000EB0110006818
:1024A00000F004009060906840B9206800F5D87092
:1024B00000EB01100068400D106007E0206800F597
:1024C000D87000EB01100068C0085060206800F56B
:1024D000D87000EB0110006800F002004008D060E6
:1024E000206800F5D87000EB0110406800F00F0084
:1024F0001061206800F5D87000EB0110406800F40E
:102500007F40000A9061206800F5D87000EB011050
:102510004068000C5061206800F5D87000EB011095
:1025200080681870206800F5D87000EB0110806892
:1025300000F47F40000A5870206800F5D87000EB66
:102540000110806800F47F00000C9870206800F58E
:10255000D87000EB01108068000ED870206800E091
:1025600031E000F5D87000EB0110C06818712068E8
:1025700000F5D87000EB0110C06800F47F40000A3D
:102580005871206800F5D87000EB0110C06800F4A5
:102590007F00000C9871206800F5D87000EB0110E6
:1025A000C068000ED87131B92068C06840F02000C2
:1025B0002668F06005E02068006940F02000266889
:1025C000306100205AE7606A40F480206062012098
:1025D00054E72DE9F05F044600252068466920682D
:1025E000D0F80490206887682068D0F80CA0206894
:1025F000D0F810B02068D0F8188006F0010000284C
:1026000055D007F00100C0B101202168886007F0B3
:10261000020018B1204600F006FC0EE007F00400AE
:1026200010B145F4006508E007F0080010B145F46A
:10263000805502E0204600F0F5FB07F48070C8B139
:102640004FF480702168886007F4007018B120464C
:1026500000F0EBFB0EE007F4806010B145F400558C
:1026600008E007F4006010B145F4804502E0204620
:1026700000F0DAFB07F48030C8B14FF480302168F5
:10268000886007F4003018B1204600F0D0FB0EE05F
:1026900007F4802010B145F4004508E007F400205D
:1026A00010B145F4803502E0204600F0BFFB06F093
:1026B000080038B10AF0100020B145F40075102070
:1026C0002168C86006F0040040B10AF0080028B193
:1026D00008202168C860204600F00EFA06F00200CB
:1026E00038B12068C06800F0030010B1204600F047
:1026F00005FA06F0400038B10BF0100020B145F4A7
:10270000806510202168086106F0200040B10BF0C0
:10271000080028B1082021680861204600F0BAFAB4
:1027200006F0100038B12068006900F0030010B115
:10273000204600F0B1FA06F4003040B109F0100074
:1027400028B1102021684860204600F03BFB06F4C9
:10275000803040B109F0080028B1082021684860A5
:10276000204600F065FB06F4004088B309F0040041
:1027700078B306F4807020B108F0010008B145F08C
:10278000010506F4007020B108F0020008B145F020
:10279000020506F4806020B108F0040008B145F09D
:1027A000040506F40060A0B108F0700088B108F0DC
:1027B0007000402817D006DC10280BD020280CD041
:1027C000302819D10CE0502810D0602814D110E026
:1027D0001DE019E045F008050FE045F010050CE09C
:1027E00045F0200509E045F0400506E045F080058C
:1027F00003E045F4807500E000BF00BF20688069F9
:1028000020F07000216888610420216848602DB1A3
:10281000606A284360622046FFF71CFEBDE8F09F17
:1028200070B504460CB9012070BD94F8200010B9B1
:10283000204600F0AFF82068006820F00200216810
:10284000086000F02BFE05460DE000F027FE401B5F
:102850000A2808D9606A40F400306062052084F8D4
:1028600020000120E0E72068406800F00200002816
:10287000EBD12068006840F001002168086000F09A
:102880000DFE05460DE000F009FE401B0A2808D9A0
:10289000606A40F400306062052084F82000012066
:1028A000C2E72068406800F001000028EBD0207EDD
:1028B000012806D12068006840F080002168086087
:1028C00005E02068006820F0800021680860607ED4
:1028D000012806D12068006840F0400021680860A7
:1028E00005E02068006820F0400021680860A07EB4
:1028F000012806D12068006840F0200021680860A7
:1029000005E02068006820F0200021680860E07E73
:10291000012806D12068006820F0100021680860B6
:1029200005E02068006840F0100021680860207F02
:10293000012806D12068006840F00800216808607E
:1029400005E02068006820F0080021680860607FCA
:10295000012806D12068006840F004002168086062
:1029600005E02068006820F0040021680860D4E9D0
:102970000201084321690843616908436168491EEF
:1029800008432168C86100206062012084F82000AB
:10299000002049E710B586B00446142101A8FDF7D0
:1029A000DEFC4F492068884241D14E480068401CF7
:1029B0004C4908600846006801280FD100BF00207C
:1029C00000904948006840F0007047490860084698
:1029D000006800F00070009000BF00BF00BF002042
:1029E000009041481038006840F008003E49103916
:1029F00008600846006800F00800009000BF00BFB3
:102A000003200190022002900020039003200490F4
:102A10000920059001A9354800F01AFC0022052183
:102A2000142000F0E9FD142000F0D6FD55E03049F7
:102A30002068884251D100BF002000902A480068D9
:102A400040F08060284908600846006800F0806017
:102A5000009000BF00BF23480068401C2149086067
:102A60000846006801280FD100BF002000901E48D2
:102A7000006840F000701C4908600846006800F0DB
:102A80000070009000BF00BF00BF002000901648FB
:102A90001038006840F002001349103908600846F9
:102AA000006800F00200009000BF00BF4FF44050EB
:102AB000019002200290002003900320049009203E
:102AC000059001A90B4800F0C3FB0022052141201D
:102AD00000F092FD412000F07FFD06B010BD000027
:102AE000006400402002002040380240000C0240F8
:102AF00000680040000402407047000010B58AB032
:102B0000044601AB03AA00215D48FFF7A4FC40F294
:102B100005220398811A90425FD012DC40F2022213
:102B2000A0EB0201904235D006DC662876D0A0F2F8
:102B30000120002871D10DE001294CD00229F9D1E2
:102B40004AE001294AD0022949D0032948D0042962
:102B500063D146E04B480089401C4A4908819DF8F2
:102B600005009DF8041040EA0120464908809DF8C0
:102B700007009DF8061040EA012000B24149888014
:102B80009DF809009DF8081040EA012000B23D4977
:102B9000C88071E03B48008E401C81B239480186F4
:102BA0009DF805009DF8041040EA0120354908858C
:102BB0009DF807009DF8061040EA012001B2314857
:102BC00081859DF809009DF8081040EA012001B2B6
:102BD0002C48C18550E04FE04EE04DE04CE04BE02A
:102BE0004AE029480088401C274908809DF80500D4
:102BF0009DF8041040EA012000B22349C8829DF8E4
:102C000007009DF8061040EA012000B21E49088224
:102C10009DF80A0008762FE000E02CE09DF8050002
:102C20009DF8041040EA012000B2184908809DF880
:102C30000600887008468078154908709DF80700DE
:102C400000111249C8709DF8070000F00F000871CC
:102C50009DF809009DF8081040EA012000B20B49D8
:102C600008819DF80B009DF80A1040EA012000B28F
:102C70000649C88000E000BF00BF0AB010BD0000D8
:102C8000C00B0020DC0800200C0300200000002006
:102C9000F20000207047000010B58AB0044601AB76
:102CA00003AA01214348FFF7D6FB0398A0F20120B5
:102CB00030B1012824D0022843D0092875D158E02A
:102CC0003D480089401C3C4908819DF805009DF85D
:102CD000041040EA0120384908809DF807009DF85B
:102CE000061040EA012000B2334988809DF80900AF
:102CF0009DF8081040EA012000B22F49C88055E035
:102D00002D48008E401C81B22B4801869DF805009D
:102D10009DF8041040EA0120274908859DF8070026
:102D20009DF8061040EA012001B2234881859DF8F4
:102D300009009DF8081040EA012001B21E48C18533
:102D400034E01E480088401C1C4908809DF805009E
:102D50009DF8041040EA012000B21849C8809DF88F
:102D600007009DF8061040EA012000B21349488090
:102D70001CE013480088401C114908809DF805009C
:102D80009DF8041040EA012000B20D49C8829DF868
:102D900007009DF8061040EA012000B208490882A9
:102DA0009DF80A00087601E0FFE700BF00BF0AB007
:102DB00010BD0000E80B002044080020940800200B
:102DC000B8020020704770B5044694F8200001282E
:102DD00022D1022084F820002068006820F0010041
:102DE0002168086000F05AFB05460DE000F056FB34
:102DF000401B0A2808D9606A40F400306062052050
:102E000084F82000012070BD2068406800F00100B7
:102E10000028EBD16062F6E7606A40F4002060624F
:102E20000120F0E770477047704770477047704760
:102E30007047014691F83500022803D0802048658C
:102E400001207047052081F835000868006820F0EF
:102E500001000A6810600020F3E70000F8B504469E
:102E6000002000908C4800684FF41651B0FBF1F739
:102E7000A56D2E6894F85C1008208840304098B109
:102E80002068006800F0040070B12068006820F03D
:102E900004002168086094F85C1008208840A8604D
:102EA000606D40F00100606594F85C10012088407E
:102EB000304068B12068406900F0800040B194F86B
:102EC0005C1001208840A860606D40F002006065E1
:102ED00094F85C1004208840304068B12068006895
:102EE00000F0020040B194F85C1004208840A86013
:102EF000606D40F00400606594F85C10102088401C
:102F0000304078B32068006800F0080050B394F8AF
:102F10005C1010208840A8602068006800F48020C1
:102F200080B12068006800F4002028B9206CC8B186
:102F30002046216C884715E0A06C98B12046A16C12
:102F400088470FE02068006800F4807028B9206886
:102F5000006820F0080021680860206C10B120464D
:102F6000216C884794F85C1020208840304000286D
:102F700065D02068006800F0100000285FD094F849
:102F80005C1020208840A86094F83500052828D1DE
:102F90002068006820F016002168086020684069F9
:102FA00020F0800021684861206C08B9A06C28B12D
:102FB0002068006820F008002168086094F85C1020
:102FC0003F208840A86000BF002084F8340000BF84
:102FD000012084F83500206D10B12046216D88470E
:102FE000F8BD2068006800F4802080B12068006887
:102FF00000F4002028B9606C10B12046616C88474D
:103000001DE0E06BD8B12046E16B884717E02068EF
:10301000006800F4807068B92068006820F0100033
:103020002168086000BF002084F8340000BF012040
:1030300084F83500E06B10B12046E16B8847606D85
:1030400038B3606D00F00100F0B1052084F8350060
:103050002068006820F001002168086000BF009827
:10306000401C0090B84200D905E02068006800F0DC
:1030700001000028F3D100BF00BF002084F8340015
:1030800000BF012084F83500E06C10B12046E16CEF
:10309000884700BFA4E70000300200202DE9F0417E
:1030A0000446002500F0FAF9074614B90120BDE8EE
:1030B000F081606A00B100BF00BF002084F83400D6
:1030C00000BF022084F835002068006820F001006D
:1030D000216808600AE000F0E1F9C01B052805D965
:1030E00020206065032084F83500E0E72068006850
:1030F00000F001000028EED1206805682148054055
:10310000D4E901010843E168084321690843616982
:103110000843A1690843E1690843216A084305435C
:10312000606A042803D1D4E90B01084305432068F1
:1031300005602068456925F00705606A0543606AF7
:1031400004280DD1A06A0543E06A48B12046FDF786
:10315000ABFF28B140206065012084F83500A6E768
:10316000206845612046FDF785FF064694F85C100F
:103170003F208840B06000206065012084F8350061
:10318000002094E73F8010F02DE9F04704460D46FB
:1031900016461F464FF00008D4F8589000BF94F828
:1031A0003400012802D10220BDE8F087012084F814
:1031B000340000BF94F8350001282BD1022084F898
:1031C0003500002060653B46324629462046FDF723
:1031D000C0FF94F85C103F208840C9F808002068C0
:1031E000006840F01600216808602068406940F0DF
:1031F000800021684861206C28B12068006840F098
:103200000800216808602068006840F0010021681B
:10321000086006E000BF002084F8340000BF4FF0D3
:1032200002084046C0E7000070B5044600F036F9D9
:1032300006462546681C10B104480078054400BFC6
:1032400000F02CF9801BA842FAD370BD2C0200209C
:10325000F8B502460B460025002400200021E6E0D8
:10326000012606FA01F51E6806EA0504AC4273D190
:103270005E68022E02D05E68122E13D1CF0802F1D2
:10328000200656F827004E07F70E0F26BE40B04323
:103290004F07FF0E1E69BE403043CF0802F12006E3
:1032A00046F8270010684F000326BE40B0431E7941
:1032B00006F003064F00BE40304310605E68012EEA
:1032C00008D05E68022E05D05E68112E02D05E68BE
:1032D000122E13D190684F000326BE40B0434F001A
:1032E000DE68BE4030439060506801268E40B04397
:1032F0001E79C6F300168E4030435060D0684F00F0
:103300000326BE40B0434F009E68BE403043D060AD
:103310005E6806F08056B6F1805FA8D100BF002637
:103320000096454E366846F48046434F3E603E4622
:10333000366806F48046009600BF00BF3F4E8F08F7
:1033400056F827008E07370F0F26BE40B0433C4E7D
:10335000B24202D100262EE068E03A4EB24201D1DC
:10336000012628E0384EB24201D1022623E0374E32
:10337000B24201D103261EE0354EB24201D10426ED
:1033800019E0344EB24201D1052614E0324EB24269
:1033900001D106260FE0314EB24201D107260AE0E4
:1033A0002F4EB24201D1082605E02E4EB24201D185
:1033B000092600E00A268F073F0FBE4030431F4E0C
:1033C0008F0846F82700284E3068A0435E6806F450
:1033D0008036B6F5803F00D12043234E3060361D45
:1033E0003068A0435E6806F40036B6F5003F00D1B1
:1033F00020431D4E361D3060361D3068A0435E6888
:1034000006F48016B6F5801F00D12043164E08360C
:103410003060361D3068A0435E6806F40016B6F5CD
:10342000001F00D12043104E0C363060491C10297B
:10343000FFF416AFF8BD00004438024008380140E0
:10344000000002400004024000080240000C02405C
:10345000001002400014024000180240001C02400C
:103460000020024000240240003C01400246136953
:103470000B400BB1012000E00020704742690A4078
:103480008A4202D10A04826100E0816170470AB178
:10349000816101E00B04836170470000014800680E
:1034A000704700002402002003480068034909789F
:1034B0000844014908607047240200202C020020C3
:1034C00010B50D48006840F400700B4908600846CC
:1034D000006840F4806008600846006840F480702E
:1034E0000860032000F0C6F8002000F007F800F0A4
:1034F00049F8002010BD0000003C024070B588B0C3
:10350000044600250026002221461C2000F074F805
:103510001C2000F061F800BF0020019016480068F0
:1035200040F00100144908600846006800F00100FE
:10353000019000BF00BF02A903A800F06FF900F0DE
:1035400095F945000D48B5FBF0F0461E4FF0804060
:103550000B49086040F2E7310948C160466000212C
:103560000161816000F0E9FD20B9054800F000FE2E
:1035700008B070BD0120FBE74038024040420F0018
:103580004810002008B500BF0020009011480068D6
:1035900040F480400F4908600846006800F480400D
:1035A000009000BF00BF00BF00200090081F00680F
:1035B00040F08050091F08600846006800F0805005
:1035C000009000BF00BF00220F21901E00F014F8F1
:1035D00008BD00004438024001460846002809DBC7
:1035E00000F01F0301229A4043099B0003F1E023EE
:1035F000C3F8002100BF70472DE9F05F80460D46FB
:103600001646002703F00CFE074639462A46334685
:1036100001F00700C0F1070ABAF1040F02D94FF018
:10362000040A01E0C0F1070AD14600F1040ABAF128
:10363000070F02D24FF0000A01E0A0F1030AD446BE
:103640004FF0010A0AFA09FAAAF1010A0AEA020A83
:103650000AFA0CFA4FF0010B0BFA0CFBABF1010B61
:103660000BEA030B4AEA0B042146404603F0E0FD57
:10367000BDE8F09F00BF00F00702064B19684FF647
:10368000FF031940044B0B4343EA0221014B19602D
:1036900000BF70470CED00E00000FA0570B504466D
:1036A0000D460CB9012070BD5848006800F00F00AD
:1036B000A84209D255490D700846006800F00F0075
:1036C000A84201D00120EEE7207800F00200022895
:1036D0001DD1207800F00400042805D14C48006872
:1036E00040F4E0504A490860207800F008000828BB
:1036F00005D14748006840F46040454908604448A7
:10370000006820F0F000A168084341490860207873
:1037100000F00100A8B36068012807D13C480838D0
:103720000068C0F34040B8B90120BCE760680228D7
:1037300002D06068032807D1354808380068C0F314
:10374000406048B90120AEE7314808380068C0F34E
:10375000400008B90120A6E72D48006820F00300CA
:10376000616808432A490860FFF798FE064609E0A9
:10377000FFF794FE801B41F28831884202D9032072
:1037800091E707E02248006800F00C006168B0EBA8
:10379000810FEDD11D48006800F00F00A84209D943
:1037A0001A490D700846006800F00F00A84201D0C9
:1037B000012078E7207800F00400042807D114489D
:1037C000006820F4E050E16808431149086020785F
:1037D00000F00800082808D10D48006820F4604077
:1037E000216940EAC1000A49086000F05FF8084911
:1037F0000968C1F30311074A515CC84006490860D3
:103800000020FFF77BFE00204DE70000003C024057
:103810000838024058B60008300200200F2202602B
:103820000D4A126802F0030242600B4A126802F06D
:10383000F0028260084A126802F4E052C260064A4E
:10384000126802F46042D2080261044A126802F06F
:103850000F020A607047000008380240003C024036
:1038600001480068704700003002002000B5FFF7F3
:10387000F7FF04490968C1F38221034A515CC8403B
:1038800000BD00000838024068B6000800B5FFF728
:10389000E7FF04490968C1F34231034A515CC8405B
:1038A00000BD00000838024068B600082DE9F04766
:1038B000002400250026A1462548006800F00C00E1
:1038C00020B1042805D008283AD105E0DFF884901B
:1038D00039E0DFF8849036E01D48001F006800F0F2
:1038E0003F041B48001F006800F4800078B11A48AC
:1038F0001749091F0968C1F38811A0FB017001462F
:10390000224600233846FCF7CDFC05460EE0114860
:103910000F49091F0968C1F38811A0FB0170014616
:10392000224600233846FCF7BDFC05460848001F28
:103930000068C0F30140401C4600B5FBF6F902E008
:10394000DFF8109000BF00BF4846BDE8F0870000D8
:10395000083802400024F400001BB700F8B5044604
:103960000CB90120F8BD207800F00100002874D0C7
:10397000F948006800F00C0004280DD0F6480068F3
:1039800000F00C00082813D1F348001F006800F471
:103990008000B0F5800F0BD1EF4808380068C0F305
:1039A0004040002859D06068002856D10120D9E74E
:1039B00000BF6068B0F5803F08D1E748083800686C
:1039C00040F48030E449083908601EE06068B0F5D2
:1039D000A02F0DD1E0480838006840F48020DE496F
:1039E000083908600846006840F4803008600CE040
:1039F000D9480838006820F48030D7490839086071
:103A00000846006820F48020086000BF606890B11C
:103A1000FFF744FD054606E0FFF740FD401B642824
:103A200001D903209EE7CC4808380068C0F3404025
:103A30000028F1D011E0FFF731FD054606E0FFF761
:103A40002DFD401B642801D903208BE7C2480838AC
:103A50000068C0F340400028F1D1207800F0020057
:103A600002285FD1BC48006800F00C0058B1BA4889
:103A7000006800F00C0008281CD1B748001F00683F
:103A800000F48000B0B9B44808380068C0F34000C2
:103A900020B1E068012801D0012063E7AE48083872
:103AA000006820F0F800216940EAC100AA490839FD
:103AB000086037E0E06800B30120A8490860FFF71C
:103AC000EDFC054606E0FFF7E9FC401B022801D9A2
:103AD000032047E7A04808380068C0F340000028EA
:103AE000F1D09D480838006820F0F800216940EACC
:103AF000C10099490839086014E00020974908601E
:103B0000FFF7CCFC054606E0FFF7C8FC401B022887
:103B100001D9032026E7904808380068C0F3400028
:103B20000028F1D1207800F0080008282CD1606925
:103B3000A8B101208A490860FFF7B0FC054606E0FD
:103B4000FFF7ACFC401B022801D903200AE782489A
:103B50006C300068C0F340000028F1D014E0002071
:103B60007F490860FFF79AFC054606E0FFF796FCE0
:103B7000401B022801D90320F4E677486C30006826
:103B8000C0F340000028F1D1207800F004000428A0
:103B900070D1002670483830006800F0805090B92D
:103BA00000BF002000906C483830006840F0805022
:103BB0006949383108600846006800F0805000907C
:103BC00000BF00BF01266748006800F48070B0B9EC
:103BD0006448006840F4807062490860FFF75EFC4A
:103BE000054606E0FFF75AFC401B022801D90320D6
:103BF000B8E65C48006800F480700028F2D000BF8E
:103C0000A068012808D154486830006840F00100DD
:103C10005149683108601DE0A06805280DD14E4863
:103C20006830006840F004004B496831086008467D
:103C3000006840F0010008600CE047486830006808
:103C400020F001004449683108600846006820F00F
:103C50000400086000BFA068A8B1FFF71FFC05467C
:103C600009E0FFF71BFC401B41F28831884202D972
:103C7000032077E626E0384868300068C0F340004B
:103C80000028EED013E0FFF709FC054608E0FFF737
:103C900005FC401B41F28831884201D9032061E6CE
:103CA0002D4868300068C0F340000028EFD1012E95
:103CB00007D129483830006820F080502649383133
:103CC000086000BFA069B8B32348006800F00C008A
:103CD00008285ED0A069022846D100201F49086646
:103CE000FFF7DCFB054606E0FFF7D8FB401B022888
:103CF00001D9032036E6184808380068C0F3406050
:103D00000028F1D1D4E907010843616A40EA811132
:103D10000122A06AC2EB500041EA00412C20005D64
:103D200041EA00600C49091F086001200B49086640
:103D3000FFF7B4FB054607E02DE0FFF7AFFB401BA4
:103D4000022801D903200DE6034808380068C0F3B3
:103D500040600028F1D01EE00838024000004742D1
:103D6000800E47420070004000200C490866FFF7B3
:103D700095FB054606E0FFF791FB401B022801D9A1
:103D80000320EFE506480068C0F340600028F2D148
:103D900001E00120E6E50020E4E5000000004742E4
:103DA0000038024010B504460CB9012010BD606A0D
:103DB00000B900BF0021A16294F8510028B9002089
:103DC00084F85000204600F033F8022084F85100B7
:103DD0002068006820F0400021680860D4E90101F3
:103DE0000843E16808432169084361690843218B5E
:103DF00001F400710843E1690843216A0843A16A9C
:103E00000843216808600421A06901EA1040616A42
:103E10000843216848602068C06920F40060216878
:103E2000C86100206065012084F851000020BDE7D2
:103E300010B586B00446142101A8FCF790FA1B497E
:103E40002068884230D100BF0020009018480068E8
:103E500040F48010164908600846006800F480109D
:103E6000009000BF00BF00BF002000901048143831
:103E7000006840F020000E491439086008460068C8
:103E800000F02000009000BF00BF4FF46070019070
:103E9000022002900020039003200490052005904A
:103EA00001A90448FFF7D4F906B010BD0050014045
:103EB00044380240001402402DE9FF5F0446884662
:103EC00091461D460E9E012002900020019000BFE9
:103ED00094F85000012803D1022004B0BDE8F09FFF
:103EE000012084F8500000BFFFF7D8FA074694F885
:103EF00051B060680390AA46BBF1010F0BD0039844
:103F0000B0F5827F04D1A06810B9BBF1040F02D0D4
:103F100002200190DBE0B8F1000F03D0B9F1000FEF
:103F200000D015B901200190D1E094F85100042887
:103F300002D0052084F8510000206065C4F8389054
:103F4000E587A587C4F83080E586A586206460648F
:103F50002068006800F04000402805D02068006814
:103F600040F0400021680860E068B0F5006F4AD179
:103F7000606810B1BAF1010F09D1206B0088216887
:103F8000C860206B801C2063E08E401EE08633E01A
:103F90002068806800F00200022810D1E08E70B125
:103FA000029801280BD1206B00882168C860206B23
:103FB000801C2063E08E401EE08600200290206876
:103FC000806800F0010068B1E08F58B12068C068D7
:103FD000A16B0880A06B801CA063E08F401EE0876F
:103FE00001200290FFF75AFAC01BB04204D3701CA4
:103FF00010B1032001906AE0E08E0028C8D1E08F64
:104000000028C5D14AE0606810B1BAF1010F09D1AA
:10401000206B007821680873206B401C2063E08EC1
:10402000401EE08634E02068806800F0020002282C
:1040300010D1E08E70B1029801280BD1206B00786E
:1040400021680873206B401C2063E08E401EE086D0
:10405000002002902068806800F0010068B1E08FC5
:1040600058B12068C068A16B0870A06B401CA063A9
:10407000E08F401EE08701200290FFF70FFAC01B7F
:10408000B04201D3701C00B916B9032001901EE0A4
:10409000E08E0028C7D1E08F0028C4D13A463146CF
:1040A000204601F095FD20B101200190202060659F
:1040B0000DE0A06850B900BF002000902068C068E3
:1040C000009020688068009000BF00BF00BF012002
:1040D00084F8510000BF002084F8500000BF019810
:1040E000FBE67047704710B5024600BF92F83C00EF
:1040F000012801D1022010BD012082F83C0000BF40
:10410000022082F83D00106843681068846823F03C
:1041100070030868034324F080044868044310686F
:10412000436010688460012082F83D0000BF0020D9
:1041300082F83C0000BF00BFDDE710B504460CB9B3
:10414000012010BD94F83D0028B9002084F83C00FF
:10415000204600F00CF8022084F83D00211D206864
:1041600002F0DCF8012084F83D000020E9E7704708
:1041700001460868C06840F001000B68D860086814
:10418000806800F00702062A05D00868006840F041
:1041900001000B68186000207047704710B5044696
:1041A00020680069C0F34000D8B12068C068C0F33F
:1041B0004000B0B16FF00200216808610120207753
:1041C0002068806900F0030018B12046FFF7E5FF82
:1041D00005E0204600F0DEF8204600F095F90020CA
:1041E000207720680069C0F38000D8B12068C068DB
:1041F000C0F38000B0B16FF00400216808610220B4
:1042000020772068806900F4407018B12046FFF7DD
:10421000C4FF05E0204600F0BDF8204600F074F928
:104220000020207720680069C0F3C000D8B1206862
:10423000C068C0F3C000B0B16FF008002168086129
:10424000042020772068C06900F0030018B12046E0
:10425000FFF7A3FF05E0204600F09CF8204600F0A1
:1042600053F90020207720680069C0F30010D8B10E
:104270002068C068C0F30010B0B16FF01000216872
:104280000861082020772068C06900F4407018B1E8
:104290002046FFF782FF05E0204600F07BF820462D
:1042A00000F032F9002020772068006900F001005A
:1042B00058B12068C06800F0010030B16FF0010013
:1042C00021680861204600F04DF920680069C0F3BC
:1042D000C01058B12068C068C0F3C01030B16FF092
:1042E0008000216808612046FFF7FBFE2068006916
:1042F000C0F3801058B12068C068C0F3801030B19E
:104300006FF0400021680861204600F034F9206811
:104310000069C0F3401058B12068C068C0F3401075
:1043200030B16FF02000216808612046FFF7DAFE07
:1043300010BD000010B586B00446142101A8FCF79A
:104340000EF81149206888421CD100BF002000905F
:104350000E48006840F002000C49086008460068FA
:1043600000F00200009000BF00BF2020019002205A
:1043700002900020039004900220059001A90448B7
:10438000FEF766FF06B010BD000400403038024062
:1043900000040240704770B504460D46164600BF43
:1043A00094F83C00012801D1022070BD012084F85E
:1043B0003C0000BF022084F83D0036B1042E1BD023
:1043C000082E31D00C2E5ED145E02946206802F03F
:1043D00023F82068806940F008002168886120681F
:1043E000806920F00400216888612068806929695B
:1043F00008432168886147E02946206802F044F8B4
:104400002068806940F400602168886120688069C4
:1044100020F480602168886120688069296940EA09
:104420000120216888612FE02946206802F06AF89F
:104430002068C06940F008002168C8612068C06930
:1044400020F004002168C8612068C0692969084318
:104450002168C86118E02946206802F08FF82068BA
:10446000C06940F400602168C8612068C06920F418
:1044700080602168C8612068C069296940EA01201C
:104480002168C86100E000BF00BF012084F83D0042
:1044900000BF002084F83C0000BF00BF85E710B5D6
:1044A00004460CB9012010BD94F83D0028B9002045
:1044B00084F83C00204600F00DF8022084F83D000E
:1044C000211D206801F02AFF012084F83D00002012
:1044D000E9E7000008B50A4A016891420FD100BF20
:1044E000002100910749096841F00201054A116065
:1044F0001146096801F00201009100BF00BF08BD2C
:1045000000040040403802407047000070B5044687
:104510000E4601223146206801F06CFF0F492068E9
:10452000884203D00E492068884201D1012000E072
:10453000002028B12068406C40F4004021684864A5
:104540002068806800F00705062D05D02068006807
:1045500040F0010021680860002070BD00000140AB
:104560000004014010B504462068B0F1804F01D12D
:10457000FEF79AFF10BD7047704700002DE9F04725
:104580000446206805682068C668206847694FF0BF
:104590000008C14605F00F08B8F1000F0AD105F078
:1045A000200038B106F0200020B1204602F098FB30
:1045B000BDE8F087B8F1000F6ED007F0010018B920
:1045C00006F49070002867D005F0010030B106F4C1
:1045D000807018B1E06B40F00100E06305F004006A
:1045E00030B107F0010018B1E06B40F00200E06369
:1045F00005F0020030B107F0010018B1E06B40F0A7
:104600000400E06305F0080030B107F0010018B1C4
:10461000E06B40F00800E063E06B70B305F0200051
:1046200028B106F0200010B1204602F059FB2068A6
:104630004069C0F38019E06B00F0080010B9B9F1CF
:10464000000F23D0204602F021FB2068406900F0D3
:104650004000402816D12068406920F040002168C1
:104660004861606B50B11748616B0865606BFEF77D
:10467000E0FB10B1606B016D88470CE02046FFF74E
:104680007BFF08E02046FFF777FF04E02046FFF7B6
:1046900073FF0020E0638BE705F0800030B106F087
:1046A000800018B1204602F023FD81E705F04000AC
:1046B00030B106F0400018B1204602F0F7FA77E773
:1046C00000BF75E7E56B000810B504460CB9012082
:1046D00010BDA06900B100E000BF94F8390028B90E
:1046E000002084F83800204600F028F8242084F8C0
:1046F00039002068C06820F400502168C860204656
:1047000002F042FB2068006920F4904021680861B3
:104710002068406920F02A00216848612068C0684C
:1047200040F400502168C8600020E063202084F835
:10473000390084F83A000020CAE7000010B586B0BE
:104740000446142101A8FBF70AFEEC4920688842C0
:1047500078D100BF00200090E948006840F0804018
:10476000E74908600846006800F08040009000BFFC
:1047700000BF00BF00200090E1481038006840F002
:104780001000DF49103908600846006800F010008A
:10479000009000BF00BF4FF4C07001900220029053
:1047A00001200390032004900820059001A9D5481A
:1047B000FEF74EFDD448D54908604FF020604860B0
:1047C0000021D2488160C1604FF480610161002105
:1047D000416181614FF48071C161002101624162D8
:1047E000FEF75CFC08B1FCF7CBFC00BFC748606378
:1047F000846300BFC4483038C549086080054860FC
:104800004021C34881600021C1604FF48061016193
:10481000002141618161C16101624162FEF73EFC9C
:1048200008B1FCF7ADFC00BFB9482063846300BF4A
:10483000002205215220FEF7DFFE5220FEF7CCFEBB
:104840005AE1FFE7B3492068884278D100BF0020D1
:104850000090AB48006840F00040A9490860084655
:10486000006800F00040009000BF00BF00BF0020C3
:104870000090A3481038006840F01000A04910399B
:1048800008600846006800F01000009000BF00BFFC
:104890000320019002200290012003900320049045
:1048A0000820059001A99748FEF7D2FC96484830A9
:1048B0009949086000054860002197488160C160FF
:1048C0004FF4806101610021416181614FF4807189
:1048D000C161002101624162FEF7E0FB08B1FCF713
:1048E0004FFC00BF8C486063846300BF8648483833
:1048F0008A4908604FF02060486040218748816005
:104900000021C1604FF4806101610021416181613A
:10491000C16101624162FEF7C1FB08B1FCF730FCE6
:1049200000BF7E482063846300BF0022052153201E
:10493000FEF762FE5320FEF74FFEDDE0FFE7784909
:10494000206888425AD100BF002000906C48001DAA
:10495000006840F010006A49091D086008460068B8
:1049600000F01000009000BF00BF00BF00200090CA
:1049700063481038006840F002006149103908604F
:104980000846006800F00200009000BF00BFC02091
:104990000190022002900020039003200490072041
:1049A000059001A95F48FEF753FC5F485F49086026
:1049B0004FF00060486000215C488160C1604FF4A6
:1049C000806101610021416181614FF48071C161A9
:1049D000002101624162FEF761FB08B1FCF7D0FBE8
:1049E00000BF52486063846300BF00220521252078
:1049F000FEF702FE2520FEF7EFFD7DE04C49206822
:104A0000884279D100BF002000903D48001D006819
:104A100040F020003A49091D08600846006800F08F
:104A20002000009000BF00BF00BF0020009034486D
:104A30001038006840F040003149103908600846DD
:104A4000006800F04000009000BF00BF4FF48440B9
:104A5000019002200290002003900320049008207F
:104A6000059001A93348FEF7F3FB2F481838324967
:104A700008608005486000212F488160C1604FF4C4
:104A8000806101610021416181614FF48071C161E8
:104A9000002101624162FEF701FB08B1FCF770FBE7
:104AA00000BF25486063846300BF1F48603023490E
:104AB00008604FF02060486040212048816000215C
:104AC000C1604FF480610161002141618161C16178
:104AD00001624162FEF7E2FA08B1FCF751FB00BF48
:104AE00016482063846300BF002205214720FEF79B
:104AF00083FD4720FEF770FD06B010BD0078004032
:104B0000403802400010024058600240A80D0020CA
:104B1000080E0020007C0040680E0020C80E002017
:104B2000001001400004024040640240280F0020B1
:104B30000014014000180240880F0020E80F0020F8
:104B400070470000F7B50446154694F83900202850
:104B50003DD1019800B10DB90120FEBD00BF94F810
:104B60003800012801D10220F7E7012084F838003D
:104B700000BF01982062A584E5840020E063212025
:104B800084F839001348216BC8631348216B08640B
:104B90001248216BC8640020216B086501AE2368B0
:104BA0001A1D31682B46206BFEF7EEFA6FF04000BD
:104BB0002168086000BF002084F8380000BF20682A
:104BC000406940F08000216848610020C5E702206C
:104BD000C3E70000496C00087F6C0008F96B00080F
:104BE0007047704700BFFEE710B504462068406973
:104BF00040F04000216848612268111D1523054AD4
:104C0000606BFEF7C1FA2068C06840F010002168B0
:104C1000C86010BD180700207CB504460020019034
:104C20000026656B2068C06800F0100000283BD0AB
:104C3000206800682068406800BF0020009020685D
:104C40000068009020684068009000BF00BF28689E
:104C5000006820F001002968086028684068C0F1F9
:104C60001500C6B21520296848602868006840F021
:104C7000010029680860002E16DD0C4800786628BF
:104C800012D10A48C07B88280ED101A908480068C3
:104C900005F092FC019838B14FF08050054908604A
:104CA000BFF34F8FBFF36F8F7CBD0000180700204C
:104CB0001C01002004ED00E070B52DED028B0546CF
:104CC000E848E94E4ECE4EC0E6494878C11700EBA1
:104CD00011710911A0EB0111CCB2E248408800F437
:104CE000004000287CD0E1480078072802D1B7EEC8
:104CF000000A01E09FEDDE0ADE4880ED020ADE4890
:104D0000B0F91600A0F281104FF4B471484300EEE0
:104D1000100AB8EEC00ADFEDD90A80EE208AD84822
:104D2000B0F91600B0F5805F0FDBD548B0F916007A
:104D3000A0F5F850FF38484300EE100AF8EEC00A1C
:104D40009FEDCE1A80EE810A0DE0CD48B0F9160035
:104D50004FF4B471484300EE100AF8EEC00A9FED1C
:104D6000C71A80EE810AF0EE408A05E09FEDC50A81
:104D700038EE400AB0EE408A9FEDC30AB4EEC08A16
:104D8000F1EE10FAF2DC05E09FEDBE0A38EEC00A43
:104D9000F0EE408A9FEDBC0AF4EEC08AF1EE10FA04
:104DA000F2DC04EB8400B94901EB800080ED008A5D
:104DB00004EB840001EB8000C0ED018AAD4880ED7A
:104DC000008AC0ED018A0C2201462846FFF7BAFE90
:104DD000012004EB8401AD4A02EB8101087400BF9D
:104DE000A048408800F4005000287DD004EB8400E7
:104DF000A64901EB8000007C0028F6D006F0B2F84E
:104E0000A349086008460068A2490968401AA249F7
:104E100008609F4800689F49086092498878C117D8
:104E200000EB11710911A0EB01119C4A11700020D7
:104E30001146097801EB8101944A02EB8101087463
:104E4000884890ED010ADFED960AB4EEE00AF1EE33
:104E500010FA19D290ED010ADFED920AB4EEE00AE1
:104E6000F1EE10FA10DD8D48007800EB800011465D
:104E700001EB800090ED000A7A48D0ED010A30EE97
:104E8000200A894880ED000A874890ED000A87488B
:104E900080ED000A734890ED020ADFED850AB4EE5A
:104EA000E00AF1EE10FA1ED290ED020ADFED810A5F
:104EB000B4EEE00AF1EE10FA15DD7848007800EB68
:104EC0008000724901EB800090ED010A6548D0ED49
:104ED000020A30EE600A784880ED000A90ED000A80
:104EE000764880ED000A00E0B9E0734890ED000AD2
:104EF000DFED650AB4EEE00AF1EE10FA06DD90EDA2
:104F0000000ADFED600A30EE600A02E06A4890EDC8
:104F1000000A694880ED000A90ED000A684880EDBB
:104F2000000A5D480068E0B15F4890ED000A6548FE
:104F3000D0ED000A30EE600ADFED630A60EE200A71
:104F4000554890ED000AB8EE400A80EE801A5348AA
:104F5000007800EB80004D4901EB800080ED021AE3
:104F60000AE09FED430A4D48007800EB8000474976
:104F700001EB800080ED020A4B4890ED000A514899
:104F800080ED000A9FED3A0A504880ED000A4A4839
:104F900090ED000A4E48D0ED000A30EE600ADFEDD9
:104FA0004A0A60EE200A3C4890ED000AB8EE400A3A
:104FB00080EE801A3948007800EB8000334901EB1D
:104FC000800080ED031A34480068D8B13A4890ED6B
:104FD000000A3F48D0ED000A30EE600ADFED3A0AE1
:104FE00060EE200A2C4890ED000AB8EE400A80EEF0
:104FF000801A2A48007800EB800001EB800080EDE9
:10500000031A0AE09FED1A0A2448007800EB80009A
:105010001E4901EB800080ED030A274890ED000A4D
:105020002B4880ED000A9FED120A284880ED000A07
:105030001A48007800EB8000144901EB800090EDE5
:10504000020A244880ED000A1448007800EB800032
:1050500001EB800090ED030A1F4880ED000ABDECD3
:10506000028B70BD28070020180700209C0200203A
:105070000000000038070020B802002000F8FF45BB
:105080000C0300200000B44300003443D805002086
:105090007000002080000020740000206C000020C0
:1050A00000003442000034C24000002048000020CC
:1050B00000000243000002C34400002068000020FA
:1050C0004C0000207800002000007A4458000020A6
:1050D0007C000020500000205400002010B5044641
:1050E0002068406940F04000216848612268111D35
:1050F0008223054A606BFEF747F82068C06840F0DD
:1051000010002168C86010BD4407002070B500245D
:1051100030E01B48005DA5282AD1601D1849095CB4
:10512000A01D174A105C41EA002616480680601C44
:105130001146095CA01C105C41EA002511460819C3
:10514000052102F03DF878B10D49081905F1090172
:1051500002F016F840B13146204600F065F805F13E
:1051600009002044C4B205E004F10900C4B201E022
:10517000601CC4B2044800688442CADB70BD0000F1
:1051800044070020BE000020B40000207CB5044687
:10519000002001902068C06800F0100000283AD07C
:1051A00000BF0020009020680068009020684068E0
:1051B000009000BF00BF606B0068006820F0010035
:1051C000616B09680860606B00684068C0F182002C
:1051D000C5B2002D13DD1048844210D10F48056080
:1051E00001A90F48006805F0E7F9019838B14FF0C0
:1051F00080500C490860BFF34F8FBFF36F8F822040
:10520000616B09684860606B0068006840F00100ED
:10521000616B096808607CBDA80C0020B400002008
:105220001801002004ED00E070B504460D4640F280
:105230000221681A8D4271D019DC40F20111A5EBF0
:1052400001008D424AD008DC012D26D0022D30D03D
:10525000032D34D0042D2BD138E0012844D003286D
:1052600048D004284CD0B0F5807FF4D14EE005281A
:1052700072D008DC012862D0022867D003286FD0E2
:105280000428E8D172E0062868D0072867D00828EB
:105290007ED0B0F5817FDED1C6E0694820446949FF
:1052A00002680A6042684A6002890A81807A8872CC
:1052B000C4E063480119644809780170BEE06048A1
:1052C000011920226148FBF731F8B7E05C48011969
:1052D0005F480A88028089788170AFE058480119D8
:1052E0005C4809680160A9E0554801195A480968F5
:1052F0000160A3E0524801195848098801809DE0E7
:105300004F48011956480978017097E04C48011937
:105310001B225448FBF70AF890E0FFE748480119C0
:1053200010225148FBF702F84F48406800EE100A7F
:10533000BCEEC00A10EE100A4C4908707EE04048EE
:10534000011910224A48FAF7F1FF77E03C480119A9
:1053500048480978017071E044E001E04CE053E016
:105360003748011944480978017067E03448011949
:105370004248097801700078000928BB3948408804
:105380003F49098888421FDA3E480078032800E038
:1053900040E019D03348408839490988081A1E2846
:1053A00003DD03203749087004E036480078401CCC
:1053B0003449087033480078032805D13248007812
:1053C00010B9012030490870264840882C490880CF
:1053D0002A4800780421B1EB101F02D10120234993
:1053E00008702BE016482044284902680A60828829
:1053F0008A808079887121E011482044244902681C
:105400000A608088888019E00D48011921480968E0
:10541000016013E00A4820441F4902680A6042689C
:105420004A608068886009E0054820441B4902689A
:105430000A6042684A608068886000BF00BF70BD33
:105440004B070020C607002084000020D107002061
:1054500085000020880000208C00002090000020A3
:1054600092000020F10700200C080020B800002066
:105470001C080020930000209400002095000020CC
:10548000BC000020B9000020BB00002096000020D6
:105490009D000020A30000202C08002038080020D8
:1054A00010B50E480E4908600320486000210C48E2
:1054B0008160C1604FF4002101614FF440114161EE
:1054C0000021017641768176C17601774177FDF73B
:1054D000A7F908B1FBF754FE10BD000000640040BE
:1054E000C00B002010B50E480E490860032048602C
:1054F00000210C488160C1604FF4002101614FF42C
:10550000401141610021017641768176C1760177B3
:105510004177FDF785F908B1FBF732FE10BD0000B9
:1055200000680040E80B002008B500BF0020009094
:105530002A48006840F4800028490860084600684E
:1055400000F48000009000BF00BF00BF002000906A
:105550000846006840F4001008600846006800F43F
:105560000010009000BF00BF002211460B20FEF784
:1055700043F80B20FEF730F8002211460C20FEF70E
:105580003BF80C20FEF728F8002211460E20FEF70B
:1055900033F80E20FEF720F8002211461120FEF706
:1055A0002BF81120FEF718F8002211463920FEF7DB
:1055B00023F83920FEF710F8002211463A20FEF7B2
:1055C0001BF83A20FEF708F8002211464520FEF7A6
:1055D00013F84520FEF700F808BD000030380240FF
:1055E00000B587B01C2206496846FAF79FFE0021E5
:1055F000684604F0F8F80349086007B000BD0000F1
:1056000034B600081C02002000B587B0142102A89F
:10561000FAF7A5FE00BF002001905C48006840F04A
:1056200010005A4908600846006800F01000019018
:1056300000BF00BF00BF002001900846006840F096
:10564000020008600846006800F00200019000BFF8
:1056500000BF00BF002001900846006840F04000F5
:1056600008600846006800F04000019000BF00BFDD
:1056700000BF002001900846006840F0010008606B
:105680000846006800F00100019000BF00BF00BFA5
:10569000002001900846006840F0080008600846B5
:1056A000006800F00800019000BF00BF00BF0020AC
:1056B00001900846006840F08000086008460068D5
:1056C00000F08000019000BF00BF00BF00200190EB
:1056D0000846006840F0200008600846006800F0B6
:1056E0002000019000BF00BF00224FF40051284865
:1056F000FDF7CDFE01223C212648FDF7C8FE002221
:1057000044F240012448FDF7C2FE00224FF400613C
:105710002248FDF7BCFE4FF4005002900120039098
:1057200000200490059002A91948FDF791FD3C2046
:1057300002900120039000200490059002A91548D2
:10574000FDF786FD44F24000029001200390002006
:105750000490059002A91048FDF77AFD4FF4C0505F
:10576000029000200390049002A90A48FDF770FD02
:105770004FF40060029001200390002004900590F7
:1057800002A90648FDF764FD07B000BD30380240AD
:1057900000180240001C02400014024000100240A9
:1057A00010B50E480E4908604FF482704860002121
:1057B0000B488160C160016141614FF400718161FA
:1057C0000021C1610162416281620A21C162FEF76A
:1057D000E9FA08B1FBF7D4FC10BD0000005001400D
:1057E000100C002000B589B00020079008901C2103
:1057F0006846FAF7B4FD1848184908605320486015
:1058000000211648816040F2CF71C1600021016122
:105810008161FEF744FE08B1FBF7B2FC002007905F
:10582000089007A90D48FEF75EFC08B1FBF7A8FC3D
:1058300060200090002001900290049004226946AC
:105840000648FEF7A8FD08B1FBF79AFC0348FEF7EF
:1058500071FD09B000BD000000040040680C00208C
:1058600010B50B480B4908604FF4E1304860002147
:1058700008488160C16001610C21416100218161A2
:10588000C161FEF721FF08B1FBF77AFC10BD0000F3
:1058900000780040A80C002010B50B480B490860A8
:1058A0004FF4E1204860002108488160C160016137
:1058B0000C21416100218161C161FEF705FF08B142
:1058C000FBF75EFC10BD0000007C0040E80C0020EF
:1058D00010B50C480C4908600C4848604FF48051E2
:1058E000094881600021C1604FF4806101610C2191
:1058F000416100218161C161FEF7E6FE08B1FBF75D
:105900003FFC10BD00100140280D0020A0860100C2
:1059100010B50B480B4908604FF4E12048600021A6
:1059200008488160C16001610C21416100218161F1
:10593000C161FEF7C9FE08B1FBF722FC10BD0000F3
:1059400000140140680D002000BFFEE790ED060A3C
:1059500080ED070AB0F90210B0F90420891A00EEB0
:10596000101AB8EEC00A80ED060A90ED080AD0EDD4
:10597000060A30EE200A80ED080A90ED080ADFEDF5
:10598000250AB4EEE00AF1EE10FA02DD9FED210ADD
:1059900001E090ED080A80ED080A90ED080ADFEDBD
:1059A0001E0AB4EEE00AF1EE10FA02D29FED1A0AD6
:1059B00001E090ED080A80ED080A90ED030AD0EDB1
:1059C000060A20EE200AD0ED040A90ED081A00EE37
:1059D000810AD0ED060A90ED071A70EEC10A90ED2B
:1059E000051A01EE200ABDEEC00A80ED090A416ADF
:1059F000B1F57A5F02DB4FF47A5100E0416A41620F
:105A0000416A11F57A5F01DC044900E0416A4162B4
:105A10007047000000606A4600606AC680C1FFFFF0
:105A20009FED0C0A0C4880ED030A9FED0C0A80EDF7
:105A3000040A9FED0B0A80ED050A9FED060A80ED32
:105A40000D0A9FED060A80ED0E0A9FED050A80ED16
:105A50000F0A70470000844144080020CDCCCC3DA3
:105A6000CDCC4C3E7047000010B52DED0A8BB0EE4A
:105A7000408A9FED170A38EE400ADFED160A80EEE5
:105A8000201A9FED150A21EE000A10EE104A20465A
:105A9000FAF728FE41EC1C0BB0EE4C0AF0EE6C0A53
:105AA00001F0FAFFB0EE40AAF0EE60AA0B480068E1
:105AB000FAF718FE41EC1B0B53EC1A2BFAF701FD19
:105AC00041EC190BFAF7EFFD00B2BDEC0A8B10BDEB
:105AD0000000000000003443DA0F49403400002089
