:020000040800F2
:10000000885000208102000821460008F13A0008CB
:100010004D450008350A00087D5800080000000022
:10002000000000000000000000000000C101000806
:10003000CD0E0008000000001D020008494B00081A
:100040009B0200089B0200089B0200089B0200081C
:100050009B0200089B0200089B0200089B0200080C
:100060009B0200089B0200089B020008D50D0008B7
:10007000E10D00089B020008ED0D00089B0200083E
:100080009B020008F90D00089B0200089B02000873
:10009000390A00089B0200089B0200089B02000826
:1000A0009B0200089B0200089B0200089B020008BC
:1000B0004D4C00089B0200089B0200089B020008B0
:1000C0009B0200089B0200089B0200089B0200089C
:1000D0009B020008595800089B0200089B02000878
:1000E0009B0200089B0200089B0200089B0200087C
:1000F0009B0200089B0200089B0200089B0200086C
:100100009B0200089B0200089B0200089B0200085B
:100110009B0200089B0200089B0200089B0200084B
:100120009B020008050E0008110E00089B02000843
:100130009B0200089B0200089B0200089B0200082B
:100140009B020008450A00089B0200089B02000869
:100150009B0200081D0E00089B0200087158000851
:100160009B0200089B0200089B0200089B020008FB
:100170009B0200089B0200089B0200080000000090
:100180009B0200089B020008C1530008D9530008D5
:100190009B0200089B0200089B0200089B020008CB
:1001A00000000000000000009B020008DFF80CD0F7
:1001B00000F0F6FB00480047F1740008885000206A
:1001C0002C4B19680868B0E8F04F80F30988BFF33A
:1001D0006F8F4FF0000080F311887047000000001F
:1001E00008480068006880F308884FF0000080F33A
:1001F000148862B661B6BFF34F8FBFF36F8F00DF15
:1002000000BF00BF08ED00E0DFF80C00016841F41A
:1002100070010160704700BF88ED00E0EFF30980D6
:10022000BFF36F8F134B1A681EF0100F08BF20ED3D
:10023000108A20E9F04F106009B44FF0500080F3AD
:100240001188BFF34F8FBFF36F8F08F03BF94FF06A
:10025000000080F3118809BC19680868B0E8F04F05
:100260001EF0100F08BFB0EC108A80F30988BFF3AE
:100270006F8F70473C010020EFF30580704700004E
:100280000648804706480047FEE7FEE7FEE7FEE730
:10029000FEE7FEE7FEE7FEE7FEE7FEE7F94B0008B4
:1002A000AD0100082DE9F05F0546002092469B460F
:1002B00088460646814640241BE02846414647467C
:1002C000224600F066FA53465A46C01A914110D3AE
:1002D00011461846224600F04DFA2D1A67EB010828
:1002E0004F4622460120002100F044FA17EB000996
:1002F0004E41201EA4F10104DFDC484631462A4667
:100300004346BDE8F09F00000649074A086850438D
:1003100043F2390210440860400870470149086000
:1003200070470000340200206D4EC64140EA0103D0
:100330009B0703D009E008C9121F08C0042AFAD29B
:1003400003E011F8013B00F8013B521EF9D270475F
:10035000D2B201E000F8012B491EFBD27047002207
:10036000F6E710B513460A4604461946FFF7F0FFB4
:10037000204610BD2DE9FE4F804681EA0300C00FE4
:100380000C46009021F0004123F00045B8EB02003C
:10039000A94105D24046214690461C460B460246DE
:1003A00023F00040104347D0270DC7F30A00C3F3E2
:1003B0000A510290401A019040286BDAC3F31300EF
:1003C00040F4801B0098924620B10023D2EB030A30
:1003D00063EB0B0B01985946C0F14002504600F008
:1003E000C9F906460D4650465946019A00F0E1F912
:1003F00010EB08006141002487EA115284EAE77398
:100400001A4340D0009A62B3019A012A4FEA075278
:1004100015DC001B61EB02014FF0004202EA0752BB
:10042000CDE90042001C41F5801132462B4600F018
:1004300018FA03B0BDE8F08F40462146F9E7001BEB
:1004400061EB0201001C41F5801300185B4120188C
:10045000A2F5001747EB030140EAD570B6196D41CC
:1004600011E06D084FEA360645EAC0754FEA0752BB
:10047000001B61EB0201001C41F5801149084FEAA5
:1004800030000019514132462B4603B0BDE8F04F11
:1004900000F0D8B90098012240000023D0EB0202FE
:1004A00063EBE073009821464FEAE074B8EB00007C
:1004B00061EB0401E9E783F000435BE781F0004171
:1004C00058E72DE9FE4F81EA030404F0004421F0CF
:1004D000004100944FF0000B23F0004350EA010468
:1004E0005ED052EA03045BD0C3F30A54C1F30A5549
:1004F0002C44A4F2F3340194A0FB0254C1F3130181
:1005000041F48011C3F3130343F4801301FB02444D
:1005100000FB034E840A970A44EA815447EA835752
:10052000A4FB076802958D0A05FB07854FEA932C0B
:1005300004FB0C542705029D4FEA065847EA16377C
:10054000B5EB08056EEB070C870E920E47EA811794
:1005500042EA8312A7FB0201B6EB0B0164EB000435
:100560002B0D43EA0C335E1844EB1C50DA4651461F
:10057000E7FB0201C5F313044FEA0B3343EA1453BC
:100580004FEA0432019C43EA0603A4F10C040294EE
:10059000009CCDE900B400F064F903B0BDE8F08F31
:1005A00000200146F9E72DE9F04D81EA030404F04B
:1005B000004B21F0004514464FF0000A23F00041A3
:1005C00050EA050220D054EA01021DD0C5F30A57B3
:1005D0000246C5F31303C1F31300C1F30A5640F4F6
:1005E000801543F48013A7EB0608101BD64608F2CB
:1005F000FD3873EB050002D308F1010801E0921801
:100600005B41B8F1000F03DA00200146BDE8F08D30
:1006100000204FF48011064684460EE0171B73EB52
:10062000050705D3121B63EB050306434CEA010CD7
:1006300049084FEA300092185B4150EA0107EDD1BA
:1006400052EA030012D082EA040083EA050108435B
:1006500005D0101BAB4106D20122002306E0002288
:100660004FF0004302E06FF0010253101AEB060056
:100670004CEB085110EB0A0041EB0B01BDE8F04DCB
:1006800000F0E0B80EB5C10F80EAE0700844CA0778
:10069000002140F233438DE80E000A460B4600F07D
:1006A000E0F803B000BD70B5C1F30A5201F0004597
:1006B0000024C1F3130140F2FF3341F480119A4248
:1006C00001DA002070BD40F233439A42A2F2334275
:1006D00003DC524200F05DF800E090402C43F1D082
:1006E000404270BD00F0004230F000400AD0C10D21
:1006F00001F56071C0F3160042EA0151C2084007DB
:1007000011437047002001467047000030B5041EB9
:1007100071F1000404DB4FF00044404264EB01013E
:10072000141E73F1000405DB1C464FF000435242D7
:1007300063EB0403994208BF904230BD01F00043CF
:1007400030B421F0004150EA010206D00A0DA2F5B2
:100750006072C1F31301002A02DC30BC0020704734
:10076000440F44EAC104C100E01830BC00EBC250A1
:1007700000F031B8202A04DB203A00FA02F1002010
:1007800070479140C2F1200320FA03F319439040CF
:100790007047202A04DB203A21FA02F0002170473A
:1007A00021FA02F3D040C2F12002914008431946D9
:1007B0007047202A06DBCB17203A41FA02F043EAC1
:1007C000E07306E041FA02F3D040C2F1200291400A
:1007D0000843194670470029A8BF7047401C4900CC
:1007E00008BF20F00100704710B4B0FA80FC00FA96
:1007F0000CF050EA010404BF10BC704749B1CCF1C1
:10080000200421FA04F411FA0CF118BF012121434C
:100810000843A3EB0C01CB1D4FEA00614FEA102007
:1008200042BF002010BC704700EBC35010440029A9
:10083000A4BF10BC7047401C490008BF20F0010055
:1008400010BC704710B5141E73F1000408DA401C88
:1008500041F1000192185B411A4301D120F00100DF
:1008600010BD2DE9F04D92469B4611B1B1FA81F2CF
:1008700002E0B0FA80F220329046FFF77BFF044698
:100880000F4640EA0A0041EA0B0153465A46084324
:1008900013D0114653EA010019D0C8F14002504666
:1008A000FFF777FF05460E46504659464246FFF78A
:1008B00061FF084305D0012004E020463946BDE829
:1008C000F08D0020054346EAE0762C4337430A9832
:1008D0006305E40AA0EB08000022FD0A44EA47543D
:1008E0000A3002D500200146E9E7010510196941E7
:1008F000DDE9084500196941BDE8F04DA2E72DE9A1
:10090000F04D00231A461B1A8A4103DB00200146E2
:10091000BDE8F08DC1F30A52C1F3130141F4801513
:100920004FF0000BD10702D100186D41521E002775
:10093000044640F2FF11384601EB620A3E4680460B
:10094000024600204FF48011FFF723FFC2197141C6
:10095000BB1846EB0100B4EB030C75EB000C04D3A1
:10096000E41A65EB000517460E46241908F101004C
:100970006D4180463428E3DDF91946EB0600091B7A
:10098000A84103D24FF0FF32134601E00022134684
:100990001BEB070046EB0A51BDE8F04DFFF752BFD5
:1009A000064C074D06E0E06840F0010394E80700BC
:1009B00098471034AC42F6D3FFF7FCFBCC9200080A
:1009C000EC9200080EB540F2334102910021CDE9CE
:1009D00000110A460B46FFF744FF03B000BD70B597
:1009E0008C1810F8015B15F0070301D110F8013BDA
:1009F0002A1106D110F8012B03E010F8016B01F861
:100A0000016B5B1EF9D12B0705D40023521E0DD4B8
:100A100001F8013BFAE710F8013BCB1A921C03E006
:100A200013F8015B01F8015B521EF9D5A142D8D33E
:100A3000002070BDFEE70000014801F07CB9000015
:100A400090040020014801F076B90000B8040020AD
:100A500000B587B000910021029103910821049113
:100A60000649884201D1012303E00549884203D1A8
:100A70000223694601F000F807B000BD9004002091
:100A8000B804002010B5044610488AB0844202D150
:100A90000021084604E00E48844215D10E210120B1
:100AA000059100210122CDE90612009101910291E8
:100AB000CDE903100E20CDE908206946204601F05B
:100AC0003FF8204601F018FC0AB010BD9004002049
:100AD000B80400200549884201D1022103E00449FD
:100AE000884202D1102100F0B5BF70479004002069
:100AF000B80400201148124990ED091A0989D0ED77
:100B0000130AC82919D200EE101A9FED0E2AB8EE6A
:100B1000C11AF8EE401AF8EEE00A81EE820A20EEE1
:100B2000000A21EE001A20EE800ABDEEC11ABDEEC9
:100B3000C00A80ED091A80ED130A70477809002079
:100B4000880E0020000048430B4A012313705B020B
:100B50005360030A13725072090A9172D072002016
:100B6000107350739073D0730346044803220249F4
:100B7000006807F0B7BD00006809002044000020AD
:100B8000094ADFED0A0A0020B1EE080AB0EE001AA9
:100B900000EB800102EBC1010C31401C81EC030A27
:100BA0000228F5DB70470000780900208FC2F53C71
:100BB00090ED061A80ED071AB0F90210B0F9042082
:100BC000891A00EE101A1D4AF8EEC00AC0ED060A96
:100BD00090ED080A30EE200A10EE101A80ED080A97
:100BE000914201DD9FED160A164A10EE101A80EDB3
:100BF000080A914201D99FED140A4FF47A5280ED10
:100C0000080AD0ED031A90ED042A61EEA01A42EE14
:100C1000001A30EEC10AD0ED050A40EE801ABDEE92
:100C2000E10A10EE101A4162914200DB1146074AB8
:100C30004162914200DC11464162704700606A46A1
:100C400000606A4600606AC600606AC680C1FFFF35
:100C50002DE9F04154480122DFF8548101685348DE
:100C6000544E554F0068554C002509B9012801D054
:100C700018B104E06270A57017E0012908D050EAAD
:100C8000010308D0B278012A07D0012808D004E077
:100C9000A270657009E0A270627030B129B107E0FE
:100CA0000129FBD1A570657005E0FFF72DFBA06061
:100CB000B078012808D0B6F90000B17869B30229EC
:100CC0002BD0012925D041E03D48017859B105706C
:100CD0002078401C2070A07878B10020A070607847
:100CE00068B100206070318841F2941001290CD065
:100CF0003449097B042904D00BE00120EEE70120F0
:100D0000F0E7D8F82410002903DD3978032900D052
:100D100032206178012911D012E06178012901D1D6
:100D2000A2781AB1A278012A04D00FE000280DDAC7
:100D300000200BE051B90028FADC07E0A2782AB1C4
:100D4000A278012A02D109B9404200B23A781E497C
:100D5000032A02D10A88521C0A800A88B2F5167F3B
:100D600001D93D700D80A18842F6E062914210D217
:100D7000E28810FB02F2002A08DDD8F82420002ABD
:100D800001DD491C00E00F31A18007E0E080A58073
:100D900004E00E490978012900D100200C494242A3
:100DA0004A804885BDE8F081600000206400002092
:100DB000280A002074000020D50000200C0000202C
:100DC000D6000020B00D0020060100207000002099
:100DD00078090020014801F0D5BA000098070020EA
:100DE000014801F0CFBA0000D8060020014801F008
:100DF000C9BA000078060020014801F0C3BA00001B
:100E000038070020014801F0BDBA00005808002052
:100E1000014801F0B7BA0000F8070020014801F0CE
:100E2000B1BA0000B808002001681823CAB2103A0D
:100E3000B2FBF3F2054B6FF30901032A9B5CC36518
:100E400000D9091D8165084670470000949000088C
:100E500010B5014600208B698A6A4FF0C07453B107
:100E6000B3F5005F15D072B1012A0CD0022A0AD066
:100E7000032A09D104E01AB1012A06D0022A03D1BB
:100E8000C96AC90100D5012010BDC96AA142FAD0C2
:100E900010BD002AF7D0012AF2D0022AF3D0032A8B
:100EA000F3D010BD30B50468256825F48025256091
:100EB000046863608368402B036803D0996000680E
:100EC000C26030BD9A600068C16030BD7047704735
:100ED00009490020097849B1012902D0022903D02B
:100EE00004E041F27C5001E041F6E840034942420F
:100EF0004A8048857047000071000020D809002012
:100F000010B558B1084C491E0BD310F8013B5340A3
:100F1000DBB234F8133083EA1222F4E74FF6FF70A5
:100F200010BD104610BD0000948E000810B5054C91
:100F300004E000BF10F8013B5340E25C491EF9D2C7
:100F4000104610BD948D00082DE9F05F04462DED8C
:100F5000068B0D46FC48017831B1FC4A491E92EDE2
:100F60000C0A84ED010A0170F94909789FEDF99A9C
:100F7000DFEDF98ADFF8E493F94E9FEDFA8A41B389
:100F800001297DD1F849DFF8E4E3DFF8E4A391F823
:100F90000CC0ED494FF0000B4978491CCFB29FEDD2
:100FA000F50AF5494FF48052DFEDF40A01F15403DC
:100FB000BCF1010F65D0BCF1020F7CD0BCF1040F75
:100FC0005ED1EF4FD7ED001AC4ED011AB0EE610A01
:100FD000AAE1DD4FDFF8AC83203797ED01AA87ED5A
:100FE00000AAB8F9080000F13201DFEDE79A6429A0
:100FF00011D9FFF747FB9FEDE50B53EC102BFFF7E3
:1010000060FA9FEDE40B53EC102BFFF7CCFAFFF7DF
:1010100095FB786001E0C7ED019AD7ED010AB0EECB
:101020004A0A03F037FC87ED010AD4ED010A30EEDD
:10103000800A01E030EE480A10EE100A84ED010A41
:10104000B042F7DA4FEA090110EE100A884204D9DB
:1010500030EE080A84ED010AF6E7BB49183191ED3C
:10106000010A81ED000AB8F9060000F13202642A93
:101070000DD900EE900AF8EEE00A9FEDC81A01E0E3
:1010800027E02AE0C0EE811AC1ED011A01E0C1EDAE
:10109000019AD1ED010A03F0FDFB81ED010AD5EDC6
:1010A000010ABF4930EEC00A10EE100A85ED010AB0
:1010B000884203DD00E0AAE0B0EE490A10EE100A13
:1010C000B84985ED010A884201D8F0EE408AC5EDA5
:1010D000018ABDEC068BBDE8F09FDFF8CC824FF4AF
:1010E000B47C88F800B0B1F91610A1F2811101FBAF
:1010F0000CF101EE101AF8EEC11A81EEA01A11EEF1
:1011000010CAF44503DB4FF0010C80F802C001EE79
:10111000101AF8EEC11A81EEA01A11EE101ADFEDC6
:10112000A31AB1F1834F02DC80F802B04BE0817862
:10113000012901D0D9B353E0B3F91610914207DB6E
:10114000A1F5F853FF3B4FF4B47C03FB0CF303E031
:101150004FF4B47311FB03F301EE103ADFF850C201
:10116000B8EEC12A82EE201A11EE103A9C44D44502
:1011700016D391424FF4B47204DBA1F5F851FF3954
:10118000514301E011FB02F101EE101A894AB8EE59
:10119000C12A82EE201A11EE101A1144514507D2CD
:1011A000D4ED010A9FED841A70EE810A04E00AE092
:1011B000D4ED010A70EEA10AC4ED010AD5ED010AD1
:1011C00030EEC00A09E0D4ED010A70EEA10AC4EDC8
:1011D000010AD5ED010A30EE800A85ED010A47705B
:1011E00094ED010A10EE100AB0420ADB30EE480A14
:1011F00084ED010AF6E700BF30EE080A84ED010A2B
:1012000000E0494610EE100A8842F5D861E7B1F9CE
:1012100016104FF4B47CA1F2811101FB0CF101EE28
:10122000101AF8EEC11A81EEA01A11EE10CAF44598
:1012300003DB4FF0010C80F802C001EE101AF8EE4B
:10124000C11A81EEA01A11EE101AB1F1834F01DC20
:1012500080F802B0B3F91610914207DBA1F5F853FC
:10126000FF3B4FF4B47C03FB0CF303E04FF4B47387
:1012700011FB03F301EE103ADFF834C1F8EEC11AA6
:1012800081EEA01A11EE103A9C44D44516D3914237
:101290004FF4B47204DBA1F5F851FF39514301E07A
:1012A00011FB02F101EE101A424AF8EEC11A81EE6A
:1012B000A01A11EE101A1144514504D2D4ED010ABE
:1012C0009FED3E1A03E0D4ED010A9FED3D1A70EE4A
:1012D000810AC4ED010A8178012909D1D5ED010AFD
:1012E00070EEC00AC5ED010A30EE800A85ED010AF4
:1012F000477094ED010A03E030EE480A84ED010ADC
:1013000010EE100AB042F7DA4FEA090110EE100AA7
:1013100088427FF67BAF30EE080A84ED010AF5E7DC
:1013200030EE480A84ED010A10EE107AB742F7DA7F
:101330004FEA090C10EE107A674543D930EE080ADF
:1013400084ED010AF6E7000008010020FC010020FE
:10135000700000205EC30B42111802C1000034C3AC
:10136000000034430000B443B00D00200000A04151
:10137000FFFF5B00CDCC4C3DC00E002000F8FF45C8
:10138000BC000020740000200000000000000000ED
:101390000000E03F0000000000A084400000254461
:1013A0005EC30B42111802C1720000207B14AE3ED6
:1013B000FFFF79BDFFFF793D713D0A3F295C0F3E7C
:1013C0000AD7233D584C594F94ED000A10EE104AAD
:1013D000B0EE401A85ED010ABC4201DDB0EE490ACB
:1013E00010EE104A524F85ED010ABC4201D8F0EED2
:1013F000408AB2EE040AC5ED018A21EE001ABDEE64
:10140000C11A11EE104A21EE801A8481BDEEC11A74
:1014100011EE104AC481B1F916104FF4B474A1F260
:101420008111614301EE101AF8EEC11A81EEA01A83
:1014300011EE104A01EE101AB442F8EEC11A81EE14
:10144000A01A09DD31EE481ABDEEC11A11EE101ACC
:1014500001EB8101490005E021EE001ABDEEC11A41
:1014600011EE101A8180B3F91610914206DBA1F536
:10147000F853FF3B4FF4B474634303E04FF4B47389
:1014800011FB03F301EE103AF8EEC11A81EEA01A37
:1014900011EE103AB3421ADD91424FF4B47204DBFC
:1014A000A1F5F851FF39514301E011FB02F101EEC2
:1014B000101AF8EEC11A81EEA01A71EE480AFDEE7C
:1014C000E00A10EE901A01EB8101490016E091420A
:1014D0004FF4B47204DBA1F5F851FF39514301E038
:1014E00011FB02F101EE101AF8EEC11A81EEA01AFA
:1014F00061EE000AFDEEE00A10EE901AC1800D497F
:10150000D1ED000A60EE800AFDEEE00A10EE901ABE
:1015100001810949D1ED000A20EE800ABDEEC00A22
:1015200010EE101A4181D4E5B80000205EC30B42D2
:10153000111802C18C000020900000202DE9F05FFE
:10154000E04EE14F0C002DED068B0546DFEDDF9AF6
:10155000DFF87C839FEDDFAADFF87C93DFEDDF8A85
:10156000DFF87CA39FEDDF9ADFEDDFAADFF87CB325
:101570009FEDDF8A7DD0D4ED111ADE49C4ED121A39
:101580004FF4B472B1F91600A0F28110504300EE8E
:10159000100AF8EEC00A80EEAA0A84ED030AD4ED20
:1015A000010A30EEC00A10EE100A84ED110AB042B2
:1015B00001DD30EE480A10EE100A84ED110AB8423F
:1015C00001D930EE080A10EE100A84ED110A10F16C
:1015D0007E5F0BD210EE100AB0F1814F06DAD4ED27
:1015E000130A70EE800AC4ED130A01E0C4ED139AE9
:1015F00094ED131A11EE100A404501DDB0EE4A1ABF
:1016000011EE100A84ED131A484501D9B0EE681A9C
:1016100084ED131AD4ED0E0A94ED0F2AB64A60EE4B
:10162000800A30EE610A42EE010A94ED101A41EE92
:10163000000A10EE900AC4ED140A904201DDDFEDBD
:10164000AF0AAF4A10EE900AC4ED140A904201D9D5
:10165000DFEDAC0AC4ED140AC4ED020A94ED0A0AE7
:1016600084ED0B0A9AED050A40EE090AC4ED0A0A58
:1016700000E058E094ED0C0AA34A30EE200A10EE88
:10168000100A84ED0C0A904201DD9FEDA00AA04AE9
:1016900010EE100A84ED0C0A904201D99FED9D0ACC
:1016A00084ED0C0AB1F916004FF4B471A0F2811068
:1016B000484300EE100AF8EEC00A80EEAA0A02F0D3
:1016C000B1FF00EE100AD4ED0A0AD4ED081AB8EE04
:1016D000C01A94ED070A94ED0C2A20EE200A01EEC0
:1016E000820AD4ED0B1A70EEE10AD4ED091A01EE6C
:1016F000A00A31EE000A10EE100A84ED0D0A5845DA
:1017000002DDDFED850A01E0F0EE400A10EE101A6E
:10171000FDEEE00A814A10EE900A914200B2A082EA
:1017200000D97F48A082002D7ED0724895ED111A15
:10173000543085ED121AB0F916004FF4B471B0F5BB
:10174000805F04DBA0F5F850FF38484301E010FB50
:1017500001F000EE100AF8EEC00A80EEAA0A85ED4C
:10176000030AD5ED010A30EEC00A10EE100A85ED2D
:10177000110AB04201DD30EE480A10EE100A85ED84
:10178000110AB84201D930EE080A664910EE100A73
:1017900085ED110A884204DC6349884201D2C5ED17
:1017A000119A95ED130AD5ED110A30EE208A18EE44
:1017B000100A85ED138A404501DDB0EE4A8A18EE25
:1017C000100A85ED138A484501D8F0EE488AC5ED28
:1017D000138A95ED0E0AD5ED0F1A544920EE200A12
:1017E00070EEC10A95ED101A01EEA80A01EE200A6A
:1017F00010EE100A85ED140A884201DD9FED4C0AB7
:101800004C4910EE100A85ED140A884201D99FED6B
:101810004A0A85ED140A85ED020AD5ED0A1AC5EDCE
:101820000B1ADAED060A00E041E000EEC90A43496E
:1018300085ED0A0AD5ED0C0A70EE800A10EE900ACA
:10184000C5ED0C0A884201DDDFED3D0A3D4910EE91
:10185000900AC5ED0C0A884201D9DFED3B0AC5EDBF
:101860000C0A95ED071A95ED082A21EE001A30EEC4
:10187000610A02EE201AD5ED090A00EE801A11EE77
:10188000100A85ED0D1A584502DD9FED300A01E082
:10189000B0EE410A11EE101ABDEEC00A1F4A10EE5A
:1018A000100A914200B2A88200D92948A88229488A
:1018B0000078022802D10020A882A082BDEC068B0D
:1018C000BDE8F09F00003443000034C30000000076
:1018D00000401C4600401C4600401CC600401CC680
:1018E000FC0100203333654200F8FF4500C0DA46B2
:1018F0000000B443C00E0020000016430000164351
:10190000000016C3000016C300803B4500803B4525
:1019100000803BC500803BC500F0D24600C0DAC65F
:101920008896FFFF0AD7A33C0AD7A3BC00009643C2
:1019300000009643000096C3000096C30000FA44DE
:101940000000FA440000FAC40000FAC400C0DA46FD
:10195000A092FFFF700000201FB502218DF800103B
:1019600040F2FF21019100218DF808108DF8091037
:10197000020A8DF80A208DF80B00044803910B46EB
:1019800003226946006806F0ADFE1FBD440000203A
:101990001FB501218DF8001040F2FF210191010ACD
:1019A0008DF808108DF8090000208DF80A008DF8D8
:1019B0000B0003460390034803226946006806F0C3
:1019C00091FE1FBD440000201B4800219FED1B0A13
:1019D00081700121C1701A48F2EE080A80ED070AF1
:1019E000B1EE080A80ED080AB0EE000A80ED090A9F
:1019F000C0ED0E0ADFED130AC0ED0F0AF0EE080A83
:101A0000C0ED100ADFED100A5438C0ED070A80ED72
:101A1000080A9FED0E0ADFED0E0A80ED090AB3EE0B
:101A2000040A80ED0E0AC0ED0F0AF7EE000AC0EDC1
:101A3000100A80ED010A70470801002000001644DA
:101A4000140F00200000000000001643CDCC4C3FD6
:101A50009A99193E90F82020012A07D0022A05D031
:101A6000416A41F480214162012070470068426967
:101A70000A43426100207047F0B590F82050046896
:101A8000A468012D05D0022D03D0416A41F48021C4
:101A900053E014F0406F01D1E5004BD5C4F301646D
:101AA000022C03D9416A41F4000146E00125A5401A
:101AB0001D608D684FF4C0739DB1CE6835434E688C
:101AC00045EAC605066803EB0417F5514FF4C275E5
:101AD000076805EB04150E697E51097D012905D0C3
:101AE00009E00E88CD6845EA4655EBE701684E5996
:101AF00046F480764E511179D2F805504FF4C676EF
:101B000041EA0525016806EB04168D511178D2F8DB
:101B100001204FF4C47541EA0221026805EB041567
:101B20005151006803EB0411425842F00102425047
:101B30000020F0BD416A41F4001141620120F0BD76
:101B400010B590F82020012A07D0022A05D0416A5A
:101B500041F480214162012010BD3B48D0F80022B1
:101B600042F00102C0F80022D0F8002222F47C5298
:101B7000C0F80022D0F800224B6A42EA0322C0F8E3
:101B800000220A7D02F01F0301229A40D0F81C3285
:101B90009343C0F81C32CB69B3B9D0F80C329343ED
:101BA000C0F80C328C894B6864F31F434C6900EB1E
:101BB000C404C4F840320C890B6864F31F434C69B9
:101BC00000EBC404C4F84432CB69012B16D1D0F821
:101BD0000C321343C0F80C320C884B6864F31F437B
:101BE0004C6900EBC404C4F840320C89CB6864F340
:101BF0001F434C6900EBC404C4F844328B69002BCA
:101C0000D0F804320ED01343C0F804320B69002B15
:101C1000D0F8143208D01343C0F81432096A0129ED
:101C200004D008E09343EFE79343F5E7D0F81C12A4
:101C30001143C0F81C12D0F8001221F00101C0F8C5
:101C40000012002010BD000000640040704730B555
:101C500090F82040012C05D0022C03D0416A41F4B9
:101C600080215DE00468002955D02469A40754D080
:101C70004FF4D874056804EB01142D5915F00405D0
:101C8000956005682D594ED0ED08556005682C59B2
:101C9000C4F34004D4604FF4DA74056804EB011413
:101CA0002D5905F00F05156105682D59C5F3072558
:101CB000956105682C59240C54614FF4DC7204685A
:101CC00002EB0112A4581C700468A458240A5C702A
:101CD0000468A458240C9C700468A258120EDA7090
:101CE0004FF4DE72046802EB0112A4581C71046800
:101CF000A458240A5C710468A458240C9C710468DC
:101D0000A258120EDA71006881B1016941F0200118
:101D10000161002030BDE468A8E7416A41F4001188
:101D20004162012030BD6D0D1560AFE7C16841F023
:101D30002001C160EDE72DE9F05F05460068002451
:101D40004669D0F804908768D0F80CB0D0F810A09D
:101D5000D0F81880F10748D0F90714D0012181602C
:101D6000B80703D5284600F0F4FA0CE0780702D54E
:101D70004FF4006407E0380702D54FF4805402E0C6
:101D8000284600F0E5FAF80516D529684FF480706A
:101D90008860B80503D5284600F0DDFA0CE0780528
:101DA00002D544F4005407E0380502D544F48044D9
:101DB00002E0284600F0CEFAF80316D529684FF461
:101DC00080308860B80303D5284600F0C6FA0CE0DE
:101DD000780302D544F4004407E0380302D544F404
:101DE000803402E0284600F0B7FA300707D55FEAF2
:101DF000CB6004D52968102044F40074C8607007D3
:101E00004FF0080707D55FEA0B7004D52868C76054
:101E1000284600F099F9B00706D52868C068800701
:101E200002D0284600F092F9700607D55FEACA6032
:101E300004D52968102044F480640861B00607D5F1
:101E40005FEA0A7004D528680761284600F0F6F9B1
:101E5000F00606D528680069800702D0284600F001
:101E6000EFF9B00308D55FEAC96005D529681020ED
:101E70004860284600F03EFAF00307D55FEA097093
:101E800004D528684760284600F068FA300446D533
:101E90005FEA497040D5F00504D55FEAC87001D00B
:101EA00044F00104B00504D55FEA887001D544F020
:101EB0000204700504D55FEA487001D544F00404BB
:101EC000300529D518F0700F26D008F07000402892
:101ED00015D006DC102809D020280AD0302816D1C9
:101EE0000AE050280ED0602811D10EE044F008041A
:101EF0000DE044F010040AE044F0200407E044F050
:101F0000400404E044F0800401E044F48074286854
:101F1000816921F070018161296804204860002CEA
:101F200005D0686A204368622846FFF78FFEBDE847
:101F3000F09F70B5040003D094F8200010B104E0C5
:101F4000012070BD204600F081F82068016821F072
:101F50000201016000F096FC0546052604E000F051
:101F600091FC401B0A2811D8206840688007F6D4ED
:101F70002068016841F00101016000F083FC054622
:101F80000BE000F07FFC401B0A2806D9606A40F491
:101F90000030606284F82060D2E720684068C007A3
:101FA000EFD0207E0128206801683DD021F080011B
:101FB0000160607E01282068016838D021F040016E
:101FC0000160A07E01282068016833D021F0200143
:101FD0000160E07E0128206801682ED041F01001E8
:101FE0000160207F01282068016829D021F00801C4
:101FF0000160607F01282068016824D021F004017D
:102000000160D4E902010843D4E9041211430843F2
:102010006168491E08432168C86100206062012090
:1020200084F82000002070BD41F08001C0E741F03D
:102030004001C5E741F02001CAE721F01001CFE7D8
:1020400041F00801D4E741F00401D9E7F0B587B0C9
:10205000044614216846FEF782F9364B3648DFF80D
:10206000D0E01968D4F800C0334A032502260927B6
:1020700010300024491CF44522D11960012907D1F0
:10208000016841F000710160006800F00070059087
:10209000106840F0080010601068CDE9005600F0AC
:1020A0000800CDE9047069462448CDE9024500F0F6
:1020B000F1FA00220521142000F070FC142033E016
:1020C000DFF87CE0F44531D1D0F800C04CF0806CF2
:1020D000C0F800C0D0F800C001290CF0806CCDF829
:1020E00014C0196007D1016841F0007101600068F7
:1020F00000F000700590106840F002001060106859
:1021000002AB00F0020005904FF44050CDE900060C
:1021100083E8B00069460B4800F0BCFA00220521B4
:10212000412000F03BFC412000F02AFC07B0F0BD4C
:10213000006400400400002030380240000C0240DF
:1021400000680040000402407047000000B589B0FC
:1021500007AB6A4600213448FFF779FD009940F249
:102160000522A1F20520914231D019DC40F2022271
:102170002E4891422DD02ADC66293AD0A1F5007173
:10218000013924D10189491C0181BDF81C1049BACB
:102190000180BDF81E1049BA8180BDF820103FE0D3
:1021A000012814D0022812D0032810D004280ED100
:1021B0001F480188491C0180BDF81C1049BAC18222
:1021C000BDF81E1049BA01829DF82210017609B0AF
:1021D00000BD018E491C0186BDF81C1049BA01855D
:1021E000BDF81E1049BA8185BDF8201049BAC185D5
:1021F000EDE7BDF81C00104A41BA0E4801809DF879
:102200001E10817011709DF81F100A09C27001F034
:102210000F010171BDF8201049BA0181BDF82210EB
:1022200049BAC180D3E7000090040020780900205B
:10223000140F002074000020700000207047000080
:1022400000B589B007AB6A4601212648FFF7FFFCBD
:1022500000992548A1F50071013916D0012924D033
:10226000022932D009290ED120480188491C018059
:10227000BDF81C1049BAC182BDF81E1049BA0182CE
:102280009DF82210017609B000BD0189491C018129
:10229000BDF81C1049BA0180BDF81E1049BA8180F2
:1022A000BDF8201049BAC180EDE7018E491C0186B6
:1022B000BDF81C1049BA0185BDF81E1049BA8185C8
:1022C000BDF8201049BAC185DDE709480188491CDD
:1022D0000180BDF81C1049BAC180BDF81E1049BA72
:1022E0004180D0E7B8040020D8090020C00E0020AB
:1022F000280A00207047000070B5044690F82000BE
:10230000012804D0606A40F40020606218E00220D6
:1023100084F820002068016821F00101016000F0CC
:10232000B1FA05460EE000BF00F0ACFA401B0A28E7
:1023300008D9606A40F400306062052084F820000B
:10234000012070BD20684068C007EDD1606270BD9B
:10235000704770477047704770477047704790F8F4
:102360003510022903D080214165012070470521E5
:1023700080F835100068016821F00101016000203B
:10238000704700002DE9F84304464FF00009CDF8EE
:10239000009063484FF41651A56D0068B0FBF1F74B
:1023A0002E6894F85C10082000FA01F131420FD039
:1023B00021680A6852070BD50A6822F004020A60F5
:1023C00094F85C108840A860606D40F00100606582
:1023D00094F85C104FF0010808FA01F0304208D080
:1023E00021684969090604D5A860606D40F00200C3
:1023F000606594F85C1004208840304208D0216861
:102400000968890704D5A860606D40F00400606524
:1024100094F85C1010208840304218D02168096878
:10242000090714D5A86020680168490304D500682D
:10243000000308D5A16C07E00168C90503D4016851
:1024400021F008010160216C09B12046884794F809
:102450005C1020208840304231D021680968C906CC
:102460002DD5A86094F8350005282068016806D0AD
:10247000490347D5006800031DD4616C1CE021F0BE
:10248000160101602068416921F080014161206CE2
:1024900008B9A06C20B12068016821F00801016032
:1024A00094F85C103F208840A86084F8349084F849
:1024B0003580216D1FE0E16B09B120468847606DD2
:1024C00000282BD0606DC00714D0052084F835009B
:1024D0002068016821F0010101600098401C009013
:1024E000B84203D820680068C007F6D184F8349059
:1024F00084F83580E16C002910D001B02046BDE899
:10250000F04308470168C905D5D4016821F01001DE
:10251000016084F8349084F83580CCE7BDE8F88316
:10252000080000202DE9F041044600F0ABF9064612
:102530005CB1002584F83450022084F8350020680E
:10254000016821F0010101600DE00120BDE8F0818A
:1025500000F098F9801B052805D92020606503202C
:1025600084F83500F2E720680068C007F0D12268DF
:10257000116820480140D4E901031843D4E9033627
:102580003343184363691843A3691843E369184345
:10259000236A18430843616A042903D1D4E90B1361
:1025A00019430843106020684069666A20F00701FB
:1025B00030460E43012704280CD1A06A0643E06A86
:1025C00040B12046FEF744FC20B14020606584F80D
:1025D0003570BAE7206846612046FEF725FC94F87E
:1025E0005C203F2191408160656584F83570002052
:1025F000ACE700003F8010F02DE9F0410446866D05
:1026000090F83400002501280DD0012084F8340012
:1026100094F835700020012F07D084F8340002258B
:102620002846BDE8F0810220FBE7022784F83570D8
:1026300060652046FEF736FC94F85C103F20884029
:10264000B0602068016841F01601016020684169AE
:1026500041F080014161206C20B12068016841F0A7
:10266000080101602068016841F001010160D7E7BD
:1026700070B5044600F006F90546601C02D0044817
:102680000078044400F0FEF8401BA042FAD370BD6D
:10269000300100202DE9F84FDFF890B100224FF013
:1026A00001084FF0030A4FF00F090BF1040E00BFB1
:1026B0000B6808FA02F42340A3426ED14D68022D44
:1026C00001D0122D0ED1D50800EB850CDCF820507E
:1026D0005607F70E09FA07F6B5430E69BE402E43BA
:1026E000CCF82060066855000F790AFA05FC07F05F
:1026F000030726EA0C06AF40374307604E68012EF9
:1027000005D0022E03D0112E01D0122E0ED18768D3
:10271000CE6827EA0C07AE403E4386604668A64373
:102720000C79C4F30014944034434460C4688E6848
:1027300024EA0C04AE402643C6604C68E4006FD522
:102740003B4C256845F480452560246822F003054C
:1027500004F480440094374C2E19D6F808489507A5
:102760002F0F09FA07F5AC43334DA84201D10025DC
:102770002EE0324DA84201D1012529E0304DA8427A
:1027800001D1022524E02F4DA84201D103251FE0ED
:102790002D4DA84202D104251AE041E02B4DA8425C
:1027A00001D1052514E02A4DA84201D106250FE0EC
:1027B000284DA84201D107250AE0274DA84201D1A2
:1027C000082505E0254DA84201D1092500E00A258C
:1027D000BD402543C6F80858DBF800405D464E680A
:1027E0009C43F60300D51C432C60DEF80040754680
:1027F0004E689C43B60300D51C432C600B4D083536
:102800002C684E689C43F60200D51C432C60074D93
:102810000C352C684E689C43B60200D51C432C60D6
:10282000521C102AFFF444AFBDE8F88F003C014071
:1028300044380240003001400000024000040240E1
:1028400000080240000C0240001002400014024048
:1028500000180240001C02400020024000240240F8
:102860000069084000D001207047426931EA020245
:1028700000D10904816170470AB181617047090480
:10288000FBE700000148806870470000300100202D
:10289000024881680278114481607047300100204D
:1028A0000B4810B5016841F400710160016841F402
:1028B00080610160016841F480710160032000F0D3
:1028C0008DF8002000F006F800F03EF8002010BD62
:1028D000003C024010B5014688B000221C2000F0E8
:1028E0005DF81C2000F04CF814480024016841F009
:1028F00001010160006805A900F00100069068462A
:1029000000F016F900F034F90D494000B0FBF1F188
:102910000C484FF08042491E026040F2E732C0E9A5
:102920000324C0E9011400F08DFC10B1012008B0AF
:1029300010BD044800F0A2FCF9E700004038024056
:1029400040420F00180900200C4882B0016841F491
:1029500080410160006800F4804000900748001F3B
:10296000016841F0805101600068002200F0805051
:1029700000900F21901E02B000F010B844380240C1
:10298000002809DB00F01F0201219140400980006E
:1029900000F1E020C0F8001170470000F0B40E4BC9
:1029A0001B680C46C3F30223C3F10705042D00D9AD
:1029B0000425191D072901D2002300E0DB1E012692
:1029C00006FA05F1491E214099409E40761E1640A8
:1029D0003143F0BC02F09DBF0CED00E0064900F071
:1029E000070208684FF6FF03184040EA0220034A36
:1029F00010430860704700000CED00E00000FA058D
:102A00002DE9F0470E46050065D0DFF81481D8F8AF
:102A10000000F7B200F00F00B04207D288F8007053
:102A2000D8F8000000F00F00B04254D128683D4CA7
:102A3000810712D5400703D5206840F4E05020609C
:102A40002878000703D5206840F4604020602068A3
:102A5000A96820F0F000084320602878C0072DD036
:102A6000304968680839012812D0022813D0032899
:102A700011D00968890700292DDA216821F00301A6
:102A800001432160FFF7FEFE814641F2883A0EE0E5
:102A900009688903EFE709688901ECE7FFF7F2FEAF
:102AA000A0EB0901514502D90320BDE8F087206859
:102AB000696800F00C00B0EB810FEFD1D8F800107E
:102AC000404601F00F01B14207D90770006800F0DD
:102AD0000F00B04201D00120E7E72878400705D574
:102AE0002068E96820F4E050084320602878000757
:102AF00006D52068296920F4604040EAC1002060C2
:102B000000F056F82168084AC1F30311515CC8402F
:102B1000064908600020FFF7DDFE0020C5E7000041
:102B2000003C0240083802407C8D0008080000206C
:102B30000F2202600C4A136803F00303436013681A
:102B400003F0F0038360136803F4E053C36012687A
:102B50004FF4E05303EAD20202610448006800F037
:102B60000F0008607047000008380240003C024037
:102B70000448054900680968044AC1F38221515C90
:102B8000C840704708000020083802408C8D0008BB
:102B90000448054900680968044AC1F34231515CA0
:102BA000C840704708000020083802408C8D00089B
:102BB000154810B5006810F00C02144813D01449E1
:102BC000042A0FD0082A0ED10F4C241F2268236834
:102BD00002F03F025B0207D52068C0F38810A0FB1B
:102BE000010106E0084610BD2168C1F38811A1FB70
:102BF00000010023FDF756FB2168C1F30141491C88
:102C00004900B0FBF1F010BD083802400024F40088
:102C1000001BB7002DE9F84F050076D02878DFF8C3
:102C2000F8B2BE4CC00749D0DBF800105846C1F3DB
:102C30008101012908D00068C0F3810002280AD16F
:102C4000201D0068400206D52068800336D56868DC
:102C50000028E2D032E06868B0F5803F10D0B0F5CF
:102C6000A02F206810D020F480302060206820F44D
:102C7000802020606868A0B1FFF704FE06460CE0E3
:102C8000206840F48030F4E740F480202060F7E7CB
:102C9000FFF7F8FD801B642873D820688003F7D500
:102CA0000CE0FFF7EFFD064605E000BFFFF7EAFD89
:102CB000801B6428F0D820688003F7D42878DFF8D8
:102CC000608280074FF000093ED5DBF800105846BF
:102CD00011F00C0F09D00068C0F3810002280BD15D
:102CE0008D48001F0068400206D42068800715D573
:102CF000E868012809D111E0E868B8B10120C8F8F6
:102D00000000FFF7BFFD064605E002E1FFF7BAFD50
:102D1000801B0228C0D820688007F7D52068296961
:102D200020F0F80040EAC10020600DE0C8F80090F3
:102D3000FFF7A8FD064604E0FFF7A4FD801B02286C
:102D40001FD820688007F7D42878000722D5724E54
:102D5000744869696C3671B101210160FFF792FD19
:102D6000074604E0FFF78EFDC01B022809D8306833
:102D70008007F7D50EE0C0F80090FFF783FD074607
:102D800005E083E0FFF77EFDC01B02287ED8306897
:102D90008007F7D42878400768D5DFF87CA10027A2
:102DA0000AF1380ADAF80000C0000BD4DAF8001093
:102DB00041F08051CAF80010DAF80000012700F055
:102DC00080500090584E3068C00510D4306840F4F0
:102DD00080703060FFF756FD009005E0FFF752FD70
:102DE0000099401A022851D83068C005F6D54A4EDD
:102DF000A868683601280FD00528306810D020F068
:102E000001003060306820F004003060A868B8B17C
:102E1000FFF738FD00900FE0306840F00100F4E764
:102E200040F004003060F7E7FFF72CFD0099411AED
:102E300041F28830814264D830688007F4D50EE0D2
:102E4000FFF720FD009007E0FFF71CFD0099411AF5
:102E500041F28830814254D830688007F4D42FB1D1
:102E6000DAF8001021F08051CAF80010A869C0B348
:102E7000DBF80010C1F3810102294AD0022848463C
:102E800007D0C8F86000FFF7FDFC00E039E0054618
:102E90003AE04746C8F86000FFF7F4FC064604E055
:102EA000FFF7F0FC801B02282BD820688001F7D4A4
:102EB000D5E907010843A96A1C4A490802EB014108
:102EC0006A6A41EA8211084395F82C1040EA0161D0
:102ED0001148001F016001203866FFF7D3FC05464A
:102EE00005E014E0FFF7CEFC401B022809D820685B
:102EF0008001F7D50BE000BFFFF7C4FC401B0228A0
:102F000002D90320BDE8F88F20688001F4D40020A6
:102F1000F8E70120F6E700000838024000380240D8
:102F200000004742800E4742007000400000FFFF53
:102F300070B5040005D00025A56294F8510010B1C9
:102F400006E0012070BD84F85050204600F030F8B3
:102F5000022084F851002068016821F040010160DE
:102F6000D4E901010843D4E903121143084361691C
:102F70000843218B01F400710843E1690843216A89
:102F80000843A16A084321680860A069042101EA96
:102F90001040616A0843216848602068C16921F4D3
:102FA0000061C1616565012084F85100002070BD99
:102FB00010B586B0044614216846FDF7D0F91449CF
:102FC0002068884221D113480021026842F480120F
:102FD0000260006800F4801005900E481438026802
:102FE00042F020020260006800F0200005904FF4DB
:102FF000607000900220CDE90101032003900520BC
:10300000049069460448FFF745FB06B010BD000078
:103010000050014044380240001402402DE9F84FAE
:10302000044690F8500000270A9E1D4692468B46A3
:103030004FF0010901280ED0012084F85000FFF75D
:1030400021FC804694F85100616801280CD0B1F54C
:10305000827F07D102E00220BDE8F88FA16809B99C
:10306000042801D00227C2E0BBF1000F27D0BAF13B
:10307000000F24D01DB394F85100042802D005207D
:1030800084F8510000206065C4F838A0E587A58762
:10309000C4F830B0E586A5862064606420680168C5
:1030A000490603D4016841F040010160E068B0F5D1
:1030B000006F606805D0E8B3012D46D07FE001279E
:1030C00095E008B1012D39D1206B21680088C860D6
:1030D000206B801C2063E08E401EE0862EE020687E
:1030E000816889070FD5E18E69B1B9F1010F0AD165
:1030F000216B0988C160206B801C2063E08E401E1C
:10310000E0864FF0000920688168C9070CD0E18F84
:1031100051B1C068A16B0880A06B801CA063E08FD8
:10312000401EE0874FF00109FFF7ACFBA0EB080061
:10313000B04200E009E001D3701C50D1E08E0028BD
:10314000CDD1E08F0028CAD13FE0206B2168007804
:103150000873206B401C2063E08E401EE0862EE04A
:103160002068816889070FD5E18E69B1B9F1010F37
:103170000AD1216B09780173206B401C2063E08E1B
:10318000401EE0864FF0000920688168C9070CD016
:10319000E18F51B1C068A16B0870A06B401CA063A7
:1031A000E08F401EE0874FF00109FFF76BFBA0EBBB
:1031B0000800B04202D3701C01D010E07EB1E08E56
:1031C0000028CDD1E08F0028CAD1424631462046A2
:1031D00001F0A8FA28B101272020606507E0032745
:1031E00005E0A06818B92068C168806800900120D7
:1031F00084F85100002084F8500038462CE77047CE
:10320000704770B590F83C20012A19D0012400F8CD
:103210003C4F0222427050F83C3C5A689D6822F0B4
:1032200070060A684968324325F0800529435A60D0
:1032300050F83C2C9160447000210170084670BD2C
:10324000022070BD10B5040003D094F83D0010B109
:1032500007E0012010BD002084F83C00204600F06B
:103260000CF8022084F83D00211D206801F0F4FCD8
:10327000012084F83D00002010BD70470168CA6835
:1032800042F00102CA600068816801F00701062966
:1032900003D0016841F001010160002070477047D0
:1032A00070B50446006801694FF00005C9438907FD
:1032B00015D4C168C943890711D4E91E01610120F1
:1032C0002077206880698007204602D0FFF7E7FF5B
:1032D00004E000F0C1F8204600F056F92577206898
:1032E0000169C943490717D4C168C943490713D4C1
:1032F0006FF004010161022020772068806910F4DA
:10330000407F204602D0FFF7CAFF04E000F0A4F897
:10331000204600F039F9257720680169C94309077B
:1033200016D4C168C943090712D46FF008010161BE
:10333000042020772068C0698007204602D0FFF76C
:10334000AEFF04E000F088F8204600F01DF9257774
:1033500020680169C943C90617D4C168C943C906B1
:1033600013D46FF010010161082020772068C06934
:1033700010F4407F204602D0FFF791FF04E000F0F8
:103380006BF8204600F000F9257720680169C943F1
:10339000C90708D1C168C943C90704D1891E0161A1
:1033A000204600F015F920680169C943090609D4CF
:1033B000C168C943090605D46FF080010161204648
:1033C000FFF71DFF20680169C943490609D4C16898
:1033D000C943490605D46FF040010161204600F061
:1033E000FEF820680169C94389060BD4C168C94346
:1033F000890607D46FF0200101612046BDE87040C6
:10340000FFF7FEBE70BD000010B586B00446142163
:103410006846FCF7A4FF0D492068884214D10C4887
:103420000021026842F002020260006800F002001F
:103430000590202000900220CDE90101CDE9031084
:1034400069460448FFF726F906B010BD00040040A5
:103450003038024000040240704770B5044690F8CE
:103460003C000D4601280DD0012684F83C60022066
:1034700084F83D0042B1042A18D0082A2AD00C2A28
:103480004DD139E0022070BD206801F057FC206862
:10349000816941F0080181612068816921F004019E
:1034A0008161206881692A69114311E0206801F077
:1034B00075FC2068816941F400618161206881693F
:1034C00021F480618161206881692A6941EA0221D1
:1034D000816124E0206801F097FC2068C16941F017
:1034E0000801C1612068C16921F00401C16120683F
:1034F000C1692A69114311E0206801F0B9FC206814
:10350000C16941F40061C1612068C16921F4806131
:10351000C1612068C1692A6941EA0221C16184F858
:103520003D60002084F83C0070BD10B5040003D05D
:1035300094F83D0010B107E0012010BD002084F890
:103540003C00204600F00CF8022084F83D00211DCC
:10355000206801F081FB012084F83D00002010BDAF
:1035600008B500680649884208D10648016841F05C
:1035700002010160006800F00200009008BD000038
:1035800000040040403802407047000010B5044677
:103590000068012201F0C4FB0B492068884202D078
:1035A0000A49884203D1416C41F4004141642068DA
:1035B000816801F00701062903D0016841F001018B
:1035C0000160002010BD0000000001400004014027
:1035D0000068B0F1804F01D1FFF75AB970477047CA
:1035E0007047000070B5026804461068D1685369DE
:1035F00010F00F0F50D003F0010501F49076354321
:103600005DD0C20705D0CA0503D5E26B42F00102C6
:10361000E263420705D5DA0703D0E26B42F002020B
:10362000E263820705D5DA0703D0E26B42F00402B9
:10363000E263020705D5DA0703D0E26B42F0080225
:10364000E263E26B002A33D0800604D5880602D5F7
:10365000204601F02DFF20684069E16BC0F3801027
:10366000090700D428B3204601F00BFF2068416908
:1036700049061AD5416921F040014161606BA0B152
:103680001B490165606BFEF76AFE002810D0606B75
:10369000016DBDE870400847830610D58B060ED536
:1036A0002046BDE8704001F003BF2046FFF798FFB9
:1036B00070BD2046FFF794FF0020E06370BD030655
:1036C00006D50B0604D52046BDE8704002F092B83E
:1036D0004006F3D54806F1D5D168204621F04001D7
:1036E000D160202184F8391000F000FA70BD00008C
:1036F000F153000870B5040004D094F83900002597
:1037000010B106E0012070BD84F83850204600F06A
:1037100023F8242084F839002068C16821F400517E
:10372000C160204601F010FF2068016921F490413A
:1037300001612068416921F02A0141612068C16866
:1037400041F40051C160E563202084F8390084F819
:103750003A00002070BD00002DE9F04F87B005460B
:1037600014216846FCF7FBFDB348DFF8C882103827
:10377000D5F800C0B04B022203218715002406159E
:103780004FF0010E4FF0080A4FF0400B4FF0206948
:10379000C44551D1D3F800C04CF0804CC3F800C0F0
:1037A0001B6803F080430593036843F01003036034
:1037B000006800F010000590CDE9031AC8018DE8FB
:1037C000054069469D48FEF765FFDFF878829C4911
:1037D0004046C8F80010C0E90194C0E90346C8F8A3
:1037E0001440C0E90647C8F82040C8F82440FEF756
:1037F00099FE08B1FDF76BFB924FC5F83480603736
:10380000C8F83850C7E903467C61BC618C48FC614C
:103810003C6230387C6287E8010A3846FEF782FE57
:1038200008B1FDF754FB2F63002205215220BD6330
:10383000FFF7B4F8522055E0DFF80C82C44556D1AA
:10384000D3F800C04CF0004CC3F800C01B6803F074
:1038500000430593036843F010030360006800F021
:10386000100005908DE80640CDE9031A69467348BB
:10387000FEF710FFDFF8CC81714908F1C00848312C
:103880004046C8F80010C0E90194C0E90346C8F8F2
:103890001440C0E90647C8F82040C8F82440FEF7A5
:1038A00041FE08B1FDF713FB684FC5F83480C8F836
:1038B0003850C7E903467C61BC616148FC613C62E9
:1038C00048387C6287E8010A3846FEF72BFE08B1CB
:1038D000FDF7FDFA2F63002205215320BD63FFF79A
:1038E0005DF85320FFF74CF807B0BDE8F08F524B5E
:1038F000DFF85C811B1DC44541D1D3F800C04CF0FA
:10390000100CC3F800C01B6803F010030593036894
:1039100043F002030360006800F002000590C0203D
:103920008DE815000720CDE9031069464948FEF7E8
:10393000B1FEDFF81881484908F160084046C8F830
:1039400000104FF00061C0E90114C0E90346C8F857
:103950001440C0E90647C8F82040C8F82440FEF7E4
:10396000E1FD08B1FDF7B3FAC5F834800022052166
:103970002520C8F83850FFF711F82520B2E7DFF806
:10398000DC80C445B0D1D3F800C04CF0200CC3F8A3
:1039900000C01B6803F020030593036843F0400355
:1039A00003600068CDE9024100F0400005904FF44B
:1039B0008440CDE90002CDF810A069462848FEF702
:1039C00069FEDFF88880244908F1C00818394046AC
:1039D000C8F80010C0E90194C0E90346C8F81440D3
:1039E000C0E90647C8F82040C8F82440FEF79AFD11
:1039F00008B1FDF76CFA1B4FC5F83480C8F8385091
:103A0000C7E903467C61BC611348FC613C626030DD
:103A10007C6287E8010A3846FEF784FD08B1FDF7AD
:103A200056FA2F63002205214720BD63FEF7B6FF3B
:103A3000472057E70078004040380240001002401D
:103A40005860024078060020007C00409807002063
:103A50000010014000040240406402400014014094
:103A600000180240B80800207047000070B50446F6
:103A700090F83900202830D169B362B394F8380047
:103A800001282AD0012084F838002162A284E2842F
:103A90000025E563212084F83900236B1048D863A2
:103AA000236B10481864236B0F48D864206B1346AF
:103AB00005652668206B321DFEF79EFD21686FF0BC
:103AC0004000086084F838502068416941F0800166
:103AD0004161002070BD012070BD022070BD00005A
:103AE0004B5400087954000801540008704770478F
:103AF000FEE7000010B504460068416941F040014E
:103B0000416121681523054A091D606BFEF774FDAC
:103B10002068C16841F01001C16010BDA00D0020F7
:103B20001CB500210091416B0068C268D2062FD5F8
:103B3000026842680268406801900868026822F0E2
:103B4000010202600A6850684FF01503C0F11500C9
:103B500010F0FF0F536009680A6842F001020A6022
:103B600016D00C480178662912D1807B88280FD1A5
:103B700009486946006804F0F3FB0098002807D064
:103B800006494FF080500860BFF34F8FBFF36F8F2F
:103B90001CBD0000A00D00203400002004ED00E05A
:103BA0002DE9F047A5492DED028B3CC981E83C0089
:103BB0000A460A235178B2F802C0B1FBF3F403FBC2
:103BC00014169F49ACF54C444B785B1CDDB2A1F157
:103BD0002003CC3C08D01F880124BC4519D19C701F
:103BE000BDEC028BBDE8F087964A1278072A02D016
:103BF0006B2A02D005E0EE2200E0DD221A804D7033
:103C00004DE0BDEC028B0A22BDE8F0478C49FFF77E
:103C10002DBFACF53B43BB3B3ED09146DFED8A8ADE
:103C20008A4D4FF480589FED8A8A844A894FC83A5A
:103C3000ACF57F41FF3934D006EB860002EB8004FF
:103C4000207C0028CCD004F039FF7D49824B4039DC
:103C5000CA6AC862821A0E700020207494ED000AAD
:103C6000D9ED010A70EE200AC1ED0C0AC1ED010A7E
:103C700099ED020A10EE100A984254D010EE100A84
:103C8000764EB0424FD094ED011A31EE400A81EDEC
:103C90000D0A81ED070A8DE0714A4D7012788A7025
:103CA000AFE770494FF4B473B1F91610A1F2811166
:103CB000594300EE101AB7F91610B8EEC00A414584
:103CC000C0EE080A04DBA1F5F851FF39594301E0C1
:103CD00011FB03F100EE101AB8EEC01A81EE080ACB
:103CE00002E000BF70EEE80A10EE901AA942F9DC7B
:103CF00002E000BF30EE680A10EE101AA942F9DCAB
:103D000006EB860102EB81054D49C5ED000A083935
:103D100085ED010AC1ED000A81ED010A0822FFF7D5
:103D2000A5FE2C745CE710EE100A984202D191EDCA
:103D3000070A3DE0B7F91600404506DBA0F5F85349
:103D4000FF3B4FF4B4777B4303E04FF4B47310FBB5
:103D500003F300EE103AB8EEC01A81EE080A10EE36
:103D6000103AAB4213DD40454FF4B47304DBA0F5C9
:103D7000F850FF38584301E010FB03F000EE100A42
:103D8000B8EEC01A81EE080A30EE680A10E040452D
:103D90004FF4B47304DBA0F5F850FF38584301E04A
:103DA00010FB03F000EE100AB8EEC01A81EE080A0C
:103DB00081ED0D0A91ED0D1ADFED2B1A9FED2B0A07
:103DC00081ED021A002A0ED091ED092A30EEC22AA6
:103DD00062EE212A02EE102AB8EE422A82EE823AE0
:103DE00084ED023A01E084ED020AC1ED090A81ED99
:103DF000050AD1ED0A0A71EE600A60EEA10A01EE31
:103E0000902AF8EE611A80EEA12A84ED032A08D0E8
:103E100000EE102AB8EE400AC0EE801AC4ED031A74
:103E200001E084ED030A81ED0A1A94ED020A81EDA6
:103E3000030A94ED030A81ED040AD1E6A00D0020E7
:103E4000C80000206D0E00200000B4430000344381
:103E500000F8FF45140F002000007F4300007FC3DF
:103E600073000020C00E002000007A440000000013
:103E700010B504460068416941F040014161216884
:103E80008223054A091D606BFEF7B6FB2068C168F6
:103E900041F01001C16010BDC00D00202DE9F047B8
:103EA0000024144D144E20E0285DA52801D0641C88
:103EB0001AE028198146B0F80570F781B0F8018042
:103EC000052101F0FBFC70B1484608F1090101F041
:103ED000D7FC40B13946204600F050F804EB08000A
:103EE0000930C4B201E00934E4B2306A8442DBDB59
:103EF000BDE8F087C00D0020D40000201CB50446AA
:103F0000002000902068C168C9062ED5016840686D
:103F10000190606B0068016821F001010160606B35
:103F200000684068C0F1820010F0FF0013D00F4914
:103F30008C4210D10E4908620E486946006804F0B0
:103F40000FFA009838B10C494FF080500860BFF369
:103F50004F8FBFF36F8F616B822009684860606B81
:103F60000068016841F0010101601CBD7805002076
:103F7000D40000203000002004ED00E00A46A1F249
:103F8000022370B5674940F2022501446548664C3A
:103F90008030AA426CD021DC40F20115A2F201135C
:103FA000AA4254D00DDC012A3FD0022A48D0032A6D
:103FB00049D0042A04D1B1F807002082487AA074BD
:103FC00070BD012B48D0032B4BD0042B4DD0B3F543
:103FD000807FF5D153481B22AD305DE0052B71D0B9
:103FE00012DC012B55D0022B5BD0032B5CD0042BB1
:103FF000E6D14C48C97900F1AD00E17140880A0969
:104000004FF0010552D066E0062B77D0072B7BD00E
:10401000082B7ED0B3F5817FD2D151F8072F4267AC
:104020004A6882678968C16770BD51F8072F40F8F8
:10403000022F4A6842600A890281897A817270BDC2
:10404000C879E07070BD374820228D3024E0D1F867
:104050000700C4F8130070BDD1F80700C4F81700BA
:1040600070BDB1F80700A08170BDC879207170BD26
:104070002C481022C830C91DFCF758F92948C8300F
:10408000406800EE100ABCEEC00A10EE100A207064
:1040900070BD24481022D830BDE87040C91DFCF71F
:1040A00045B9C879607170BDC87922E0238998420A
:1040B00011D26278032A0ED01B1A1E2B03DD0322B5
:1040C000627005E00EE0521CD2B26270032A02D187
:1040D000A27802B9A57020810420B0EB111FE2D1B3
:1040E000257070BD51F8070F44F82A0F8888A0800A
:1040F0008879A07170BD01E006E00AE051F8070F71
:10410000606288882085F5E7D1F80700C4F81B00B5
:10411000F0E751F8072F82664A68C266896801672E
:10412000E8E70000C00D0020D40000200F4810B5C3
:104130000D4901600321416000214FF4002281609C
:10414000C0E903124FF44012426101764176817654
:10415000C17601774177FDF7ECFE002803D0BDE87A
:104160001040FCF7B4BE10BD006400409004002075
:104170000F4810B50D4901600321416000214FF443
:1041800000228160C0E903124FF4401242610176BF
:1041900041768176C17601774177FDF7CAFE002826
:1041A00003D0BDE81040FCF792BE10BD006800408F
:1041B000B8040020254808B5016841F48001016079
:1041C000016801F480010091016841F4001101606F
:1041D0000068002200F40010009011460B20FEF74A
:1041E000DDFB0B20FEF7CCFB002211460C20FEF776
:1041F000D5FB0C20FEF7C4FB002211460E20FEF773
:10420000CDFB0E20FEF7BCFB002211461120FEF76D
:10421000C5FB1120FEF7B4FB002211463920FEF742
:10422000BDFB3920FEF7ACFB002211463A20FEF719
:10423000B5FB3A20FEF7A4FB002211464520FEF70D
:10424000ADFBBDE808404520FEF79ABB3038024080
:1042500000B587B01C2206496846FCF767F80021C4
:10426000684603F040FB0349086007B000BD00004A
:10427000608D0008000000202DE9F04F87B0142168
:104280006846FCF76CF844480024016841F01001CE
:104290000160016801F010010591016841F002011F
:1042A0000160016801F002010591016841F04001DF
:1042B0000160016801F040010591016841F00101D0
:1042C0000160016801F001010591016841F00801F8
:1042D0000160016801F008010591016841F0800169
:1042E0000160016801F080010591016841F0200141
:1042F00001600068DFF8A48000F020004FF4005552
:104300000590002229464046FEF7B6FADFF8909065
:1043100001223C214846FEF7AFFADFF888A044F2BC
:104320004006002231465046FEF7A6FADFF878B084
:10433000AF10002239465846FEF79EFA0095012537
:10434000CDE90154694640460394FEF7A3F93C20A9
:104350000090CDE90154694648460394FEF79AF966
:104360000096CDE90154694650460394FEF792F950
:104370004FF4C050CDE90004694648460294FEF768
:1043800089F90097CDE90154694658460394FEF730
:1043900081F907B0BDE8F08F3038024000180240C4
:1043A000001C024000140240001002400F4810B5EB
:1043B0000D4901604FF48271416000218160C1604C
:1043C0004FF400720161C0E90512C16101624162EE
:1043D00081620A21C162FEF7ABFD002803D0BDE86F
:1043E0001040FCF774BD10BD00500140E0040020F7
:1043F00010B58AB0002407941C2168460894FBF786
:10440000AEFF1648144901605321C0E9011440F27F
:10441000CF71C0E903148461FFF787F808B1FCF796
:1044200056FD079407A90D480894FEF7EAFE08B167
:10443000FCF74DFD6020CDE900040294042269469A
:1044400006480494FFF709F808B1FCF740FD03485B
:10445000FEF7DAFF0AB010BD000400403805002066
:104460000C4810B50A4901604FF4E1314160002168
:1044700081600C22C160C0E904128161C161FFF753
:1044800039F9002803D0BDE81040FCF720BD10BD6D
:1044900000780040780500200C4810B50A490160FA
:1044A0004FF4E1214160002181600C22C160C0E92C
:1044B00004128161C161FFF71DF9002803D0BDE836
:1044C0001040FCF704BD10BD007C0040B805002082
:1044D0000E4810B50C4901600D4941604FF4805100
:1044E000816000214FF48062C0E903120C22C0E910
:1044F0000521C161FFF7FEF8002803D0BDE8104098
:10450000FCF7E5BC10BD000000100140F8050020DC
:10451000A08601000C4810B50A4901604FF4E12162
:104520004160002181600C22C160C0E904128161F8
:10453000C161FFF7DFF8002803D0BDE81040FCF7A9
:10454000C6BC10BD0014014038060020FEE7000084
:1045500090ED061A80ED071AB0F90210B0F90420A8
:10456000891A00EE101A1D4AF8EEC00AC0ED060ABC
:1045700090ED080A30EE200A10EE101A80ED080ABD
:10458000914201DD9FED160A164A10EE101A80EDD9
:10459000080A914201D99FED140A4FF47A5280ED36
:1045A000080AD0ED031A90ED042A61EEA01A42EE3B
:1045B000001A30EEC10AD0ED050A40EE801ABDEEB9
:1045C000E10A10EE101A4162914200DB1146074ADF
:1045D0004162914200DC11464162704700606A46C8
:1045E00000606A4600606AC600606AC680C1FFFF5C
:1045F00008489FED070ADFED080A9FED081A00F151
:104600000C01343081EC030A80EC030A704700008F
:1046100000008441D8090020CDCCCC3DCDCC4C3E0F
:10462000704700009FED121A10B5C0EE010A9FED11
:10463000110A2DED028B20EE800A10EE100AFCF715
:1046400051F841EC100B01F097FD0B48B0EE408A99
:10465000F0EE608A0069FCF745F853EC182BFBF785
:1046600030FFFCF720F8BDEC028B00B210BD00005B
:1046700000003443DA0F4940080100203EB52349C9
:10468000002201920968C968C9063ED520490B6815
:1046900049680068016840681E490090086803681E
:1046A00023F00103036008684368C3F11903DCB217
:1046B000194B1C7005682D0306D5026822F40022F0
:1046C00002600120587004E0056845F4002505608B
:1046D0005A70122C01D0022058700A6819205060BC
:1046E0000868016841F0010101600C4801A90068F7
:1046F00003F036FE0198002807D009494FF080509A
:104700000860BFF34F8FBFF36F8F3EBDF8050020E9
:1047100000100140F80700204C0000204800002055
:1047200004ED00E038B50B460092044600228021DB
:1047300000F008F8002804D0606D40F020006065AB
:10474000032038BD2DE9F0411D4617460E460446AC
:10475000DDF8188008E0681C06D0FEF793F8A0EB9F
:104760000800A8420BD255B12068806836EA0000E4
:1047700030D00020B842EED10020BDE8F0812068A2
:10478000416821F0E00141606068B0F5827F0BD1A3
:10479000A068B0F5004F02D0B0F5806F04D120685A
:1047A000016821F040010160A06AB0F5005F09D105
:1047B0002068016821F4005101602068016841F41B
:1047C00000510160012084F85100002084F850005D
:1047D0000320D2E70120CDE730B40C4B02241C703B
:1047E00024025C60040A1C725872080A9872D9721A
:1047F000100A18735A7300209873D873034604483C
:1048000003220249006830BC03F06CBFC8090020D5
:104810004400002030B5002201231C490A2801D899
:104820000A700AE0A0F10B04012C01D80B7004E01F
:104830000D380E2801D80220087014480D78142471
:10484000083025B1012D04D0022D05D10DE032250F
:1048500000E0C825058044804C7874B10C4C058874
:104860006489AC4204D38A7030BD4FF48C75F1E793
:1048700040888442F8D28B7030BDC868B0F5167F8E
:1048800000DD8A700A28F6DB30BD000050000020F1
:10489000880E00200548F7EE001A90ED051A21EE6B
:1048A000000A31EEC11A01EE200A7047080100200B
:1048B0000448022101700021417081700121C17002
:1048C00070470000700000200F480278AAB1002154
:1048D000012A02D0022A0DD10DE00C4A127B042AD3
:1048E00008D10B4A9278012A04D10A4AD27912B12E
:1048F000022141707047417003E00749CA78427055
:10490000097981707047000070000020B00D002010
:10491000A80000207E0000207400002010B590F94F
:104920000A10002918DCB0F9023000220B49633369
:10493000C62B10D8436AA3F51C54103C03D042F296
:104940001074E34207D10B795B1CDBB20B71142BA3
:1049500002D3282383720A7110BD0000500000208A
:1049600070B53C4840891E2821D000203A4C4FF4B5
:10497000B471DFED3B0A60703848B0F91600A0F260
:104980008110484300EE100AB8EEC00A80EE201AEB
:10499000BCEEC10A10EE100A80B2FFF73BFF3148AF
:1049A000314D0026007820B101280CD02AE00120EA
:1049B000DCE72E480078012824D1A078012821D1F5
:1049C000E08828811FE02A48017B04291AD1A178B8
:1049D000012917D12749C979012913D1417B02291E
:1049E00010D040880221B1EB102F03D1E08828813C
:1049F000E67008E0E0780A2804D8E1882981401CA4
:104A0000E07000E02E811848FFF788FF95F90A0052
:104A1000002804DD401EA872E08840422881A0786A
:104A200000B92E81298931B10028E06801D0801CAD
:104A300005E0401E03E0E0680A2801DB801EE0601C
:104A40000D48007800B92E81BDE87040064800F09E
:104A50002BB800006D0E002050000020C00E00207A
:104A600000F8FF4570000020280A00207200002096
:104A7000B00D00207E000020710000200748B1EE3C
:104A8000080A002180ED030A9FED050A80ED040A63
:104A90009FED040A80ED050A01817047280A002075
:104AA0005839B43C0000000090ED061A80ED071A5A
:104AB000B0F90810B0F90220891A00EE101A1D4A48
:104AC000F8EEC00AC0ED060A90ED080A30EE200AA2
:104AD00010EE101A80ED080A914201DD9FED160AD2
:104AE000164A10EE101A80ED080A914201D99FED86
:104AF000140A42F2107280ED080AD0ED031A90ED0C
:104B0000042A61EEA01A42EE001A30EEC10AD0ED7E
:104B1000050A40EE801ABDEEE10A10EE101A41625D
:104B2000914200DD1146074A4162914200DA114686
:104B30004162704700606A4600606A4600606AC66B
:104B400000606AC6F0D8FFFF10B5502080F31188CE
:104B5000BFF34F8FBFF36F8F03F0B6FF18B1044957
:104B60004FF080500860002080F3118810BD0000D5
:104B700004ED00E030B593B030216846FBF7EFFB61
:104B800014210CA8FBF7EBFB19480025016841F044
:104B900080510160006800F0805011901548016854
:104BA00041F4404101600068022400F4404011904B
:104BB00001200090000401908001CDE9064006200C
:104BC0000890A820CDE9090404200B906846FEF760
:104BD00021F80CA90F2081E831004FF4A0500F906C
:104BE000E002109005210CA8FDF70AFF13B030BDBC
:104BF00040380240007000401048016841F47001E4
:104C000001600F48016841F0010101600C4A002178
:104C10000832116002680B4B1A400260031D0A4AF9
:104C20001A60026822F48022026005480C3001609C
:104C300002495806803908607047000088ED00E09E
:104C400000380240FFFFF6FE103000240148FEF756
:104C500027BB000018090020F0B50268254C264D3E
:104C6000264E274F274B4FF0804CA04209D060457D
:104C700007D0A84205D0B04203D0B84201D0984234
:104C800004D122F0700E4A6842EA0E02A0421BD004
:104C9000604519D0A84217D0B04215D0B84213D001
:104CA000984211D0184DA8420ED0184DA8420BD0F2
:104CB000174DA84208D0174DA84205D0164DA8425E
:104CC00002D0164DA84203D122F44075CA682A4387
:104CD0004D6922F080022A4302608A68C2620A6833
:104CE0008262A04201D0984201D109690163012189
:104CF0004161F0BD00000140000400400008004098
:104D0000000C00400004014000400140004401400C
:104D10000048014000180040001C004000200040F6
:104D200010B501F01F030121046A99408C4304620D
:104D3000016A9A401143016210BD0000F0B5026A99
:104D400022F001020262036A42688469124E24F072
:104D500073050C682C4323F002058B682B430D4D23
:104D6000A84201D0B04205D123F00807CB683B43ED
:104D700023F00403A84201D0B04205D14D6922F4CA
:104D8000407215438A692A434260846149684163DD
:104D90000362F0BD0000014000040140F0B5026A6A
:104DA00022F010020262026A436884690D6824F4EA
:104DB000E64444EA05248D6822F0200242EA051206
:104DC0000F4D104EA84201D0B04206D1CF6822F05C
:104DD000800242EA071222F04002A84201D0B0420B
:104DE00007D14D6923F4406343EA85038D6943EAA3
:104DF000850343608461496881630262F0BD0000FD
:104E00000000014000040140F0B5026A22F4807203
:104E10000262026A4368C46922F4007224F07305D6
:104E20000C68124E2C438D6842EA05220E4DA842B2
:104E300001D0B04206D1CF6822F4006242EA0722D4
:104E400022F48062A84201D0B04207D14D6923F418
:104E5000405343EA05138D6943EA05134360C46177
:104E60004968C1630262F0BD0000014000040140D6
:104E700030B5026A22F480520262046A4268C36951
:104E80000D6823F4E64343EA05238D6824F40054B7
:104E900044EA0534084DA84202D0084DA84204D186
:104EA0004D6922F4804242EA85124260C36149683A
:104EB0000164046230BD00000000014000040140B4
:104EC0000E4C0D4E4FF0FF3704F108053A460B49E2
:104ED000306803F0B7FC2078012808D00228F5D10B
:104EE0002A460748D4F80410FBF7B2FDEEE72A463D
:104EF00004486168F8E700004400002058090020D9
:104F0000B80400209004002008B5FBF739FE03F038
:104F1000D5FD0E4D0E4E05F128040090FBF798FECE
:104F20000A48FBF745FE2046FBF742FE308908B1F0
:104F3000FBF7E0FDB5F84C0001B2A88C00B2FBF71E
:104F400003FE0521684603F061F9E7E778090020D0
:104F5000880E002008B503F0B1FD184E184C194F0B
:104F6000194DDFF868804FF004094FF0020B4FF045
:104F7000000A0090307801070AD0B9EB101F04D066
:104F8000000902D00120A07104E084F806B001E01D
:104F900084F806A03878607128782070B8F80C0082
:104FA0006080287C2071A87EC0F38000E07102F050
:104FB00089FF0421684603F029F9DBE7420E00204F
:104FC0007E000020D50000206D0E0020880E0020FD
:104FD00008B503F073FD0A4D0A4C4FF48056EF14E8
:104FE000009031462846FDF73BFC206039462846B4
:104FF000FDF736FC6060C821684603F007F9F0E76A
:10500000001C02406000002008B5FCF7DDFC03F046
:1050100055FD0D4C009004F154050B4901F154006D
:10502000FBF792FF084901F15400FCF787FAB5F944
:105030001400FCF7ADFCB4F91400FCF78DFC022160
:10504000684603F0E3F8E8E7C00E002008B503F077
:1050500035FD009002F0A2FA01F078FD01F0AEFFFC
:1050600002F064F80221684603F0D0F8F2E700008D
:105070002DE9FC4103F006F85448FBF703FD5448C2
:10508000FBF700FD5148FBF725FD5148FBF722FDDA
:10509000002210211E2003F0BDFA4E490122C862F1
:1050A00051034D48FDF7E8FB4C48FEF7E1FE4C4844
:1050B000FEF720FD02F040FA02F05CF804214948B6
:1050C000FEF764FA474941F65830096808644148D8
:1050D00004251030CDE90050AE010023324642A134
:1050E000454803F085FC3B480524001DCDE9004000
:1050F00000234FF4967241A1434803F079FC3549EF
:1051000006200831CDE900010023C8223FA1424812
:1051100003F06EFC2F4903200C31CDE90001002380
:1051200040223EA1414803F063FC2A480023283076
:10513000CDE90050C8223EA1404803F059FC254863
:1051400000231430CDE9005080223DA1414803F0F6
:105150004FFC2048EF011C30CDE9004000233A46C7
:105160003DA1414803F044FC1A4800232430CDE916
:10517000004032463DA1404803F03AFC1548002368
:105180002030CDE900403A463CA13F4803F030FCD6
:10519000104800231830CDE9004080223BA1404850
:1051A00003F026FC0B480023CDE90050C8223DA1A6
:1051B000414803F01DFC4FF47A7003F001F8002021
:1051C00003F06AF8BDE8FC4102F07CBF90040020C7
:1051D000B8040020180000200018024078050020C4
:1051E000B8050020380500205461736B5F43686187
:1051F0007373697300000000094F00085461736BFA
:105200005F53686F6F740000155300085461736B2F
:105210005F43414E00000000C14E00085461736BB3
:105220005F4C4544426C696E6B000000F15200080F
:105230005461736B5F44657465637400D14F0008FB
:105240005461736B5F5374617475734D6163686906
:105250006E650000A55300085461736B5F4A657466
:10526000736F6E436F6D6D00BD5200085461736BB8
:105270005F494D55000000004D5000085461736BAC
:105280005F47696D62616C00095000085461736B7F
:105290005F4A7564676552656365697665000000FD
:1052A000DD5200085461736B5F436F6D6D756E69FD
:1052B000636174696F6E0000554F00080549012055
:1052C000841E88702146012002F058FE0248FEF735
:1052D00067FCF7E7A8000020B80500204FF0FF3476
:1052E0002146012002F04AFEFEF7D8FDF8E7000053
:1052F00008B503F0E3FB064D4FF4804400902146CF
:105300002846FDF7B2FA6421684602F07FFFF6E70F
:105310000014024008B5FFF7B1FBFFF769F903F08D
:10532000CDFB1C4C194D1A4E04F1280804F150070E
:105330000090E87901280DD1A87901280AD01648F3
:10534000007801280AD115488078012806D102206A
:10535000307003E01249002030700870FBF7B8FD90
:105360000C48FFF7F5F84046FFF7F2F8FFF7F8FAB8
:10537000B88C02B2B4F84C0001B2A08C00B2FFF7B6
:105380002BFA0521684602F041FFD2E77E0000209B
:1053900071000020D809002070000020A800002023
:1053A0007200002008B503F089FB0090FFF780FA37
:1053B000FFF78AFA0A21684602F028FFF8E70000A2
:1053C00010B50448FEF70EF9BDE810400148FEF79D
:1053D00095BD00007805002010B50448FEF702F9DD
:1053E000BDE810400148FEF79BBB0000B805002057
:1053F00010B5806B0021C185C184FEF7F1F810BDA6
:1054000070B5846B2068406994F83910C0F3C010FF
:105410000025212904D118B1E584204600F03FF889
:105420002068406994F83A10C0F38010222904D112
:1054300018B1E585204600F024F8E06B40F010003C
:10544000E0632046FEF7CCF870BD10B50146806BD6
:1054500009680968C9050CD40021C18401684A693A
:1054600022F080024A610068C16841F04001C160D9
:1054700010BDFEF73BFB10BD10B5806BFEF737FB90
:1054800010BD0168CA6822F49072CA6001684A6956
:1054900022F001024A61202180F83A107047016829
:1054A000CA6822F0C002CA60202180F83910704713
:1054B00010B590F83A10222901D0022010BD816861
:1054C000B1F5805F11D00169002901681FD04968DA
:1054D00001F07F03816A4A1C82620B70C18D491EF4
:1054E0000904090CC18518D02BE00269816A002AE1
:1054F0000268526805D0D2B20A80816A491C816272
:10550000ECE7C2F308020A80816A891CF7E74A685F
:10551000816A4B1C83620A70E0E70168CA6822F066
:105520002002CA600168CA6822F48072CA600168F9
:105530004A6922F001024A61202180F83A10FEF700
:1055400093FA002010BD00002DE9F04104460068E8
:105550000169E26821F44051114301612169A068A9
:10556000E26908436169114322680843D16849F23E
:105570000C6399430143D16020684169A26921F419
:10558000407111434161E2696425B2F5004F9748CB
:10559000974922684FF032083FD08A4201D08242B8
:1055A0007CD1FDF7F5FA00EBC00101EB001061685A
:1055B0008900B0FBF1F6FDF7EBFA00EBC00101EB5F
:1055C000001061688900B0FBF1F0B0FBF5F06FF0FE
:1055D0001801484306EB800108EB0110B0FBF5F021
:1055E00000F0F006FDF7D4FA00EBC00101EB00106B
:1055F00061688900B0FBF1F0B0FBF5F006EB001636
:10560000FDF7C6FA00EBC00101EB001061688900EC
:10561000B0FBF1F7FDF7BCFAD2E08A4201D082423A
:105620003DD1FDF7B5FA00EBC00101EB0010616858
:105630004900B0FBF1F0B0FBF5F00601FDF7A8FA68
:1056400000EBC00101EB001061684900B0FBF1F70D
:10565000FDF79EFA00EBC00101EB00106168490004
:10566000B0FBF1F0B0FBF5F06FF01801484307EB29
:10567000800108EBC100B0FBF5F000F0F80006EB8C
:105680004006FDF785FA00EBC00101EB00106168F0
:105690004900B0FBF1F7FDF77BFA3CE055E0FDF780
:1056A00067FA00EBC00101EB001061684900B0FB34
:1056B000F1F0B0FBF5F00601FDF75AFA00EBC0017E
:1056C00001EB001061684900B0FBF1F7FDF750FAFB
:1056D00000EBC00101EB001061684900B0FBF1F084
:1056E000B0FBF5F06FF01801484307EB800108EBC1
:1056F000C100B0FBF5F000F0F80006EB4006FDF746
:1057000037FA00EBC00101EB001061684900B0FB03
:10571000F1F7FDF72DFA00EBC00101EB0010616815
:105720004900B0FBF1F0B0FBF5F06FF01801484311
:1057300007EB800108EBC100B0FBF5F000F00700BB
:10574000216830448860BDE8F081FDF711FA00EB74
:10575000C00101EB001061688900B0FBF1F6FDF7B4
:1057600007FA00EBC00101EB001061688900B0FB93
:10577000F1F0B0FBF5F06FF01801484306EB800143
:1057800008EB0110B0FBF5F000F0F006FDF7F0F9C2
:1057900000EBC00101EB001061688900B0FBF1F083
:1057A000B0FBF5F006EB0016FDF7E2F900EBC001E7
:1057B00001EB001061688900B0FBF1F7FDF7D8F943
:1057C00000EBC00101EB001061688900B0FBF1F053
:1057D000B0FBF5F06FF01801484307EB800108EBD0
:1057E0000110B0FBF5F000F00F00A9E70014014034
:1057F0000010014090F83910212901D00220704793
:105800008168B1F5805F016A0BD04A1C02620268B0
:1058100009785160C18C491E0904090CC1840ED05D
:1058200017E009880268C1F3080151600169002985
:10583000016A02D0491C0162ECE7891CFBE70168A0
:10584000CA6822F08002CA600068C16841F0400165
:10585000C16000207047000010B50448FDF7C2FE8B
:10586000BDE810400148FEF709BF0000F805002020
:105870000148FDF7B7BE000038060020FEE7000033
:1058800030B50C46050014D0022C12D90A48A11ECE
:1058900042892846FBF734FB2919C2B211F8023CB1
:1058A0009A4206D111F8011CB1EB102F01D1012051
:1058B00030BD002030BD0000D400002030B50C46C3
:1058C00005000CD0022C0AD9FF22611EFBF72EFB2B
:1058D000291911F8011C814201D1012030BD00209D
:1058E00030BD03B401984100009850EAC12018BFB0
:1058F00004204A0D18BF40F0010040F2FF72B2EBE5
:10590000515F08BF40F00200012808BF052002B027
:1059100070470907090E002804DB00F1E02080F839
:105920000014704700F00F0000F1E02080F8141D13
:10593000704700000000000070B5C1482DED020B5B
:105940002DED0E8B82B0119D25F000449FEDBEDB46
:105950009FEDBFEB84423EDBA4F140511098A1F1D2
:105960007F6108430FD0BC48844202DC28D11098E4
:1059700030B39DED100B02B0BDEC0E8B02B0BDE854
:10598000704001F085B89DED100B53EC1D2B51ECD0
:10599000100BFAF796FD9DED100B41EC180B53EC34
:1059A0001E2B51EC100BFAF78CFD53EC182BFAF769
:1059B000E1FC41EC100B02B0BDEC0E8B02B070BDEF
:1059C000012001F0A9F802B0BDEC0E8B02B0BDE8D9
:1059D000704001F071B8A1489FEDA18B844256DA66
:1059E0009DED100BB4F1795F0ADA51EC100BFFF763
:1059F00078FF042808BF01F06FF89DED100BDAE77F
:105A000053EC102B51EC100BFAF75BFD41EC190B2A
:105A100095480621B0EE490AF0EE690A784400F094
:105A200023FF53EC192B51EC100BFAF74AFD41EC14
:105A30001A0B8E48B0EE490AF0EE690A0421784448
:105A400000F012FF53EC192B51EC100BFAF739FD53
:105A500053EC182BFAF78EFC41EC100B51EC1A0B9F
:105A600053EC102BFAF79FFDCDE900019DED000BE3
:105A700053EC102B9DED100B51EC100BFAF721FDA0
:105A80009DED101B53EC112BFAF774FCD2E09DED49
:105A9000100B51EC100B01F04DF853EC182BFAF7EA
:105AA0000DFD9FED730BCDE9000153EC102B9DED27
:105AB000000B51EC100BFAF704FD41EC190B6E488A
:105AC0000621B0EE490AF0EE690A784400F0CCFEF7
:105AD00053EC192B51EC100BFAF7F3FC41EC1B0BB8
