:020000040800F2
:10000000304E002081020008793F00084936000880
:10001000713E0008F50A0008555100080000000074
:10002000000000000000000000000000C101000806
:10003000030D0008000000001D0200086D460008C6
:100040009B0200089B0200089B0200089B0200081C
:100050009B0200089B0200089B0200089B0200080C
:100060009B0200089B0200089B020008050C000888
:100070009B0200089B0200089B0200089B020008EC
:100080009B020008110C00089B0200089B0200085C
:10009000F90A00089B0200089B0200089B02000866
:1000A0009B0200089B0200089B0200089B020008BC
:1000B000394700089B0200089B0200089B020008C9
:1000C0009B0200089B0200089B0200089B0200089C
:1000D0009B020008315100089B0200089B020008A7
:1000E0009B0200089B0200089B0200089B0200087C
:1000F0009B0200089B0200089B0200089B0200086C
:100100009B0200089B0200089B0200089B0200085B
:100110009B0200089B0200089B0200089B0200084B
:100120009B0200081D0C00089B0200089B020008AF
:100130009B0200089B0200089B0200089B0200082B
:100140009B020008050B00089B0200089B020008A8
:10015000290C0008350C00089B02000849510008D2
:100160009B0200089B0200089B0200089B020008FB
:100170009B0200089B0200089B0200080000000090
:100180009B0200089B0200089B020008354E0008F5
:100190009B0200089B0200089B0200089B020008CB
:1001A00000000000000000009B020008DFF80CD0F7
:1001B00000F064FC00480047036F0008304E002048
:1001C0002C4B19680868B0E8F04F80F30988BFF33A
:1001D0006F8F4FF0000080F311887047000000001F
:1001E00008480068006880F308884FF0000080F33A
:1001F000148862B661B6BFF34F8FBFF36F8F00DF15
:1002000000BF00BF08ED00E0DFF80C00016841F41A
:1002100070010160704700BF88ED00E0EFF30980D6
:10022000BFF36F8F134B1A681EF0100F08BF20ED3D
:10023000108A20E9F04F106009B44FF0500080F3AD
:100240001188BFF34F8FBFF36F8F07F025FE4FF07C
:10025000000080F3118809BC19680868B0E8F04F05
:100260001EF0100F08BFB0EC108A80F30988BFF3AE
:100270006F8F704718000020EFF305807047000073
:100280000648804706480047FEE7FEE7FEE7FEE730
:10029000FEE7FEE7FEE7FEE7FEE7FEE71D47000894
:1002A000AD01000801804280436070472DE9F04FA6
:1002B0000288D0F80480B0F802904888D1F804E0B1
:1002C00083B04FF0000A1746824207BF098889456C
:1002D0006FF0020003B018BFBDE8F08F4FEA990B32
:1002E00002EB42000290C9F3400001900EEB8A013C
:1002F000BBF1000F2FD0029801EB820C01EB8004C0
:10030000434601EBC205CDF800C0584653F8046BD4
:100310000E6053F8046BCCF8006053F8086B2E6045
:1003200053F8046C266001EB02110CEB021C05EB88
:10033000021504EB0214401EE8D1009808EB0B18DC
:1003400000EB820000EB820000EB8201ABF10100C8
:10035000504301EB001119F0030C19D0A8F104036C
:10036000A1EB82011CF0010F04D001EB820153F8D4
:10037000040F0860019848B15C6841F8224001EB25
:10038000C20153F8084F0C60401EF5D108EB8C08F1
:100390000AF101001FFA80FA781E07043F0CA5D16C
:1003A00003B00020BDE8F08F2DE9F05F0546002086
:1003B00092469B4688460646814640241BE02846D6
:1003C00041464746224600F052FA53465A46C01A62
:1003D000914110D311461846224600F039FA2D1AE1
:1003E00067EB01084F4622460120002100F030FA59
:1003F00017EB00094E41201EA4F10104DFDC484642
:1004000031462A464346BDE8F09F40EA01039B0778
:1004100003D009E008C9121F08C0042AFAD203E079
:1004200011F8013B00F8013B521EF9D27047D2B2DD
:1004300001E000F8012B491EFBD270470022F6E7CD
:1004400010B513460A4604461946FFF7F0FF20464A
:1004500010BD2DE9FE4F804681EA0300C00F0C4617
:10046000009021F0004123F00045B8EB0200A941C3
:1004700005D24046214690461C460B46024623F0D4
:100480000040104347D0270DC7F30A00C3F30A51B9
:100490000290401A019040286BDAC3F3130040F435
:1004A000801B0098924620B10023D2EB030A63EB35
:1004B0000B0B01985946C0F14002504600F0C8F9B4
:1004C00006460D4650465946019A00F0E0F910EBF9
:1004D00008006141002487EA115284EAE7731A4355
:1004E00040D0009A62B3019A012A4FEA075215DC04
:1004F000001B61EB02014FF0004202EA0752CDE916
:100500000042001C41F5801132462B4600F017FADC
:1005100003B0BDE8F08F40462146F9E7001B61EBD0
:100520000201001C41F5801300185B412018A2F560
:10053000001747EB030140EAD570B6196D4111E091
:100540006D084FEA360645EAC0754FEA0752001BB0
:1005500061EB0201001C41F5801149084FEA3000AF
:100560000019514132462B4603B0BDE8F04F00F070
:10057000D7B90098012240000023D0EB020263EBC0
:10058000E073009821464FEAE074B8EB000061EB9D
:100590000401E9E783F000435BE781F0004158E79D
:1005A0002DE9FE4F81EA030404F0004421F00041EC
:1005B00000944FF0000B23F0004350EA01045ED09A
:1005C00052EA03045BD0C3F30A54C1F30A552C4426
:1005D000A4F2F3340194A0FB0254C1F3130141F4DB
:1005E0008011C3F3130343F4801301FB024400FBA7
:1005F000034E840A970A44EA815447EA8357A4FBCE
:10060000076802958D0A05FB07854FEA932C04FBCA
:100610000C542705029D4FEA065847EA1637B5EBFA
:1006200008056EEB070C870E920E47EA811742EA27
:100630008312A7FB0201B6EB0B0164EB00042B0D48
:1006400043EA0C335E1844EB1C50DA465146E7FB94
:100650000201C5F313044FEA0B3343EA14534FEA84
:100660000432019C43EA0603A4F10C040294009CAA
:10067000CDE900B400F063F903B0BDE8F08F0020CD
:100680000146F9E72DE9F04D81EA030404F0004B3F
:1006900021F0004514464FF0000A23F0004150EAD3
:1006A000050220D054EA01021DD0C5F30A570246C4
:1006B000C5F31303C1F31300C1F30A5640F48015C8
:1006C00043F48013A7EB0608101BD64608F2FD384A
:1006D00073EB050002D308F1010801E092185B41B9
:1006E000B8F1000F03DA00200146BDE8F08D0020CC
:1006F0004FF48011064684460EE0171B73EB050786
:1007000005D3121B63EB050306434CEA010C4908B1
:100710004FEA300092185B4150EA0107EDD152EAEE
:10072000030012D082EA040083EA0501084305D0E1
:10073000101BAB4106D20122002306E000224FF03D
:10074000004302E06FF0010253101AEB06004CEB7D
:10075000085110EB0A0041EB0B01BDE8F04D00F031
:10076000DFB80EB5C10F80EAE0700844CA07002167
:1007700040F233438DE80E000A460B4600F0DFF8E6
:1007800003B000BD70B5C1F30A5201F0004500246A
:10079000C1F3130140F2FF3341F480119A4201DAB0
:1007A000002070BD40F233439A42A2F2334203DC90
:1007B000524200F05CF800E090402C43F1D04042FF
:1007C00070BD00F0004230F000400AD0C10D01F5CC
:1007D0006071C0F3160042EA0151C208400711439C
:1007E000704700200146704730B5041E71F10004C7
:1007F00004DB4FF00044404264EB0101141E73F12E
:10080000000405DB1C464FF00043524263EB040337
:10081000994208BF904230BD01F0004330B421F04E
:10082000004150EA010206D00A0DA2F56072C1F340
:100830001301002A02DC30BC00207047440F44EA58
:10084000C104C100E01830BC00EBC25000F031B868
:10085000202A04DB203A00FA02F100207047914080
:10086000C2F1200320FA03F3194390407047202A75
:1008700004DB203A21FA02F00021704721FA02F34A
:10088000D040C2F120029140084319467047202A07
:1008900006DBCB17203A41FA02F043EAE07306E0A8
:1008A00041FA02F3D040C2F12002914008431946B8
:1008B00070470029A8BF7047401C490008BF20F0BE
:1008C0000100704710B4B0FA80FC00FA0CF050EA56
:1008D000010404BF10BC704749B1CCF1200421FAD7
:1008E00004F411FA0CF118BF012121430843A3EBD2
:1008F0000C01CB1D4FEA00614FEA102042BF0020DF
:1009000010BC704700EBC35010440029A4BF10BCBA
:100910007047401C490008BF20F0010010BC704720
:1009200010B5141E73F1000408DA401C41F10001F7
:1009300092185B411A4301D120F0010010BD2DE94E
:10094000F04D92469B4611B1B1FA81F202E0B0FA45
:1009500080F220329046FFF77BFF04460F4640EAC4
:100960000A0041EA0B0153465A46084313D0114688
:1009700053EA010019D0C8F140025046FFF777FF53
:1009800005460E46504659464246FFF761FF08436A
:1009900005D0012004E020463946BDE8F08D002056
:1009A000054346EAE0762C4337430A986305E40A98
:1009B000A0EB08000022FD0A44EA47540A3002D5A1
:1009C00000200146E9E7010510196941DDE9084504
:1009D00000196941BDE8F04DA2E72DE9F04D002373
:1009E0001A461B1A8A4103DB00200146BDE8F08D40
:1009F000C1F30A52C1F3130141F480154FF0000B0B
:100A0000D10702D100186D41521E0027044640F262
:100A1000FF11384601EB620A3E468046024600203E
:100A20004FF48011FFF723FFC2197141BB1846EB49
:100A30000100B4EB030C75EB000C04D3E41A65EB76
:100A4000000517460E46241908F101006D41804645
:100A50003428E3DDF91946EB0600091BA84103D24F
:100A60004FF0FF32134601E0002213461BEB070054
:100A700046EB0A51BDE8F04DFFF752BF064C074D5B
:100A800006E0E06840F0010394E80700984710345E
:100A9000AC42F6D3FFF78EFB848A0008A48A0008D4
:100AA0000EB540F2334102910021CDE900110A4612
:100AB0000B46FFF744FF03B000BD30B58C1810F8AB
:100AC000012B12F00F0301D110F8013B120906D1DE
:100AD00010F8012B03E010F8015B01F8015B5B1ECD
:100AE000F9D101E001F8013B521EFBD1A142E6D34E
:100AF000002030BDFEE70000014800F0E8BE000025
:100B000034040020014800F0E2BE00005C04002034
:100B100000B587B000910021029103910821049152
:100B20000649884201D1012303E00549884203D1E7
:100B30000223694600F06CFD07B000BD34040020BC
:100B40005C0400201048012101706621416000F121
:100B500010010A88130A037242720C4A12788272D8
:100B60000A79CB7842EA0312C2720A89130A037324
:100B70004273C98800230A0A8273C173014604487C
:100B80000322006807F098BAFC440020B50000205A
:100B90009C00002010B5044610488AB0844202D15F
:100BA0000021084604E00E48844215D10E210120A0
:100BB000059100210122CDE90612009101910291D7
:100BC000CDE903100E20CDE908206946204600F04B
:100BD00083FD204601F024F90AB010BD3404002042
:100BE0005C0400200549884201D1022103E0044948
:100BF000884202D1102100F0F9BC70473404002073
:100C00005C040020014801F083B900003C0600208C
:100C1000014801F07DB90000DC050020014801F029
:100C200077B90000FC060020014801F071B900000E
:100C30009C060020014801F06BB900005C07002011
:100C400001681823CAB2103AB2FBF3F2054B6FF3F6
:100C50000901032A9B5CC36500D9091D816508460B
:100C6000704700003088000810B5014600208B69ED
:100C70008A6A4FF0C07453B1B3F5005F15D072B1FA
:100C8000012A0CD0022A0AD0032A09D104E01AB1A1
:100C9000012A06D0022A03D1C96AC90100D5012060
:100CA00010BDC96AA142FAD010BD002AF7D0012AAE
:100CB000F2D0022AF3D0032AF3D010BD10B5046895
:100CC00063608368402B036803D099600068C2604A
:100CD00010BD9A600068C16010BD30B50468256819
:100CE00025F480252560046863608368402B0368D1
:100CF00003D099600068C26030BD9A600068C1602E
:100D000030BD70477047000009490020097849B19B
:100D1000012902D0022903D004E041F27C5001E015
:100D200041F61460034948804042488570470000FE
:100D3000B60000208045002041B1012908D00229D9
:100D40000DD003290DD04FF480607047408800E03B
:100D50008088A0F2F731122905D800207047C0889A
:100D6000F7E70089F5E7A0F5806000B2704719B198
:100D7000012903D003207047C07A7047807A7047FA
:100D80002DE9F05FD74D04462DED048B0E462878F3
:100D9000DFF8549328B199ED0C0A401E84ED010A46
:100DA0002870D248DFF848A30078DFEDD29ADFF848
:100DB00048B39FEDD29AD24F9FEDD28A022810D02D
:100DC000012870D1D0480122DFF84083807BDFED1D
:100DD000D08A012868D0042865D1286900287DD0F0
:100DE000E9E0C04D02212435CA4895ED010A85EDA0
:100DF000000AFFF7A1FFDFEDC88A3230642815D959
:100E00000221C448FFF798FFFFF7ABFC9FEDC31B1F
:100E100053EC112BFFF7C4FB9FEDC21B53EC112BBE
:100E2000FFF730FCFFF7F8FC686001E0C5ED018AD0
:100E300095EC020A03F062FA85ED010AD4ED010A8D
:100E400030EE800A02E000BF30EE480A10EE100AD1
:100E500084ED010AB842F7DA04E000BF30EE080A78
:100E600084ED010AB5EEC00AF1EE10FAF6D39D4CFE
:100E700003211C34A74894ED010A84ED000AFFF712
:100E80005BFF3230642810D90321A248FFF754FFDA
:100E900000EE100AB8EEC00ADFEDA40A80EE201AB8
:100EA00084ED011A03E020E023E0C4ED018A94EC14
:100EB000020A03F023FA84ED010AD6ED010A30EEAE
:100EC000C00A10EE100A86ED010A504501DDB0EEB1
:100ED000690A86ED010A10EE100A00E068E0584544
:100EE00001DBB0EE409A86ED019ABDEC048BBDE8C3
:100EF000F09F8F4800214FF4B4730170B8F91600C9
:100F0000DFF830C2A0F66420584300EE100AF8EE75
:100F1000C00A80EEA80A10EE103A634500DBAA7002
:100F200000EE100AF8EEC00A80EEA80A10EE102AB1
:100F3000DFED810A9FED810A6A484078401CC0B20B
:100F4000B2F1824F01DCA9700FE0A978012901D02C
:100F500059B117E094ED011A71EE200AC4ED010AAF
:100F6000D6ED010A30EEC00A09E094ED011A71EEE7
:100F7000200AC4ED010AD6ED010A30EE800A86EDA2
:100F8000010A687094ED010A10EE100AB84209DDFA
:100F900030EE480A84ED010AF6E700BF30EE080A99
:100FA00084ED010AB5EEC00AF1EE10FAF6D39CE723
:100FB0002A6104F0D1F8624890ED001AB1EE410ABE
:100FC00002E000BF30EE480A10EE100A84ED010A7C
:100FD000B842F7DC04E000BF30EE080A84ED010AF5
:100FE000B5EEC00AF1EE10FAF6D35648D0ED000A7D
:100FF00010EE900AC6ED010A504502DDB0EE690A16
:1010000001E0B0EE600A10EE100A86ED010A5845C4
:1010100001DBB0EE409AB2EE040A86ED019A60EE72
:10102000800A4FF4B471FDEEE00A10EE900A61EE12
:10103000000AA881FDEEE00A10EE900AE881B8F9F6
:101040001600A0F66420484300EE900A3E49B8EE30
:10105000E01AC1EE280A10EE902A00EE900A8A42A9
:10106000F8EEE00A80EEA81A09DD71EE480AFDEEFE
:10107000E00A10EE900A00EB8000400005E061EE0F
:10108000000AFDEEE00A10EE900AA880D9ED0C0AE5
:1010900010EE900A884209DD70EEC80AFDEEE00A03
:1010A00010EE900A00EB8000400005E060EE800A40
:1010B000FDEEE00A10EE900AE8802448D0ED000A28
:1010C00060EE800AFDEEE00A10EE900A28812048CA
:1010D000D0ED000A20EE800ABDEEC00A10EE100A24
:1010E000688102E7BC000020A4010020B5000020B8
:1010F0008C8F31428C8F314246C5A84046C5A840EE
:101100000000B4430000B443F0490020F84500203B
:1011100000F8FF452445002000000000000000000A
:101120000000E03F0000000000A0844000002544D3
:10113000B700002000001C42CDCC4C3F14AE473F0E
:101140002C0100202801002000003443FC00002076
:10115000000100202DE9F05FDFF82083DFF8209305
:101160000C002DED068B05469FEDC6AADFF818A3EF
:10117000DFEDC68ADFF818B39FEDC68AC64F9FED34
:10118000C79AC74EDFEDC79A7ED094ED112AC649A3
:1011900084ED122A4FF4B472B1F91600A0F664205F
:1011A000504300EE100AF8EEC00ADFEDC01A80EEE0
:1011B000A10A84ED030AD4ED010A30EEC00A10EE54
:1011C000100A84ED110A404501DD30EE690A10EE87
:1011D000100A84ED110A484501D930EE290A10EEB3
:1011E000100A84ED110A10F17D5F0BD210EE100A87
:1011F000AF4A904206DAD4ED130A70EE800AC4EDCD
:10120000130A03E084ED13AAF0EE4A0A10EE900AE6
:10121000504501DDF0EE680A10EE900AC4ED130AA5
:10122000584501D9F0EE480AC4ED130A94ED0E1AA0
:10123000D4ED0F2A21EE001A30EE420A02EEA01A77
:10124000D4ED100A00EE801A84ED141A84ED021A0F
:1012500094ED0A0A84ED0B0A97ED040ADFED950A76
:10126000954A00EE601A84ED0A1A94ED0C0A30EEED
:10127000010A10EE100A84ED0C0A904201DD9FED88
:101280008F0A84ED0C0A00E04AE010EE100A8C4A46
:10129000904201D99FED8B0A84ED0C0AB1F916003A
:1012A0004FF4B471A0F66420484300EE100AF8EE43
:1012B000C00A80EEA10A02F061FE00EE100AD4ED31
:1012C000070AD4ED081AB8EEC01A94ED0A0A94ED94
:1012D0000C2A7D4960EE800A41EE820AD4ED0B1A99
:1012E00030EE610AD4ED091A41EE800A31EE200A8F
:1012F00010EE100A84ED0D0A884202DDF0EE490A74
:1013000001E0F0EE400A10EE101AFDEEE00A6F4A1E
:1013100010EE900A914200B2A08200D93046A0821D
:10132000002D7CD095ED111A85ED121A97ED0C0A5F
:1013300085ED030A95ED010AD7ED0C0A30EE200A7F
:1013400010EE100A85ED110A404501DD30EE690A04
:1013500010EE100A85ED110A484501D930EE290A30
:1013600085ED110AFDEEC00A10EE900A002800DAA1
:1013700040420F2806DAD5ED130A70EE800AC5ED5B
:10138000130A03E085ED13AAF0EE4A0A10EE900A64
:10139000504501DCF0EE608A18EE900AC5ED138A24
:1013A000584501D8B0EE688A85ED138AD5ED0E0A4E
:1013B000D5ED0F1A464960EE800A30EE410A95EDF0
:1013C000101A41EE880A41EE000AC5ED140AC5ED77
:1013D000020A95ED0A1A85ED0B1AB5F9100000EE18
:1013E000100AB8EEC00A70EEC00AC5ED0A0A95ED03
:1013F0000C0A30EE200A10EE100A85ED0C0A884225
:1014000001DD9FED340A344910EE100A85ED0C0A17
:10141000884201D99FED310A85ED0C0A00E023E0F6
:10142000D5ED071A284921EEA08AD5ED081A01EE5C
:10143000808A30EEC10AD5ED090A00EE808A18EEE6
:10144000100A85ED0D8A884201DCB0EE489A18EE4C
:10145000101ABDEEC90A1D4A10EE100A914200B2E0
:10146000A88200D80646AE821D480078002801D127
:10147000A882A082BDEC068BBDE8F09F000034433B
:10148000000034C30000000000409C4500409C4523
:1014900000409CC500409CC5A401002000C0DA4665
:1014A000A092FFFF0000B443F845002000F8FF457C
:1014B0000000C040333365420050C3460050C3466D
:1014C0000050C3C60050C3C600C0DA4600C0DAC62A
:1014D0000000FA440000FA440000FAC40000FAC414
:1014E000B50000201FB502218DF8001040F2FF1159
:1014F000019100218DF808108DF80910020A8DF86D
:101500000A208DF80B00044803910B46032269461C
:10151000006806F0D1FD1FBD9C0000201FB5012210
:101520008DF8002040F2FF120192020A8DF8082087
:101530008DF8090000200A0A8DF80C208DF80D1096
:101540008DF80A008DF80E008DF80B008DF80F0055
:101550000346034803226946006806F0ADFD1FBD3F
:101560009C0000201B489FED1A0ADFED1C0A80ED4D
:10157000070A9FED190A80ED080AB1EE0C0A80ED0A
:10158000090AB3EE000A80ED0E0AC0ED0F0AF1EE73
:10159000000AC0ED100ADFED120A5438C0ED070A48
:1015A000DFED100AC0ED080AF2EE000AC0ED090AEC
:1015B00080ED0E0A9FED0C0A80ED0F0AB2EE080ACC
:1015C00080ED100AB3EE040A80ED010A70470000B6
:1015D000000070424C460020000000008FC2F53C25
:1015E00000002A436666E63EEC51B83D90F82020A4
:1015F000012A07D0022A05D0416A41F480214162C4
:1016000001207047006842690A4342610020704728
:10161000F0B590F820500468A468012D05D0022D83
:1016200003D0416A41F4802153E014F0406F01D1AE
:10163000E5004BD5C4F30164022C03D9416A41F49F
:10164000000146E00125A5401D608D684FF4C07380
:101650009DB1CE6835434E6845EAC605066803EB82
:101660000417F5514FF4C275076805EB04150E69B0
:101670007E51097D012905D009E00E88CD6845EA33
:101680004655EBE701684E5946F480764E51117984
:10169000D2F805504FF4C67641EA0525016806EBFD
:1016A00004168D511178D2F801204FF4C47541EA27
:1016B0000221026805EB04155151006803EB041187
:1016C000425842F0010242500020F0BD416A41F40C
:1016D000001141620120F0BD10B590F82020012AD0
:1016E00007D0022A05D0416A41F4802141620120DD
:1016F00010BD3B48D0F8002242F00102C0F80022A1
:10170000D0F8002222F47C52C0F80022D0F8002247
:101710004B6A42EA0322C0F800220A7D02F01F034E
:1017200001229A40D0F81C329343C0F81C32CB6996
:10173000B3B9D0F80C329343C0F80C328C894B68A3
:1017400064F31F434C6900EBC404C4F840320C89B5
:101750000B6864F31F434C6900EBC404C4F84432C3
:10176000CB69012B16D1D0F80C321343C0F80C32E0
:101770000C884B6864F31F434C6900EBC404C4F845
:1017800040320C89CB6864F31F434C6900EBC404FE
:10179000C4F844328B69002BD0F804320ED01343C6
:1017A000C0F804320B69002BD0F8143208D0134370
:1017B000C0F81432096A012904D008E09343EFE726
:1017C0009343F5E7D0F81C121143C0F81C12D0F86F
:1017D000001221F00101C0F80012002010BD00002D
:1017E00000640040704730B590F82040012C05D0CF
:1017F000022C03D0416A41F480215DE00468002995
:1018000055D02469A40754D04FF4D874056804EB6C
:1018100001142D5915F00405956005682D594ED019
:10182000ED08556005682C5904F00204D4604FF4AB
:10183000DA74056804EB01142D5905F00F051561E4
:1018400005682D59C5F30725956105682C59240CA9
:1018500054614FF4DC72046802EB0112A4581C704E
:101860000468A458240A5C700468A458240C9C7072
:101870000468A258120EDA704FF4DE72046802EBAC
:101880000112A4581C710468A458240A5C710468ED
:10189000A458240C9C710468A258120EDA710068D6
:1018A00081B1016941F020010161002030BDE4688F
:1018B000A8E7416A41F400114162012030BD6D0D7D
:1018C0001560AFE7C16841F02001C160EDE72DE987
:1018D000F05F0546006800244669D0F804908768E8
:1018E000D0F80CB0D0F810A0D0F81880F10748D08C
:1018F000F90714D001218160B80703D5284600F00C
:10190000BCFA0CE0780702D54FF4006407E0380712
:1019100002D54FF4805402E0284600F0ADFAF805F5
:1019200016D529684FF480708860B80503D528461D
:1019300000F0A5FA0CE0780502D544F4005407E065
:10194000380502D544F4804402E0284600F096FAB7
:10195000F80316D529684FF480308860B80303D5A2
:10196000284600F08EFA0CE0780302D544F40044D7
:1019700007E0380302D544F4803402E0284600F042
:101980007FFA300707D55FEACB6004D529681020BD
:1019900044F40074C86070074FF0080707D55FEA89
:1019A0000B7004D52868C760284600F099F9B00785
:1019B00006D52868C068800702D0284600F092F952
:1019C000700607D55FEACA6004D52968102044F480
:1019D00080640861B00607D55FEA0A7004D52868FC
:1019E0000761284600F0CEF9F00606D528680069A0
:1019F000800702D0284600F0C7F9B00308D55FEA97
:101A0000C96005D5296810204860284600F006FA0C
:101A1000F00307D55FEA097004D5286847602846B7
:101A200000F030FA300446D55FEA497040D5F00541
:101A300004D55FEAC87001D044F00104B00504D5B4
:101A40005FEA887001D544F00204700504D55FEAAE
:101A5000487001D544F00404300529D518F0700F02
:101A600026D008F07000402815D006DC102809D0D8
:101A700020280AD0302816D10AE050280ED060283D
:101A800011D10EE044F008040DE044F010040AE027
:101A900044F0200407E044F0400404E044F08004F3
:101AA00001E044F480742868816921F0700181614B
:101AB000296804204860002C05D0686A20436862C9
:101AC0002846FFF78FFEBDE8F09F70B5040003D0F5
:101AD00094F8200010B104E0012070BD204600F011
:101AE00081F82068016821F00201016000F08AFCA1
:101AF0000546052604E000F085FC401B0A2811D8A5
:101B0000206840688007F6D42068016841F0010130
:101B1000016000F077FC05460BE000F073FC401B11
:101B20000A2806D9606A40F40030606284F82060B8
:101B3000D2E720684068C007EFD0207E01282068E7
:101B400001683DD021F080010160607E012820689D
:101B5000016838D021F040010160A07E0128206892
:101B6000016833D021F020010160E07E0128206867
:101B700001682ED041F010010160207F012820680B
:101B8000016829D021F008010160607F01282068E8
:101B9000016824D021F004010160D4E90201084366
:101BA000D4E90412114308436168491E08432168BF
:101BB000C86100206062012084F82000002070BD10
:101BC00041F08001C0E741F04001C5E741F020014C
:101BD000CAE721F01001CFE741F00801D4E741F056
:101BE0000401D9E7F0B587B0044614216846FEF732
:101BF00025FC364B3648DFF8D0E01968D4F800C031
:101C0000334A03250226092710300024491CF445D5
:101C100022D11960012907D1016841F000710160EA
:101C2000006800F000700590106840F00800106037
:101C30001068CDE9005600F00800CDE9047069464F
:101C40002448CDE9024500F0E7FA002205211420DE
:101C500000F060FC142033E0DFF87CE0F44531D183
:101C6000D0F800C04CF0806CC0F800C0D0F800C0C4
:101C700001290CF0806CCDF814C0196007D10168FF
:101C800041F000710160006800F00070059010687C
:101C900040F002001060106802AB00F002000590F6
:101CA0004FF44050CDE9000683E8B00069460B4888
:101CB00000F0B2FA00220521412000F02BFC412067
:101CC00000F01AFC07B0F0BD0064004004000020E2
:101CD00030380240000C024000680040000402401E
:101CE0007047000000B589B007AB6A460021214863
:101CF000FFF779FD0098B0F5017F16D017DC692851
:101D000013D11D489DF81C10C1709DF81E108170E4
:101D1000BDF81F1049BA81809DF8211081719DF88E
:101D2000221001739DF82310017209B000BDA0F5C7
:101D3000007005380ED00228F7D110480188491CE0
:101D40000180BDF81C1049BAC180BDF81E1049BA07
:101D50004180EAE70A480188491C0180BDF81C104F
:101D600049BAC182BDF81E1049BA01829DF82210FD
:101D70000176DAE73404002016450020D045002023
:101D80004C4600207047000000B589B007AB6A469A
:101D900001211F48FFF727FD00991E48A1F20121EC
:101DA000062913D2DFE801F003141212122401896C
:101DB000491C0181BDF81C1049BA0180BDF81E10F4
:101DC00049BA8180BDF8201049BAC18009B000BD70
:101DD000018E491C0186BDF81C1049BA0185BDF869
:101DE0001E1049BA8185BDF8201049BAC185EDE7BA
:101DF00009480188491C0180BDF81C1049BAC182FC
:101E0000BDF81E1049BA01829DF822100176DDE767
:101E10005C04002080450020F84500207047000049
:101E200070B5044690F82000012804D0606A40F4A0
:101E30000020606218E0022084F820002068016819
:101E400021F00101016000F0DDFA05460EE000BF5F
:101E500000F0D8FA401B0A2808D9606A40F4003024
:101E60006062052084F82000012070BD2068406871
:101E7000C007EDD1606270BD704770477047704712
:101E80007047704770472DE9F0410446806800258F
:101E9000069E80280ED094F8340001280FD001202F
:101EA00084F8340094F8350001280AD00225284629
:101EB000BDE8F0814FF4807060650125F7E70220EE
:101EC000F6E7022084F835002068076847F4802789
:101ED00007602068036133462046FEF7EFFE206866
:101EE000016841F001010160E1E790F83510022935
:101EF00003D08021416501207047052180F835100D
:101F00000068016821F001010160002070470000B5
:101F10002DE9F84304464FF00009CDF800906348DE
:101F20004FF41651A56D0068B0FBF1F72E6894F8D8
:101F30005C10082000FA01F131420FD021680A68D4
:101F400052070BD50A6822F004020A6094F85C106C
:101F50008840A860606D40F00100606594F85C10F6
:101F60004FF0010808FA01F0304208D021684969B1
:101F7000090604D5A860606D40F00200606594F821
:101F80005C1004208840304208D021680968890725
:101F900004D5A860606D40F00400606594F85C10A2
:101FA00010208840304218D021680968090714D5EC
:101FB000A86020680168490304D50068000308D5BB
:101FC000A16C07E00168C90503D4016821F008018C
:101FD0000160216C09B12046884794F85C102020EC
:101FE0008840304231D021680968C9062DD5A860E3
:101FF00094F8350005282068016806D0490347D5C4
:10200000006800031DD4616C1CE021F01601016022
:102010002068416921F080014161206C08B9A06C01
:1020200020B12068016821F00801016094F85C107B
:102030003F208840A86084F8349084F83580216D72
:102040001FE0E16B09B120468847606D00282BD066
:10205000606DC00714D0052084F835002068016841
:1020600021F0010101600098401C0090B84203D8A3
:1020700020680068C007F6D184F8349084F8358071
:10208000E16C002910D001B02046BDE8F0430847BC
:102090000168C905D5D4016821F01001016084F8F8
:1020A000349084F83580CCE7BDE8F8831400002034
:1020B0002DE9F041044600F0A5F906465CB1002583
:1020C00084F83450022084F835002068016821F03B
:1020D000010101600DE00120BDE8F08100F092F9FE
:1020E000801B052805D920206065032084F8350071
:1020F000F2E720680068C007F0D122681168204824
:102100000140D4E901031843D4E9033633431843AB
:1021100063691843A3691843E3691843236A1843A2
:102120000843616A042903D1D4E90B131943084316
:10213000106020684069666A20F0070130460E434F
:10214000012704280CD1A06A0643E06A40B120466A
:10215000FEF78AFD20B14020606584F83570BAE74B
:10216000206846612046FEF76BFD94F85C203F2115
:1021700091408160656584F835700020ACE700000F
:102180003F8010F02DE9F0410446866D90F8340050
:10219000002501280DD0012084F8340094F8357012
:1021A0000020012F07D084F8340002252846BDE81E
:1021B000F0810220FBE7022784F835706065204635
:1021C000FEF78BFD94F85C103F208840B0602068DB
:1021D000016841F016010160206C20B1206801689F
:1021E00041F0080101602068016841F001010160CF
:1021F000DCE7000070B5044600F004F90546601CF9
:1022000002D004480078044400F0FCF8401BA042CF
:10221000FAD370BD080000202DE9F84F00224FF0DE
:10222000010803254FF00F0E0B6808FA02F4234053
:10223000A3426ED14E68012E05D0022E03D0112E7E
:1022400001D0122E12D186684FEA420C05FA0CF723
:10225000BE43CF6807FA0CF7374387604668A6434A
:102260000C79C4F30014944034434460C6685700AA
:1022700005FA07FC8C6826EA0C06BC403443C460AF
:102280004C68022C01D0122C13D1D40800EB84042A
:10229000A346D4F8209054074FEAD46A0EFA0AF6FF
:1022A00029EA06090E6906FA0AF646EA0906CBF893
:1022B000206004680E7924EA0C0406F00306BE4090
:1022C000264306604C68E4006FD53B4C266846F414
:1022D00080462660246822F0030604F480440094BB
:1022E000364C3444A446D4F808489607360F0EFA04
:1022F00006F7BC43324FB84201D100272EE0314FE0
:10230000B84201D1012729E02F4FB84202D102275C
:1023100024E04AE02D4FB84201D103271EE02C4FA4
:10232000B84201D1042719E02A4FB84201D105274C
:1023300014E0294FB84201D106270FE0274FB842D9
:1023400001D107270AE0264FB84201D1082705E04E
:10235000244FB84201D1092700E00A27B74027439C
:10236000CCF80878204E34684F689C43FF0300D5B2
:102370001C4334601C4E361D34684F689C43BF03B9
:1023800000D51C433460184E083634684F689C43AF
:10239000FF0200D51C433460134E0C3634684F687E
:1023A0009C43BF0200D51C433460521C102AFFF42A
:1023B0003BAFBDE8F88F00004438024000300140D8
:1023C000000002400004024000080240000C0240ED
:1023D000001002400014024000180240001C02409D
:1023E0000020024000240240003C0140426931EAE2
:1023F000020200D10904816170470AB1816170470E
:102400000904FBE7014880687047000008000020CD
:1024100002488168027811448160704708000020FA
:102420000B4810B5016841F400710160016841F486
:1024300080610160016841F480710160032000F057
:1024400089F8002000F006F800F03EF8002010BDEA
:10245000003C024010B5014688B000221C2000F06C
:1024600059F81C2000F048F814480024016841F095
:1024700001010160006805A900F0010006906846AE
:1024800000F014F900F032F90D494000B0FBF1F111
:102490000C484FF08042491E026040F2E732C0E92A
:1024A0000324C0E9011400F0D3FC10B1012008B0EE
:1024B00010BD044800F0E8FCF9E700004038024095
:1024C00040420F00BC0700200A4808B5016841F4EB
:1024D00080410160006800F4804000900548001FC2
:1024E000016841F080510160006800F08050009068
:1024F00008BD000044380240002809DB00F01F023C
:10250000012191404009800000F1E020C0F8001155
:1025100070470000F0B40E4B1B680C46C3F3022357
:10252000C3F10705042D00D90425191D072901D27F
:10253000002300E0DB1E012606FA05F1491E2140BA
:1025400099409E40761E16403143F0BC02F06ABEB0
:102550000CED00E0064900F0070208684FF6FF03A3
:10256000184040EA0220034A104308607047000008
:102570000CED00E00000FA052DE9F0470E460500DD
:1025800065D0DFF81481D8F80000F7B200F00F0032
:10259000B04207D288F80070D8F8000000F00F00B1
:1025A000B04254D128683D4C810712D5400703D56D
:1025B000206840F4E05020602878000703D52068A8
:1025C00040F4604020602068A96820F0F0000843D3
:1025D00020602878C0072DD0304968680839012864
:1025E00012D0022813D0032811D0096889070029C6
:1025F0002DDA216821F0030101432160FFF702FF7A
:10260000814641F2883A0EE009688903EFE70968DC
:102610008901ECE7FFF7F6FEA0EB0901514502D96D
:102620000320BDE8F0872068696800F00C00B0EB7B
:10263000810FEFD1D8F80010404601F00F01B142F0
:1026400007D90770006800F00F00B04201D00120E8
:10265000E7E72878400705D52068E96820F4E050CE
:10266000084320602878000706D52068296920F4EF
:10267000604040EAC100206000F058F82168084A34
:10268000C1F30311515CC840064908600648006860
:10269000FFF7E0FE0020C4E7003C0240083802409B
:1026A00038880008140000200C0000200F2202606F
:1026B0000C4A136803F003034360136803F0F0034C
:1026C0008360136803F4E053C36012684FF4E0536F
:1026D00003EAD20202610448006800F00F000860BB
:1026E0007047000008380240003C02400448054999
:1026F00000680968044AC1F38221515CC8407047F0
:1027000014000020083802404888000804480549A1
:1027100000680968044AC1F34231515CC8407047FF
:10272000140000200838024048880008154810B5F9
:10273000006810F00C02144813D01449042A0FD07A
:10274000082A0ED10F4C241F2268236802F03F0292
:102750005B0207D52068C0F38810A0FB010106E0EA
:10276000084610BD2168C1F38811A1FB00010023B8
:10277000FDF71AFE2168C1F30141491C4900B0FB75
:10278000F1F010BD083802400024F400001BB7002F
:102790002DE9F84F04006ED02078DFF83C93C00795
:1027A000A9F104054AD009F104000168C1F38101CF
:1027B000012908D00068C0F3810002280AD1D9F8A5
:1027C0000000400206D52868800337D560680028DD
:1027D000E1D033E06068B0F5803F10D0B0F5A02FB5
:1027E000286810D020F480302860286820F48020E9
:1027F00028606068A8B1FFF705FE06460DE028686E
:1028000040F48030F4E740F480202860F7E700BF10
:10281000FFF7F8FD801B642873D828688003F7D57C
:102820000CE0FFF7EFFD064605E000BFFFF7EAFD0D
:10283000801B6428F0D828688003F7D42078DFF85C
:102840009C8280074FF0000A3ED5A348001D016816
:1028500011F00C0F08D00068C0F3810002280BD1E2
:10286000D9F80000400207D42868800716D5E06830
:10287000012800D112E02BE1E068B8B10120C8F8CE
:102880000000FFF7BFFD064605E000BFFFF7BAFDF9
:10289000801B0228C0D828688007F7D528682169DE
:1028A00020F0F80040EAC10028600DE0C8F800A060
:1028B000FFF7A8FD064604E0FFF7A4FD801B0228F1
:1028C0001FD828688007F7D42078000722D5824EC9
:1028D00083486169703671B101210160FFF792FD93
:1028E000074604E0FFF78EFDC01B022809D83068B8
:1028F0008007F7D50EE0C0F800A0FFF783FD07467C
:1029000005E082E0FFF77EFDC01B02287DD830681D
:102910008007F7D42078400768D5DFF8BCB10027DE
:102920000BF13C0BDBF80000C0000BD4DBF800100F
:1029300041F08051CBF80010DBF80000012700F0D7
:1029400080500090674E3068C00510D4306840F465
:1029500080703060FFF756FD009005E0FFF752FDF4
:102960000099401A022850D83068C005F6D55A4E52
:10297000A0686C3601280FD00528306810D020F0F0
:1029800001003060306820F004003060A068B8B109
:10299000FFF738FD00900FE0306840F00100F4E7E9
:1029A00040F004003060F7E7FFF72CFD0099411A72
:1029B00041F28830814266D830688007F4D50EE055
:1029C000FFF720FD009007E0FFF71CFD0099411A7A
:1029D00041F28830814256D830688007F4D42FB154
:1029E000DBF8001021F08051CBF80010A069C8B3CB
:1029F0003949091D0968C1F3810102294AD0022819
:102A0000504607D0C8F8600000E03CE0FFF7FAFC51
:102A100004463BE04746C8F86000FFF7F3FC064673
:102A200005E000BFFFF7EEFC801B02282BD82868CA
:102A30008001F7D4D4E907010843A16A2A4A49086A
:102A400002EB0141626A41EA8211084394F82C10BA
:102A500040EA0161C9F8001001203866FFF7D2FC96
:102A6000044606E036E000BFFFF7CCFC001B02285E
:102A700009D828688001F7D52CE000BFFFF7C2FC19
:102A8000001B022802D90320BDE8F88F28688001C6
:102A9000F4D41FE00128F7D0D9F80000E26900F46F
:102AA0008001914214D1226A00F03F0191420FD17E
:102AB00047F6C071626A0140914209D1A26A00F4EE
:102AC0004031914204D1E16A00F07060884201D047
:102AD0000120D9E70020D7E7043802400000474230
:102AE000800E4742007000400000FFFF70B50400F8
:102AF00005D00025A56294F8510010B106E0012030
:102B000070BD84F85050204600F030F8022084F860
:102B100051002068016821F040010160D4E9010101
:102B20000843D4E903121143084361690843218B28
:102B300001F400710843E1690843216A0843A16A6E
:102B4000084321680860A069042101EA1040616A15
:102B50000843216848602068C16921F40061C161AF
:102B60006565012084F85100002070BD10B586B065
:102B7000044614216846FDF761FC14492068884228
:102B800021D113480021026842F4801202600068DB
:102B900000F4801005900E481438026842F02002BC
:102BA0000260006800F0200005904FF46070009013
:102BB0000220CDE90101032003900520049069461D
:102BC0000448FFF729FB06B010BD0000005001408B
:102BD00044380240001402402DE9F84F044690F8B2
:102BE000500000270A9E1D4692468B464FF0010971
:102BF00001280ED0012084F85000FFF703FC804626
:102C000094F85100616801280CD0B1F5827F07D19A
:102C100002E00220BDE8F88FA16809B9042801D0BC
:102C20000227C2E0BBF1000F27D0BAF1000F24D079
:102C30001DB394F85100042802D0052084F85100F7
:102C400000206065C4F838A0E587A587C4F830B0D7
:102C5000E586A5862064606420680168490603D47F
:102C6000016841F040010160E068B0F5006F606804
:102C700005D0E8B3012D46D07FE0012795E008B1EB
:102C8000012D39D1206B21680088C860206B801C21
:102C90002063E08E401EE0862EE020688168890770
:102CA0000FD5E18E69B1B9F1010F0AD1216B098805
:102CB000C160206B801C2063E08E401EE0864FF0D8
:102CC000000920688168C9070CD0E18F51B1C06844
:102CD000A16B0880A06B801CA063E08F401EE08782
:102CE0004FF00109FFF78EFBA0EB0800B04200E0B7
:102CF00009E001D3701C50D1E08E0028CDD1E08FC7
:102D00000028CAD13FE0206B216800780873206B4F
:102D1000401C2063E08E401EE0862EE02068816823
:102D200089070FD5E18E69B1B9F1010F0AD1216B85
:102D300009780173206B401C2063E08E401EE08602
:102D40004FF0000920688168C9070CD0E18F51B1AC
:102D5000C068A16B0870A06B401CA063E08F401E90
:102D6000E0874FF00109FFF74DFBA0EB0800B042F0
:102D700002D3701C01D010E07EB1E08E0028CDD1CE
:102D8000E08F0028CAD142463146204601F000FAC1
:102D900028B101272020606507E0032705E0A0682F
:102DA00018B92068C16880680090012084F851003B
:102DB000002084F8500038462CE770477047000028
:102DC00070B590F83C20012A32D0012480F83C40B4
:102DD000022280F83D2003685A689D6822F0700640
:102DE0000A6832435A60134B02689A4214D0B2F117
:102DF000804F11D0104B9A420ED0104B9A420BD0FC
:102E00000F4B9A4208D00F4B9A4205D00E4B9A4274
:102E100002D00E4B9A4204D1496825F08003194331
:102E2000916080F83D40002180F83C10084670BD5C
:102E3000022070BD00000140000400400008004076
:102E4000000C004000040140004001400018004018
:102E500010B5040003D094F83D0010B107E0012044
:102E600010BD002084F83C00204600F00CF8022041
:102E700084F83D00211D206801F064FC012084F8E5
:102E80003D00002010BD70470168CA6842F0010291
:102E9000CA600068816801F00701062903D0016853
:102EA00041F00101016000207047704770B5044691
:102EB000006801694FF00005C943890715D4C1684E
:102EC000C943890711D4E91E0161012020772068D8
:102ED00080698007204602D0FFF7E7FF04E000F09A
:102EE000C1F8204600F056F9257720680169C943EA
:102EF000490717D4C168C943490713D46FF00401C7
:102F00000161022020772068806910F4407F20460C
:102F100002D0FFF7CAFF04E000F0A4F8204600F05A
:102F200039F9257720680169C943090716D4C168B2
:102F3000C943090712D46FF008010161042020770A
:102F40002068C0698007204602D0FFF7AEFF04E08A
:102F500000F088F8204600F01DF925772068016907
:102F6000C943C90617D4C168C943C90613D46FF051
:102F700010010161082020772068C06910F4407FAB
:102F8000204602D0FFF791FF04E000F06BF82046E6
:102F900000F000F9257720680169C943C90708D105
:102FA000C168C943C90704D1891E0161204600F0E8
:102FB00015F920680169C943090609D4C168C943E4
:102FC000090605D46FF0800101612046FFF7F5FE88
:102FD00020680169C943490609D4C168C943490643
:102FE00005D46FF040010161204600F0FEF8206832
:102FF0000169C94389060BD4C168C943890607D44E
:103000006FF0200101612046BDE87040FFF7D6BE99
:1030100070BD000010B586B0044614216846FDF767
:103020000DFA0D492068884214D10C48002102682D
:1030300042F002020260006800F0020005902020C9
:1030400000900220CDE90101CDE903106946044852
:10305000FFF7E2F806B010BD00040040303802402F
:1030600000040240704770B5044690F83C000D46DD
:1030700001280DD0012684F83C60022084F83D0030
:1030800042B1042A18D0082A2AD00C2A4DD139E09E
:10309000022070BD206801F0C7FB2068816941F003
:1030A000080181612068816921F004018161206843
:1030B00081692A69114311E0206801F0E5FB20686D
:1030C000816941F4006181612068816921F4806136
:1030D0008161206881692A6941EA0221816124E0D5
:1030E000206801F007FC2068C16941F00801C16156
:1030F0002068C16921F00401C1612068C1692A69A1
:10310000114311E0206801F029FC2068C16941F4F5
:103110000061C1612068C16921F48061C1612068DA
:10312000C1692A6941EA0221C16184F83D60002039
:1031300084F83C0070BD10B5040003D094F83D0045
:1031400010B107E0012010BD002084F83C002046AB
:1031500000F00CF8022084F83D00211D206801F0E9
:10316000F1FA012084F83D00002010BD08B5006888
:103170000649884208D10648016841F00201016011
:10318000006800F00200009008BD0000000400404C
:10319000403802407047000010B504460068012224
:1031A00001F034FB0B492068884202D00A4988426A
:1031B00003D1416C41F4004141642068816801F011
:1031C0000701062903D0016841F0010101600020D8
:1031D00010BD000000000140000401400068B0F193
:1031E000804F01D1FFF714B9704770477047000056
:1031F00070B5026804461068D168536910F00F0F6B
:1032000052D003F0010501F490762E435FD0C2073F
:1032100005D0CA0503D5E26B42F00102E263420722
:1032200005D5DA0703D0E26B42F00202E2638207BF
:1032300005D5DA0703D0E26B42F00402E26302072D
:1032400007D501F020022A4303D0E26B42F00802C6
:10325000E263E26B002A33D0800604D5880602D5EB
:10326000204601F053FE20684069E16BC0F38010F6
:10327000090700D428B3204601F031FE20684169D7
:1032800049061AD5416921F040014161606BA0B146
:103290001B490165606BFEF728FE002810D0606BAB
:1032A000016DBDE870400847830610D58B060ED52A
:1032B0002046BDE8704001F029BE2046FFF796FF8A
:1032C00070BD2046FFF792FF0020E06370BD03064B
:1032D00006D50B0604D52046BDE8704001F0F6BEC9
:1032E0004006F3D54806F1D5D168204621F04001CB
:1032F000D160202184F8391000F0A4F970BD0000DD
:103300004D4E000870B5040004D094F83900002533
:1033100010B106E0012070BD84F83850204600F05E
:1033200023F8242084F839002068C16821F4005172
:10333000C160204601F036FE2068016921F4904109
:1033400001612068416921F02A0141612068C1685A
:1033500041F40051C160E563202084F8390084F80D
:103360003A00002070BD00002DE9F04F87B0044600
:1033700014216846FDF762F88748864BD4F800C0F0
:10338000032102228715002506154FF008094FF08A
:10339000400B4FF0206A9C4555D17F4B1033D3F83A
:1033A00000C04CF0004CC3F800C01B6803F00043A1
:1033B0000593036843F010030360006802AB00F05C
:1033C00010000590CDE90012012083E80302694650
:1033D0007248FEF721FFDFF8CC8171494046C8F8FA
:1033E0000010C0E901A5C0E90356C8F81450C0E9AF
:1033F0000657C8F82050D146C8F82450FEF758FEAA
:1034000008B1FDF77FFC674FC4F834806037C8F817
:103410003840C7E903567D61BD616148FD613D6289
:1034200090387D6287E8010A3846FEF741FE08B110
:10343000FDF768FC2763002205215320BC63FFF7DA
:1034400069F8532046E0544BDFF85C811433C445DF
:1034500045D1D3F800C04CF0100CC3F800C01B6875
:1034600003F010030593036843F002030360006850
:1034700000F002000590C0208DE825000720CDE96E
:10348000031069464948FEF7C7FEDFF8188148492E
:1034900008F1C0084046C8F800104FF00061C0E9CC
:1034A0000115C0E90356C8F81450C0E90657C8F81A
:1034B0002050C8F82450FEF7FBFD08B1FDF722FCB0
:1034C000C4F83480002205212520C8F83840FFF7D1
:1034D00021F82520FFF710F807B0BDE8F08FDFF8DE
:1034E000D480C445F8D1D3F800C04CF0200CC3F808
:1034F00000C01B6803F020030593036843F04003FA
:1035000003600068CDE9025100F0400005904FF4DF
:103510008440CDE90002CDF8109069462648FEF7B8
:103520007BFE2349DFF8948060394046C8F80010DC
:10353000C0E901A5C0E90356C8F81450C0E9065710
:10354000C8F82050D146C8F82450FEF7B1FD08B1A4
:10355000FDF7D8FB194FC4F834806037C8F83840FD
:10356000C7E903567D61BD611148FD613D621830B8
:103570007D6287E8010A3846FEF79AFD08B1FDF73B
:10358000C1FB2763002205214720BC63FEF7C2FF71
:1035900047209FE7007C0040303802400010024086
:1035A000A0600240DC050020001001400004024041
:1035B000886402400014014000180240FC0600200C
:1035C0007047000070B5044690F83900202830D1CB
:1035D00069B362B394F8380001282AD0012084F836
:1035E00038002162A284E2840025E563212084F86A
:1035F0003900236B1048D863236B10481864236B81
:103600000F48D864206B134605652668206B321D71
:10361000FEF7B8FD21686FF04000086084F838506C
:103620002068416941F080014161002070BD0120A6
:1036300070BD022070BD0000A74E0008D54E0008E6
:103640005D4E000870477047FEE7000010B5044665
:103650000068416941F04001416121681523054A34
:10366000091D606BFEF78EFD2068C16841F01001F6
:10367000C16010BDE04900201CB500210091416BE4
:103680000068C268D20631D50268426802684068A4
:1036900001900868026822F0010202600A6850681E
:1036A000134BC0F1150010F0FF0018704FF0150318
:1036B000536009680A6842F001020A6016D00D489A
:1036C0000178662912D1C07B88280FD10A48694643
:1036D000006804F031FB0098002807D007494FF03C
:1036E00080500860BFF34F8FBFF36F8F1CBD000089
:1036F000E8000020E04900209000002004ED00E0F8
:103700002DE9F05F89494FF000082DED028B3CC98F
:1037100081E83C000A460A235178B2F802C0B1FBA6
:10372000F3F403FB14178249ACF54C46A1F12005D4
:103730004B78A1F150045B1CDBB2CC3E0FD02E883D
:103740004FF0010AB44522D14FF400617948FEF7E9
:103750004DFE85F802A0BDEC028BBDE8F09F6268CB
:10376000C4E90182744A9278072A02D06B2A02D0F7
:1037700005E0EE2200E0DD222A804B7048E0BDEC3F
:10378000028B0A22BDE8F05F6949FFF71BBFACF569
:103790003B45BB3D39D093469FED688A6349684EEF
:1037A000DFF8A091C839ACF57F42FF3A32D007EB81
:1037B000870001EB8005287C0028CCD004F0D8FEDF
:1037C000E16BE063677085F8108095ED000ADBED32
:1037D000010A411A5C4870EE200AC4ED100AC4EDDB
:1037E000050A9BED020A10EE102A824248D010EE24
:1037F000102A564B9A4243D095ED011A31EE000A39
:1038000084ED110A84ED0B0A4BE0514A4B7012789B
:103810008A70B4E74F4A4FF4B473B2F91620A2F697
:1038200064225A4300EE102AB8EEC00A9FED4A1AED
:10383000C0EE010A99ED0C0A02E000BF70EEC80A62
:1038400010EE902AB242F9DC02E000BF30EE480AE6
:1038500010EE102AB242F9DC07EB870201EB82047A
:103860003349C4ED000A083984ED010AC1ED000AAC
:1038700081ED010A0822FFF7A5FE84F810A06AE78F
:1038800010EE102A824202D194ED0B0A07E099ED66
:103890000C0A10EE100AB04201DD30EE480A84ED49
:1038A000110A94ED111ADFED2D1A9FED2D0A84ED0A
:1038B000061A00290FD000BF94ED0D2A30EEC22A5F
:1038C00062EE212A02EE101AB8EE422A82EE823A05
:1038D00085ED023A01E085ED020AC4ED0D0A84EDA2
:1038E000090AD4ED0E0A71EE600A60EEA10A01EE3B
:1038F000901AF8EE611A80EEA12A85ED032A08D00D
:1039000000EE101AB8EE400AC0EE801AC5ED031A98
:1039100001E085ED030A84ED0E1A95ED020A84EDAF
:10392000070A95ED030A84ED080A14E7E049002030
:103930003801002000100240164500200000B4436A
:1039400000003443A401002000007F4300007FC337
:10395000B8000020F845002000F8FF4500007A4438
:103960000000000010B544482DED068BF7EE008AEC
:10397000C0ED1D8A9FED419A80ED1E9A9FED408A11
:1039800080ED1F8AC0ED208ADFED3E9A9FED3EAAB2
:10399000C0ED2D9A80ED2EAAC0ED218A80ED228AFD
:1039A00080ED238AC0ED248AC0ED258A80ED268A29
:1039B00080ED278AC0ED288A9FED340A354980EDD5
:1039C000290A80ED2A8A9FED320A80ED2B8A80ED4C
:1039D0002C0AB1F916104FF4B472A1F664215143C8
:1039E00000EE101ADFED2C0A0146B8EEC00A80EE98
:1039F000201A80ED031A80ED048AF83803F000FAEB
:103A00001D489FED260AC0302549C0ED1D8A80ED76
:103A10001E9A80ED1F8AC0ED208AC0ED2D9A80EDA0
:103A20002EAAC0ED218A80ED228A80ED238AC0ED86
:103A3000248A80ED250A80ED268A80ED278A80ED94
:103A4000280AB2EE0E0A80ED290A80ED2A8A80ED5E
:103A50002B8AB3EE090A80ED2C0A91ED0C0A01467F
:103A600080ED030A80ED048AA0F59E70BDEC068B04
:103A7000BDE8104003F0C4B9984700200AD7A33B23
:103A80000000000017B751396F12033B0000964346
:103A90000000FA43F845002000F8FF456666663FDF
:103AA000A40100200F4810B50D49016003214160B9
:103AB00000214FF400228160C0E903124FF440124C
:103AC0004261017641768176C17601774177FDF7D3
:103AD000FCFF002803D0BDE81040FDF713B910BD6E
:103AE00000640040340400200F4810B50D49016007
:103AF0000321416000214FF400228160C0E90312DC
:103B00004FF440124261017641768176C1760177A9
:103B10004177FDF7DAFF002803D0BDE81040FDF73C
:103B2000F1B810BD006800405C0400201D4808B5D5
:103B3000016841F480010160016801F48001009195
:103B4000016841F4001101600068002200F40010D7
:103B5000009011460B20FEF7DDFC0B20FEF7CCFC9D
:103B6000002211461120FEF7D5FC1120FEF7C4FCFF
:103B7000002211463920FEF7CDFC3920FEF7BCFCAF
:103B8000002211464420FEF7C5FC4420FEF7B4FC99
:103B9000002211464520FEF7BDFCBDE80840452047
:103BA000FEF7AABC3038024000B587B01C22064997
:103BB0006846FCF72AFC0021684603F09AFB03499B
:103BC000086007B000BD0000148800080000002055
:103BD0002DE9F04786B014216846FCF72FFC4548D4
:103BE0000024016841F010010160016801F010013A
:103BF0000591016841F002010160016801F00201D4
:103C00000591016841F040010160016801F0400147
:103C10000591016841F001010160016801F00101B5
:103C20000591016841F008010160016801F0080197
:103C30000591016841F080010160016801F0800197
:103C40000591016841F02001016000682A4F00F0F1
:103C500020004FF400550590002229463846FEF713
:103C6000CCFBDFF8988001223C214046FEF7C5FBE3
:103C7000DFF88CA0002244F240015046FEF7BDFB65
:103C8000DFF880904FF44066002231464846FEF748
:103C9000B4FB00950125CDE90154694638460394EB
:103CA000FEF7BAFA3C200090CDE90154694640463F
:103CB0000394FEF7B1FA4020CDE900050320CDE9D9
:103CC000024069465046FEF7A7FA0096CDE9015436
:103CD000694648460394FEF79FFAA8030090CDE991
:103CE0000154694650460394FEF796FA06B0BDE8C3
:103CF000F08700003038024000180240001C0240EB
:103D000000140240001002400F4810B50D49016038
:103D10004FF48271416000218160C1604FF40072F4
:103D20000161C0E90512C1610162416281620A213B
:103D3000C162FEF7DBFE002803D0BDE81040FCF7AF
:103D4000E1BF10BD005001408404002010B58AB0CE
:103D5000002407941C2168460894FCF76FFB164862
:103D6000144901605321C0E9011440F2CF71C0E948
:103D700003148461FFF7DFF908B1FCF7C3FF079470
:103D800007A90D480894FFF71BF808B1FCF7BAFF24
:103D90006020CDE900040294042269460648049498
:103DA000FFF761F908B1FCF7ADFF0348FFF732F9FF
:103DB0000AB010BD00040040DC0400200C4810B51F
:103DC0000A4901604FF4E1214160002181600C2229
:103DD000C160C0E904128161C161FFF793FA002854
:103DE00003D0BDE81040FCF78DBF10BD007C004043
:103DF0001C0500200E4810B50C4901600D494160BA
:103E00004FF48051816000214FF48062C0E90312B9
:103E10000C22C0E90521C161FFF774FA002803D024
:103E2000BDE81040FCF76EBF10BD0000001001405F
:103E30005C050020A08601000C4810B50A4901600D
:103E40004FF4E1214160002181600C22C160C0E992
:103E500004128161C161FFF755FA002803D0BDE863
:103E60001040FCF74FBF10BD001401409C0500201E
:103E7000FEE7000090ED061A80ED071AB0F9021077
:103E8000B0F90420891A00EE101A1D4AF8EEC00A93
:103E9000C0ED060A90ED080A30EE200A10EE101A66
:103EA00080ED080A914201DD9FED160A164A10EED8
:103EB000101A80ED080A914201D99FED140A4FF4BF
:103EC0007A5280ED080AD0ED031A90ED042A61EED3
:103ED000A01A42EE001A30EEC10AD0ED050A40EEFB
:103EE000801ABDEEE10A10EE101A4162914200DB29
:103EF0001146074A4162914200DC11464162704717
:103F000000606A4600606A4600606AC600606AC671
:103F100080C1FFFF08489FED070ADFED080A00F1A6
:103F20000C01B2EE001A81EC030A343080EC030A73
:103F3000704700009A99114180450020CDCC4C3D3E
:103F40000B4A022313701B025360030A1372507250
:103F5000080A90720020D172107350739073D0735E
:103F60000346044803220249006804F0A5B8000093
:103F7000704500209C000020704700009FED121A41
:103F800010B5C0EE010A9FED110A2DED028B20EE57
:103F9000800A10EE100AFCF714FC41EC100B01F043
:103FA00073FD0B48B0EE408AF0EE608A4069FCF782
:103FB00008FC53EC182BFCF7F3FAFCF7E3FBBDEC21
:103FC000028B00B210BD000000003443DA0F4940FC
:103FD000BC00002027480168C16041680161816818
:103FE000416125494A7800F118014AB3012A26D1D6
:103FF000B1F81920C2F30A0242808A7ED308CA7E31
:1040000043EA4213C3F30A0383800B7F920942EA17
:1040100083034A7F43EA8223C3F30A03C38091F8F0
:104020001E10520842EAC112C2F30A0202818A0932
:104030008272C1F30111C1720188491C018070476D
:104040000A88C2F30A0242804A78D3088A7843EA8F
:104050004213C3F30A038380CB78920942EA8303B5
:104060000A7943EA8223C3F30A03C38052084979D9
:10407000D8E7000024450020A00000200A480021C5
:104080000222018009494A70510241808180C18029
:10409000018103218172C2720168C16041680161BE
:1040A000816841617047000024450020A000002085
:1040B00038B50446FFF7E2FF2068416941F040014E
:1040C000416119200090074B2168A3F11902091DD5
:1040D000606BFDF7D8FE2068C16841F01001C16037
:1040E00038BD0000554500203EB52349002201920D
:1040F0000968C968C9063ED520490B684968006847
:10410000016840681E4900900868036823F00103B5
:10411000036008684368C3F11903DCB2194B1C70D3
:1041200005682D0306D5026822F4002202600120F2
:10413000587004E0056845F4002505605A70122C9B
:1041400001D0022058700A68192050600868016880
:1041500041F0010101600C4801A9006803F0ECFD89
:104160000198002807D009494FF080500860BFF33C
:104170004F8FBFF36F8F3EBD5C05002000100140E4
:104180009C060020A00000208400002004ED00E038
:1041900038B504461248134B0068B0FBF3F04FF4F7
:1041A0007A73584300906068B0F5827F0DD10B465A
:1041B000009200228021204600F016F870B1606D58
:1041C00040F020006065032038BD009830B1401EEB
:1041D000009020688068C0430006F6D5002038BDF6
:1041E0001400002000366E012DE9F0411D461746EF
:1041F0000E460446DDF8188008E0681C06D0FEF77D
:1042000001F9A0EB0800A8420BD255B120688068E4
:1042100036EA000030D00020B842EED10020BDE8E0
:10422000F0812068416821F0E00141606068B0F5EC
:10423000827F0BD1A068B0F5004F02D0B0F5806F3F
:1042400004D12068016821F040010160A06AB0F546
:10425000005F09D12068016821F4005101602068E5
:10426000016841F400510160012084F851000020F0
:1042700084F850000320D2E70120CDE730B50022BA
:1042800001231C490C2801D80A700AE0A0F10D0492
:10429000052C01D80B7004E01338192801D802202E
:1042A000087014480D781424083025B1012D04D06D
:1042B000022D05D10DE0322500E0B42505804480B3
:1042C000CC7874B10C4C0588A488AC4204D34A70F5
:1042D00030BD4FF48C75F1E740888442F8D84B70BC
:1042E00030BDC868B0F5966F00DD4A700A28F6DB6D
:1042F00030BD0000A4000020164500200548F7EE60
:10430000001A90ED061A21EE000A31EEC11A01EEF4
:10431000200A7047BC00002004480221417000219F
:104320008170C1700121017170470000B40000204C
:104330002DE9F04100214148FCF719FD404C0027D0
:10434000404D01264FF0020801280BD0022804D06E
:10435000032809D16770AF7006E084F8018085F802
:10436000028001E06670AE70607870B3012817D0EB
:10437000022813D101213148FCF7F9FC012812D0A1
:1043800001212E48FCF7F3FC02281FD001212B4805
:10439000FCF7EDFC032801D12670E770BDE8F08141
:1043A00084F80280FAE720780028F7D0A07820B1BE
:1043B000012804D0022805D005E0A67003E084F8A7
:1043C000028000E0A7702770E8E705E02670A0787B
:1043D0000028E3D0E670E1E7A770E77001211748F5
:1043E000FCF7C5FC01280ED001211448FCF7BFFCE6
:1043F000022818D001211148FCF7B9FC0328CDD1BF
:1044000026702F71CAE720780028C7D0E87828B135
:10441000012805D00228D6D1EF70D4E7EE70D2E79C
:1044200085F80380CFE72670E8780028B6D00648E4
:104430008088B0F5D27FB1D22E71AFE7244500203D
:10444000B40000200C4500201645002010B590F95E
:104450000A10002918DCB0F9023000220B4963333E
:10446000C62B10D8436AA3F51C54103C03D042F26B
:104470001074E34207D10B795B1CDBB20B71142B78
:1044800002D33C2383720A7110BD0000A4000020F7
:10449000F0B53A4FB8791E2822D00020384C4FF49E
:1044A000B471DFED390AE0703648B0F91600A0F6B5
:1044B0006420484300EE100AB8EEC00A80EE201ACD
:1044C000BCEEC10A10EE100A80B2FFF7D7FE2F48EB
:1044D00000262F4D0078022804D001280CD026E0B9
:1044E0000120DBE72B480078012820D160780128E3
:1044F0001DD1E08828811BE02748817B042916D143
:10450000397B012913D16178012910D1408802211A
:10451000B1EB102F03D1E0882881A67008E0A078C5
:104520000A2804D8E1882981401CA07000E02E816F
:104530001748FFF78BFF95F90A00002804DD401E9D
:10454000A872E08840422881607800B92E812989CC
:1045500031B10028E06801D0801C05E0401E03E076
:10456000E0680A2801DB801EE0600C48007800B992
:104570002E81BDE8F040064800F028B8164500201E
:10458000A4000020F845002000F8FF45B5000020F9
:10459000D0450020B7000020F0490020B6000020E0
:1045A0000748B1EE080A002180ED030A9FED050AD5
:1045B00080ED040A9FED040A80ED050A0181704731
:1045C000D04500205839B43C0000000090ED061A98
:1045D00080ED071AB0F90810B0F90220891A00EE30
:1045E000101A1D4AF8EEC00AC0ED060A90ED080A3E
:1045F00030EE200A10EE101A80ED080A914201DD1B
:104600009FED160A164A10EE101A80ED080A914224
:1046100001D99FED140A42F2107280ED080AD0ED24
:10462000031A90ED042A61EEA01A42EE001A30EE51
:10463000C10AD0ED050A40EE801ABDEEE10A10EE87
:10464000101A4162914200DD1146074A41629142CF
:1046500000DA11464162704700606A4600606A46AF
:1046600000606AC600606AC6F0D8FFFF10B550202F
:1046700080F31188BFF34F8FBFF36F8F03F07EFF7E
:1046800018B104494FF080500860002080F3118871
:1046900010BD000004ED00E030B593B03021684655
:1046A000FBF7CCFE14210CA8FBF7C8FE1948002527
:1046B000016841F080510160006800F08050119065
:1046C0001548016841F4404101600068022400F48B
:1046D0004040119001200090000401908001CDE93C
:1046E000064006200890A820CDE9090404200B907C
:1046F0006846FEF74DF80CA90F2081E831004FF411
:10470000A0500F90E002109005210CA8FDF734FF97
:1047100013B030BD403802400070004005480168C9
:1047200041F47001016003494FF000608039086076
:104730007047000088ED00E00148FEF7B7BB0000BD
:10474000BC070020F0B50268254C264D264E274FA9
:10475000274B4FF0804CA04209D0604507D0A842BB
:1047600005D0B04203D0B84201D0984204D122F023
:10477000700E4A6842EA0E02A0421BD0604519D072
:10478000A84217D0B04215D0B84213D0984211D0E9
:10479000184DA8420ED0184DA8420BD0174DA84274
:1047A00008D0174DA84205D0164DA84202D0164D8C
:1047B000A84203D122F44075CA682A434D6922F009
:1047C00080022A4302608A68C2620A688262A0424A
:1047D00001D0984201D10969016301214161F0BD15
:1047E000000001400004004000080040000C0040B0
:1047F00000040140004001400044014000480140E5
:1048000000180040001C00400020004010B501F0DE
:104810001F030121046A99408C430462016A9A4093
:104820001143016210BD0000F0B5026A22F00102DE
:104830000262036A42688469124E24F073050C68B0
:104840002C4323F002058B682B430D4DA84201D069
:10485000B04205D123F00807CB683B4323F00403A3
:10486000A84201D0B04205D14D6922F440721543EF
:104870008A692A4342608461496841630362F0BDEA
:104880000000014000040140F0B5026A22F010026D
:104890000262026A436884690D6824F4E64444EACB
:1048A00005248D6822F0200242EA05120F4D104EB9
:1048B000A84201D0B04206D1CF6822F0800242EA7D
:1048C000071222F04002A84201D0B04207D14D6940
:1048D00023F4406343EA85038D6943EA850343601B
:1048E0008461496881630262F0BD000000000140FC
:1048F00000040140F0B5026A22F480720262026A8A
:104900004368C46922F4007224F073050C68124EE7
:104910002C438D6842EA05220E4DA84201D0B042D8
:1049200006D1CF6822F4006242EA072222F48062B4
:10493000A84201D0B04207D14D6923F4405343EA65
:1049400005138D6943EA05134360C4614968C16377
:104950000262F0BD000001400004014030B5026A6F
:1049600022F480520262046A4268C3690D6823F42B
:10497000E64343EA05238D6824F4005444EA0534F1
:10498000084DA84202D0084DA84204D14D6922F436
:10499000804242EA85124260C36149680164046250
:1049A00030BD000000000140000401400E4C0D4EDF
:1049B0004FF0FF3704F108053A460B49306803F021
:1049C0002BFC2078012808D00228F5D12A46074878
:1049D000D4F80410FCF79CF8EEE72A460448616816
:1049E000F8E700009C000020EC4400205C0400205C
:1049F0003404002008B503F0BBFD234D234C0227EF
:104A00004FF4257600902878012818D000282048F7
:104A10004FF0000125D0FCF78FF94FF4FA5110FB4D
:104A200001F090FBF6F020800020E080A4F8080060
:104A3000FCF788F80521684603F0D4F8E3E7154849
:104A4000807B04280BD111480A30007A032806D055
:104A50001148406A0028EBD001202080E8E7278039
:104A6000E6E7FCF769F94FF4FA5110FB01F090FB0F
:104A7000F6F0208003210648FCF75EF9E080022171
:104A80000348FCF759F9D1E7B50000200C45002098
:104A900024450020F0490020D045002008B5FCF74F
:104AA00061FD1248002181700121C17003F060FD99
:104AB0000F4C104E04F1540500900D4901F15400C3
:104AC000FCF75EF90A4901F15400FCF743FBB08C96
:104AD00001B2B5F91400FCF721FDB4F91400FCF79C
:104AE00001FD0521684603F07DF8E6E7BC000020E3
:104AF000F8450020D045002008B503F039FD0090AE
:104B000002F052FA01F0AAFC01F0E0FE01F096FF7B
:104B10000221684603F066F8F2E700007CB502F077
:104B20009DFF4B48FCF736F84A48FCF733F84848F5
:104B3000FCF758F84748FCF755F8002210211E20D2
:104B400003F052FA44490122486251034348FDF7F9
:104B500054FC4348FFF7ACFA4248FEF777FD02F0F9
:104B6000F1F901F08FFF04213F48FEF715FB3E49A4
:104B700041F6583009680864374903200831CDE907
:104B800000010023642239A13C4803F01BFC324998
:104B90000620091DCDE900010023802238A13B48F1
:104BA00003F010FC2C4805240C30CDE900404FF4F4
:104BB00080760023324636A1374803F003FC2648AE
:104BC00000231430CDE90040802234A1384803F09E
:104BD000F9FB21480425CDE900500023324635A1D8
:104BE000374803F0EFFB1C4800231030CDE90040AC
:104BF000324634A1364803F0E5FB1748EE011C307D
:104C0000CDE900500023324632A1354803F0DAFBEB
:104C1000114800232030CDE90050C82231A1364888
:104C200003F0D0FB0C4800231830CDE90040324699
:104C300032A1364803F0C6FB4FF47A7002F0ACFFA5
:104C4000002003F015F8BDE87C4002F027BF00000B
:104C5000340400205C04002078000020001802408A
:104C60005C0500201C050020DC0400205461736BEF
:104C70005F4C4544426C696E6B0000003D4D00087E
:104C80005461736B5F43414E00000000AD49000862
:104C90005461736B5F524300614D00085461736B44
:104CA0005F5374617475734D616368696E6500006C
:104CB000194E00085461736B5F53686F6F74000086
:104CC000854D00085461736B5F494D55000000002D
:104CD000F94A00085461736B5F47696D62616C004B
:104CE0009D4A00085461736B5F436F6D6D756E690B
:104CF000636174696F6E0000F54900085461736B5D
:104D00005F4A6574736F6E436F6D6D00114D0008DF
:104D100008490120851E8870A1F130042946012030
:104D200002F018FE0448FEF7EBFC6068401C60606F
:104D3000F4E70000180100201C05002008B503F06E
:104D400017FC064D4FF48044009021462846FDF79D
:104D50004DFB6421684602F045FFF6E7001402406F
:104D6000074D4FF0FF342146012002F0F3FDFFF71D
:104D700031F9002302221946286803F07BFBF2E791
:104D80008C00002008B5FFF70BFCFFF7C3F803F019
:104D9000EFFB204C1A4DDFF86C90DFF86CA01B4F36
:104DA000DFF86C80002604F1280B0090287B012896
:104DB0000DD1E87801280AD099F80000012809D11E
:104DC0009AF80200012805D10220387002E03E70F6
:104DD00088F80060FBF798FF0E48FFF74BF858463D
:104DE000FFF748F8B4F84C0001B2A08C00B2FFF70E
:104DF000A7F8FFF74DFB0521684602F0F3FED5E763
:104E000016450020B500002018010020B600002043
:104E1000B70000208045002008B503F0A9FB0090F2
:104E2000FFF77AFAFFF784FA0A21684602F0DAFE01
:104E3000F8E7000010B50448FEF7DAF9BDE81040C5
:104E40000148FEF719BC00001C05002010B5806B5E
:104E50000021C185C184FEF7C9F910BD70B5846B0E
:104E60002068406994F83910C0F3C010002521294A
:104E700004D118B1E584204600F03FF8206840696D
:104E800094F83A10C0F38010222904D118B1E585B6
:104E9000204600F024F8E06B40F01000E06320466C
:104EA000FEF7A4F970BD10B50146806B096809686A
:104EB000C9050CD40021C18401684A6922F080022E
:104EC0004A610068C16841F04001C16010BDFEF751
:104ED000B9FB10BD10B5806BFEF7B5FB10BD0168C6
:104EE000CA6822F49072CA6001684A6922F001021D
:104EF0004A61202180F83A1070470168CA6822F0A0
:104F0000C002CA60202180F83910704710B590F8AF
:104F10003A10222901D0022010BD8168B1F5805FCE
:104F200011D00169002901681FD0496801F07F0391
:104F3000816A4A1C82620B70C18D491E0904090CEA
:104F4000C18518D02BE00269816A002A0268526884
:104F500005D0D2B20A80816A491C8162ECE7C2F3B3
:104F600008020A80816A891CF7E74A68816A4B1C3B
:104F700083620A70E0E70168CA6822F02002CA6012
:104F80000168CA6822F48072CA6001684A6922F026
:104F900001024A61202180F83A10FEF711FB00203F
:104FA00010BD00002DE9F041044600680169E26887
:104FB00021F44051114301612169A068E26908436D
:104FC0006169114308432168CA6849F20C639A4336
:104FD0000243CA6020684169A26921F4407111430B
:104FE0004161E069192764253226B0F5004F354A42
:104FF000354920684FF0000806D0884201D0904221
:1050000036D1FDF783FB35E0884201D0904202D1D2
:10501000FDF77CFB01E0FDF769FB61684A18A0FB26
:10502000070148EB0803FBF7BFF90146B0FBF5F0B9
:105030000201B1FBF5F06FF01803584301EB80005B
:1050400006EBC000B0FBF5F000F0F80002EB400208
:10505000B1FBF5F0584301EB800006EBC000B0FB5C
:10506000F5F000F00700216810448860BDE8F08189
:10507000FDF73CFB61688B0F8A00A0FB0701FBF783
:1050800093F90146B0FBF5F06FF01802504301EBC5
:10509000800006EB0010B0FBF5F000F0F002B1FB71
:1050A000F5F002EB0012B1FBF5F06FF01803584376
:1050B00001EB800006EB0010B0FBF5F000F00F00F4
:1050C000D1E70000001401400010014090F83910B1
:1050D000212901D0022070478168B1F5805F016A03
:1050E0000BD04A1C0262026809785160C18C491ECB
:1050F0000904090CC1840ED017E009880268C1F3C5
:105100000801516001690029016A02D0491C01624D
:10511000ECE7891CFBE70168CA6822F08002CA60DC
:105120000068C16841F04001C16000207047000084
:1051300010B50448FEF75CF8BDE810400148FEF7E2
:10514000D3BF00005C0500200148FEF751B8000005
:105150009C050020FEE70000214930B49FED1F0AA6
:105160004FF4B47281ED010A81ED020A1D49204B12
:105170000020B1F916100024A1F66421514300EE7D
:10518000901A1A4AB8EEE01ADFED170AC1EE201A9B
:10519000C2ED051A93ED0C1A114B82ED061A82ED41
:1051A000070A82ED080AD83B01EE901A00EB800254
:1051B00003EB8202F8EEE11A401CC0B20A2881EE2D
:1051C000A02A82ED002A82ED011A82ED020A82ED08
:1051D000030A1474E8D330BCFEF7C4BB000000001F
:1051E000F0490020F845002000F8FF45E8000020C5
:1051F000A401002003B401984100009850EAC120A6
:1052000018BF04204A0D18BF40F0010040F2FF72A1
:10521000B2EB515F08BF40F00200012808BF052033
:1052200002B070470907090E002804DB00F1E020F6
:1052300080F80014704700F00F0000F1E02080F8C3
:10524000141D70470000000070B5C1482DED020B21
:105250002DED0E8B82B0119D25F000449FEDBEDB3D
:105260009FEDBFEB84423EDBA4F140511098A1F1C9
:105270007F6108430FD0BC48844202DC28D11098DB
:1052800030B39DED100B02B0BDEC0E8B02B0BDE84B
:10529000704001F085B89DED100B53EC1D2B51ECC7
:1052A000100BFBF77DF99DED100B41EC180B53EC47
:1052B0001E2B51EC100BFBF773F953EC182BFBF77B
:1052C000C8F841EC100B02B0BDEC0E8B02B070BD03
:1052D000012001F0A9F802B0BDEC0E8B02B0BDE8D0
:1052E000704001F071B8A1489FEDA18B844256DA5D
:1052F0009DED100BB4F1795F0ADA51EC100BFFF75A
:1053000079FF042808BF01F06FF89DED100BDAE774
:1053100053EC102B51EC100BFBF742F941EC190B3D
:1053200095480621B0EE490AF0EE690A784400F08B
:1053300023FF53EC192B51EC100BFBF731F941EC27
:105340001A0B8E48B0EE490AF0EE690A042178443F
:1053500000F012FF53EC192B51EC100BFBF720F966
:1053600053EC182BFBF775F841EC100B51EC1A0BB2
:1053700053EC102BFBF786F9CDE900019DED000BF6
:1053800053EC102B9DED100B51EC100BFBF708F9B3
:105390009DED101B53EC112BFBF75BF8D2E09DED5C
:1053A000100B51EC100B01F04DF853EC182BFBF7E0
:1053B000F4F89FED730BCDE9000153EC102B9DED3C
:1053C000000B51EC100BFBF7EBF841EC190B6E489E
:1053D0000621B0EE490AF0EE690A784400F0CCFEEE
:1053E00053EC192B51EC100BFBF7DAF841EC1B0BCB
:1053F0006648B0EE490AF0EE690A0421784400F0EC
:10540000BBFE53EC192B51EC100BFBF7C9F853EC16
:10541000182BFBF71EF841EC1C0B51EC190B02F09A
:1054200061FA41EC180B5A489FED5BABA04222DCBD
:1054300053EC1C2B51EC1B0BFBF724F9CDE90001BD
:105440009DED000B51EC180B53EC102BFBF7A8F85B
:1054500053EC182BFAF7FDFF53EC1A2BFBF7A0F8CF
:1054600053EC1D2BFBF796F853EC1E2BFBF795F82E
:1054700041EC100B5FE08DED008B002000909DED66
:10548000000B51EC180B53EC102BFAF7E2FF9DEDDB
:10549000000B41EC1E0B53EC102B51EC100BFBF7E7
:1054A0007FF853EC192BFBF778F853EC1E2BFBF726
:1054B000E9F841EC190B53EC1C2B51EC1B0BFBF7DF
:1054C000E1F841EC1B0B53EC1A2B51EC190BFBF7D9
:1054D00067F853EC1D2BFBF760F841EC190B53EC0C
:1054E0001A2B51EC180BFBF75BF853EC1B2BFBF75B
:1054F00057F853EC192BFBF74DF89DED000B41ECE1
:10550000180B53EC1A2B51EC100BFBF749F89FEDDD
:10551000249B53EC192BFBF740F841EC100B51EC9A
:10552000180B53EC102BFBF735F853EC192BFBF74A
:1055300034F841EC100B002D3FF7C5AE51EC100BC9
:1055400081F0004141EC100BBDE6000000000000BE
:105550000000F03F00000000075C143326A6913CD9
:10556000182D4454FB21F93F0000F07F0000E03F7C
:10557000000000000000F03F383500004635000014
:10558000000000000000E03F8A3400009834000072
:105590003333EF3F00000000000000000000004037
:1055A000182D4454FB21E93F70B59B482DED020BAB
:1055B0002DED068B079D25F00044A04218DC97488E
:1055C000844202DC0AD1069840B19DED060BBDEC89
:1055D000068B02B0BDE8704000F0E2BE002DCCBFEB
:1055E0009FED8F0B9FED900BBDEC068B02B070BD55
:1055F0008F48A04215DD8F48A042D8BF4FF0FF343E
:1056000058DD9DED060B51EC100BFFF7F3FD042860
:1056100008BF00F0E9FE9DED060BBDEC068B02B065
:1056200070BD9DED060B51EC100B00F00BFFCDE9AA
:10563000060181489FED828BA0423CDD8248A0425A
:105640001FDD00249FED82AB9DED060B53EC1A2B62
:1056500051EC100BFAF7FDFE9DED060B41EC190B1A
:1056600053EC1A2B51EC100BFAF79AFF53EC182B52
:10567000FAF790FF53EC192BFBF704F8CDE906017C
:1056800049E09DED060B012453EC182B51EC100B57
:10569000FAF7DFFE9DED060B41EC190B53EC182BCE
:1056A00051EC100BFAF776FF53EC192BFAF7EAFFDF
:1056B000CDE906012FE06848A0421FDD02249FEDDE
:1056C000689B9DED060B53EC192B51EC100BFAF770
:1056D00067FF53EC182BFAF7BCFE9DED060B41EC6F
:1056E000180B53EC192B51EC100BFAF753FF53EC3A
:1056F000182BFAF7C7FFCDE906010CE09DED060B6C
:10570000032453EC102B9FED580B51EC100BFAF7C0
:10571000B9FFCDE906019DED060B53EC102B51ECC2
:10572000100BFAF73DFF41EC180B53EC182BFAF76E
:1057300037FF41EC190B4E480621B0EE490AF0EE56
:10574000690A784400F018FD53EC182B51EC100B4B
:10575000FAF726FF41EC180B4648B0EE490AF0EE86
:10576000690A0521784400F007FD53EC192B51EC30
:10577000100BFAF715FF41EC100B51EC180B53EC22
:10578000102B002C0EDAFAF764FE9DED061B53EC8D
:10579000112BFAF705FF9DED061B53EC112BFAF7C1
:1057A000FCFE35E0FAF755FE9DED061B53EC112B80
:1057B000FAF7F6FE41EC100B2F48784400EBC400DA
:1057C00090ED001B51EC100B53EC112BFAF7E2FE9D
:1057D0009DED061B53EC112BFAF7DCFE41EC100B90
:1057E0002648784400EBC40090ED001B51EC100BF0
:1057F00053EC112BFAF7D1FE41EC100B002DA2BF98
:10580000BDEC068B02B070BD51EC100B81F0004175
:1058100041EC100B01E70000000010440000F07F95
:10582000182D4454FB21F93F182D4454FB21F9BF96
:105830000000DC3F0000203E0000F33F00000000BD
:10584000000000000000F03F0000E63F0000000004
:105850000000000000000040008003400000000045
:10586000000000000000F83F000000000000F0BF52
:10587000DA310000903100001A310000D23000000F
:1058800070B56B4E2DED040B2DED028B82B0DDF863
:105890001CC0DDE905235C422CF000411C4341EAB9
:1058A000D474049D22F00040B44205D86C422C43CD
:1058B00040EAD474B4420BD99DED061B9DED040B58
:1058C00002B0BDEC028B04B0BDE8704000F072BDC8
:1058D000ACF14054A4F17F641C430BD0022404EAD1
:1058E000AC7444EAD27405439FED538B9FED542B67
:1058F00007D015E09DED040B51EC100B00F09AFD64
:1059000042E0002C11BF012C9DED040B02B0BDEC58
:10591000028B04BF04B070BD022C38D0032C3BD0E6
:105920000B439FED491B9FED4A0B0AD0B14218D1A2
:10593000B04209D121F0804120F0804007910590CC
:105940000FE0002A15DA10E0434B7B44002C08BF1F
:1059500093ED000B0DD0012C10D0022C17D0032C8E
:105960001AD0B0421DD1002A03DAB0EE410AF0EE9F
:10597000610A02B0BDEC028B04B070BD93ED000B68
:1059800051EC100B81F0004141EC100BF1E7B0EE4F
:10599000480AF0EE680AECE7B0EE420AF0EE620A5E
:1059A000E7E7401A00153C28C8BF8DED000B19DC55
:1059B000BCF1000FBEBF10F13C0F9FED290B8DED28
:1059C000000B0FDB9DED060B53EC102B9DED040B34
:1059D00051EC100BFAF756FE00F034FD00F02AFDF2
:1059E000CDE90001002C08BF9DED000BC1D0012CBA
:1059F00010D0022C9FED1C0B53EC102B9DED000BD7
:105A000051EC100B0DD0FAF7C5FD53EC182BFAF73B
:105A1000C1FDB9E7019880F0004001909DED000BB9
:105A2000A7E7FAF7B7FD53EC182BFAF7B6FDABE78B
:105A30000000F07F00000000182D4454FB210940B5
:105A4000182D4454FB2109C0182D4454FB21F9BFE3
:105A5000182D4454FB21F93F3230000000000000B3
:105A60000000000000000000075C143326A6A13CE3
:105A70002DED020B019820F0004001909DED000BF0
:105A800002B070470000000010B52F499FED2C1B9D
:105A90002DED020B84B0059820F000408842DCBF59
:105AA00000209DED040B32DD2849884209D104987D
:105AB00040B94FF0010000F0B7FC00F085FC06B0E3
:105AC00010BD05DB9DED040B00F06AFC06B010BDB7
:105AD00068469DED040B00F07BF810F0030011D038
