:020000040800F2
:10000000384E002081020008F13D0008F935000853
:10001000E53C0008F1090008CD4F00080000000091
:10002000000000000000000000000000C101000806
:10003000FF0B0008000000001D020008E544000856
:100040009B0200089B0200089B0200089B0200081C
:100050009B0200089B0200089B0200089B0200080C
:100060009B0200089B0200089B020008010B00088D
:100070009B0200089B0200089B0200089B020008EC
:100080009B0200080D0B00089B0200089B02000861
:10009000F50900089B0200089B0200089B0200086B
:1000A0009B0200089B0200089B0200089B020008BC
:1000B000B14500089B0200089B0200089B02000853
:1000C0009B0200089B0200089B0200089B0200089C
:1000D0009B020008A94F00089B0200089B02000831
:1000E0009B0200089B0200089B0200089B0200087C
:1000F0009B0200089B0200089B0200089B0200086C
:100100009B0200089B0200089B0200089B0200085B
:100110009B0200089B0200089B0200089B0200084B
:100120009B020008190B00089B0200089B020008B4
:100130009B0200089B0200089B0200089B0200082B
:100140009B020008010A00089B0200089B020008AD
:10015000250B0008310B00089B020008C14F000866
:100160009B0200089B0200089B0200089B020008FB
:100170009B0200089B0200089B0200080000000090
:100180009B0200089B0200089B020008AD4C00087F
:100190009B0200089B0200089B0200089B020008CB
:1001A00000000000000000009B020008DFF80CD0F7
:1001B00000F0E2FB00480047D96B0008384E0020F1
:1001C0002C4B19680868B0E8F04F80F30988BFF33A
:1001D0006F8F4FF0000080F311887047000000001F
:1001E00008480068006880F308884FF0000080F33A
:1001F000148862B661B6BFF34F8FBFF36F8F00DF15
:1002000000BF00BF08ED00E0DFF80C00016841F41A
:1002100070010160704700BF88ED00E0EFF30980D6
:10022000BFF36F8F134B1A681EF0100F08BF20ED3D
:10023000108A20E9F04F106009B44FF0500080F3AD
:100240001188BFF34F8FBFF36F8F07F091FC4FF012
:10025000000080F3118809BC19680868B0E8F04F05
:100260001EF0100F08BFB0EC108A80F30988BFF3AE
:100270006F8F704718000020EFF305807047000073
:100280000648804706480047FEE7FEE7FEE7FEE730
:10029000FEE7FEE7FEE7FEE7FEE7FEE7954500081E
:1002A000AD0100082DE9F05F0546002092469B460F
:1002B00088460646814640241BE02846414647467C
:1002C000224600F052FA53465A46C01A914110D3C2
:1002D00011461846224600F039FA2D1A67EB01083C
:1002E0004F4622460120002100F030FA17EB0009AA
:1002F0004E41201EA4F10104DFDC484631462A4667
:100300004346BDE8F09F40EA01039B0703D009E0A4
:1003100008C9121F08C0042AFAD203E011F8013BF1
:1003200000F8013B521EF9D27047D2B201E000F84A
:10033000012B491EFBD270470022F6E710B5134689
:100340000A4604461946FFF7F0FF204610BD2DE986
:10035000FE4F804681EA0300C00F0C46009021F05A
:10036000004123F00045B8EB0200A94105D2404608
:10037000214690461C460B46024623F0004010439F
:1003800047D0270DC7F30A00C3F30A510290401A61
:10039000019040286BDAC3F3130040F4801B0098EF
:1003A000924620B10023D2EB030A63EB0B0B0198BA
:1003B0005946C0F14002504600F0C8F906460D46C5
:1003C00050465946019A00F0E0F910EB08006141EF
:1003D000002487EA115284EAE7731A4340D0009A56
:1003E00062B3019A012A4FEA075215DC001B61EB48
:1003F00002014FF0004202EA0752CDE90042001C20
:1004000041F5801132462B4600F017FA03B0BDE8E3
:10041000F08F40462146F9E7001B61EB0201001C0A
:1004200041F5801300185B412018A2F5001747EB37
:10043000030140EAD570B6196D4111E06D084FEA2D
:10044000360645EAC0754FEA0752001B61EB020110
:10045000001C41F5801149084FEA30000019514154
:1004600032462B4603B0BDE8F04F00F0D7B90098F4
:10047000012240000023D0EB020263EBE0730098FE
:1004800021464FEAE074B8EB000061EB0401E9E7B4
:1004900083F000435BE781F0004158E72DE9FE4F10
:1004A00081EA030404F0004421F0004100944FF07D
:1004B000000B23F0004350EA01045ED052EA03042B
:1004C0005BD0C3F30A54C1F30A552C44A4F2F334AD
:1004D0000194A0FB0254C1F3130141F48011C3F352
:1004E000130343F4801301FB024400FB034E840A10
:1004F000970A44EA815447EA8357A4FB07680295A8
:100500008D0A05FB07854FEA932C04FB0C54270545
:10051000029D4FEA065847EA1637B5EB08056EEB21
:10052000070C870E920E47EA811742EA8312A7FB57
:100530000201B6EB0B0164EB00042B0D43EA0C3314
:100540005E1844EB1C50DA465146E7FB0201C5F346
:1005500013044FEA0B3343EA14534FEA0432019C6D
:1005600043EA0603A4F10C040294009CCDE900B414
:1005700000F063F903B0BDE8F08F00200146F9E711
:100580002DE9F04D81EA030404F0004B21F0004511
:1005900014464FF0000A23F0004150EA050220D033
:1005A00054EA01021DD0C5F30A570246C5F31303EE
:1005B000C1F31300C1F30A5640F4801543F48013CD
:1005C000A7EB0608101BD64608F2FD3873EB0500B2
:1005D00002D308F1010801E092185B41B8F1000F65
:1005E00003DA00200146BDE8F08D00204FF48011B1
:1005F000064684460EE0171B73EB050705D3121B56
:1006000063EB050306434CEA010C49084FEA30004E
:1006100092185B4150EA0107EDD152EA030012D073
:1006200082EA040083EA0501084305D0101BAB41B0
:1006300006D20122002306E000224FF0004302E030
:100640006FF0010253101AEB06004CEB085110EB4F
:100650000A0041EB0B01BDE8F04D00F0DFB80EB52C
:10066000C10F80EAE0700844CA07002140F233431A
:100670008DE80E000A460B4600F0DFF803B000BD1F
:1006800070B5C1F30A5201F000450024C1F3130113
:1006900040F2FF3341F480119A4201DA002070BD2C
:1006A00040F233439A42A2F2334203DC524200F05A
:1006B0005CF800E090402C43F1D0404270BD00F067
:1006C000004230F000400AD0C10D01F56071C0F366
:1006D000160042EA0151C20840071143704700204A
:1006E0000146704730B5041E71F1000404DB4FF081
:1006F0000044404264EB0101141E73F1000405DB69
:100700001C464FF00043524263EB0403994208BF7A
:10071000904230BD01F0004330B421F0004150EA76
:10072000010206D00A0DA2F56072C1F31301002A7E
:1007300002DC30BC00207047440F44EAC104C10011
:10074000E01830BC00EBC25000F031B8202A04DBC6
:10075000203A00FA02F1002070479140C2F12003D4
:1007600020FA03F3194390407047202A04DB203A13
:1007700021FA02F00021704721FA02F3D040C2F1C1
:1007800020029140084319467047202A06DBCB1708
:10079000203A41FA02F043EAE07306E041FA02F33C
:1007A000D040C2F120029140084319467047002909
:1007B000A8BF7047401C490008BF20F001007047E7
:1007C00010B4B0FA80FC00FA0CF050EA010404BF47
:1007D00010BC704749B1CCF1200421FA04F411FA9D
:1007E0000CF118BF012121430843A3EB0C01CB1DE1
:1007F0004FEA00614FEA102042BF002010BC704752
:1008000000EBC35010440029A4BF10BC7047401C2B
:10081000490008BF20F0010010BC704710B5141E3D
:1008200073F1000408DA401C41F1000192185B41A9
:100830001A4301D120F0010010BD2DE9F04D924680
:100840009B4611B1B1FA81F202E0B0FA80F2203297
:100850009046FFF77BFF04460F4640EA0A0041EA54
:100860000B0153465A46084313D0114653EA010080
:1008700019D0C8F140025046FFF777FF05460E46F3
:10088000504659464246FFF761FF084305D0012014
:1008900004E020463946BDE8F08D0020054346EAD5
:1008A000E0762C4337430A986305E40AA0EB08007E
:1008B0000022FD0A44EA47540A3002D500200146CE
:1008C000E9E7010510196941DDE9084500196941A9
:1008D000BDE8F04DA2E72DE9F04D00231A461B1AA2
:1008E0008A4103DB00200146BDE8F08DC1F30A52C6
:1008F000C1F3130141F480154FF0000BD10702D171
:1009000000186D41521E0027044640F2FF11384680
:1009100001EB620A3E468046024600204FF48011F9
:10092000FFF723FFC2197141BB1846EB0100B4EB7E
:10093000030C75EB000C04D3E41A65EB00051746B5
:100940000E46241908F101006D4180463428E3DD8C
:10095000F91946EB0600091BA84103D24FF0FF32FC
:10096000134601E0002213461BEB070046EB0A5139
:10097000BDE8F04DFFF752BF064C074D06E0E068BA
:1009800040F0010394E8070098471034AC42F6D3D6
:10099000FFF710FC5C8700087C8700080EB540F26A
:1009A000334102910021CDE900110A460B46FFF7C1
:1009B00044FF03B000BD30B58C1810F8012B12F0C5
:1009C0000F0301D110F8013B120906D110F8012BD9
:1009D00003E010F8015B01F8015B5B1EF9D101E057
:1009E00001F8013B521EFBD1A142E6D3002030BDED
:1009F000FEE70000014800F042BF00003004002084
:100A0000014800F03CBF00005804002000B587B04A
:100A10000091002102910391082104910649884226
:100A200001D1012303E00549884203D1022369462D
:100A300000F0C6FD07B000BD3004002058040020BF
:100A40001048012101706621416000F110010A88FF
:100A5000130A037242720C4A127882720A79CB78B6
:100A600042EA0312C2720A89130A03734273C988E5
:100A700000230A0A8273C1730146044803220068F6
:100A800007F086B9F8440020B50000209C00002043
:100A900010B5044610488AB0844202D100210846AD
:100AA00004E00E48844215D10E2101200591002159
:100AB0000122CDE90612009101910291CDE90310C6
:100AC0000E20CDE908206946204600F0DDFD2046D5
:100AD00001F07EF90AB010BD300400205804002057
:100AE0000549884201D1022103E00449884202D12C
:100AF000102100F053BD704730040020580400203E
:100B0000014801F0DDB9000038060020014801F07D
:100B1000D7B90000D8050020014801F0D1B9000084
:100B2000F8060020014801F0CBB90000980600202B
:100B3000014801F0C5B900005807002001681823DA
:100B4000CAB2103AB2FBF3F2054B6FF30901032A64
:100B50009B5CC36500D9091D81650846704700008C
:100B60000885000810B5014600208B698A6A4FF09D
:100B7000C07453B1B3F5005F15D072B1012A0CD027
:100B8000022A0AD0032A09D104E01AB1012A06D0A8
:100B9000022A03D1C96AC90100D5012010BDC96A62
:100BA000A142FAD010BD002AF7D0012AF2D0022AC1
:100BB000F3D0032AF3D010BD10B5046863608368D6
:100BC000402B036803D099600068C26010BD9A6032
:100BD0000068C16010BD30B50468256825F4802523
:100BE0002560046863608368402B036803D09960C4
:100BF0000068C26030BD9A600068C16030BD704757
:100C00007047000009490020097849B1012902D044
:100C1000022903D004E041F27C5001E041F6844017
:100C2000034948804042488570470000B6000020D4
:100C30007C45002041B1012908D002290DD00329AB
:100C40000DD04FF480607047408800E08088A0F2AB
:100C5000F731122905D800207047C088F7E70089CE
:100C6000F5E7A0F5806000B2704719B1012903D003
:100C700003207047C07A7047807A70472DE9F05F93
:100C80000D462DED048B0446FE48DFF8FC930178F9
:100C900029B199ED0C0A491E84ED010A0170FB4946
:100CA000DFF8ECA309789FEDFB9ADFF8ECB3DFEDFA
:100CB000FB8AFB4E9FEDFB8A02291ED001297CD1C5
:100CC000F9494FF0010C91F80E80EE494978491C22
:100CD000CBB2F6490027DFEDF60AB8F1010F6DD06F
:100CE000F44AB8F1020F6AD0B8F1040F65D1F24BA3
:100CF000D3ED001AB1EE610A38E1E24F022120374C
:100D0000EE4897ED010A87ED000AFFF793FFDFED4C
:100D1000EC9A3230642815D90221E848FFF78AFF9F
:100D2000FFF79DFC9FEDE71B53EC112BFFF7B6FB84
:100D30009FEDE61B53EC112BFFF722FCFFF7EAFCBB
:100D4000786001E0C7ED019A97EC020A03F012FA0D
:100D500087ED010AD4ED010A30EE800A02E000BFFF
:100D600030EE480A10EE100A84ED010AB042F7DABC
:100D700004E000BF30EE080A84ED010AB5EEC00AB7
:100D8000F1EE10FAF6D3BF4C03211834CB4894EDA2
:100D9000010A84ED000AFFF74DFF3230642816D9AE
:100DA0000321C648FFF746FF00EE100AB8EEC00A5E
:100DB000DFEDC80A20EE200A02E026E029E083E009
:100DC000DFEDC50A80EE201A84ED011A01E0C4EDC2
:100DD000019A94EC020A03F0CDF984ED010AD5EDF5
:100DE000010A30EEC00A10EE100A85ED010A5045E6
:100DF00001DDB0EE490A10EE100A85ED010A5845F2
:100E000001DBF0EE408AC5ED018ABDEC048BBDE844
:100E1000F09FB24ADFF8C8821770B1F916104FF48C
:100E2000B472A1F66421514300EE101AB8EEC01A54
:100E300081EE200A10EE102A424501DB80F802C044
:100E400000EE101AA74AB8EEC01A81EE200A10EE82
:100E5000101ADFEDA50A9FEDA50A914201DC87700B
:100E60000FE08178012901D059B117E094ED011A02
:100E700071EE200AC4ED010AD5ED010A30EEC00A78
:100E800009E094ED011A71EE200AC4ED010AD5EDD6
:100E9000010A30EE800A85ED010A437094ED010AE3
:100EA00010EE100AB04209DD30EE480A84ED010A66
:100EB000F6E700BF30EE080A84ED010AB5EEC00A7D
:100EC000F1EE10FAF6D3A0E7B1F916104FF4B476AC
:100ED000A1F66421714300EE101ADFF81482B8EE17
:100EE000C01A81EE200A10EE106A464501DB80F838
:100EF00002C000EE101A7F4EB8EEC01A81EE200A32
:100F000010EE101AB14200DC877094ED010ADFED9B
:100F10007A0A30EE200A84ED010A817801290BD18A
:100F2000D5ED010A9FED750A70EEC00AC5ED010A04
:100F300030EE800A85ED010A437094ED010A03E06A
:100F400030EE480A84ED010A10EE100A9042F7DAFA
:100F50006B4900BF10EE100A8842B4D930EE080A7F
:100F600084ED010AF6E700BF30EE480A10EE103AB1
:100F700084ED010AB342F7DC04E000BF30EE080A5A
:100F800084ED010AB5EEC00AF1EE10FAF6D35D4B1E
:100F900093ED000A10EE103AB0EE401A85ED010A0A
:100FA000534501DDB0EE490A10EE103A85ED010A15
:100FB0005B4501DBF0EE408AB2EE040AC5ED018A22
:100FC00021EE001ABDEEC11A11EE103A21EE801A80
:100FD0008381BDEEC11A11EE103AC381B1F916102A
:100FE0004FF4B473A1F66421594301EE101AF8EEE0
:100FF000C11A81EEA01A11EE103A01EE101A9342B6
:10100000B8EEC11AC1EE201A09DD71EEC80AFDEE74
:10101000E00A10EE901A01EB8101490005E061EE53
:10102000800AFDEEE00A10EE901A8180D9ED0C0ADC
:1010300010EE901A914209DD70EEC80AFDEEE00A4A
:1010400010EE901A01EB8101490005E060EE800A84
:10105000FDEEE00A10EE901AC1802B49D1ED000A96
:1010600060EE800AFDEEE00A10EE901A0181274939
:10107000D1ED000A20EE800ABDEEC00A10EE101A73
:101080004181C2E6BC000020A0010020B500002084
:101090008C8F31428C8F314246C5A84046C5A8404E
:1010A0000000B4430000B443F0490020F4450020A0
:1010B00000F8FF45000034432801002020450020AF
:1010C00000000000000000000000E03F0000000001
:1010D00000A084403333333F00002544B700002094
:1010E0000000E84100006041B81E853EEC51383EEA
:1010F00000001C42000050410AD7A33CCDCC4C3D1F
:10110000000034C324010020F8000020FC0000206F
:101110002DE9F05FDFF81C83DFF81C930C002DED48
:10112000048B05469FEDC59A9FEDC58AC54FDFF834
:1011300018A3DFEDC68ADFF818B3C64EDFEDC69AF6
:101140007DD094ED112AC54984ED122A4FF4B47272
:10115000B1F91600A0F66420504300EE100AF8EE34
:10116000C00ADFEDBF1A80EEA10A84ED030AD4EDB8
:10117000010A30EEC00A10EE100A84ED110A404553
:1011800001DD30EE690A10EE100A84ED110A4845BF
:1011900001D930EE290A10EE100A84ED110A10F17F
:1011A0007D5F0BD210EE100AAE4A904206DAD4ED03
:1011B000130A70EE800AC4ED130A03E084ED139A5B
:1011C000F0EE490A10EE900AA74ADFEDA82A9042F5
:1011D00001DDF0EE620A10EE900AA54BC4ED130A91
:1011E000984201D9F0EE480AC4ED130A94ED0E1AA4
:1011F00094ED0F3A21EE001A30EE420A03EE201A67
:10120000D4ED100A00EE801A84ED141A84ED021A4F
:1012100094ED0A0A84ED0B0A97ED040ADFED950AB6
:1012200000EE601A84ED0A1A94ED0C0A30EE010A01
:1012300010EE100A84ED0C0A904203DD00E04BE052
:10124000B0EE620A10EE100A84ED0C0A984201D941
:101250009FED890A84ED0C0AB1F916004FF4B471C0
:10126000A0F66420484300EE100AF8EEC00A80EEB3
:10127000A10A02F0BFFD00EE100AD4ED070AD4ED7A
:10128000081AB8EEC01A94ED0A0A94ED0C2A60EE22
:10129000800A41EE820AD4ED0B1A30EE610AD4EDD9
:1012A000091A41EE800A31EE200A10EE100A84ED90
:1012B0000D0A504502DDF0EE680A01E0F0EE400A4A
:1012C00010EE101AFDEEE00A594510EE900A00B239
:1012D000A08200D93046A082002D7CD0D5ED111A15
:1012E000C5ED121A97ED0C0A85ED030A95ED010A7A
:1012F000D7ED0C0A30EE200A10EE100A85ED110A27
:10130000404501DD30EE690A10EE100A85ED110A44
:10131000484501D930EE290A85ED110AFDEEC00AD3
:1013200010EE900A002800DA40420F2806DAD5EDC8
:10133000130A70EE800AC5ED130A03E085ED139AD7
:10134000F0EE490A10EE900A4C49884201DDDFEDCB
:101350004C0A4C4910EE900AC5ED130A884201D898
:10136000B0EE608A85ED138AD5ED0E0A464920EE6F
:10137000801AD5ED0F0A30EE610A00EE881AD5ED1D
:10138000100A00EE801A85ED141A85ED021AD5EDCB
:101390000A1AC5ED0B1AB5F9100000EE100AB8EEE6
:1013A000C00A71EE400AC5ED0A0A95ED0C0A30EE4E
:1013B000200A10EE100A85ED0C0A884201DD9FED2F
:1013C000330A334910EE100A85ED0C0A884201D920
:1013D0009FED300A00E023E085ED0C0A95ED071A39
:1013E00021EE208A95ED081A01EE008A30EEE10A1E
:1013F000D5ED090A00EE808A18EE100A85ED0D8AF7
:10140000504501DCF0EE488A18EE101ABDEEE80AED
:10141000594510EE100A00B2A88200D80646AE82E6
:101420001D480078002801D1A882A082BDEC048B61
:10143000BDE8F09F00003443000034C3000000000A
:1014400000409CC5A001002000C0DA4600C0DA467A
:1014500000C0DAC6A092FFFF0000B443F4450020AC
:1014600000F8FF450000C0400050C3460050C3468E
:101470000050C3C6333365420050C3C600409C458C
:1014800000409C4500409CC50000FA440000FA441E
:101490000000FAC40000FAC4B50000201FB5022104
:1014A0008DF8001040F2FF11019100218DF8081015
:1014B0008DF80910020A8DF80A208DF80B000448F7
:1014C00003910B4603226946006806F061FC1FBDCC
:1014D0009C0000201FB501228DF8002040F2FF1271
:1014E0000192020A8DF808208DF8090000200A0AEE
:1014F0008DF80C208DF80D108DF80A008DF80E0077
:101500008DF80B008DF80F0003460348032269464F
:10151000006806F03DFC1FBD9C0000201A489FEDAE
:10152000190AF1EE020A80ED070A9FED180A80ED14
:10153000080AC0ED090AF2EE0A0AC0ED0E0A80EDB3
:101540000F0AB7EE000A80ED100ADFED110A5438D9
:10155000C0ED070ADFED0F0AC0ED080AF2EE040A3B
:10156000C0ED090AF3EE000AC0ED0E0ADFED0A0A2B
:10157000C0ED0F0A80ED100AB3EE040A80ED010AF7
:10158000704700000000A042484600200000000014
:101590000000F0429A99993FCDCCCC3D90F82020A4
:1015A000012A07D0022A05D0416A41F48021416214
:1015B00001207047006842690A4342610020704779
:1015C000F0B590F820500468A468012D05D0022DD4
:1015D00003D0416A41F4802153E014F0406F01D1FF
:1015E000E5004BD5C4F30164022C03D9416A41F4F0
:1015F000000146E00125A5401D608D684FF4C073D1
:101600009DB1CE6835434E6845EAC605066803EBD2
:101610000417F5514FF4C275076805EB04150E6900
:101620007E51097D012905D009E00E88CD6845EA83
:101630004655EBE701684E5946F480764E511179D4
:10164000D2F805504FF4C67641EA0525016806EB4D
:1016500004168D511178D2F801204FF4C47541EA77
:101660000221026805EB04155151006803EB0411D7
:10167000425842F0010242500020F0BD416A41F45C
:10168000001141620120F0BD10B590F82020012A20
:1016900007D0022A05D0416A41F48021416201202D
:1016A00010BD3B48D0F8002242F00102C0F80022F1
:1016B000D0F8002222F47C52C0F80022D0F8002298
:1016C0004B6A42EA0322C0F800220A7D02F01F039F
:1016D00001229A40D0F81C329343C0F81C32CB69E7
:1016E000B3B9D0F80C329343C0F80C328C894B68F4
:1016F00064F31F434C6900EBC404C4F840320C8906
:101700000B6864F31F434C6900EBC404C4F8443213
:10171000CB69012B16D1D0F80C321343C0F80C3230
:101720000C884B6864F31F434C6900EBC404C4F895
:1017300040320C89CB6864F31F434C6900EBC4044E
:10174000C4F844328B69002BD0F804320ED0134316
:10175000C0F804320B69002BD0F8143208D01343C0
:10176000C0F81432096A012904D008E09343EFE776
:101770009343F5E7D0F81C121143C0F81C12D0F8BF
:10178000001221F00101C0F80012002010BD00007D
:1017900000640040704730B590F82040012C05D01F
:1017A000022C03D0416A41F480215DE004680029E5
:1017B00055D02469A40754D04FF4D874056804EBBD
:1017C00001142D5915F00405956005682D594ED06A
:1017D000ED08556005682C5904F00204D4604FF4FC
:1017E000DA74056804EB01142D5905F00F05156135
:1017F00005682D59C5F30725956105682C59240CFA
:1018000054614FF4DC72046802EB0112A4581C709E
:101810000468A458240A5C700468A458240C9C70C2
:101820000468A258120EDA704FF4DE72046802EBFC
:101830000112A4581C710468A458240A5C7104683D
:10184000A458240C9C710468A258120EDA71006826
:1018500081B1016941F020010161002030BDE468DF
:10186000A8E7416A41F400114162012030BD6D0DCD
:101870001560AFE7C16841F02001C160EDE72DE9D7
:10188000F05F0546006800244669D0F80490876838
:10189000D0F80CB0D0F810A0D0F81880F10748D0DC
:1018A000F90714D001218160B80703D5284600F05C
:1018B000BCFA0CE0780702D54FF4006407E0380763
:1018C00002D54FF4805402E0284600F0ADFAF80546
:1018D00016D529684FF480708860B80503D528466E
:1018E00000F0A5FA0CE0780502D544F4005407E0B6
:1018F000380502D544F4804402E0284600F096FA08
:10190000F80316D529684FF480308860B80303D5F2
:10191000284600F08EFA0CE0780302D544F4004427
:1019200007E0380302D544F4803402E0284600F092
:101930007FFA300707D55FEACB6004D5296810200D
:1019400044F40074C86070074FF0080707D55FEAD9
:101950000B7004D52868C760284600F099F9B007D5
:1019600006D52868C068800702D0284600F092F9A2
:10197000700607D55FEACA6004D52968102044F4D0
:1019800080640861B00607D55FEA0A7004D528684C
:101990000761284600F0CEF9F00606D528680069F0
:1019A000800702D0284600F0C7F9B00308D55FEAE7
:1019B000C96005D5296810204860284600F006FA5D
:1019C000F00307D55FEA097004D528684760284608
:1019D00000F030FA300446D55FEA497040D5F00592
:1019E00004D55FEAC87001D044F00104B00504D505
:1019F0005FEA887001D544F00204700504D55FEAFF
:101A0000487001D544F00404300529D518F0700F52
:101A100026D008F07000402815D006DC102809D028
:101A200020280AD0302816D10AE050280ED060288D
:101A300011D10EE044F008040DE044F010040AE077
:101A400044F0200407E044F0400404E044F0800443
:101A500001E044F480742868816921F0700181619B
:101A6000296804204860002C05D0686A2043686219
:101A70002846FFF78FFEBDE8F09F70B5040003D045
:101A800094F8200010B104E0012070BD204600F061
:101A900081F82068016821F00201016000F08AFCF1
:101AA0000546052604E000F085FC401B0A2811D8F5
:101AB000206840688007F6D42068016841F0010181
:101AC000016000F077FC05460BE000F073FC401B62
:101AD0000A2806D9606A40F40030606284F8206009
:101AE000D2E720684068C007EFD0207E0128206838
:101AF00001683DD021F080010160607E01282068EE
:101B0000016838D021F040010160A07E01282068E2
:101B1000016833D021F020010160E07E01282068B7
:101B200001682ED041F010010160207F012820685B
:101B3000016829D021F008010160607F0128206838
:101B4000016824D021F004010160D4E902010843B6
:101B5000D4E90412114308436168491E084321680F
:101B6000C86100206062012084F82000002070BD60
:101B700041F08001C0E741F04001C5E741F020019C
:101B8000CAE721F01001CFE741F00801D4E741F0A6
:101B90000401D9E7F0B587B0044614216846FEF782
:101BA000CBFB364B3648DFF8D0E01968D4F800C0DC
:101BB000334A03250226092710300024491CF44526
:101BC00022D11960012907D1016841F0007101603B
:101BD000006800F000700590106840F00800106088
:101BE0001068CDE9005600F00800CDE904706946A0
:101BF0002448CDE9024500F0E7FA0022052114202F
:101C000000F060FC142033E0DFF87CE0F44531D1D3
:101C1000D0F800C04CF0806CC0F800C0D0F800C014
:101C200001290CF0806CCDF814C0196007D101684F
:101C300041F000710160006800F0007005901068CC
:101C400040F002001060106802AB00F00200059046
:101C50004FF44050CDE9000683E8B00069460B48D8
:101C600000F0B2FA00220521412000F02BFC4120B7
:101C700000F01AFC07B0F0BD006400400400002032
:101C800030380240000C024000680040000402406E
:101C90007047000000B589B007AB6A4600212148B3
:101CA000FFF779FD0098B0F5017F16D017DC6928A1
:101CB00013D11D489DF81C10C1709DF81E10817035
:101CC000BDF81F1049BA81809DF8211081719DF8DF
:101CD000221001739DF82310017209B000BDA0F518
:101CE000007005380ED00228F7D110480188491C31
:101CF0000180BDF81C1049BAC180BDF81E1049BA58
:101D00004180EAE70A480188491C0180BDF81C109F
:101D100049BAC182BDF81E1049BA01829DF822104D
:101D20000176DAE73004002012450020CC4500207F
:101D3000484600207047000000B589B007AB6A46EE
:101D400001211F48FFF727FD00991E48A1F201213C
:101D5000062913D2DFE801F00314121212240189BC
:101D6000491C0181BDF81C1049BA0180BDF81E1044
:101D700049BA8180BDF8201049BAC18009B000BDC0
:101D8000018E491C0186BDF81C1049BA0185BDF8B9
:101D90001E1049BA8185BDF8201049BAC185EDE70A
:101DA00009480188491C0180BDF81C1049BAC1824C
:101DB000BDF81E1049BA01829DF822100176DDE7B8
:101DC000580400207C450020F445002070470000A6
:101DD00070B5044690F82000012804D0606A40F4F1
:101DE0000020606218E0022084F82000206801686A
:101DF00021F00101016000F0DDFA05460EE000BFB0
:101E000000F0D8FA401B0A2808D9606A40F4003074
:101E10006062052084F82000012070BD20684068C1
:101E2000C007EDD1606270BD704770477047704762
:101E30007047704770472DE9F041044680680025DF
:101E4000069E80280ED094F8340001280FD001207F
:101E500084F8340094F8350001280AD00225284679
:101E6000BDE8F0814FF4807060650125F7E702203E
:101E7000F6E7022084F835002068076847F48027D9
:101E800007602068036133462046FEF795FE206810
:101E9000016841F001010160E1E790F83510022985
:101EA00003D08021416501207047052180F835105D
:101EB0000068016821F00101016000207047000006
:101EC0002DE9F84304464FF00009CDF8009063482F
:101ED0004FF41651A56D0068B0FBF1F72E6894F829
:101EE0005C10082000FA01F131420FD021680A6825
:101EF00052070BD50A6822F004020A6094F85C10BD
:101F00008840A860606D40F00100606594F85C1046
:101F10004FF0010808FA01F0304208D02168496901
:101F2000090604D5A860606D40F00200606594F871
:101F30005C1004208840304208D021680968890775
:101F400004D5A860606D40F00400606594F85C10F2
:101F500010208840304218D021680968090714D53C
:101F6000A86020680168490304D50068000308D50B
:101F7000A16C07E00168C90503D4016821F00801DC
:101F80000160216C09B12046884794F85C1020203C
:101F90008840304231D021680968C9062DD5A86033
:101FA00094F8350005282068016806D0490347D514
:101FB000006800031DD4616C1CE021F01601016073
:101FC0002068416921F080014161206C08B9A06C52
:101FD00020B12068016821F00801016094F85C10CC
:101FE0003F208840A86084F8349084F83580216DC3
:101FF0001FE0E16B09B120468847606D00282BD0B7
:10200000606DC00714D0052084F835002068016891
:1020100021F0010101600098401C0090B84203D8F3
:1020200020680068C007F6D184F8349084F83580C1
:10203000E16C002910D001B02046BDE8F04308470C
:102040000168C905D5D4016821F01001016084F848
:10205000349084F83580CCE7BDE8F8831400002084
:102060002DE9F041044600F0A5F906465CB10025D3
:1020700084F83450022084F835002068016821F08B
:10208000010101600DE00120BDE8F08100F092F94E
:10209000801B052805D920206065032084F83500C1
:1020A000F2E720680068C007F0D122681168204874
:1020B0000140D4E901031843D4E9033633431843FC
:1020C00063691843A3691843E3691843236A1843F3
:1020D0000843616A042903D1D4E90B131943084367
:1020E000106020684069666A20F0070130460E43A0
:1020F000012704280CD1A06A0643E06A40B12046BB
:10210000FEF730FD20B14020606584F83570BAE7F5
:10211000206846612046FEF711FD94F85C203F21BF
:1021200091408160656584F835700020ACE700005F
:102130003F8010F02DE9F0410446866D90F83400A0
:10214000002501280DD0012084F8340094F8357062
:102150000020012F07D084F8340002252846BDE86E
:10216000F0810220FBE7022784F835706065204685
:10217000FEF731FD94F85C103F208840B060206885
:10218000016841F016010160206C20B120680168EF
:1021900041F0080101602068016841F0010101601F
:1021A000DCE7000070B5044600F004F90546601C49
:1021B00002D004480078044400F0FCF8401BA04220
:1021C000FAD370BD080000202DE9F84F00224FF02F
:1021D000010803254FF00F0E0B6808FA02F42340A4
:1021E000A3426ED14E68012E05D0022E03D0112ECF
:1021F00001D0122E12D186684FEA420C05FA0CF774
:10220000BE43CF6807FA0CF7374387604668A6439A
:102210000C79C4F30014944034434460C6685700FA
:1022200005FA07FC8C6826EA0C06BC403443C460FF
:102230004C68022C01D0122C13D1D40800EB84047A
:10224000A346D4F8209054074FEAD46A0EFA0AF64F
:1022500029EA06090E6906FA0AF646EA0906CBF8E3
:10226000206004680E7924EA0C0406F00306BE40E0
:10227000264306604C68E4006FD53B4C266846F464
:1022800080462660246822F0030604F4804400940B
:10229000364C3444A446D4F808489607360F0EFA54
:1022A00006F7BC43324FB84201D100272EE0314F30
:1022B000B84201D1012729E02F4FB84202D10227AD
:1022C00024E04AE02D4FB84201D103271EE02C4FF5
:1022D000B84201D1042719E02A4FB84201D105279D
:1022E00014E0294FB84201D106270FE0274FB8422A
:1022F00001D107270AE0264FB84201D1082705E09F
:10230000244FB84201D1092700E00A27B7402743EC
:10231000CCF80878204E34684F689C43FF0300D502
:102320001C4334601C4E361D34684F689C43BF0309
:1023300000D51C433460184E083634684F689C43FF
:10234000FF0200D51C433460134E0C3634684F68CE
:102350009C43BF0200D51C433460521C102AFFF47A
:102360003BAFBDE8F88F0000443802400030014028
:10237000000002400004024000080240000C02403D
:10238000001002400014024000180240001C0240ED
:102390000020024000240240003C0140426931EA32
:1023A000020200D10904816170470AB1816170475E
:1023B0000904FBE70148806870470000080000201E
:1023C000024881680278114481607047080000204B
:1023D0000B4810B5016841F400710160016841F4D7
:1023E00080610160016841F480710160032000F0A8
:1023F00089F8002000F006F800F03EF8002010BD3B
:10240000003C024010B5014688B000221C2000F0BC
:1024100059F81C2000F048F814480024016841F0E5
:1024200001010160006805A900F0010006906846FE
:1024300000F014F900F032F90D494000B0FBF1F161
:102440000C484FF08042491E026040F2E732C0E97A
:102450000324C0E9011400F0D3FC10B1012008B03E
:1024600010BD044800F0E8FCF9E7000040380240E5
:1024700040420F00B80700200A4808B5016841F43F
:1024800080410160006800F4804000900548001F12
:10249000016841F080510160006800F080500090B8
:1024A00008BD000044380240002809DB00F01F028C
:1024B000012191404009800000F1E020C0F80011A6
:1024C00070470000F0B40E4B1B680C46C3F30223A8
:1024D000C3F10705042D00D90425191D072901D2D0
:1024E000002300E0DB1E012606FA05F1491E21400B
:1024F00099409E40761E16403143F0BC02F07FBDED
:102500000CED00E0064900F0070208684FF6FF03F3
:10251000184040EA0220034A104308607047000058
:102520000CED00E00000FA052DE9F0470E4605002D
:1025300065D0DFF81481D8F80000F7B200F00F0082
:10254000B04207D288F80070D8F8000000F00F0001
:10255000B04254D128683D4C810712D5400703D5BD
:10256000206840F4E05020602878000703D52068F8
:1025700040F4604020602068A96820F0F000084323
:1025800020602878C0072DD03049686808390128B4
:1025900012D0022813D0032811D009688907002916
:1025A0002DDA216821F0030101432160FFF702FFCA
:1025B000814641F2883A0EE009688903EFE709682D
:1025C0008901ECE7FFF7F6FEA0EB0901514502D9BE
:1025D0000320BDE8F0872068696800F00C00B0EBCC
:1025E000810FEFD1D8F80010404601F00F01B14241
:1025F00007D90770006800F00F00B04201D0012039
:10260000E7E72878400705D52068E96820F4E0501E
:10261000084320602878000706D52068296920F43F
:10262000604040EAC100206000F058F82168084A84
:10263000C1F30311515CC8400649086006480068B0
:10264000FFF7E0FE0020C4E7003C024008380240EB
:1026500010850008140000200C0000200F220260EA
:102660000C4A136803F003034360136803F0F0039C
:102670008360136803F4E053C36012684FF4E053BF
:1026800003EAD20202610448006800F00F0008600B
:102690007047000008380240003C024004480549E9
:1026A00000680968044AC1F38221515CC840704740
:1026B000140000200838024020850008044805491D
:1026C00000680968044AC1F34231515CC840704750
:1026D000140000200838024020850008154810B575
:1026E000006810F00C02144813D01449042A0FD0CB
:1026F000082A0ED10F4C241F2268236802F03F02E3
:102700005B0207D52068C0F38810A0FB010106E03A
:10271000084610BD2168C1F38811A1FB0001002308
:10272000FDF7C0FD2168C1F30141491C4900B0FB20
:10273000F1F010BD083802400024F400001BB7007F
:102740002DE9F84F04006ED02078DFF83C93C007E5
:10275000A9F104054AD009F104000168C1F381011F
:10276000012908D00068C0F3810002280AD1D9F8F5
:102770000000400206D52868800337D5606800282D
:10278000E1D033E06068B0F5803F10D0B0F5A02F05
:10279000286810D020F480302860286820F4802039
:1027A00028606068A8B1FFF705FE06460DE02868BE
:1027B00040F48030F4E740F480202860F7E700BF61
:1027C000FFF7F8FD801B642873D828688003F7D5CD
:1027D0000CE0FFF7EFFD064605E000BFFFF7EAFD5E
:1027E000801B6428F0D828688003F7D42078DFF8AD
:1027F0009C8280074FF0000A3ED5A348001D016867
:1028000011F00C0F08D00068C0F3810002280BD132
:10281000D9F80000400207D42868800716D5E06880
:10282000012800D112E02BE1E068B8B10120C8F81E
:102830000000FFF7BFFD064605E000BFFFF7BAFD49
:10284000801B0228C0D828688007F7D5286821692E
:1028500020F0F80040EAC10028600DE0C8F800A0B0
:10286000FFF7A8FD064604E0FFF7A4FD801B022841
:102870001FD828688007F7D42078000722D5824E19
:1028800083486169703671B101210160FFF792FDE3
:10289000074604E0FFF78EFDC01B022809D8306808
:1028A0008007F7D50EE0C0F800A0FFF783FD0746CC
:1028B00005E082E0FFF77EFDC01B02287DD830686E
:1028C0008007F7D42078400768D5DFF8BCB100272F
:1028D0000BF13C0BDBF80000C0000BD4DBF8001060
:1028E00041F08051CBF80010DBF80000012700F028
:1028F00080500090674E3068C00510D4306840F4B6
:1029000080703060FFF756FD009005E0FFF752FD44
:102910000099401A022850D83068C005F6D55A4EA2
:10292000A0686C3601280FD00528306810D020F040
:1029300001003060306820F004003060A068B8B159
:10294000FFF738FD00900FE0306840F00100F4E739
:1029500040F004003060F7E7FFF72CFD0099411AC2
:1029600041F28830814266D830688007F4D50EE0A5
:10297000FFF720FD009007E0FFF71CFD0099411ACA
:1029800041F28830814256D830688007F4D42FB1A4
:10299000DBF8001021F08051CBF80010A069C8B31B
:1029A0003949091D0968C1F3810102294AD0022869
:1029B000504607D0C8F8600000E03CE0FFF7FAFCA2
:1029C00004463BE04746C8F86000FFF7F3FC0646C4
:1029D00005E000BFFFF7EEFC801B02282BD828681B
:1029E0008001F7D4D4E907010843A16A2A4A4908BB
:1029F00002EB0141626A41EA8211084394F82C100B
:102A000040EA0161C9F8001001203866FFF7D2FCE6
:102A1000044606E036E000BFFFF7CCFC001B0228AE
:102A200009D828688001F7D52CE000BFFFF7C2FC69
:102A3000001B022802D90320BDE8F88F2868800116
:102A4000F4D41FE00128F7D0D9F80000E26900F4BF
:102A50008001914214D1226A00F03F0191420FD1CE
:102A600047F6C071626A0140914209D1A26A00F43E
:102A70004031914204D1E16A00F07060884201D097
:102A80000120D9E70020D7E7043802400000474280
:102A9000800E4742007000400000FFFF70B5040048
:102AA00005D00025A56294F8510010B106E0012080
:102AB00070BD84F85050204600F030F8022084F8B1
:102AC00051002068016821F040010160D4E9010152
:102AD0000843D4E903121143084361690843218B79
:102AE00001F400710843E1690843216A0843A16ABF
:102AF000084321680860A069042101EA1040616A66
:102B00000843216848602068C16921F40061C161FF
:102B10006565012084F85100002070BD10B586B0B5
:102B2000044614216846FDF707FC144920688842D2
:102B300021D113480021026842F48012026000682B
:102B400000F4801005900E481438026842F020020C
:102B50000260006800F0200005904FF46070009063
:102B60000220CDE90101032003900520049069466D
:102B70000448FFF729FB06B010BD000000500140DB
:102B800044380240001402402DE9F84F044690F802
:102B9000500000270A9E1D4692468B464FF00109C1
:102BA00001280ED0012084F85000FFF703FC804676
:102BB00094F85100616801280CD0B1F5827F07D1EB
:102BC00002E00220BDE8F88FA16809B9042801D00D
:102BD0000227C2E0BBF1000F27D0BAF1000F24D0CA
:102BE0001DB394F85100042802D0052084F8510048
:102BF00000206065C4F838A0E587A587C4F830B028
:102C0000E586A5862064606420680168490603D4CF
:102C1000016841F040010160E068B0F5006F606854
:102C200005D0E8B3012D46D07FE0012795E008B13B
:102C3000012D39D1206B21680088C860206B801C71
:102C40002063E08E401EE0862EE0206881688907C0
:102C50000FD5E18E69B1B9F1010F0AD1216B098855
:102C6000C160206B801C2063E08E401EE0864FF028
:102C7000000920688168C9070CD0E18F51B1C06894
:102C8000A16B0880A06B801CA063E08F401EE087D2
:102C90004FF00109FFF78EFBA0EB0800B04200E007
:102CA00009E001D3701C50D1E08E0028CDD1E08F17
:102CB0000028CAD13FE0206B216800780873206BA0
:102CC000401C2063E08E401EE0862EE02068816874
:102CD00089070FD5E18E69B1B9F1010F0AD1216BD6
:102CE00009780173206B401C2063E08E401EE08653
:102CF0004FF0000920688168C9070CD0E18F51B1FD
:102D0000C068A16B0870A06B401CA063E08F401EE0
:102D1000E0874FF00109FFF74DFBA0EB0800B04240
:102D200002D3701C01D010E07EB1E08E0028CDD11E
:102D3000E08F0028CAD142463146204601F064F9AE
:102D400028B101272020606507E0032705E0A0687F
:102D500018B92068C16880680090012084F851008B
:102D6000002084F8500038462CE770477047000078
:102D700070B590F83C20012A32D0012480F83C4004
:102D8000022280F83D2003685A689D6822F0700690
:102D90000A6832435A60134B02689A4214D0B2F167
:102DA000804F11D0104B9A420ED0104B9A420BD04C
:102DB0000F4B9A4208D00F4B9A4205D00E4B9A42C5
:102DC00002D00E4B9A4204D1496825F08003194382
:102DD000916080F83D40002180F83C10084670BDAD
:102DE000022070BD000001400004004000080040C7
:102DF000000C004000040140004001400018004069
:102E000010B5040003D094F83D0010B107E0012094
:102E100010BD002084F83C00204600F00CF8022091
:102E200084F83D00211D206801F0C8FB012084F8D2
:102E30003D00002010BD70470168CA6842F00102E1
:102E4000CA600068816801F00701062903D00168A3
:102E500041F00101016000207047704770B50446E1
:102E6000006801694FF00005C943890715D4C1689E
:102E7000C943890711D4E91E016101202077206828
:102E800080698007204602D0FFF7E7FF04E000F0EA
:102E9000C1F8204600F056F9257720680169C9433A
:102EA000490717D4C168C943490713D46FF0040117
:102EB0000161022020772068806910F4407F20465D
:102EC00002D0FFF7CAFF04E000F0A4F8204600F0AB
:102ED00039F9257720680169C943090716D4C16803
:102EE000C943090712D46FF008010161042020775B
:102EF0002068C0698007204602D0FFF7AEFF04E0DB
:102F000000F088F8204600F01DF925772068016957
:102F1000C943C90617D4C168C943C90613D46FF0A1
:102F200010010161082020772068C06910F4407FFB
:102F3000204602D0FFF791FF04E000F06BF8204636
:102F400000F000F9257720680169C943C90708D155
:102F5000C168C943C90704D1891E0161204600F038
:102F600015F920680169C943090609D4C168C94334
:102F7000090605D46FF0800101612046FFF7F5FED8
:102F800020680169C943490609D4C168C943490693
:102F900005D46FF040010161204600F0FEF8206882
:102FA0000169C94389060BD4C168C943890607D49E
:102FB0006FF0200101612046BDE87040FFF7D6BEEA
:102FC00070BD000010B586B0044614216846FDF7B8
:102FD000B3F90D492068884214D10C4800210268D9
:102FE00042F002020260006800F00200059020201A
:102FF00000900220CDE90101CDE9031069460448A3
:10300000FFF7E2F806B010BD00040040303802407F
:1030100000040240704770B5044690F83C000D462D
:1030200001280DD0012684F83C60022084F83D0080
:1030300042B1042A18D0082A2AD00C2A4DD139E0EE
:10304000022070BD206801F02BFB2068816941F0EF
:10305000080181612068816921F004018161206893
:1030600081692A69114311E0206801F049FB206859
:10307000816941F4006181612068816921F4806186
:103080008161206881692A6941EA0221816124E025
:10309000206801F06BFB2068C16941F00801C16143
:1030A0002068C16921F00401C1612068C1692A69F1
:1030B000114311E0206801F08DFB2068C16941F4E3
:1030C0000061C1612068C16921F48061C16120682B
:1030D000C1692A6941EA0221C16184F83D6000208A
:1030E00084F83C0070BD10B5040003D094F83D0096
:1030F00010B107E0012010BD002084F83C002046FC
:1031000000F00CF8022084F83D00211D206801F039
:1031100055FA012084F83D00002010BD08B5006874
:103120000649884208D10648016841F00201016061
:10313000006800F00200009008BD0000000400409C
:10314000403802407047000010B504460068012274
:1031500001F098FA0B492068884202D00A49884257
:1031600003D1416C41F4004141642068816801F061
:103170000701062903D0016841F001010160002028
:1031800010BD000000000140000401400068B0F1E3
:10319000804F01D1FFF714B97047704770470000A6
:1031A00070B5026804461068D168536910F00F0FBB
:1031B00052D003F0010501F490762E435FD0C20790
:1031C00005D0CA0503D5E26B42F00102E263420773
:1031D00005D5DA0703D0E26B42F00202E263820710
:1031E00005D5DA0703D0E26B42F00402E26302077E
:1031F00007D501F020022A4303D0E26B42F0080217
:10320000E263E26B002A33D0800604D5880602D53B
:10321000204601F0B7FD20684069E16BC0F38010E3
:10322000090700D428B3204601F095FD20684169C4
:1032300049061AD5416921F040014161606BA0B196
:103240001B490165606BFEF728FE002810D0606BFB
:10325000016DBDE870400847830610D58B060ED57A
:103260002046BDE8704001F08DBD2046FFF796FF77
:1032700070BD2046FFF792FF0020E06370BD03069B
:1032800006D50B0604D52046BDE8704001F05ABEB5
:103290004006F3D54806F1D5D168204621F040011B
:1032A000D160202184F8391000F0A4F970BD00002D
:1032B000C54C000870B5040004D094F8390000250E
:1032C00010B106E0012070BD84F83850204600F0AF
:1032D00023F8242084F839002068C16821F40051C3
:1032E000C160204601F09AFD2068016921F49041F7
:1032F00001612068416921F02A0141612068C168AB
:1033000041F40051C160E563202084F8390084F85D
:103310003A00002070BD00002DE9F04F87B0044650
:1033200014216846FDF708F88748864BD4F800C09A
:10333000032102228715002506154FF008094FF0DA
:10334000400B4FF0206A9C4555D17F4B1033D3F88A
:1033500000C04CF0004CC3F800C01B6803F00043F1
:103360000593036843F010030360006802AB00F0AC
:1033700010000590CDE90012012083E803026946A0
:103380007248FEF721FFDFF8CC8171494046C8F84A
:103390000010C0E901A5C0E90356C8F81450C0E9FF
:1033A0000657C8F82050D146C8F82450FEF758FEFA
:1033B00008B1FDF725FC674FC4F834806037C8F8C2
:1033C0003840C7E903567D61BD616148FD613D62DA
:1033D00090387D6287E8010A3846FEF741FE08B161
:1033E000FDF70EFC2763002205215320BC63FFF785
:1033F00069F8532046E0544BDFF85C811433C44530
:1034000045D1D3F800C04CF0100CC3F800C01B68C5
:1034100003F010030593036843F0020303600068A0
:1034200000F002000590C0208DE825000720CDE9BE
:10343000031069464948FEF7C7FEDFF8188148497E
:1034400008F1C0084046C8F800104FF00061C0E91C
:103450000115C0E90356C8F81450C0E90657C8F86A
:103460002050C8F82450FEF7FBFD08B1FDF7C8FB5B
:10347000C4F83480002205212520C8F83840FFF721
:1034800021F82520FFF710F807B0BDE8F08FDFF82E
:10349000D480C445F8D1D3F800C04CF0200CC3F858
:1034A00000C01B6803F020030593036843F040034A
:1034B00003600068CDE9025100F0400005904FF430
:1034C0008440CDE90002CDF8109069462648FEF709
:1034D0007BFE2349DFF8948060394046C8F800102D
:1034E000C0E901A5C0E90356C8F81450C0E9065761
:1034F000C8F82050D146C8F82450FEF7B1FD08B1F5
:10350000FDF77EFB194FC4F834806037C8F83840A7
:10351000C7E903567D61BD611148FD613D62183008
:103520007D6287E8010A3846FEF79AFD08B1FDF78B
:1035300067FB2763002205214720BC63FEF7C2FF1B
:1035400047209FE7007C00403038024000100240D6
:10355000A0600240D8050020001001400004024095
:10356000886402400014014000180240F806002060
:103570007047000070B5044690F83900202830D11B
:1035800069B362B394F8380001282AD0012084F886
:1035900038002162A284E2840025E563212084F8BA
:1035A0003900236B1048D863236B10481864236BD1
:1035B0000F48D864206B134605652668206B321DC2
:1035C000FEF7B8FD21686FF04000086084F83850BD
:1035D0002068416941F080014161002070BD0120F7
:1035E00070BD022070BD00001F4D00084D4D000849
:1035F000D54C000870477047FEE7000010B5044640
:103600000068416941F04001416121681923054A80
:10361000091D606BFEF78EFD2068C16841F0100146
:10362000C16010BDDC4900201CB500210091416B38
:103630000068C268D20631D50268426802684068F4
:1036400001900868026822F0010202600A6850686E
:10365000134BC0F1190010F0FF0018704FF0190360
:10366000536009680A6842F001020A6016D00D48EA
:103670000178662912D1007C88280FD10A48694652
:10368000006804F0C5F90098002807D007494FF0FA
:1036900080500860BFF34F8FBFF36F8F1CBD0000D9
:1036A000E4000020DC4900209000002004ED00E050
:1036B0002DE9F05F8B4983462DED028B142201F139
:1036C0001400FCF720FE87490A2314314FF000094B
:1036D0004A78B2FBF3F003FB102783484A88A0F135
:1036E00020064378A2F54C455B1C03F0FF0C7F4B92
:1036F000A0F15004CC3D9B780DD0B6F80080012598
:10370000424520D1E9027A48FEF748FEB570BDEC8B
:10371000028BBDE8F09F6168072BC4E9019102D0DC
:103720006B2B02D006E0EE2100E0DD21318080F835
:1037300001C04BE0BDEC028B5846BDE8F05F0A22A9
:103740006949FFF717BFA2F53B46BB3E39D08A4611
:103750009FED688A6348684EDFF8A081C838A2F5FB
:103760007F41FF3936D007EB870100EB8105287CCC
:103770000028CCD004F068FDE16BE063677085F849
:10378000109095ED000ADAED010A411A5C4870EEDE
:10379000200AC4ED100AC4ED050A9AED020A10EEE3
:1037A000102A824249D010EE102A564B9A4244D039
:1037B00095ED011A31EE000A84ED110A84ED0B0A31
:1037C0004CE080F801C0072B02D0DD218170B1E709
:1037D000EE21FBE74C494FF4B472B1F91610A1F693
:1037E0006421514300EE101AF8EEC00A9FED471A0B
:1037F00080EE810AD8ED0C0A02E000BF30EE480AE4
:1038000010EE101AB142F9DC02E000BF70EEC80AF7
:1038100010EE901AB142F9DC07EB870100EB81044E
:103820003148082284EC020A0838014680EC020A7A
:103830005846FFF79FFE257469E710EE102A824272
:1038400002D194ED0B0A07E098ED0C0A10EE100A75
:10385000B04201DD30EE480A84ED110A94ED111AF0
:10386000DFED2B1A9FED2B0A84ED061A00290ED0EE
:1038700094ED0D2A30EEC22A62EE212A02EE101AD1
:10388000B8EE422A82EE823A85ED023A01E085EDF9
:10389000020AC4ED0D0A84ED090AD4ED0E0A71EE98
:1038A000600A60EEA10A01EE901AF8EE611A80EE4D
:1038B000A12A85ED032A08D000EE101AB8EE400ABE
:1038C000C0EE801AC5ED031A01E085ED030A84ED10
:1038D0000E1A95ED020A84ED070A95ED030A84EDB0
:1038E000080A14E7DC4900203401002012450020BA
:1038F000001002400000B44300003443A001002047
:1039000000007F4300007FC3F445002000F8FF451E
:1039100000007A44000000000F4810B50D49016016
:103920000321416000214FF400228160C0E90312AD
:103930004FF440124261017641768176C17601777B
:103940004177FEF79AF8002803D0BDE81040FDF754
:1039500057B910BD00640040300400200F4810B576
:103960000D4901600321416000214FF40022816074
:10397000C0E903124FF4401242610176417681762C
:10398000C17601774177FEF778F8002803D0BDE8CB
:103990001040FDF735B910BD006800405804002004
:1039A0001D4808B5016841F480010160016801F417
:1039B00080010091016841F400110160006800225B
:1039C00000F40010009011460B20FEF77BFD0B2049
:1039D000FEF76AFD002211461120FEF773FD11204B
:1039E000FEF762FD002211463920FEF76BFD3920FB
:1039F000FEF75AFD002211464420FEF763FD4420E5
:103A0000FEF752FD002211464520FEF75BFDBDE8A2
:103A100008404520FEF748BD3038024000B587B069
:103A20001C2206496846FCF76EFC0021684603F03C
:103A3000CCFA0349086007B000BD0000EC84000820
:103A4000000000202DE9F04786B014216846FCF7FD
:103A500073FC45480024016841F0100101600168D1
:103A600001F010010591016841F002010160016857
:103A700001F002010591016841F040010160016817
:103A800001F040010591016841F001010160016808
:103A900001F001010591016841F008010160016830
:103AA00001F008010591016841F0800101600168A1
:103AB00001F080010591016841F02001016000687A
:103AC0002A4F00F020004FF40055059000222946AF
:103AD0003846FEF76AFCDFF8988001223C21404618
:103AE000FEF763FCDFF88CA0002244F24001504650
:103AF000FEF75BFCDFF880904FF440660022314611
:103B00004846FEF752FC00950125CDE9015469466F
:103B100038460394FEF758FB3C200090CDE9015451
:103B2000694640460394FEF74FFB4020CDE900056F
:103B30000320CDE9024069465046FEF745FB00965A
:103B4000CDE90154694648460394FEF73DFBA803BE
:103B50000090CDE90154694650460394FEF734FBCA
:103B600006B0BDE8F087000030380240001802407F
:103B7000001C024000140240001002400F4810B523
:103B80000D4901604FF48271416000218160C16084
:103B90004FF400720161C0E90512C1610162416226
:103BA00081620A21C162FEF779FF002803D0BDE8D7
:103BB0001040FDF725B810BD0050014080040020E2
:103BC00010B58AB0002407941C2168460894FCF7BD
:103BD000B3FB1648144901605321C0E9011440F2B7
:103BE000CF71C0E903148461FFF77DFA08B1FDF7D6
:103BF00007F8079407A90D480894FFF7B9F808B12A
:103C0000FCF7FEFF6020CDE900040294042269461F
:103C100006480494FFF7FFF908B1FCF7F1FF0348E9
:103C2000FFF7D0F90AB010BD00040040D80400200E
:103C30000C4810B50A4901604FF4E12141600021B0
:103C400081600C22C160C0E904128161C161FFF78B
:103C500031FB002803D0BDE81040FCF7D1BF10BDF8
:103C6000007C0040180500200E4810B50C4901608A
:103C70000D4941604FF48051816000214FF4806212
:103C8000C0E903120C22C0E90521C161FFF712FB54
:103C9000002803D0BDE81040FCF7B2BF10BD000003
:103CA0000010014058050020A08601000C4810B506
:103CB0000A4901604FF4E1214160002181600C223A
:103CC000C160C0E904128161C161FFF7F3FA002805
:103CD00003D0BDE81040FCF793BF10BD00140140B5
:103CE00098050020FEE7000090ED061A80ED071A07
:103CF000B0F90210B0F90420891A00EE101A1D4A1A
:103D0000F8EEC00AC0ED060A90ED080A30EE200A6F
:103D100010EE101A80ED080A914201DD9FED160A9F
:103D2000164A10EE101A80ED080A914201D99FED53
:103D3000140A4FF47A5280ED080AD0ED031A90ED80
:103D4000042A61EEA01A42EE001A30EEC10AD0ED4C
:103D5000050A40EE801ABDEEE10A10EE101A41622B
:103D6000914200DB1146074A4162914200DC114654
:103D70004162704700606A4600606A4600606AC639
:103D800000606AC680C1FFFF08489FED070ADFEDAB
:103D9000080A9FED081A00F10C01343081EC030A87
:103DA00080EC030A70470000000084417C4500203D
:103DB000CDCCCC3DCDCC4C3E0B4A022313701B0224
:103DC0005360030A13725072080A90720020D17275
:103DD000107350739073D073034604480322024952
:103DE000006803F0D5BF00006C4500209C00002057
:103DF000704700009FED121A10B5C0EE010A9FED4A
:103E0000110A2DED028B20EE800A10EE100AFCF74D
:103E100056FC41EC100B01F023FD0B48B0EE408A3C
:103E2000F0EE608A0069FCF74AFC53EC182BFCF7B3
:103E300035FBFCF725FCBDEC028B00B210BD000089
:103E400000003443DA0F4940BC00002027480168D5
:103E5000C160416801618168416125494A7800F18A
:103E600018014AB3012A26D1B1F81920C2F30A0277
:103E700042808A7ED308CA7E43EA4213C3F30A0310
:103E800083800B7F920942EA83034A7F43EA8223BD
:103E9000C3F30A03C38091F81E10520842EAC1120C
:103EA000C2F30A0202818A098272C1F30111C1724E
:103EB0000188491C018070470A88C2F30A024280C7
:103EC0004A78D3088A7843EA4213C3F30A0383800B
:103ED000CB78920942EA83030A7943EA8223C3F347
:103EE0000A03C38052084979D8E700002045002022
:103EF000A00000200A4800210222018009494A70DE
:103F0000510241808180C180018103218172C2728E
:103F10000168C160416801618168416170470000CA
:103F200020450020A000002038B50446FFF7E2FF3E
:103F30002068416941F04001416119200090074B20
:103F40002168A3F11902091D606BFDF774FF206859
:103F5000C16841F01001C16038BD0000514500202A
:103F60003EB52349002201920968C968C9063ED5B9
:103F700020490B6849680068016840681E49009044
:103F80000868036823F00103036008684368C3F10D
:103F90001903DCB2194B1C7005682D0306D50268A5
:103FA00022F4002202600120587004E0056845F404
:103FB000002505605A70122C01D0022058700A6842
:103FC000192050600868016841F0010101600C4847
:103FD00001A9006803F01CFD0198002807D00949D9
:103FE0004FF080500860BFF34F8FBFF36F8F3EBD1F
:103FF000580500200010014098060020A000002075
:104000008400002004ED00E038B504461248134B4C
:104010000068B0FBF3F04FF47A7358430090606887
:10402000B0F5827F0DD10B46009200228021204600
:1040300000F016F870B1606D40F02000606503205C
:1040400038BD009830B1401E009020688068C043A1
:104050000006F6D5002038BD1400002000366E01A1
:104060002DE9F0411D4617460E460446DDF818803E
:1040700008E0681C06D0FEF79DF9A0EB0800A842F6
:104080000BD255B12068806836EA000030D000209D
:10409000B842EED10020BDE8F0812068416821F0EF
:1040A000E00141606068B0F5827F0BD1A068B0F597
:1040B000004F02D0B0F5806F04D12068016821F074
:1040C00040010160A06AB0F5005F09D12068016875
:1040D00021F4005101602068016841F40051016041
:1040E000012084F85100002084F850000320D2E71A
:1040F0000120CDE730B5002201231C490C2801D84E
:104100000A700AE0A0F10D04052C01D80B7004E040
:104110001338192801D80220087014480D78142487
:10412000083025B1012D04D0022D05D10DE0322536
:1041300000E0B42505804480CC7874B10C4C05882F
:10414000A488AC4204D34A7030BD4FF48C75F1E7BB
:1041500040888442F8D84B7030BDC868B0F5966F7F
:1041600000DD4A700A28F6DB30BD0000A400002004
:10417000124500200548F7EE001A90ED051A21EED1
:10418000000A31EEC11A01EE200A7047BC0000207F
:1041900004480221417000218170C1700121017128
:1041A00070470000B40000202DE9F0410021414893
:1041B000FCF75BFD404C0027404D01264FF0020804
:1041C00001280BD0022804D0032809D16770AF70F2
:1041D00006E084F8018085F8028001E06670AE7028
:1041E000607870B3012817D0022813D1012131481B
:1041F000FCF73BFD012812D001212E48FCF735FDCC
:1042000002281FD001212B48FCF72FFD032801D1E4
:104210002670E770BDE8F08184F80280FAE7207824
:104220000028F7D0A07820B1012804D0022805D0BA
:1042300005E0A67003E084F8028000E0A770277014
:10424000E8E705E02670A0780028E3D0E670E1E713
:10425000A770E77001211748FCF707FD01280ED071
:1042600001211448FCF701FD022818D00121114852
:10427000FCF7FBFC0328CDD126702F71CAE720780C
:104280000028C7D0E87828B1012805D00228D6D167
:10429000EF70D4E7EE70D2E785F80380CFE72670A1
:1042A000E8780028B6D006488088B0F5D27FB1D231
:1042B0002E71AFE720450020B40000200845002003
:1042C0001245002010B590F90A10002918DCB0F949
:1042D000023000220B496333C62B10D8436AA3F582
:1042E0001C54103C03D042F21074E34207D10B7906
:1042F0005B1CDBB20B71142B02D33C2383720A715B
:1043000010BD0000A4000020F0B53A4FB8791E2877
:1043100022D00020384C4FF4B471DFED390AE07040
:104320003648B0F91600A0F66420484300EE100AA3
:10433000B8EEC00A80EE201ABCEEC10A10EE100AD8
:1043400080B2FFF7D7FE2F4800262F4D00780228B5
:1043500004D001280CD025E00120DBE72B480078B1
:1043600001281FD1607801281CD1E08828811AE03B
:104370002748817B042915D1397B012912D1C07BC3
:1043800002280FD0617801290CD118B1E08828816A
:10439000A67008E0A0780A2804D8E1882981401C8A
:1043A000A07000E02E811848FFF78CFF95F90A00F5
:1043B000002804DD401EA872E08840422881607811
:1043C00000B92E81298931B10028E06801D0801C14
:1043D00005E0401E03E0E0680A2801DB801EE06083
:1043E0000C48007800B92E81BDE8F040064800F086
:1043F00029B8000012450020A4000020F445002048
:1044000000F8FF45B5000020CC450020B700002093
:10441000F0490020B60000200748B1EE080A00214C
:1044200080ED030A9FED050A80ED040A9FED040A62
:1044300080ED050A01817047CC4500205839B43C15
:104440000000000090ED061A80ED071AB0F9081080
:10445000B0F90220891A00EE101A1D4AF8EEC00ABF
:10446000C0ED060A90ED080A30EE200A10EE101A90
:1044700080ED080A914201DD9FED160A164A10EE02
:10448000101A80ED080A914201D99FED140A42F2F8
:10449000107280ED080AD0ED031A90ED042A61EE47
:1044A000A01A42EE001A30EEC10AD0ED050A40EE25
:1044B000801ABDEEE10A10EE101A4162914200DD51
:1044C0001146074A4162914200DA11464162704743
:1044D00000606A4600606A4600606AC600606AC69C
:1044E000F0D8FFFF10B5502080F31188BFF34F8F35
:1044F000BFF36F8F03F0AEFE18B104494FF0805048
:104500000860002080F3118810BD000004ED00E079
:1045100030B593B030216846FBF70EFF14210CA88C
:10452000FBF70AFF19480025016841F0805101603E
:10453000006800F0805011901548016841F4404136
:1045400001600068022400F44040119001200090B6
:10455000000401908001CDE9064006200890A820C3
:10456000CDE9090404200B906846FEF7E9F80CA990
:104570000F2081E831004FF4A0500F90E00210901E
:1045800005210CA8FDF7D0FF13B030BD4038024024
:10459000007000400548016841F470010160034962
:1045A0004FF00060803908607047000088ED00E03F
:1045B0000148FEF753BC0000B8070020F0B50268C0
:1045C000254C264D264E274F274B4FF0804CA042BE
:1045D00009D0604507D0A84205D0B04203D0B84208
:1045E00001D0984204D122F0700E4A6842EA0E02CD
:1045F000A0421BD0604519D0A84217D0B04215D0B8
:10460000B84213D0984211D0184DA8420ED0184D80
:10461000A8420BD0174DA84208D0174DA84205D08C
:10462000164DA84202D0164DA84203D122F440757F
:10463000CA682A434D6922F080022A4302608A68D0
:10464000C2620A688262A04201D0984201D109691F
:10465000016301214161F0BD000001400004004000
:1046600000080040000C00400004014000400140F0
:10467000004401400048014000180040001C004078
:104680000020004010B501F01F030121046A994089
:104690008C430462016A9A401143016210BD00001C
:1046A000F0B5026A22F001020262036A426884697C
:1046B000124E24F073050C682C4323F002058B681E
:1046C0002B430D4DA84201D0B04205D123F008077D
:1046D000CB683B4323F00403A84201D0B04205D18C
:1046E0004D6922F4407215438A692A43426084610D
:1046F000496841630362F0BD0000014000040140CD
:10470000F0B5026A22F010020262026A436884690C
:104710000D6824F4E64444EA05248D6822F0200262
:1047200042EA05120F4D104EA84201D0B04206D108
:10473000CF6822F0800242EA071222F04002A8422B
:1047400001D0B04207D14D6923F4406343EA8503A9
:104750008D6943EA8503436084614968816302622D
:10476000F0BD00000000014000040140F0B5026A05
:1047700022F480720262026A4368C46922F4007201
:1047800024F073050C68124E2C438D6842EA052212
:104790000E4DA84201D0B04206D1CF6822F400628B
:1047A00042EA072222F48062A84201D0B04207D137
:1047B0004D6923F4405343EA05138D6943EA051319
:1047C0004360C4614968C1630262F0BD00000140FA
:1047D0000004014030B5026A22F480520262046A89
:1047E0004268C3690D6823F4E64343EA05238D68F4
:1047F00024F4005444EA0534084DA84202D0084D80
:10480000A84204D14D6922F4804242EA85124260F6
:10481000C36149680164046230BD000000000140CA
:10482000000401400E4C0D4E4FF0FF3704F1080517
:104830003A460B49306803F05BFB2078012808D02A
:104840000228F5D12A460748D4F80410FCF7DEF810
:10485000EEE72A4604486168F8E700009C00002063
:10486000E8440020580400203004002008B503F07C
:10487000EBFC234D234C02274FF42576009028783B
:10488000012818D0002820484FF0000125D0FCF75F
:10489000D1F94FF4FA5110FB01F090FBF6F02080B3
:1048A0000020E080A4F80800FCF7CAF8022168465E
:1048B00003F004F8E3E71548807B04280BD1114886
:1048C0000A30007A032806D01148406A0028EBD04D
:1048D00001202080E8E72780E6E7FCF7ABF94FF4FA
:1048E000FA5110FB01F090FBF6F0208003210648FE
:1048F000FCF7A0F9E08002210348FCF79BF9D1E71F
:10490000B50000200845002020450020F049002087
:10491000CC45002008B5FCF701FE1248002181704B
:104920000121C17003F090FC0F4C104E04F15405AE
:1049300000900D4901F15400FCF7A0F90A4901F17A
:104940005400FCF7E5FBB08C01B2B5F91400FCF79C
:10495000C1FDB4F91400FCF7A1FD0221684602F084
:10496000ADFFE6E7BC000020F4450020CC45002068
:1049700008B503F069FC009002F082F901F05AFCDE
:1049800001F090FE01F046FF0221684602F096FF1A
:10499000F2E700007CB502F0CDFE4B48FCF778F85A
:1049A0004A48FCF775F84848FCF79AF84748FCF77E
:1049B00097F800221021322003F082F944490122A5
:1049C000486251034348FDF7F0FC4348FFF7ACFA57
:1049D0004248FEF713FE02F021F901F03FFF0421E7
:1049E0003F48FEF7B1FB3E4941F65830096808647C
:1049F000374903200831CDE900010023642239A1A1
:104A00003C4803F04BFB32490620091DCDE900016B
:104A10000023802238A13B4803F040FB2C480524AA
:104A20000C30CDE900404FF480760023324636A1A9
:104A3000374803F033FB264800231430CDE900400B
:104A4000802234A1384803F029FB21480425CDE910
:104A500000500023324635A1374803F01FFB1C48A5
:104A600000231030CDE90040324634A1364803F02F
:104A700015FB1748EE011C30CDE9005000233246EB
:104A800032A1354803F00AFB114800232030CDE95C
:104A90000050C82231A1364803F000FB0C48002327
:104AA0001830CDE90040324632A1364803F0F6FA1C
:104AB0004FF47A7002F0DCFE002002F045FFBDE802
:104AC0007C4002F057BE0000300400205804002053
:104AD000780000200018024058050020180500202A
:104AE000D80400205461736B5F4C4544426C696E7E
:104AF0006B000000B54B00085461736B5F43414E7F
:104B000000000000254800085461736B5F524300A9
:104B1000D94B00085461736B5F5374617475734DA6
:104B2000616368696E650000914C00085461736BA5
:104B30005F53686F6F740000FD4B00085461736B26
:104B40005F494D5500000000714900085461736BC6
:104B50005F47696D62616C00154900085461736BB1
:104B60005F436F6D6D756E69636174696F6E000090
:104B70006D4800085461736B5F4A6574736F6E43D0
:104B80006F6D6D00894B000808490120851E8870F3
:104B9000A1F130042946012002F048FD0448FEF747
:104BA00087FD6068401C6060F4E70000140100208D
:104BB0001805002008B503F047FB064D4FF480446C
:104BC000009021462846FDF7E9FB6421684602F083
:104BD00075FEF6E700140240074D4FF0FF34214602
:104BE000012002F023FDFFF731F9002302221946CC
:104BF000286803F0ABFAF2E78C00002008B5FFF755
:104C00000BFCFFF7C1F803F01FFB204C1A4DDFF837
:104C10006C90DFF86CA01B4FDFF86C80002604F16D
:104C2000280B0090287B01280DD1E87801280AD0B4
:104C300099F80000012809D19AF80200012805D14D
:104C40000220387002E03E7088F80060FBF7DAFF5F
:104C50000E48FFF749F85846FFF746F8B4F84C00FD
:104C600001B2A08C00B2FFF7A7F8FFF74DFB0521BA
:104C7000684602F023FED5E712450020B50000206B
:104C800014010020B6000020B70000207C45002061
:104C900008B503F0D9FA0090FFF77AFAFFF784FA23
:104CA0000A21684602F00AFEF8E7000010B5044841
:104CB000FEF776FABDE810400148FEF7B5BC0000EB
:104CC0001805002010B5806B0021C185C184FEF756
:104CD00065FA10BD70B5846B2068406994F839108E
:104CE000C0F3C0100025212904D118B1E584204665
:104CF00000F03FF82068406994F83A10C0F3801043
:104D0000222904D118B1E585204600F024F8E06B93
:104D100040F01000E0632046FEF740FA70BD10B589
:104D20000146806B09680968C9050CD40021C1845B
:104D300001684A6922F080024A610068C16841F056
:104D40004001C16010BDFEF755FC10BD10B5806B71
:104D5000FEF751FC10BD0168CA6822F49072CA6067
:104D600001684A6922F001024A61202180F83A1064
:104D700070470168CA6822F0C002CA60202180F82A
:104D80003910704710B590F83A10222901D002204E
:104D900010BD8168B1F5805F11D0016900290168FB
:104DA0001FD0496801F07F03816A4A1C82620B7040
:104DB000C18D491E0904090CC18518D02BE0026978
:104DC000816A002A0268526805D0D2B20A80816ADC
:104DD000491C8162ECE7C2F308020A80816A891CDF
:104DE000F7E74A68816A4B1C83620A70E0E7016852
:104DF000CA6822F02002CA600168CA6822F4807280
:104E0000CA6001684A6922F001024A61202180F8E3
:104E10003A10FEF7ADFB002010BD00002DE9F04177
:104E2000044600680169E26821F4405111430161C0
:104E30002169A068E2690843616911430843216858
:104E4000CA6849F20C639A430243CA602068416908
:104E5000A26921F4407111434161E0691927642579
:104E60003226B0F5004F354A354920684FF000082A
:104E700006D0884201D0904236D1FDF71FFC35E0C4
:104E8000884201D0904202D1FDF718FC01E0FDF705
:104E900005FC61684A18A0FB070148EB0803FBF713
:104EA00001FA0146B0FBF5F00201B1FBF5F06FF03D
:104EB0001803584301EB800006EBC000B0FBF5F08F
:104EC00000F0F80002EB4002B1FBF5F0584301EBB3
:104ED000800006EBC000B0FBF5F000F00700216891
:104EE00010448860BDE8F081FDF7D8FB61688B0F46
:104EF0008A00A0FB0701FBF7D5F90146B0FBF5F0EE
:104F00006FF01802504301EB800006EB0010B0FB7D
:104F1000F5F000F0F002B1FBF5F002EB0012B1FB8E
:104F2000F5F06FF01803584301EB800006EB00101A
:104F3000B0FBF5F000F00F00D1E7000000140140D5
:104F40000010014090F83910212901D0022070474B
:104F50008168B1F5805F016A0BD04A1C0262026869
:104F600009785160C18C491E0904090CC1840ED016
:104F700017E009880268C1F308015160016900293E
:104F8000016A02D0491C0162ECE7891CFBE7016859
:104F9000CA6822F08002CA600068C16841F040011E
:104FA000C16000207047000010B50448FEF7F8F813
:104FB000BDE810400148FEF7D3BF000058050020AF
:104FC0000148FEF7EDB8000098050020FEE703B4A5
:104FD00001984100009850EAC12018BF04204A0DF2
:104FE00018BF40F0010040F2FF72B2EB515F08BF02
:104FF00040F00200012808BF052002B070470907F1
:10500000090E002804DB00F1E02080F8001470474E
:1050100000F00F0000F1E02080F8141D7047000040
:1050200070B5C1482DED020B2DED0E8B82B0119D98
:1050300025F000449FEDBEDB9FEDBFEB84423EDBDD
:10504000A4F140511098A1F17F6108430FD0BC48F2
:10505000844202DC28D1109830B39DED100B02B0D1
:10506000BDEC0E8B02B0BDE8704001F085B89DED3F
:10507000100B53EC1D2B51EC100BFBF70FFA9DEDB1
:10508000100B41EC180B53EC1E2B51EC100BFBF7E3
:1050900005FA53EC182BFBF75AF941EC100B02B050
:1050A000BDEC0E8B02B070BD012001F0A9F802B07A
:1050B000BDEC0E8B02B0BDE8704001F071B8A148A4
:1050C0009FEDA18B844256DA9DED100BB4F1795F10
:1050D0000ADA51EC100BFFF77AFF042808BF01F041
:1050E0006FF89DED100BDAE753EC102B51EC100B21
:1050F000FBF7D4F941EC190B95480621B0EE490AAB
:10510000F0EE690A784400F023FF53EC192B51ECC0
:10511000100BFBF7C3F941EC1A0B8E48B0EE490AAD
:10512000F0EE690A0421784400F012FF53EC192BC9
:1051300051EC100BFBF7B2F953EC182BFBF707F906
:1051400041EC100B51EC1A0B53EC102BFBF718FA37
:10515000CDE900019DED000B53EC102B9DED100BE4
:1051600051EC100BFBF79AF99DED101B53EC112B32
:10517000FBF7EDF8D2E09DED100B51EC100B01F0B8
:105180004DF853EC182BFBF786F99FED730BCDE927
:10519000000153EC102B9DED000B51EC100BFBF7B5
:1051A0007DF941EC190B6E480621B0EE490AF0EE8C
:1051B000690A784400F0CCFE53EC192B51EC100B2B
:1051C000FBF76CF941EC1B0B6648B0EE490AF0EEB8
:1051D000690A0421784400F0BBFE53EC192B51EC12
:1051E000100BFBF75BF953EC182BFBF7B0F841EC15
:1051F0001C0B51EC190B02F0E1F941EC180B5A4869
:105200009FED5BABA04222DC53EC1C2B51EC1B0B43
:10521000FBF7B6F9CDE900019DED000B51EC180B41
:1052200053EC102BFBF73AF953EC182BFBF78FF8E4
:1052300053EC1A2BFBF732F953EC1D2BFBF728F933
:1052400053EC1E2BFBF727F941EC100B5FE08DEDC3
:10525000008B002000909DED000B51EC180B53ECDF
:10526000102BFBF774F89DED000B41EC1E0B53EC7B
:10527000102B51EC100BFBF711F953EC192BFBF72A
:105280000AF953EC1E2BFBF77BF941EC190B53EC9D
:105290001C2B51EC1B0BFBF773F941EC1B0B53EC74
:1052A0001A2B51EC190BFBF7F9F853EC1D2BFBF7FC
:1052B000F2F841EC190B53EC1A2B51EC180BFBF7DD
:1052C000EDF853EC1B2BFBF7E9F853EC192BFBF72C
:1052D000DFF89DED000B41EC180B53EC1A2B51EC51
:1052E000100BFBF7DBF89FED249B53EC192BFBF71E
:1052F000D2F841EC100B51EC180B53EC102BFBF7D0
:10530000C7F853EC192BFBF7C6F841EC100B002D36
:105310003FF7C5AE51EC100B81F0004141EC100B92
:10532000BDE60000000000000000F03F00000000AB
:10533000075C143326A6913C182D4454FB21F93FF9
:105340000000F07F0000E03F000000000000F03FA0
:105350003834000046340000000000000000E03F48
:105360008A330000983300003333EF3F0000000021
:105370000000000000000040182D4454FB21E93FCC
:1053800070B59B482DED020B2DED068B079D25F08A
:105390000044A04218DC9748844202DC0AD10698F7
:1053A00040B19DED060BBDEC068B02B0BDE8704030
:1053B00000F0E2BE002DCCBF9FED8F0B9FED900B58
:1053C000BDEC068B02B070BD8F48A04215DD8F4842
:1053D000A042D8BF4FF0FF3458DD9DED060B51ECD5
:1053E000100BFFF7F4FD042808BF00F0E9FE9DED67
:1053F000060BBDEC068B02B070BD9DED060B51ECAB
:10540000100B00F00BFFCDE9060181489FED828B68
:10541000A0423CDD8248A0421FDD00249FED82AB0C
:105420009DED060B53EC1A2B51EC100BFAF78FFF86
:105430009DED060B41EC190B53EC1A2B51EC100BA4
:10544000FBF72CF853EC182BFBF722F853EC192B35
:10545000FBF796F8CDE9060149E09DED060B012426
:1054600053EC182B51EC100BFAF771FF9DED060B66
:1054700041EC190B53EC182B51EC100BFBF708F80F
:1054800053EC192BFBF77CF8CDE906012FE06848B7
:10549000A0421FDD02249FED689B9DED060B53EC9F
:1054A000192B51EC100BFAF7F9FF53EC182BFAF704
:1054B0004EFF9DED060B41EC180B53EC192B51ECF4
:1054C000100BFAF7E5FF53EC182BFBF759F8CDE971
:1054D00006010CE09DED060B032453EC102B9FED11
:1054E000580B51EC100BFBF74BF8CDE906019DED85
:1054F000060B53EC102B51EC100BFAF7CFFF41ECDD
:10550000180B53EC182BFAF7C9FF41EC190B4E4856
:105510000621B0EE490AF0EE690A784400F018FD61
:1055200053EC182B51EC100BFAF7B8FF41EC180BA9
:105530004648B0EE490AF0EE690A0521784400F0C9
:1055400007FD53EC192B51EC100BFAF7A7FF41ECB8
:10555000100B51EC180B53EC102B002C0EDAFAF751
:10556000F6FE9DED061B53EC112BFAF797FF9DED10
:10557000061B53EC112BFAF78EFF35E0FAF7E7FE26
:105580009DED061B53EC112BFAF788FF41EC100B35
:105590002F48784400EBC40090ED001B51EC100B39
:1055A00053EC112BFAF774FF9DED061B53EC112BF6
:1055B000FAF76EFF41EC100B2648784400EBC4006C
:1055C00090ED001B51EC100B53EC112BFAF763FF1D
:1055D00041EC100B002DA2BFBDEC068B02B070BDDC
:1055E00051EC100B81F0004141EC100B01E7000081
:1055F000000010440000F07F182D4454FB21F93FB7
:10560000182D4454FB21F9BF0000DC3F0000203E70
:105610000000F33F00000000000000000000F03F29
:105620000000E63F00000000000000000000004015
:105630000080034000000000000000000000F83F70
:10564000000000000000F0BFDA30000090300000E1
:105650001A300000D22F000070B56B4E2DED040BF8
:105660002DED028B82B0DDF81CC0DDE905235C4224
:105670002CF000411C4341EAD474049D22F0004008
:10568000B44205D86C422C4340EAD474B4420BD9DE
:105690009DED061B9DED040B02B0BDEC028B04B02A
:1056A000BDE8704000F072BDACF14054A4F17F64DD
:1056B0001C430BD0022404EAAC7444EAD2740543C0
:1056C0009FED538B9FED542B07D015E09DED040B00
:1056D00051EC100B00F09AFD42E0002C11BF012CA0
:1056E0009DED040B02B0BDEC028B04BF04B070BD95
:1056F000022C38D0032C3BD00B439FED491B9FED70
:105700004A0B0AD0B14218D1B04209D121F08041F0
:1057100020F08040079105900FE0002A15DA10E094
:10572000434B7B44002C08BF93ED000B0DD0012CA4
:1057300010D0022C17D0032C1AD0B0421DD1002A51
:1057400003DAB0EE410AF0EE610A02B0BDEC028B62
:1057500004B070BD93ED000B51EC100B81F00041D3
:1057600041EC100BF1E7B0EE480AF0EE680AECE706
:10577000B0EE420AF0EE620AE7E7401A00153C2854
:10578000C8BF8DED000B19DCBCF1000FBEBF10F1DE
:105790003C0F9FED290B8DED000B0FDB9DED060BF4
:1057A00053EC102B9DED040B51EC100BFAF7E8FEB7
:1057B00000F034FD00F02AFDCDE90001002C08BF07
:1057C0009DED000BC1D0012C10D0022C9FED1C0BC5
:1057D00053EC102B9DED000B51EC100B0DD0FAF794
:1057E00057FE53EC182BFAF753FEB9E7019880F0F7
:1057F000004001909DED000BA7E7FAF749FE53EC3E
:10580000182BFAF748FEABE70000F07F000000001D
:10581000182D4454FB210940182D4454FB2109C084
:10582000182D4454FB21F9BF182D4454FB21F93F96
:10583000322F000000000000000000000000000007
:10584000075C143326A6A13C2DED020B019820F035
:10585000004001909DED000B02B070470000000079
:1058600010B52F499FED2C1B2DED020B84B0059830
:1058700020F000408842DCBF00209DED040B32DDAB
:105880002849884209D1049840B94FF0010000F03E
:10589000B7FC00F085FC06B010BD05DB9DED040BE8
:1058A00000F06AFC06B010BD68469DED040B00F0E8
:1058B0007BF810F0030011D0012818D09DED021BD9
:1058C0009DED000B02281AD000F08AFA51EC100B63
:1058D00081F0004106B041EC100B10BD9DED021BA4
:1058E0009DED000B012000F0AFFB06B010BD9DED5B
:1058F000021B9DED000B00F073FA06B010BD0120F5
:1059000000F0A2FB51EC100B81F0004106B041EC1D
:10591000100B10BD0000000000000000000000009F
:10592000FB21E93F0000F07F00B52DED048BB0EEC8
:10593000409AF0EE609A83B051EC190BFAF7CBFF66
:1059400041EC180B18EE100A18EE901A8DED008B32
:10595000002818BF0120084320F00040C0F17F60FC
:1059600000F1E040C00F14D019EE101A19EE900AA1
:105970008DED009B002918BF0121084320F0004055
:10598000C0F17F6000F1E040C00F04BF012000F0D3
:1059900037FCB0EE480A03B0F0EE680ABDEC048BA9
:1059A00000BD0000000000002DE9F14F04462DED80
:1059B000020B2DED088B8AB09FEDE70B80ED020BFB
:1059C000139EE74826F0004585420ADC9DED120B48
:1059D000002084ED000B0AB0BDEC088B03B0BDE8DD
:1059E000F08FE0489FEDE0AB9FEDE1BBA84247DDC3
:1059F000E14F9FEDE39B9FEDE48B9DED120B53EC8C
:105A00001A2B51EC100B002E1CDDFAF741FD41EC76
:105A1000100BBD4208D053EC1B2B51EC100BFAF7C6
:105A200037FDC4E900010BE053EC192B51EC100BCE
:105A3000FAF72EFD53EC182BFAF72AFDC4E9000102
:105A40000120C8E7FAF783FC41EC100BBD4208D0F7
:105A500053EC1B2B51EC100BFAF779FCC4E9000155
:105A60000BE053EC192B51EC100BFAF770FC53ECD4
:105A7000182BFAF76CFCC4E900014FF0FF30AAE7DD
:105A8000C348A84279DB9DED120B51EC100B00F0DE
:105A9000C5FB41EC180B9FEDC00B53EC102BFAF734
:105AA000FDFC9FEDBF1B53EC112BFAF750FCFAF7EE
:105AB000E7FD0746FAF7D3FD41EC190B53EC1A2B1F
:105AC000FAF7ECFC53EC182BFAF7E5FC41EC180B59
:105AD00053EC1B2B51EC190BFAF7E0FCDFF8C8A2D2
