:020000040800F2
:10000000F80500208102000827170008BD15000828
:10001000251700088D0300086B1900080000000078
:10002000000000000000000000000000C101000806
:10003000CD030008000000001D0200082917000879
:100040009B0200089B0200089B0200089B0200081C
:100050009B0200089B0200089B0200089B0200080C
:100060009B0200089B0200089B0200089B020008FC
:100070009B0200089B0200089B0200089B020008EC
:100080009B0200089B0200089B0200089B020008DC
:10009000910300089D0300089B0200089B020008D2
:1000A0009B0200089B0200089B0200089B020008BC
:1000B0002D1800089B0200089B0200089B02000804
:1000C0009B0200089B0200089B0200089B0200089C
:1000D0009B0200089B0200089B0200089B0200088C
:1000E0009B0200089B0200089B0200089B0200087C
:1000F0009B0200089B0200089B0200089B0200086C
:100100009B0200089B0200089B0200089B0200085B
:100110009B0200089B0200089B0200089B0200084B
:100120009B0200089B0200089B0200089B0200083B
:100130009B0200089B0200089B0200089B0200082B
:100140009B0200089B0200089B0200089B0200081B
:100150009B0200089B0200089B0200089B0200080B
:100160009B0200089B0200089B0200089B020008FB
:100170009B0200089B0200089B0200080000000090
:100180009B0200089B0200089B0200089B020008DB
:100190009B0200089B0200089B0200089B020008CB
:1001A00000000000000000009B020008DFF80CD0F7
:1001B00000F0DAF800480047AD190008F805002003
:1001C0002C4B19680868B0E8F04F80F30988BFF33A
:1001D0006F8F4FF0000080F311887047000000001F
:1001E00008480068006880F308884FF0000080F33A
:1001F000148862B661B6BFF34F8FBFF36F8F00DF15
:1002000000BF00BF08ED00E0DFF80C00016841F41A
:1002100070010160704700BF88ED00E0EFF30980D6
:10022000BFF36F8F134B1A681EF0100F08BF20ED3D
:10023000108A20E9F04F106009B44FF0500080F3AD
:100240001188BFF34F8FBFF36F8F01F0F9FB4FF0B1
:10025000000080F3118809BC19680868B0E8F04F05
:100260001EF0100F08BFB0EC108A80F30988BFF3AE
:100270006F8F704718000020EFF305807047000073
:100280000648804706480047FEE7FEE7FEE7FEE730
:10029000FEE7FEE7FEE7FEE7FEE7FEE7D917000808
:1002A000AD0100082DE9F05F0546002092469B460F
:1002B00088460646814640241BE02846414647467C
:1002C000224600F041F853465A46C01A914110D3D5
:1002D00011461846224600F028F82D1A67EB01084F
:1002E0004F4622460120002100F01FF817EB0009BD
:1002F0004E41201EA4F10104DFDC484631462A4667
:100300004346BDE8F09FD2B201E000F8012B491E40
:10031000FBD270470022F6E710B513460A460446A2
:100320001946FFF7F0FF204610BD202A04DB203AD3
:1003300000FA02F1002070479140C2F1200320FA38
:1003400003F3194390407047202A04DB203A21FA36
:1003500002F00021704721FA02F3D040C2F12002DE
:100360009140084319467047064C074D06E0E06887
:1003700040F0010394E8070098471034AC42F6D3EC
:10038000FFF718FF7C1B00089C1B0008FEE700001D
:10039000014800F0F6B8000060000020014800F0BD
:1003A000F0B800006000002000B587B00020029087
:1003B000039008200091049001236946024800F050
:1003C00007F807B000BD00006000002070477047CC
:1003D000F0B590F820500468A468012D05D0022DD6
:1003E00003D0416A41F4802153E014F0406F01D101
:1003F000E5004BD5C4F30164022C03D9416A41F4F2
:10040000000146E00125A5401D608D684FF4C073D2
:100410009DB1CE6835434E6845EAC605066803EBD4
:100420000417F5514FF4C275076805EB04150E6902
:100430007E51097D012905D009E00E88CD6845EA85
:100440004655EBE701684E5946F480764E511179D6
:10045000D2F805504FF4C67641EA0525016806EB4F
:1004600004168D511178D2F801204FF4C47541EA79
:100470000221026805EB04155151006803EB0411D9
:10048000425842F0010242500020F0BD416A41F45E
:10049000001141620120F0BD704730B590F8204056
:1004A000012C05D0022C03D0416A41F480215DE08B
:1004B0000468002955D02469A40754D04FF4D87497
:1004C000056804EB01142D5915F0040595600568C5
:1004D0002D594ED0ED08556005682C5904F00204E2
:1004E000D4604FF4DA74056804EB01142D5905F05B
:1004F0000F05156105682D59C5F307259561056838
:100500002C59240C54614FF4DC72046802EB011284
:10051000A4581C700468A458240A5C700468A45889
:10052000240C9C700468A258120EDA704FF4DE722C
:10053000046802EB0112A4581C710468A458240A30
:100540005C710468A458240C9C710468A258120EB3
:10055000DA71006881B1016941F020010161002078
:1005600030BDE468A8E7416A41F40011416201200E
:1005700030BD6D0D1560AFE7C16841F02001C1606D
:10058000EDE72DE9F05F0546006800244669D0F8E4
:1005900004908768D0F80CB0D0F810A0D0F818807C
:1005A000F10748D0F90714D001218160B80703D5BD
:1005B000284600F0DFF90CE0780702D54FF400641C
:1005C00007E0380702D54FF4805402E0284600F0D7
:1005D000D0F9F80516D529684FF480708860B80501
:1005E00003D5284600F0C8F90CE0780502D544F49C
:1005F000005407E0380502D544F4804402E0284660
:1006000000F0B9F9F80316D529684FF480308860F6
:10061000B80303D5284600F0B1F90CE0780302D501
:1006200044F4004407E0380302D544F4803402E087
:10063000284600F0A2F9300707D55FEACB6004D561
:100640002968102044F40074C86070074FF0080750
:1006500007D55FEA0B7004D52868C760284600F00C
:100660005FF9B00706D52868C068800702D0284621
:1006700000F058F9700607D55FEACA6004D529680A
:10068000102044F480640861B00607D55FEA0A7060
:1006900004D528680761284600F068F9F00606D5F9
:1006A00028680069800702D0284600F060F9B0038E
:1006B00008D55FEAC96005D529681020486028463A
:1006C00000F056F9F00307D55FEA097004D52868F1
:1006D0004760284600F053F9300446D55FEA497078
:1006E00040D5F00504D55FEAC87001D044F001049C
:1006F000B00504D55FEA887001D544F002047005A6
:1007000004D55FEA487001D544F00404300529D5CA
:1007100018F0700F26D008F07000402815D006DCC5
:10072000102809D020280AD0302816D10AE05028F5
:100730000ED0602811D10EE044F008040DE044F022
:1007400010040AE044F0200407E044F0400404E010
:1007500044F0800401E044F480742868816921F049
:1007600070018161296804204860002C05D0686A06
:10077000204368622846FFF78FFEBDE8F09F70B502
:10078000040003D094F8200010B104E0012070BDF3
:10079000204600F081F82068016821F00201016024
:1007A00000F0F0F90546052604E000F0EBF9401BE7
:1007B0000A2811D8206840688007F6D420680168AC
:1007C00041F00101016000F0DDF905460BE000F0A9
:1007D000D9F9401B0A2806D9606A40F400306062EB
:1007E00084F82060D2E720684068C007EFD0207E00
:1007F0000128206801683DD021F080010160607E01
:1008000001282068016838D021F040010160A07EF5
:1008100001282068016833D021F020010160E07ECA
:100820000128206801682ED041F010010160207F6E
:1008300001282068016829D021F008010160607F4B
:1008400001282068016824D021F004010160D4E966
:1008500002010843D4E90412114308436168491EA8
:1008600008432168C86100206062012084F82000EC
:10087000002070BD41F08001C0E741F04001C5E7B4
:1008800041F02001CAE721F01001CFE741F0080153
:10089000D4E741F00401D9E710B586B0044614212D
:1008A0006846FFF737FD1B49206888422FD11A4858
:1008B0000021026842F000720260006800F00070DF
:1008C000059015481038026842F00802026000687E
:1008D000022200F0080005900320CDE90210CDE9C6
:1008E00000020920049069460C4800F05BF80022E1
:1008F0001146142000F0D2F9142000F0C1F90022B2
:100900001146152000F0CAF9152000F0B9F906B01B
:1009100010BD00000064004040380240000C02405E
:100920007047000000B589B007AB6A4600210D484A
:10093000FFF7B3FD0098A0F5007001380FD10A4809
:10094000C188491CC180BDF81C1049BA0180BDF89E
:100950001E1049BA4180BDF8201049BA818009B003
:1009600000BD000060000020540000207047704768
:1009700070477047704770477047704770477047BF
:1009800070B5044600F0FEF80546601C02D004482D
:100990000078044400F0F6F8401BA042FAD370BD82
:1009A0000C0000202DE9F84F00224FF0010803252C
:1009B0004FF00F0E0B6808FA02F42340A3426ED1E9
:1009C0004E68012E05D0022E03D0112E01D0122E1A
:1009D00012D186684FEA420C05FA0CF7BE43CF6885
:1009E00007FA0CF7374387604668A6430C79C4F3CF
:1009F0000014944034434460C668570005FA07FC6D
:100A00008C6826EA0C06BC403443C4604C68022C57
:100A100001D0122C13D1D40800EB8404A346D4F8DF
:100A2000209054074FEAD46A0EFA0AF629EA06091A
:100A30000E6906FA0AF646EA0906CBF82060046851
:100A40000E7924EA0C0406F00306BE402643066035
:100A50004C68E4006FD53B4C266846F4804626601F
:100A6000246822F0030604F480440094364C344495
:100A7000A446D4F808489607360F0EFA06F7BC438A
:100A8000324FB84201D100272EE0314FB84201D198
:100A9000012729E02F4FB84202D1022724E04AE083
:100AA0002D4FB84201D103271EE02C4FB84201D18F
:100AB000042719E02A4FB84201D1052714E0294F35
:100AC000B84201D106270FE0274FB84201D10727CE
:100AD0000AE0264FB84201D1082705E0244FB8426A
:100AE00001D1092700E00A27B7402743CCF808784E
:100AF000204E34684F689C43FF0300D51C4334608C
:100B00001C4E361D34684F689C43BF0300D51C4300
:100B10003460184E083634684F689C43FF0200D595
:100B20001C433460134E0C3634684F689C43BF023C
:100B300000D51C433460521C102AFFF43BAFBDE8C3
:100B4000F88F0000443802400030014000000240AD
:100B50000004024000080240000C02400010024065
:100B60000014024000180240001C02400020024015
:100B700000240240003C01400AB181617047090431
:100B8000FBE7000001488068704700000C0000206F
:100B90000248816802781144816070470C0000208F
:100BA0000B4810B5016841F400710160016841F41F
:100BB00080610160016841F480710160032000F0F0
:100BC0008DF8002000F006F800F03EF8002010BD7F
:100BD000003C024010B5014688B000221C2000F005
:100BE0005DF81C2000F04CF814480024016841F026
:100BF00001010160006805A900F001000690684647
:100C000000F018F900F036F90D494000B0FBF1F1A1
:100C10000C484FF08042491E026040F2E732C0E9C2
:100C20000324C0E9011400F05FFB10B1012008B0FB
:100C300010BD044800F088FBF9E70000403802408E
:100C400040420F00C80000200C4882B0016841F407
:100C500080410160006800F4804000900748001F58
:100C6000016841F0805101600068002200F080506E
:100C700000900F21901E02B000F010B844380240DE
:100C8000002809DB00F01F0201219140400980008B
:100C900000F1E020C0F8001170470000F0B40E4BE6
:100CA0001B680C46C3F30223C3F10705042D00D9CA
:100CB0000425191D072901D2002300E0DB1E0126AF
:100CC00006FA05F1491E214099409E40761E1640C5
:100CD0003143F0BC00F04ABE0CED00E0064900F0E4
:100CE000070208684FF6FF03184040EA0220034A53
:100CF00010430860704700000CED00E00000FA05AA
:100D00002DE9F0470E46050065D0DFF81481D8F8CC
:100D10000000F7B200F00F00B04207D288F8007070
:100D2000D8F8000000F00F00B04254D128683D4CC4
:100D3000810712D5400703D5206840F4E0502060B9
:100D40002878000703D5206840F4604020602068C0
:100D5000A96820F0F000084320602878C0072DD053
:100D6000304968680839012812D0022813D00328B6
:100D700011D00968890700292DDA216821F00301C3
:100D800001432160FFF7FEFE814641F2883A0EE002
:100D900009688903EFE709688901ECE7FFF7F2FECC
:100DA000A0EB0901514502D90320BDE8F087206876
:100DB000696800F00C00B0EB810FEFD1D8F800109B
:100DC000404601F00F01B14207D90770006800F0FA
:100DD0000F00B04201D00120E7E72878400705D591
:100DE0002068E96820F4E050084320602878000774
:100DF00006D52068296920F4604040EAC1002060DF
:100E000000F048F82168084AC1F30311515CC8405A
:100E10000649086006480068FFF7DCFE0020C4E7CA
:100E2000003C024008380240641B00080800002013
:100E3000100000200F2202600C4A136803F0030325
:100E40004360136803F0F0038360136803F4E05316
:100E5000C36012684FF4E05303EAD202026104480F
:100E6000006800F00F00086070470000083802407A
:100E7000003C02400448054900680968044AC1F37F
:100E80008221515CC84070470800002008380240A9
:100E9000741B0008154810B5006810F00C021448C7
:100EA00013D01449042A0FD0082A0ED10F4C241F46
:100EB0002268236802F03F025B0207D52068C0F376
:100EC0008810A0FB010106E0084610BD2168C1F3AF
:100ED0008811A1FB00010023FFF7E4F92168C1F3A9
:100EE0000141491C4900B0FBF1F010BD0838024037
:100EF0000024F400001BB7002DE9F84F04006ED069
:100F00002078DFF83C93C007A9F104054AD009F125
:100F100004000168C1F38101012908D00068C0F311
:100F2000810002280AD1D9F80000400206D52868BD
:100F3000800337D560680028E1D033E06068B0F501
:100F4000803F10D0B0F5A02F286810D020F480305A
:100F50002860286820F4802028606068A8B1FFF726
:100F600011FE06460DE0286840F48030F4E740F4B6
:100F700080202860F7E700BFFFF704FE801B64288D
:100F800073D828688003F7D50CE0FFF7FBFD064611
:100F900005E000BFFFF7F6FD801B6428F0D8286845
:100FA0008003F7D42078DFF89C8280074FF0000A96
:100FB0003ED5A348001D016811F00C0F08D0006851
:100FC000C0F3810002280BD1D9F80000400207D4F9
:100FD0002868800716D5E068012800D112E02BE1CF
:100FE000E068B8B10120C8F80000FFF7CBFD064665
:100FF00005E000BFFFF7C6FD801B0228C0D82868A7
:101000008007F7D52868216920F0F80040EAC10080
:1010100028600DE0C8F800A0FFF7B4FD064604E024
:10102000FFF7B0FD801B02281FD828688007F7D47F
:101030002078000722D5824E83486169703671B1ED
:1010400001210160FFF79EFD074604E0FFF79AFDCE
:10105000C01B022809D830688007F7D50EE0C0F819
:1010600000A0FFF78FFD074605E082E0FFF78AFD4D
:10107000C01B02287DD830688007F7D4207840074D
:1010800068D5DFF8BCB100270BF13C0BDBF80000A2
:10109000C0000BD4DBF8001041F08051CBF80010F9
:1010A000DBF80000012700F080500090674E3068A8
:1010B000C00510D4306840F480703060FFF762FDE6
:1010C000009005E0FFF75EFD0099401A022850D815
:1010D0003068C005F6D55A4EA0686C3601280FD08E
:1010E0000528306810D020F001003060306820F012
:1010F00004003060A068B8B1FFF744FD00900FE035
:10110000306840F00100F4E740F004003060F7E799
:10111000FFF738FD0099411A41F28830814266D8C4
:1011200030688007F4D50EE0FFF72CFD009007E053
:10113000FFF728FD0099411A41F28830814256D8C4
:1011400030688007F4D42FB1DBF8001021F0805113
:10115000CBF80010A069C8B33949091D0968C1F36B
:10116000810102294AD00228504607D0C8F8600001
:1011700000E03CE0FFF706FD04463BE04746C8F8C8
:101180006000FFF7FFFC064605E000BFFFF7FAFC32
:10119000801B02282BD828688001F7D4D4E90701E6
:1011A0000843A16A2A4A490802EB0141626A41EAFE
:1011B0008211084394F82C1040EA0161C9F800102C
:1011C00001203866FFF7DEFC044606E036E000BF8B
:1011D000FFF7D8FC001B022809D828688001F7D542
:1011E0002CE000BFFFF7CEFC001B022802D9032031
:1011F000BDE8F88F28688001F4D41FE00128F7D0FB
:10120000D9F80000E26900F48001914214D1226A09
:1012100000F03F0191420FD147F6C071626A014070
:10122000914209D1A26A00F44031914204D1E16AAD
:1012300000F07060884201D00120D9E70020D7E794
:101240000438024000004742800E474200700040D0
:101250000000FFFF7047704770B590F83C20012AEE
:1012600032D0012480F83C40022280F83D200368FF
:101270005A689D6822F070060A6832435A60134B20
:1012800002689A4214D0B2F1804F11D0104B9A42AA
:101290000ED0104B9A420BD00F4B9A4208D00F4BF6
:1012A0009A4205D00E4B9A4202D00E4B9A4204D17C
:1012B000496825F080031943916080F83D40002182
:1012C00080F83C10084670BD022070BD000001404F
:1012D0000004004000080040000C004000040140F1
:1012E000004001400018004010B5040003D094F8FD
:1012F0003D0010B107E0012010BD002084F83C0043
:10130000204600F00DF8022084F83D00211D2068E1
:1013100000F092FA012084F83D00002010BD00008A
:1013200008B500680649884208D10648016841F0BE
:1013300001010160006800F00100009008BD00009C
:1013400000000140443802400168CA6842F00102CE
:10135000CA600068816801F00701062903D00168AE
:1013600041F0010101600020704770B5044690F81B
:101370003C00012817D0012584F83C50022084F855
:101380003D002068826822F0770222F47F4282606A
:101390000868502830D00DDC20284DD005DC98B3EB
:1013A00010283BD148E0022070BD302844D04028AE
:1013B00034D139E0602828D0702806D0B0F5805F9D
:1013C0002CD0B0F5005F29D10AE0CB68D1E901212A
:1013D000206800F095FA2068816841F0770109E003
:1013E000CB68D1E90121206800F08AFA2068816881
:1013F00041F48041816011E0CA684968206800F0CA
:1014000091FA5021206807E016E0CA684968206810
:1014100000F099FA6021206800F07CFA84F83D50D1
:10142000002084F83C0070BDCA684968206800F05C
:1014300079FA40212068EFE7226801461046EBE781
:10144000704770B50446006801694FF00005C94354
:10145000890715D4C168C943890711D4E91E016100
:1014600001202077206880698007204602D0FFF79E
:10147000E7FF04E000F098F8204600F096F82577A2
:1014800020680169C943490717D4C168C94349079E
:1014900013D46FF004010161022020772068806975
:1014A00010F4407F204602D0FFF7CAFF04E000F0AE
:1014B0007BF8204600F079F8257720680169C94358
:1014C000090716D4C168C943090712D46FF008018F
:1014D0000161042020772068C0698007204602D07F
:1014E000FFF7AEFF04E000F05FF8204600F05DF883
:1014F000257720680169C943C90617D4C168C94363
:10150000C90613D46FF0100101610820207720680C
:10151000C06910F4407F204602D0FFF791FF04E03D
:1015200000F042F8204600F040F825772068016975
:10153000C943C90708D1C168C943C90704D1891E75
:101540000161204600F032F820680169C9430906AC
:1015500009D4C168C943090605D46FF0800101614F
:101560002046FFF777FE20680169C943490609D480
:10157000C168C943490605D46FF0400101612046A6
:1015800000F01BF820680169C94389060BD4C168C3
:10159000C943890607D46FF0200101612046BDE8E8
:1015A0007040FFF758BE70BD704770470068B0F1DB
:1015B000804F01D1FFF7ECBA70477047FEE700009B
:1015C0000F4810B50D4901600321416000214FF41F
:1015D00000228160C0E903124FF44012426101769B
:1015E00041768176C17601774177FFF7C8F8002808
:1015F00003D0BDE81040FEF7EABE10BD0064004015
:10160000600000202DE9F04186B014216846FEF705
:1016100081FE27480024016841F002010160016851
:1016200001F002010591016841F0010101600168CA
:1016300001F001010591016841F0080101600168B4
:1016400001F008010591016841F080010160016825
:1016500001F080010591016841F0200101600068FE
:10166000144F00F02000059001223C213846FFF77E
:1016700083FADFF844804FF480460022314640462A
:10168000FFF77AFA3C2000900125CDE90154694624
:1016900038460394FFF786F90096CDE90154694670
:1016A00040460394FFF77EF906B0BDE8F0810000E4
:1016B00030380240001C02400014024010B586B0D1
:1016C000002417480094019402940394049413494D
:1016D0000594C0E900144FF6FF71C0E902410461AE
:1016E00044618461FFF700FE08B1FEF770FE4FF41D
:1016F0008050009069460A48FFF737FE08B1FEF7B0
:1017000066FE049404A906480594FFF7A5FD002889
:1017100001D0FEF75CFE06B010BD000000000140E5
:1017200088000020FEE7704710B5502080F3118834
:10173000BFF34F8FBFF36F8F00F0B0F918B10449BA
:101740004FF080500860002080F3118810BD000029
:1017500004ED00E030B593B030216846FEF7DAFDC5
:1017600014210CA8FEF7D6FD19480025016841F0A8
:1017700080510160006800F08050119015480168A8
:1017800041F4404101600068022400F4404011909F
:1017900001200090000401908001CDE90640062060
:1017A0000890A820CDE9090404200B906846FFF7B3
:1017B000A3FB0CA90F2081E831004FF4A0500F903B
:1017C000E002109005210CA8FFF79AFA13B030BD83
:1017D00040380240007000401048016841F4700138
:1017E00001600F48016841F0010101600C4A0021CD
:1017F0000832116002680B4B1A400260031D0A4A4E
:101800001A60026822F48022026005480C300160F0
:1018100002495806803908607047000088ED00E0F2
:1018200000380240FFFFF6FE103000240148FFF7A9
:1018300008BE0000C8000020F0B50268254C264D07
:10184000264E274F274B4FF0804CA04209D06045D1
:1018500007D0A84205D0B04203D0B84201D0984288
:1018600004D122F0700E4A6842EA0E02A0421BD058
:10187000604519D0A84217D0B04215D0B84213D055
:10188000984211D0184DA8420ED0184DA8420BD046
:10189000174DA84208D0174DA84205D0164DA842B2
:1018A00002D0164DA84203D122F44075CA682A43DB
:1018B0004D6922F080022A4302608A68C2620A6887
:1018C0008262A04201D0984201D1096901630121DD
:1018D0004161F0BD000001400004004000080040EC
:1018E000000C004000040140004001400044014061
:1018F0000048014000180040001C0040002000404B
:1019000010B5846842EA032224F47F440A43224348
:10191000826010BD826822F070020A4342F0070123
:101920008160704710B5036A046A24F00104046200
:10193000846924F0F00444EA021423F00A020A4302
:101940008461026210BD10B5036A23F010030362C4
:101950008369046A23F4704343EA023224F0A0034B
:1019600043EA01118261016210BDFEE70907090E19
:10197000002804DB00F1E02080F80014704700F03C
:101980000F0000F1E02080F8141D704702E008C845
:10199000121F08C1002AFAD170477047002001E0E9
:1019A00001C1121F002AFBD170470000FFF7F8F8B1
:1019B000FFF7D0FEFFF726FEFFF702FEFFF77EFEE1
:1019C0004FF40074044A21460448FEF7EDFC05205C
:1019D000FEF7D6FFF6E700000000002060000020C0
:1019E00006484168096829B14168C968C9684968F9
:1019F000016370474FF0FF31FAE700001800002044
:101A0000D0E9013201699A60D0E901235A604A683D
:101A1000824201D182684A60002202610868401E49
:101A200008600868704742684A6093688B609368F2
:101A30005960916008610168491C016070470000AD
:101A40001448816B11B1012141627047002141624C
:101A50008169B1FA81F1C1F11F0101EB81020E49E7
:101A600051F822306BB101EB820101F108034A68A1
:101A700052684A609A4201D152684A60D168016056
:101A80007047502080F31188BFF34F8FBFF36F8FE3
:101A9000FEE7000018000020080100202DE9F041B9
:101AA0002E4C0027A06B40B1206A401C2062606A67
:101AB00000B101273846BDE8F0816669761C666191
:101AC00013D16068006838B1502080F31188BFF3EB
:101AD0004F8FBFF36F8FFEE76068A1686160A06001
:101AE000A06A401CA062FFF77BFF206BDFF87080CC
:101AF000864209D36068006880B16068C068C568C4
:101B0000686886420DD220632068C06A00EB8001BD
:101B100058F821000128CAD90127C8E74FF0FF3043
:101B2000F1E7281DFFF76CFFA86A18B105F118004E
:101B3000FFF766FFE86A0121A26981401143A161B4
:101B400000EB800108EB8100291DFFF76CFFE86ABC
:101B50002168C96A8842CDD30127CBE7180000204D
:101B60000801002000000000000000000102030442
:101B70000607080900000000010203049C1B00087E
:101B800000000020540000008C190008F01B000821
:101B900054000020A40500009C190008000000006B
:101BA000000000000024F40001000000100000000C
:101BB0000000000000000000000000000000000025
:101BC0000000000000000000000000000000000015
:101BD0000000000000000000000000000000000005
:101BE00000000000000000000000000000000000F5
:04000005080001AD41
:00000001FF
